:100000000C94DB000C9404010C9404010C94040186
:100010000C9404010C9404010C9450090C940401F8
:100020000C9404010C9404010C9404010C940F0F23
:100030000C9404010C9404010C946F0E0C940401B4
:100040000C9404010C9404010C9404010C9404011C
:100050000C9404010C9404010C9404010C94310FD1
:100060000C9404010C940401B609320A8A0981092E
:100070008709140A090A9410710F710F91109D10CD
:100080008D10A410A010A810601032100763423623
:10009000B79BD8A71A39685618AEBAAB558C1D3C19
:1000A000B7CC5763BD6DEDFD753EF6177231BF00DD
:1000B0000000803F6E616E00696E660000407A103D
:1000C000F35A00A0724E18090010A5D4E80000E809
:1000D0007648170000E40B54020000CA9A3B000067
:1000E00000E1F505000080969800000040420F00F6
:1000F0000000A08601000000102700000000E803B7
:10010000000000006400000000000A000000000081
:100110000100000000002C76D888DC674F0823DF40
:10012000C1DFAE59E1B1B796E5E3E453C63AE65113
:10013000997696E8E6C28426EB898C9B62ED407C3A
:100140006FFCEFBC9C9F40F2BAA56FA5F490055AD6
:100150002AF75C936B6CF9676DC11BFCE0E40D47FB
:10016000FEF520E6B500D0ED902E0300943577051E
:100170000080841E080000204E0A000000C80C33D6
:100180003333330F986E12831141EF8D2114893B65
:10019000E65516CFFEE6DB18D1844B381BF77C1DE5
:1001A000901DA4BBE424203284725E228100C9F138
:1001B00024ECA1E53D2711241FBECFEFD8E0DEBF20
:1001C000CDBF14BE0FB6F894A895809160008861E9
:1001D00080936000109260000FBE11E0A0E0B1E0DB
:1001E000EAEBF6E302C005900D92AE30B107D9F705
:1001F00023E0AEE0B1E001C01D92A43BB207E1F7FD
:100200000E9456150C945B1B0C940000E0910001B9
:10021000F0910101E658FE4F81E080830895CF936D
:10022000DF93FC01C0910001D0910101DE01A654D1
:10023000BF4F81E08C93AE54BF4F9CE001900D9274
:100240009A95E1F7CB010E94B00BC858DE4F888326
:10025000DF91CF9108958091AF039091B003892BE6
:1002600069F08091000190910101FC01E758FE4F77
:100270002081222351F0805A9E4F089580910001E1
:1002800090910101805A9E4F089580E090E008957A
:10029000CF92DF92EF92FF920F931F93CF93DF9352
:1002A000C0910001D0910101FE01E85CFD4F808109
:1002B0008111FCC000E010E06BEAF62E0E94290BD1
:1002C000C00FD11FC558DE4F8F9D912D11249695DB
:1002D000292F220F920F891B88830F5F1F4FC09118
:1002E0000001D09101010430110541F7FE01E85CE5
:1002F000FD4F81E08083FE01E558FE4F608170E094
:1003000080E090E00E94491720E030E0A9010E94BF
:10031000F4150E941117072E000C880B990B0E94F0
:1003200049176B017C01FE01E458FE4F8081682F64
:1003300070E080E090E00E94491720E030E040E467
:1003400050E40E9496189B01AC01C701B6010E94BF
:10035000F4150E941117072E000C880B990B0E94B0
:1003600049176B017C01FE01E358FE4F8081682F25
:1003700070E080E090E00E94491720E030E040E12A
:1003800051E40E9496189B01AC01C701B6010E947E
:10039000F4150E941117072E000C880B990B0E9470
:1003A00049176B017C01C258DE4F8881682F70E0CD
:1003B00080E090E00E94491720E030E048ED51E4F1
:1003C0000E9496189B01AC01C701B6010E94F4156A
:1003D0000E941117862F0E94EB0EC0910001D09150
:1003E00001018091790390917A03A0917B03B091F0
:1003F0007C03FE01EC5CFD4F80839183A283B38379
:10040000E55BF10910823697108270971082399758
:100410008091AF0380837B963081319680813296C4
:1004200020817D974AE0849FC001112444E6349FD7
:10043000800D911D1124DE01A358BE4F3C91830F06
:10044000911D8083319634E6239FC001112480835F
:100450000E94DF0A8F3F4FEF940731F40E94DF0ABA
:100460008F3F2FEF9207D1F3FE01E859FE4F8083B3
:10047000C0910001D0910101CE01805A9E4F0E948F
:100480003B11C659DE4F99838883E0910001F091BA
:100490000101E758FE4F81E08083DF91CF911F91EA
:1004A0000F91FF90EF90DF90CF900895FE01E158FB
:1004B000FE4F8081811113C0E654FF4F81E080839D
:1004C0008091790390917A03A0917B03B0917C0392
:1004D000CC5CDD4F88839983AA83BB83DECF0E94E7
:1004E000290BE0910001F0910101DF01A158BE4FFD
:1004F0006C910E947315892F90E014979C01220F34
:10050000331F820F931F880F991F8E0F9F1FEC01BF
:10051000C058DE4F28812C931196219628812C9368
:100520001196219628812C93E258FE4FDC01AD579D
:10053000BE4F8C9180830E94290B682F70E080E071
:1005400090E00E94471720E030E040E85BE30E9423
:1005500096182DEC3CEC4CEC5DE30E94601687FD98
:1005600005C0C0910001D0910101C5CE0E94290BA8
:100570008295869586958370082F10E00E94290B3E
:10058000C0910001D09101010C0F1D1FF801E55829
:10059000FE4F2081881F8827881F90E00196820FD8
:1005A000911D63E070E00E947F158083A4CECF93FD
:1005B000DF93C0910001D0910101FE01E759FE4F88
:1005C0001082CE01805A9E4F2091AF03DC012C9304
:1005D000319710820E943B11C659DE4F9983888360
:1005E000E0910001F0910101DF01A654BF4F1C9280
:1005F000A154BF4F81E08C9311961C92A45CB10969
:100600001D921D921D921C9213971082AD57BE4FE2
:100610001C9211971C9214971D921D921D921C9270
:10062000139716968FEF8C9311968C9311961D92BB
:100630001D921D921C921397149684EF91E01196CF
:100640009C938E93A558B14080EAED0119928A954A
:10065000E9F7A056BF4F1C92169688E0ED0119925B
:100660008A95E9F7E558FE4F8BE0DF011D928A95E8
:10067000E9F70E9448010E94CF0A6091B20380917D
:10068000B1030E94CA0AE0910001F0910101E45A0D
:10069000FE4F1082118212821382DF91CF91089552
:1006A0000E94DF0A8F3F2FEF9207D1F308954F92F8
:1006B0005F926F927F928F929F92AF92BF92CF92F2
:1006C000DF92EF92FF92CF93DF93C0910001D09120
:1006D0000101FE01E558FE4F608170E06150710933
:1006E000072E000C880B990B0E9449176B017C01A7
:1006F000C358DE4F888190E00197BC01990F880BA9
:10070000990B0E9449174B015C010E94DF0A8F3F41
:100710002FEF9207D1F3BC0180E090E00E944717D1
:100720009B01AC01C501B4010E9496189B01AC016C
:10073000C701B6010E94F4156B017C01C091000154
:10074000D0910101FE01E458FE4F608170E06150DC
:100750007109072E000C880B990B0E9449174B0159
:100760005C01C258DE4F688170E061507109072E4C
:10077000000C880B990B0E9449172B013C010E9429
:10078000DF0AEC01CF3F8FEFD80729F40E94DF0A80
:10079000EC010196D9F3C701B60190580E94DF160B
:1007A0006B017C01BE0180E090E00E9447179B0135
:1007B000AC01C301B2010E9496189B01AC01C501B6
:1007C000B4010E94F41590580E94DF164B015C01A1
:1007D000C091B303D0E02F9720E030E040E85FE322
:1007E000C701B6010E94F4159B01AC0160E070E006
:1007F00080E89FE30E94651620E030E040E751E486
:100800000E94961820E030E040E05FE30E94F4157B
:100810000E9411177E01E60EF71EC0900001D090D5
:100820000101C0919F03D0E02F9720E030E040E825
:100830005FE3C501B4010E94F4159B01AC0160E0C7
:1008400070E080E89FE30E94651620E030E040E71A
:1008500051E40E94961820E030E040E05FE30E94FF
:10086000F4150E9411176C0F7D1FF601EE5BFD4F12
:1008700060833196E0828E2DDF91CF91FF90EF90D3
:10088000DF90CF90BF90AF909F908F907F906F90B0
:100890005F904F900C94CA0A8F929F92AF92BF9232
:1008A000CF92DF92EF92FF92CF93DF9320910001DE
:1008B00030910101F9018081882309F442C0A90126
:1008C00066E0869F400D511D1124CA010597A901BC
:1008D0004550510976E06FEFC0907903D0907A03CC
:1008E000E0907B03F0907C03FC0182809380A480E5
:1008F000B580C818D908EA08FB08F1E2CF16D10480
:10090000E104F104D0F0F901F080CF2DD0E021977F
:10091000FE01EE0FFF1FCE0FDF1FCC0FDD1FC20F3A
:10092000D31FFE013196DC01E72E01900D92EA946F
:10093000E1F76A83FA94F901F08206978417950724
:1009400059F6DF91CF91FF90EF90DF90CF90BF905D
:10095000AF909F908F900895809100019091010138
:10096000FC01E65CFD4FDC01A858BE4F2C912083B2
:100970004091790350917A0360917B0370917C03DD
:1009800032964083518362837383E258F140108230
:100990000895FF920F931F93CF93DF93A0910001CF
:1009A000B0910101FD01E459FE4FF0804F2D50E060
:1009B0004115510509F49FC0DC916D2F70E0EA5696
:1009C000F14020E030E002C02F5F3F4F6217730715
:1009D00009F4AFC0808190E0369684179507A1F79F
:1009E000F901EE0FFF1FE20FF31FEE0FFF1FEA0FDB
:1009F000FB1FF2820091790310917A0320917B030F
:100A000030917C030383148325833683CD0188587A
:100A10009E4FEC01888181834336510509F465C0FE
:100A2000FD01EC58FE4F80818F3F09F45EC08D01BF
:100A300001581E4FF801D0816D2F70E0359620E0EF
:100A400030E002C02F5F3F4F2617370709F479C007
:100A5000808190E0369684179507A1F7C901880F29
:100A6000991F280F391F220F331F2A0F3B1FF9012F
:100A7000EC57FE4FF082FD01E359FE4F808199E271
:100A8000899F412D112442954F70E901C058DE4FD6
:100A900048835CE9459F800D11244DEC849F412DD6
:100AA0001124469546954695219648836AE0469FCF
:100AB000801911248083F901EE57FE4F8083FD01D8
:100AC000E259FE4F4081499F812D112482958F70FC
:100AD00022968883859F400D11244083F901EB57AE
:100AE000FE4F1082A654BF4F1C92DF91CF911F91F1
:100AF0000F91FF900895FD01E65CFD4FED01C85890
:100B0000DE4F888180834091790350917A03609110
:100B10007B0370917C03329640835183628373839D
:100B2000A654BF4F1C92DF91CF911F910F91FF9060
:100B30000895DE3118F4DF5FDC9352CF2150310984
:100B40004FCFDE3120F4DF5FF801D08387CF215013
:100B5000310984CF8F929F92AF92BF92CF92DF9252
:100B6000EF92FF92CF93DF9320910001309101012A
:100B70004091790350917A0360917B0370917C03DB
:100B8000E901C45ADE4F88819981AA81BB81809690
:100B9000A11DB11DF901F08084179507A607B707BD
:100BA00008F40CC1FF2009F441C0C90146E0F49EDD
:100BB000800D911D11240597A9014550510976E03A
:100BC0006FEFC0907903D0907A03E0907B03F090B0
:100BD0007C03FC0182809380A480B580C818D9086A
:100BE000EA08FB08F1E2CF16D104E104F104D0F0E9
:100BF000F901F080CF2DD0E02197FE01EE0FFF1F0D
:100C0000CE0FDF1FCC0FDD1FC20FD31FFE013196A9
:100C1000DC01E72E01900D92EA94E1F76A83FA94E1
:100C2000F901F08206978417950759F6F901E758FC
:100C3000FE4F10820E94DF0AAC01019629F40E9447
:100C4000DF0AAC010196D9F3C0910001D0910101F6
:100C5000FE01E859FE4F9A0136952795369527955E
:100C6000ABE7B4E10E9499159695879564E6689F75
:100C70009001699F300D1124421B530B4083DE010C
:100C8000A959BE4F8C93AE52BF4F8C91882311F05F
:100C90008FEF8083CE01805A9E4F0E943B11C65930
:100CA000DE4F998388838091000190910101FC01BE
:100CB000E758FE4F21E02083EF5BF10920812130CE
:100CC00009F4D8C04091790350917A0360917B0375
:100CD00070917C03C0907903D0907A03E0907B03FD
:100CE000F0907C03FC01EC5CFD4F408151816281FE
:100CF00073814058584F6F4F7F4F4C155D056E05FF
:100D00007F0508F451C0C0907903D0907A03E09039
:100D10007B03F0907C03FC01EA54FF4F408151813A
:100D200062817381405E5F4F6F4F7F4F4C155D0551
:100D30006E057F0570F54091790350917A036091BB
:100D40007B0370917C034083518362837383ED57EF
:100D5000FE4F808181110CC0DF91CF91FF90EF9009
:100D6000DF90CF90BF90AF909F908F900C945703DF
:100D700080E00E94EB0E60E080E0DF91CF91FF9079
:100D8000EF90DF90CF90BF90AF909F908F900C949A
:100D9000CA0ADF91CF91FF90EF90DF90CF90BF9084
:100DA000AF909F908F9008958FE30E94EB0E0E946A
:100DB00048018091000190910101A5CFFF20B9F079
:100DC00082818336E9F1C9010896B901F6E0FF9EF8
:100DD000600D711D11246E5F7F4F06C00696FC01E9
:100DE00036974081433661F186179707B9F7690155
:100DF00045EAC41A4EEFD40AF6014081842F90E0F0
:100E0000F90154E0459FE00DF11D1124E554FF4F19
:100E10001082118212821382019668E270E00E94B1
:100E20007F15F60180838091790390917A03A091D8
:100E30007B03B0917C0388839983AA83BB83B2CE62
:100E40006901F5EACF1AFEEFDF0AF6014081842F2F
:100E500090E0F90154E0459FE00DF11D1124E554A7
:100E6000FF4F41E050E060E070E0408351836283D7
:100E70007383D2CF0E94C904809100019091010137
:100E800021CFCF93DF93E0910001F0910101E7586A
:100E9000FE4F10820E94DF0AAC014F3F8FEF5807D0
:100EA000C9F3C0910001D0910101FE01E859FE4F44
:100EB0009A013695279536952795ABE7B4E10E94C0
:100EC00099159695879564E6689F9001699F300D06
:100ED0001124421B530B4083DE01A959BE4F8C9352
:100EE000AE52BF4F8C91882311F08FEF8083CE01DB
:100EF000805A9E4F0E943B11C659DE4F99838883CA
:100F0000E0910001F0910101E758FE4F81E08083FC
:100F1000DF91CF910895A0910001B09101012C9132
:100F20002223C9F012968C911297833669F1CD0174
:100F30000896AD0136E0239F400D511D11244E5FF0
:100F40005F4F06C00696FC01369720812336E1F0FC
:100F500084179507B9F7FD01E55AFE4F2081822FCE
:100F600090E034E0239FA00DB11D1124A554BF4F84
:100F70001D921D921D921C921397019668E270E0DB
:100F80000E947F1580830895FD01E55AFE4F208160
:100F9000822F90E034E0239FA00DB11D1124A554B1
:100FA000BF4F41E050E060E070E04D935D936D9382
:100FB0007C931397019668E270E00E947F1580830E
:100FC0000895CF93DF93C0910001D0910101FE01FC
:100FD000E758FE4F10827097108239978091AF03C7
:100FE00080837B96308131968081329620817D97F7
:100FF0004AE0849FC001112444E6349F800D911D76
:101000001124DE01A358BE4F3C91830F911D8083B4
:10101000319634E6239FC001112480830E94DF0AA9
:101020008F3F4FEF940731F40E94DF0A8F3F2FEF7D
:101030009207D1F3C859DE4F8883C0910001D09147
:101040000101CE01805A9E4F0E943B11C659DE4FCE
:1010500099838883E0910001F0910101E758FE4FE8
:1010600081E08083DF91CF9108950E94DF0A8F3F56
:101070002FEF9207D1F308952091000130910101E3
:101080004091790350917A0360917B0370917C03C6
:10109000F901E45CFD4F80819181A281B38180964A
:1010A000A11DB11D84179507A607B70710F48FEF90
:1010B000089532978081089520E030E040E05FE3BA
:1010C0000E94F4150E941117CB010895089580E045
:1010D00090E008950895DF92EF92FF920F931F938F
:1010E000CF93DF93F89414B817B81AB815B818B896
:1010F0001BB8529A5A9A14BC85E085BD8FEF87BD04
:1011000082E080936E0010928000109281002FE8A0
:101110003BE0309389002093880080936F005398C0
:10112000239891EA9093B0008093B1001092B4009C
:101130001092B3008BE080BF83E080937F0086E055
:1011400080937C0083E880937A0080917A008064A9
:1011500080937A0080917A0086FDFCCF10927C000B
:1011600083EA80937A0081E080937B0081E090E0C5
:101170000E94F11A8F3F11F08093660010927D0358
:10118000C1E0C0935603C0939A0310927403109267
:10119000AE0380E990E00E94F11A8093730380917E
:1011A0007303887311F0C093730310929E0310921F
:1011B0009D038FEF90E090939C0380939B0310928C
:1011C000790310927A0310927B0310927C0381E0E2
:1011D0008093110182E49FE09093AD038093AC0370
:1011E00080EB90E00E94F11AC82F81EB90E00E9402
:1011F000F11A2C2F30E0382B3093B0032093AF033B
:1012000085E090E00E94F11A8093B30389E090E0BA
:101210000E94F11A80939F038CE090E00E94F11AE3
:101220008093B10384E190E00E94F11A8093B203AD
:101230005EE7E52E53E0F52E07E513E0C0E2D0E0CF
:10124000CE010E94F11AD82ECE0101960E94F11A09
:101250002D2D30E0322F2227282BF70121933193B7
:101260007F01CE01C0960E94F11AD82ECE01C19600
:101270000E94F11A2D2D30E0322F2227282BF80161
:10128000219331938F012296CC33D105C9F67894FE
:10129000DF91CF911F910F91FF90EF90DF90089514
:1012A0001F920F920FB60F9211248F930FB6F894DE
:1012B000A895809160008861809360001092600022
:1012C0000FBE8F910F900FBE0F901F9018953C018D
:1012D000EB0110E099249A9484E0C82E96E0A92EA0
:1012E00023E8B22E38E1D32E49E2E42E9091110189
:1012F000E92FF0E0E730F105C8F7EC5CFF4F0C9404
:101300009315112309F4FCC0C092110111E0FE01F4
:101310000995ECCF80917D038111EBC0F894A092E8
:101320007C00B0927A0080917A00806480937A0089
:1013300090917A0096FDFCCF809178009091790091
:1013400078948B3AE2E09E070CF0EDC08938F2E029
:101350009F070CF0EFC0873692400CF4CAC0559A34
:10136000549A3B9A3A9A3D983C98C0CFF89480B7EB
:10137000877F80BF80917A008F7780937A0014B83E
:1013800017B81AB815B818B81BB80FB6F894A895BE
:10139000D09260000FBEE092600080916000806497
:1013A0008093600093B7917F946093BFF89483B764
:1013B000816083BF7894889583B78E7F83BF78944C
:1013C00010927D03529A5A9A80917A008068809395
:1013D0007A0087E592E00197F1F700C0000080B73E
:1013E000886180BF559A549A3B9A3A9A3D9A3C9AA2
:1013F000EFE1FEE43197F1F700C0000080917D033A
:10140000811181C0559854983B983A983D983C98E2
:101410006DCF80910F01811141C01092B3001092E5
:10142000B4001092100162CF4899ECCF559A5498AD
:101430003B983A983D983C988FEC97E00197F1F7EC
:1014400000C00000559854983B983A983D983C98B5
:101450009FEFE1EEF4E09150E040F040E1F700C092
:10146000000044CF559854983B9A3A9A3D983C983E
:10147000EFECF7E03197F1F700C000005598549871
:101480003B983A983D983C98FFEF21EE84E0F1506C
:1014900020408040E1F700C0000028CF90910F016C
:1014A00080911001981709F421CF80910F0180934A
:1014B000100180910F01813009F450C080910F011B
:1014C0001092B3009092B4008230D9F19092B300A0
:1014D0009092B4008FE295E70197F1F700C0000009
:1014E0008091B2039091B1039093B3008093B400C4
:1014F000FDCE559A549A3B983A983D983C98F6CE32
:10150000F301099501CF559A549A3B983A983D9822
:101510003C98FFEF20E782E0F15020408040E1F767
:1015200000C000006FCF559854983B9A3A9A3D9866
:101530003C98DCCE559854983B983A983D9A3C9A02
:10154000D5CEEFE2F5E73197F1F700C000008091CA
:101550009F031092B3008093B400C8CE9092B30062
:101560001092B4008FE295E70197F1F700C00000F8
:101570008091B3038093B3001092B400B7CE07C03C
:10158000EFECF7E03197F1F700C00000019700970A
:10159000B9F708958093B3006093B40008958FEF76
:1015A0008093B3008093B4008FE090E0EFECF7E01D
:1015B0003197F1F700C000000197C1F708958091BD
:1015C0007D0381111EC0F89487E080937C0083E83E
:1015D00080937A0080917A00806480937A00809171
:1015E0007A0086FDFCCF809178009091790010926E
:1015F0007C0023EA20937A0021E020937B007894FA
:1016000008958FEF9FEF089580917D0381111EC093
:10161000F89488EC80937C0087E880937A0080912E
:101620007A00806480937A0080917A0086FDFCCFF6
:10163000809178009091790010927C0023EA2093A9
:101640007A0021E020937B00789408958FEF9FEF3C
:1016500008950F931F93CF93DF93E0E0F0E080E0D5
:1016600003EA11E0D6E0C3E8A1E0B0E060E870E092
:10167000F894D0937C00C0937A0090917A009064A3
:1016800090937A0090917A0096FDFCCF209178009B
:1016900030917900217090917A00906490937A0053
:1016A00090917A0096FDFCCF40917800509179009E
:1016B00010927C0000937A0010937B007894417024
:1016C000241303C06150710999F6222339F09D015A
:1016D0000E2E01C0220F0A94EAF7822B3196E830D1
:1016E000F10509F0C3CFDF91CF911F910F910895BC
:1016F00080910201982F990F990F990F8927909146
:101700000E0121E0290F20930E01282F2295269506
:1017100027708227969596958927809302010895D0
:1017200080930201089580917D03811116C0F89481
:1017300086E080937C0083E880937A0080917A0031
:10174000806480937A0080917A0086FDFCCF80913E
:10175000780090917900789408958FEF9FEF089525
:101760002F923F924F925F926F927F928F929F92B1
:10177000AF92BF92CF92DF92EF92FF920F931F939F
:10178000CF93DF9300D000D000D0CDB7DEB71C01DF
:10179000DC0112960D90BC91A02DBE83AD83A438C0
:1017A000E3E0BE070CF0C9C0809157039091580345
:1017B0008A179B0708F437C10091590310915A0307
:1017C0000A171B0708F42FC200915B0310915C03FA
:1017D0000A171B0708F42FC200915D0310915E03E6
:1017E0000A171B0708F42FC200915F0310916003D2
:1017F0000A171B0708F42FC20091610310916203BE
:101800000A171B0708F4EFC10091630310916403EA
:101810000A171B0708F427C200916503109166039D
:101820000A171B0708F427C2009167031091680389
:101830000A171B0708F427C20091690310916A0375
:101840000A171B0708F427C200916B0310916C0361
:101850000A171B0708F427C200916D0310916E034D
:101860000A171B0708F423C200916F03109170033D
:101870000A171B0708F423C2009171031091720329
:101880000A171B0708F423C280E090E0A0EDB0E443
:1018900089839A83AB83BC834CE0E42EF12CF7015F
:1018A000EE0FFF1FE95AFC4F80819181B801681B40
:1018B000790B80E090E00E9447179B01AC010E94E9
:1018C000F4156B017C01AD81BE81BD01BB0F880B9E
:1018D000990B0E9449174B015C01B80180E090E030
:1018E0000E9447172B013C0129813A814B815C8181
:1018F000C701B6010E9496189B01AC01C301B20159
:101900000E94F3159B01AC01C501B4010E94F315BF
:1019100020E030E040E251E40E9496180E94111746
:101920008B01C701B6010E941117AB01BC01C801B0
:10193000BA010E947F15162F77C0DC01CD90DC9094
:1019400080917E0390917F038C159D0508F48CC0D7
:101950001FEFE0908003F0908103EC14FD0408F485
:101960005EC1E0908203F0908303EC14FD0408F460
:101970005EC1E0908403F0908503EC14FD0408F44C
:101980005EC1E0908603F0908703EC14FD0408F438
:101990005EC1E0908803F0908903EC14FD0408F424
:1019A000C3C0E0908A03F0908B03EC14FD0408F4AC
:1019B00056C1E0908C03F0908D03EC14FD0408F404
:1019C00056C1E0908E03F0908F03EC14FD0408F4F0
:1019D00056C1E0909003F0909103EC14FD0408F4DC
:1019E00056C1E0909203F0909303EC14FD0408F4C8
:1019F00056C1E0909403F0909503EC14FD0408F4B4
:101A00005AC1E0909603F0909703EC14FD0408F49B
:101A10005AC1E0909803F0909903EC14FD0408F487
:101A20005AC10AE531C010E0ED81FE81ED3BF24084
:101A3000FCF481E2810F26960FB6F894DEBF0FBE4C
:101A4000CDBFDF91CF911F910F91FF90EF90DF906D
:101A5000CF90BF90AF909F908F907F906F905F904E
:101A60004F903F902F90089500E081E2800FE3CFE8
:101A7000D101CD90DC9080917E0390917F038C15F5
:101A80009D0508F066CF00E01F3F79F3ED81FE81F0
:101A9000BF01FF0F880B990B0E9449176B017C0156
:101AA000612F70E080E090E00E9447174B015C01DD
:101AB000A701960160E070E081E694E40E94F315CE
:101AC0009B01AC01C501B4010E9496184B015C0159
:101AD000602F70E080E090E00E9447172B013C01EE
:101AE00020E030E04FE254E4C701B6010E94F31554
:101AF0009B01AC01C301B2010E9496189B01AC018D
:101B0000C501B4010E94F41520E030E048E453E43C
:101B10000E94651620E030E044E052E40E94F41593
:101B20000E941817862F87CF05E085E090E0880F88
:101B3000991FFC01E458FC4F80819181B701681B1B
:101B4000790B80E090E00E9447179B01AC010E9456
:101B5000F4154B015C01B601DD0C880B990B0E945A
:101B600049172B013C01B70180E090E00E94471724
:101B70006B017C01602F70E080E090E00E944717CD
:101B800020E030E040E05FE30E94961820E030E083
:101B9000A9010E94F415A50194010E9496189B01C9
:101BA000AC01C701B6010E94F3159B01AC01C30152
:101BB000B2010E94F31520E030E040E251E40E94BF
:101BC00096180E9411177B01C501B4010E941117DC
:101BD000AB01BC01C701BA010E947F15062F6F3F00
:101BE00009F052CF26CF65E085E090E07C01F1E07E
:101BF000EF1AF10870E080E090E00E94471720E0C3
:101C000030E040E05FE30E94961820E030E0A90158
:101C10000E94F41569837A838B839C8340CE01E014
:101C200081E090E084CF61E081E090E0DFCF02E0EE
:101C300082E090E07CCF62E082E090E0D7CF03E0EA
:101C400083E090E074CF63E083E090E0CFCF04E0E6
:101C500084E090E06CCF64E084E090E0C7CF06E0E1
:101C600086E090E064CF66E086E090E0BFCF07E0DA
:101C700087E090E05CCF67E087E090E0B7CF08E0D6
:101C800088E090E054CF68E088E090E0AFCF09E0D2
:101C900089E090E04CCF69E089E090E0A7CF0AE0CE
:101CA0008AE090E044CF6AE08AE090E09FCF6BE06A
:101CB0008BE090E09BCF0BE08BE090E038CF6CE0C6
:101CC0008CE090E093CF0CE08CE090E030CF6DE0C2
:101CD0008DE090E08BCF0DE08DE090E028CF1F925B
:101CE0000F920FB60F9211242F933F934F935F9350
:101CF0006F937F938F939F93AF93BF93EF93FF93D4
:101D000020919D0330919E0380919B0390919C03B1
:101D1000820F931F90939E0380939D038FEF90E01B
:101D200090939C0380939B038FEF87BD80917903F1
:101D300090917A03A0917B03B0917C030196A11D41
:101D4000B11D8093790390937A03A0937B03B093A2
:101D50007C0380917D0381110FC08091AC03909131
:101D6000AD0320919D0330919E038217930720F4C9
:101D700080911101843089F0FF91EF91BF91AF9173
:101D80009F918F917F916F915F914F913F912F9193
:101D90000F900FBE0F901F901895E0910501F091E4
:101DA00006010995009741F30E945711811109C05E
:101DB0000E945D19992790939C0380939B0387BD94
:101DC000DBCFE0910301F0910401099510929E038D
:101DD00010929D03D1CF80FF11C0559A81FF11C091
:101DE000549A82FF11C03B9A83FF11C03A9A84FF34
:101DF00011C03D9A85FD11C03C980895559881FD0C
:101E0000EFCF549882FDEFCF3B9883FDEFCF3A9808
:101E100084FDEFCF3D9885FFEFCF3C9A08951F9248
:101E20000F920FB60F9211248F939F9310928100FF
:101E3000109285001092840081E080935603809375
:101E40009A0310927D0310927C0093EA90937A009B
:101E500080937B009F918F910F900FBE0F901F90EA
:101E600018951F920F920FB60F9211242F933F9344
:101E70004F935F936F937F938F939F93AF93BF9392
:101E8000CF93DF93EF93FF932091840030918500EF
:101E900041E040937D03809156038823A9F110927D
:101EA000850010928400409381001092AE0310923E
:101EB000560380919A038823A1F080917A0086FDD1
:101EC000FCCF809178009091790090937803809373
:101ED000770381E080937C0093EA90937A0080936B
:101EE0007B00FF91EF91DF91CF91BF91AF919F91D7
:101EF0008F917F916F915F914F913F912F910F90B3
:101F00000FBE0F901F901895C9018758910984370B
:101F1000994008F052C026583109A4EFB0E00E9461
:101F20009915AA27BB2788309105A105B10508F4AA
:101F30007BC04093560380919A03811152C08091D7
:101F40007403E82FF0E0E056FC4F9091AE039083CD
:101F50008F5F809374038C3021F610928100109271
:101F600085001092840040939A0310927D03C091E3
:101F7000AA03D091AB0380EA93E00E943B11C817FB
:101F8000D90709F0AECF8091A90387FF61C098E718
:101F9000980F933030F0539823981092B400109219
:101FA000B30090E0FC01E058F109EB30F10508F0D6
:101FB00098CFE55CFF4F0C9493151092810010921E
:101FC0008500109284004093560340939A03109228
:101FD0007D0310927C0083EA80937A0040937B001B
:101FE00080CF80917A0086FDFCCF8091780090911F
:101FF0007900909376038093750310927C0083EAB6
:1020000080937A0081E080937B009091AE039923C6
:10201000D1F010928100109285001092840080937C
:102020009A0310927D035DCF21E030E0F90102C0F8
:10203000EE0FFF1F8A95E2F7CF019091AE03892B37
:102040008093AE034ECF10929A031092740349CF3F
:10205000E0910701F091080165E773E080EA93E001
:1020600009953FCF8091A003823009F4DDC008F4C8
:10207000BAC0833009F4C6C0843009F0B1C0809181
:102080000F019091A603833009F4E3C08091A5036A
:102090001092100123E020930F018093B1039093DD
:1020A000B20380911101863009F41BCF539A239A11
:1020B0001092B4001092B30086E08093110111CF0A
:1020C00080911101863099F0539A239A1092B400AE
:1020D0001092B300559854983B983A983D983C9884
:1020E00010920F011092100186E08093110181E09F
:1020F00090E09C010090A00302C0220F331F0A94BD
:10210000E2F78091AF039091B00382239323892B50
:1021100009F086C010920F01E4CE81E08093110196
:10212000E0CEE0E0F0E0099580916E008D7F809335
:102130006E0016BCE0E0F0E7099510921101D1CED7
:1021400082E080931101CDCE85E080931101C9CE4C
:1021500080911101833009F4C4CE80911101843043
:1021600009F4BFCE539A239A1092B4001092B30090
:1021700083E080931101B5CE80911101863009F082
:10218000B0CE6091AF0380EB90E00E94F91A6091AD
:10219000B00381EB90E00E94F91A6091B30385E0EF
:1021A00090E00E94F91A60919F0389E090E00E94FC
:1021B000F91A6091B1038CE090E00E94F91A6091E5
:1021C000B20384E190E00E94F91A53982398109288
:1021D000B4001092B30081E0809311018091A003BC
:1021E00081115FCF7ECE882339F28130C9F780918B
:1021F000A1039091A2039093B0038093AF03109238
:102200000F014FCF80910F01823071F18091A403B3
:102210001092100192E090930F0180939F0341CFA1
:1022200081E080930F015DCE80910F01813051F0EC
:102230008091A3031092100191E090930F0180937D
:10224000B3032FCF8091A3039091B3038913F2CFEF
:1022500028CF8091B203981319CF8091A5032091C4
:10226000B103821315CF1DCF8091A40390919F03DA
:102270008913CECF16CFFC01AC01465F5F4F8FEFC5
:102280009FEF21918227082E8295807F8025092E3D
:10229000982F82958F700826869598278927880F12
:1022A000880F880F8025E417F50759F708950FB6B2
:1022B000F894A4B1209173032A2B24B921E0309122
:1022C0007303203029F0000025B1232B25B904C069
:1022D00000000000000000C0000000000000309579
:1022E00025B1232325B92EEA2A95F1F72BEE30B735
:1022F00035FF0AC0A4B930917303309525B123236B
:1023000025B90FBE80E0089500002A9581F721E0ED
:1023100030917303203029F0000025B1232B25B91B
:1023200004C000000000000000C000000000000029
:10233000309525B1232325B9000024E52A95F1F72E
:10234000FC018CE0619170E0660F771F6160726044
:102350009AE041E050E09A0126233723232B309165
:102360007303203029F0000025B1232B25B904C0C8
:1023700000000000000000C00000000000003095D8
:1023800025B1232325B9000021E52A95F1F7440F53
:10239000551F9A9501F78A95A9F620B7206120BFAD
:1023A000A4B930917303309525B1232325B90FBE0D
:1023B00081E00895A3E1B0E0E0EEF1E10C94A8150E
:1023C0006C014B012A01FC0117821682838181FF77
:1023D00043C3AE014F5F5F4F3A01F6019381F401B1
:1023E00093FD859193FF81914F01882309F430C3B8
:1023F000853239F493FD859193FF81914F018532A8
:1024000039F4B60190E00E945B1A52012501E5CF34
:1024100010E0F12C20E02032A0F48B3269F030F48F
:10242000803259F0833269F420612CC08D3239F04A
:10243000803339F4216026C02260246023C02860E4
:1024400021C027FD27C030ED380F3A3078F426FF41
:1024500006C0FAE01F9F300D1124132F13C04AE06D
:10246000F49E300D1124F32E20620CC08E3221F424
:1024700026FDEEC2206406C08C3611F4206802C02E
:10248000883641F4F40193FD859193FF81914F01CA
:102490008111C1CF9BEB980F933018F42061805EBF
:1024A00006C09BE9980F933008F071C12F7E26FF7C
:1024B00016E02F73322E853619F42064322E08C0B0
:1024C000863621F4F22FF0683F2E02C01111115010
:1024D00037FE07C01C3350F4EE24E394E10E27E0EE
:1024E0000BC0183038F027E017E005C027E04CE3B8
:1024F000E42E02C0212FE12C520144E0A40EB11CB5
:10250000F20160817181828193810E2DA3010E946D
:102510006D192C01098100FF02C003FF07C031FCC7
:1025200008C032FE09C030E2232E07C02DE2222E61
:1025300004C09BE2292E01C0212C802F8C7019F041
:10254000211068C2A8C237FE0FC0E40C04FF04C00B
:102550008A81813309F4EA941E1474F5F8E0FE15BB
:1025600078F588E0E82E2CC036FC2AC0812F90E058
:10257000841595059CF02CEF42162FEF520674F04F
:10258000432D4068342E0AC0E2E0F0E0EC0FFD1F5E
:10259000E10FF11D8081803319F411501111F4CF36
:1025A00037FE0EC0EE24E394E10E812F90E0481632
:1025B00059062CF4141904C0EE24E39401C010E071
:1025C00037FE06C01414150434F4C201019605C088
:1025D00085E090E002C081E090E021100196112397
:1025E00031F0212F30E02F5F3F4F820F931F2F2DAF
:1025F00030E08217930714F4F81A01C0F12C832DF0
:10260000897049F4FF2039F0B60180E290E00E9421
:102610005B1AFA94F7CF222029F0B601822D90E0C0
:102620000E945B1A33FC09C0FF2039F0B60180E339
:1026300090E00E945B1AFA94F7CF37FE5AC0942DAF
:10264000852D57FE02C090E080E0292E382E20E034
:1026500030E0A2014E1951095D874C87A201421951
:1026600053095F874E87612F70E044275527461B2B
:10267000570B598B488B5FEF2516350649F4B60189
:102680008EE290E02A8B3B8B0E945B1A3B892A8961
:10269000421453046CF04C855D854215530544F497
:1026A000EE85FF85E20FF31FE60DF71D818101C066
:1026B00080E351E0251A31082F5F3F4F488959893F
:1026C000241635064CF0B60190E02A8B3B8B0E9415
:1026D0005B1A2A893B89CFCF2414350439F49A81B7
:1026E000963318F4953311F404FF81E3B60190E0BA
:1026F0004BC08A81813309F00F7EB60190E00E94C1
:102700005B1A111105C034FC18C085E690E017C0B3
:10271000B6018EE290E00E945B1A82E0EE24E39420
:10272000E80EF301E80FF11D8081B60190E00E94F0
:102730005B1A11508E2D91F7E6CF85E490E0B6013B
:102740000E945B1A57FC05C04114510439F404FF80
:1027500005C05194419451088DE201C08BE2B6014D
:1027600090E00E945B1A80E39AE0491651042CF035
:102770008F5F5AE0451A5108F7CFB60190E00E94EA
:102780005B1AB601C201C0960E945B1A57C183361C
:1027900031F0833779F0833509F058C021C05201F8
:1027A000E2E0AE0EB11CF2018081898301E010E00D
:1027B000230114C05201F2E0AF0EB11CF2014080BF
:1027C000518026FF03C0612F70E002C06FEF7FEFE2
:1027D000C2012A8B0E94501A8C012A892F7715C0BA
:1027E0005201F2E0AF0EB11CF2014080518026FF91
:1027F00003C0612F70E002C06FEF7FEFC2012A8B30
:102800000E94451A8C012A892068322E23FD1AC0A5
:102810008F2D90E008171907A8F4B60180E290E028
:102820000E945B1AFA94F4CFF20137FC859137FECF
:1028300081912F01B60190E00E945B1AF110FA9489
:10284000015011090115110579F7F8C0843611F00E
:10285000893659F5520127FF09C0F4E0AF0EB11CCB
:10286000F20160817181828193810AC0F2E0AF0E32
:10287000B11CF20160817181072E000C880B990B4D
:102880002F76322E97FF09C09095809570956195AF
:102890007F4F8F4F9F4F2068322E2AE030E0A301F8
:1028A0000E94931AE82EE6183FC0022F853721F4C4
:1028B0000F7E2AE030E01DC0097F8F3691F018F4BA
:1028C000883559F0C5C0803719F0883711F0C0C07D
:1028D000006104FF09C0046007C024FF08C006604F
:1028E00006C028E030E005C020E130E002C020E171
:1028F00032E0520107FF09C0F4E0AF0EB11CF20153
:10290000608171818281938108C0F2E0AF0EB11CB9
:10291000F2016081718180E090E0A3010E94931A2E
:10292000E82EE6180F77302E36FE0BC0332D3E7F93
:10293000E11650F434FE0AC032FC08C0332D3E7E4E
:1029400005C00E2D332D03C00E2D01C0012F34FF05
:102950000CC0FE01EE0DF11D8081803311F4397E33
:1029600008C032FF05C00E5F04C0832F867809F0CF
:102970000F5F33FD13C030FF06C01E2D0F1518F476
:102980001F0D101B0F2D0F1568F4B60180E290E0AB
:102990003B8B0E945B1A0F5F3B89F5CF0F1510F43C
:1029A000F01A01C0F12C34FF12C0B60180E390E0B0
:1029B0003B8B0E945B1A3B8932FF17C031FD03C07D
:1029C00088E790E002C088E590E0B6010CC0832F54
:1029D000867859F031FF02C08BE201C080E237FDFA
:1029E0008DE2B60190E00E945B1AE11638F4B60160
:1029F00080E390E00E945B1A1150F7CFEA94F30154
:102A0000EE0DF11D8081B60190E00E945B1AE1108D
:102A1000F5CF14C0F4E0FF1558F584E0F81A33FE42
:102A20001EC0211026C003FF2AC004EB10E0F32DC6
:102A3000F0713F2EF8018491811124C0FF2009F428
:102A4000E5CCB60180E290E00E945B1AFA94F6CFE2
:102A5000F6018681978126C08FEF9FEF23C0B601D4
:102A600080E290E00E945B1AFA94F110F8CFD9CF7F
:102A7000F12CB601822D90E00E945B1AD4CF08EBB6
:102A800010E0D5CF31108052B60190E00E945B1A61
:102A90000F5F1F4FCFCF23E02F1510F483E0BECF81
:102AA000F12CC1CF6396E2E10C94C4150E946B082F
:102AB0008FE091E090930801809307018BE291E011
:102AC000909306018093050186E091E090930401C4
:102AD000809303016AEA75E087ED92E00E9467093E
:102AE00080E090E00895991B79E004C0991F961743
:102AF00008F0961B881F7A95C9F78095089597FB73
:102B0000072E16F4009407D077FD09D00E94DF1538
:102B100007FC05D03EF4909581959F4F08957095E0
:102B200061957F4F0895EE0FFF1F0590F491E02D02
:102B30000994A29FB001B39FC001A39F700D811D96
:102B40001124911DB29F700D811D1124911D0895B6
:102B50002F923F924F925F926F927F928F929F92AD
:102B6000AF92BF92CF92DF92EF92FF920F931F939B
:102B7000CF93DF93CDB7DEB7CA1BDB0B0FB6F8944C
:102B8000DEBF0FBECDBF09942A88398848885F848C
:102B90006E847D848C849B84AA84B984C884DF80FD
:102BA000EE80FD800C811B81AA81B981CE0FD11DE1
:102BB0000FB6F894DEBF0FBECDBFED010895AA1B7E
:102BC000BB1B51E107C0AA1FBB1FA617B70710F018
:102BD000A61BB70B881F991F5A95A9F7809590954A
:102BE000BC01CD0108955058BB27AA270E940B169F
:102BF0000C94E6170E94D81738F00E94DF1720F0D7
:102C000039F49F3F19F426F40C94AE170EF4E095B6
:102C1000E7FB0C94A817E92F0E94F71758F3BA178F
:102C2000620773078407950720F079F4A6F50C94E2
:102C300019180EF4E0950B2EBA2FA02D0B01B90137
:102C400090010C01CA01A0011124FF27591B99F022
:102C5000593F50F4503E68F11A16F040A22F232F2E
:102C6000342F4427585FF3CF469537952795A7957E
:102C7000F0405395C9F77EF41F16BA0B620B730B25
:102C8000840BBAF09150A1F0FF0FBB1F661F771F96
:102C9000881FC2F70EC0BA0F621F731F841F48F44B
:102CA000879577956795B795F7959E3F08F0B0CFD4
:102CB0009395880F08F09927EE0F979587950895BB
:102CC0000E94841708F481E008950E9479160C94FC
:102CD000E6170E94DF1758F00E94D81740F029F439
:102CE0005F3F29F00C94A81751110C941A180C94FA
:102CF000AE170E94F71768F39923B1F3552391F3A8
:102D0000951B550BBB27AA2762177307840738F05A
:102D10009F5F5F4F220F331F441FAA1FA9F335D0B7
:102D20000E2E3AF0E0E832D091505040E695001C6B
:102D3000CAF72BD0FE2F29D0660F771F881FBB1F25
:102D4000261737074807AB07B0E809F0BB0B802D03
:102D5000BF01FF2793585F4F3AF09E3F510578F02F
:102D60000C94A8170C941A185F3FE4F3983ED4F320
:102D7000869577956795B795F7959F5FC9F7880F03
:102D8000911D9695879597F90895E1E0660F771F55
:102D9000881FBB1F621773078407BA0720F0621BE6
:102DA000730B840BBA0BEE1F88F7E095089529F496
:102DB00016F00C94A8170C9419180C94AE170E94D6
:102DC000FF17A8F39638A0F707F80F92E8942BE3C3
:102DD0003AEA48EB5FE70E94AC180F920F920F920D
:102DE0004DB75EB70F920E946218ECE8F0E00E94C7
:102DF000B1174F915F91EF91FF91E595EE1FFF1F86
:102E000049F0FE57E0684427EE0F441FFA95E1F7BA
:102E10004195550B0E942C180F9007FE0C9420181A
:102E200008950E9418176894B1110C941A18089507
:102E30000E94FF1788F09F5798F0B92F9927B75134
:102E4000B0F0E1F0660F771F881F991F1AF0BA954E
:102E5000C9F714C0B13091F00E941918B1E008957B
:102E60000C941918672F782F8827B85F39F0B93F6D
:102E7000CCF3869577956795B395D9F73EF4909501
:102E80008095709561957F4F8F4F9F4F0895E8947F
:102E900009C097FB3EF490958095709561957F4FA2
:102EA0008F4F9F4F9923A9F0F92F96E9BB27939550
:102EB000F695879577956795B795F111F8CFFAF460
:102EC000BB0F11F460FF1BC06F5F7F4F8F4F9F4F91
:102ED00016C0882311F096E911C0772321F09EE8EF
:102EE000872F762F05C0662371F096E8862F70E055
:102EF00060E02AF09A95660F771F881FDAF7880F2F
:102F00009695879597F90895990F0008550FAA0B84
:102F1000E0E8FEEF16161706E807F907C0F01216EC
:102F20001306E407F50798F0621B730B840B950BEF
:102F300039F40A2661F0232B242B252B21F4089544
:102F40000A2609F4A140A6958FEF811D811D0895E1
:102F500097F99F6780E870E060E008959FEF80EC4C
:102F60000895DF93CF931F930F93FF92EF92DF9219
:102F70007B018C01689406C0DA2EEF010E94A9182B
:102F8000FE01E894A5912591359145915591A6F3BF
:102F9000EF010E940B16FE019701A801DA9469F770
:102FA000DF90EF90FF900F911F91CF91DF910895E7
:102FB00000240A9416161706180609060895002418
:102FC0000A9412161306140605060895092E039492
:102FD000000C11F4882352F0BB0F40F4BF2B11F406
:102FE00060FF04C06F5F7F4F8F4F9F4F089557FD65
:102FF0009058440F551F59F05F3F71F04795880F67
:1030000097FB991F61F09F3F79F0879508951216FD
:1030100013061406551FF2CF4695F1DF08C01616A9
:1030200017061806991FF1CF86957105610508945A
:103030000895E894BB2766277727CB0197F9089571
:103040009B01AC0160E070E080E89FE30C946516A2
:103050000C94A8170C9403190E94FF17D8F3992316
:10306000C9F3940F511DA3F39150504094F059F0BF
:10307000882332F0660F771F881F91505040C1F7A8
:103080009E3F51052CF7880F911D9695879597F9CE
:1030900008955F3FACF0983E9CF0BB2786957795EE
:1030A0006795B79508F4B1609395C1F7BB0F58F7D2
:1030B00011F460FFE8CF6F5F7F4F8F4F9F4FE3CFDB
:1030C0000C941A18FA01DC01AA0FBB1F9B01AC017A
:1030D000BF5728F4222733274427507820C0B75100
:1030E00090F4AB2F0024469537952795011CA395A6
:1030F000D2F3002071F0220F331F441FB395DAF38F
:103100000ED00C94F31561307105A0E88A07B9461A
:1031100030F49B01AC01662777278827907830969A
:1031200021F0208331834283538308950E94A9189C
:103130000C94E6170E94D81738F00E94DF1720F091
:10314000952311F00C94A8170C94AE1711240C942D
:103150001A180E94F71770F3959FC1F3950F50E06E
:10316000551F629FF001729FBB27F00DB11D639F39
:10317000AA27F00DB11DAA1F649F6627B00DA11DDF
:10318000661F829F2227B00DA11D621F739FB00D85
:10319000A11D621F839FA00D611D221F749F3327F5
:1031A000A00D611D231F849F600D211D822F762F8E
:1031B0006A2F11249F5750409AF0F1F088234AF06B
:1031C000EE0FFF1FBB1F661F771F881F91505040D7
:1031D000A9F79E3F510580F00C94A8170C941A187B
:1031E0005F3FE4F3983ED4F3869577956795B7955E
:1031F000F795E7959F5FC1F7FE2B880F911D969578
:10320000879597F908959F3F31F0915020F4879565
:1032100077956795B795880F911D9695879597F93E
:1032200008958F929F92AF92BF92CF92DF92EF92CA
:10323000FF92CF93DF93EC01688179818A819B8132
:10324000611571058105910521F464E279ED8BE545
:1032500097E02DE133EF41E050E00E94071B490168
:103260005A019B01AC01A7EAB1E40E94261B6B0145
:103270007C01ACEEB4EFA50194010E94341BDC018B
:10328000CB018C0D9D1DAE1DBF1DB7FF03C0019767
:10329000A109B04888839983AA83BB839F77DF9174
:1032A000CF91FF90EF90DF90CF90BF90AF909F9025
:1032B0008F9008950E941119089589E091E00E946D
:1032C00011190895A0E0B0E08093090190930A01DC
:1032D000A0930B01B0930C010895283008F027E06B
:1032E0003327DA01990F311D87FD91600096610542
:1032F000710539F432602E5F3D9330E32A95E1F792
:1033000008959F3F30F080387105610509F03C5FFA
:103310003C5F3D93913008F08068911DDF93CF931F
:103320001F930F93FF92EF92192F987F9695E92F95
:1033300096959695E90FFF27EA5EFE4F992733276A
:10334000EE24FF24A701E70105900894079428F4D0
:10335000360FE71EF81E491F511D660F771F881F85
:10336000991F0694A1F70590079428F4E70EF81E1C
:10337000491F561FC11D770F881F991F661F06948E
:10338000A1F70590079428F4F80E491F561FC71F90
:10339000D11D880F991F661F771F0694A1F705900E
:1033A000079420F4490F561FC71FD81F990F661F97
:1033B000771F881F0694A9F784911095177041F024
:1033C000D695C79557954795F794E7941A95C1F701
:1033D000ECEBF0E06894159015913591659195911D
:1033E00005907FE27395E118F10A430B560BC90B68
:1033F000D009C0F7E10CF11E431F561FC91FD01D95
:103400007EF4703311F48A95E6CFE894015030F0E1
:10341000080F0AF40027021708F4202F2395022F23
:103420007A3328F079E37D932A95E9F710C07D93EC
:103430002A9589F606949795679537951795179469
:10344000E118F10A430B560BC90BD00998F02395EC
:103450007E9173957A3308F070E37C932013B8F76C
:103460007E9170617D9330F0839571E37D9370E37D
:103470002A95E1F71124EF90FF900F911F91CF91C2
:10348000DF91992787FD90950895FC010590615083
:1034900070400110D8F7809590958E0F9F1F08956A
:1034A000FC016150704001900110D8F78095909513
:1034B0008E0F9F1F08950F931F93CF93DF93FB01F0
:1034C000238121FD03C08FEF9FEF28C022FF16C08C
:1034D00046815781248135814217530744F4A081E6
:1034E000B1819D012F5F3F4F318320838C932681D3
:1034F00037812F5F3F4F3783268310C0EB01092FA1
:10350000182F0084F185E02D0995892BE1F68E8135
:103510009F8101969F838E83812F902FDF91CF9182
:103520001F910F910895FA01AA27283051F12031F7
:1035300081F1E8946F936E7F6E5F7F4F8F4F9F4F47
:10354000AF4FB1E03ED0B4E03CD0670F781F891F89
:103550009A1FA11D680F791F8A1F911DA11D6A0F57
:10356000711D811D911DA11D20D009F468943F910A
:103570002AE0269F11243019305D3193DEF6CF0109
:103580000895462F4770405D4193B3E00FD0C9F7CF
:10359000F6CF462F4F70405D4A3318F0495D31FD3C
:1035A0004052419302D0A9F7EACFB4E0A69597958F
:1035B000879577956795BA95C9F700976105710565
:1035C00008959B01AC010A2E0694579547953795AF
:1035D0002795BA95C9F7620F731F841F951FA01D09
:1035E0000895F999FECF92BD81BDF89A992780B5CB
:1035F0000895262FF999FECF1FBA92BD81BD20BD37
:103600000FB6F894FA9AF99A0FBE01960895052E0E
:1036100097FB1EF400940E941E1B57FD07D00E94CA
:10362000391B07FC03D04EF40C941E1B509540959B
:10363000309521953F4F4F4F5F4F0895909580955E
:10364000709561957F4F8F4F9F4F08950E949915F8
:10365000A59F900DB49F900DA49F800D911D1124E6
:103660000895B7FF0C94261B0E94261B821B930B08
:103670000895A1E21A2EAA1BBB1BFD010DC0AA1FB3
:10368000BB1FEE1FFF1FA217B307E407F50720F0CB
:10369000A21BB30BE40BF50B661F771F881F991F46
:1036A0001A9469F760957095809590959B01AC018F
:0A36B000BD01CF010895F894FFCF8B
:0E36BA001201AA6A08670866080100000000F5
:00000001FF
