:100000000C94DB000C9404010C9404010C94040186
:100010000C9404010C9404010C948F0B0C940401B7
:100020000C9404010C9404010C9404010C944E11E2
:100030000C9404010C9404010C94AE100C94040173
:100040000C9404010C9404010C9404010C9404011C
:100050000C9404010C9404010C9404010C94701190
:100060000C9404010C940401F50B710CC90BC00B2A
:10007000C60B530C480CD312B011B011D012DC12C5
:10008000CC12E312DF12E7129F127112076342369D
:10009000B79BD8A71A39685618AEBAAB558C1D3C19
:1000A000B7CC5763BD6DEDFD753EF6177231BF00DD
:1000B0000000803F6E616E00696E660000407A103D
:1000C000F35A00A0724E18090010A5D4E80000E809
:1000D0007648170000E40B54020000CA9A3B000067
:1000E00000E1F505000080969800000040420F00F6
:1000F0000000A08601000000102700000000E803B7
:10010000000000006400000000000A000000000081
:100110000100000000002C76D888DC674F0823DF40
:10012000C1DFAE59E1B1B796E5E3E453C63AE65113
:10013000997696E8E6C28426EB898C9B62ED407C3A
:100140006FFCEFBC9C9F40F2BAA56FA5F490055AD6
:100150002AF75C936B6CF9676DC11BFCE0E40D47FB
:10016000FEF520E6B500D0ED902E0300943577051E
:100170000080841E080000204E0A000000C80C33D6
:100180003333330F986E12831141EF8D2114893B65
:10019000E65516CFFEE6DB18D1844B381BF77C1DE5
:1001A000901DA4BBE424203284725E228100C9F138
:1001B00024ECA1E53D2711241FBECFEFD8E0DEBF20
:1001C000CDBF14BE0FB6F894A895809160008861E9
:1001D00080936000109260000FBE11E0A0E0B1E0DB
:1001E000E0E2FBE302C005900D92AE30B107D9F713
:1001F00027E0AEE0B1E001C01D92A23BB207E1F7FB
:100200000E9495170C948E1D0C940000E091000143
:10021000F0910101E658FE4F81E080830895CF936D
:10022000DF93FC01C0910001D0910101DE01A654D1
:10023000BF4F81E08C93AE54BF4F9CE001900D9274
:100240009A95E1F7CB010E94EF0DC858DE4F8883E5
:10025000DF91CF9108958091AD079091AE07892BE2
:1002600069F08091000190910101FC01E758FE4F77
:100270002081222351F0805A9E4F089580910001E1
:1002800090910101805A9E4F089580E090E008957A
:100290006091000170910101FB01E554FF4FAB013A
:1002A000455A5E4F20E030E081919191A191B1914A
:1002B000280F391FE417F507B9F7FB01E55CF94F83
:1002C0008081813011F0C90108958FEF90E0089589
:1002D0002F923F924F925F926F927F928F929F9256
:1002E000AF92BF92CF92DF92EF92FF920F931F9344
:1002F000CF93DF93CDB7DEB728970FB6F894DEBF64
:100300000FBECDBF2090000130900101D1012C9192
:10031000222309F4F8C1022F10E0F1013196A10166
:10032000B6E02B9F400D511D11244F5F5F4F60E0E1
:1003300070E0CB013081630F711D811D911D3696D8
:10034000E417F507B9F730E040E050E00E94C61727
:10035000CA01B9010E9497194B015C01B801012E35
:10036000000C880B990B0E9499196B017C01F1011B
:10037000E558FE4F608170E061507109072E000C56
:10038000880B990B0E9499192B013C01F101E3584C
:10039000FE4F608170E061507109072E000C880BE0
:1003A000990B0E949919A50194010E94C71A9B01FB
:1003B000AC01C301B2010E9449182B013C01F101BB
:1003C000E158FE4F608170E061507109072E000C0A
:1003D000880B990B0E949919A70196010E94C71AD0
:1003E0009B01AC01C301B2010E9449182B013C01E1
:1003F000F101EF57FE4F608170E061507109011506
:100400001105E9F0F1018281833609F482C1C1014D
:1004100008969801220F331F200F311F220F331F20
:100420002E5F3F4F220D331D07C00696FC01369705
:100430004081433609F46DC182179307B1F720E07C
:1004400030E0A901C301B2010E9449182B013C010F
:10045000F101ED57FE4F808190E09C012150310960
:100460003E832D83E554FB4F40815181628173812E
:10047000DB01CA018096A11DB11D89839A83AB83DC
:10048000BC8340917707509178076091790770910C
:100490007A0784179507A607B70708F431C1329782
:1004A000208130E0AD81BE81A29FB001A39F700D7D
:1004B000B29F700D1124072E000C880B990B0E941F
:1004C00099199B01AC01C301B2010E9449186D83C7
:1004D0007E838F839887F101E458FE4F608170E03E
:1004E00061507109072E000C880B990B0E94991915
:1004F0002B013C01F101E258FE4F608170E0615038
:100500007109072E000C880B990B0E949919A501FF
:1005100094010E94C71A9B01AC01C301B2010E9461
:1005200049184B015C01F101E058FE4F608170E019
:1005300061507109072E000C880B990B0E949919C4
:100540009B01AC01C701B6010E94C71A9B01AC0117
:10055000C501B4010E9449186B017C01F101EE57FD
:10056000FE4F608170E06150710901151105E9F0DD
:10057000F1018281833609F4D5C0C1010896980142
:10058000220F331F020F131F000F111F0E5F1F4F8B
:10059000020D131D07C00696FC01369720812336F5
:1005A00009F4C0C080179107B1F720E030E0A9013D
:1005B000C701B6010E9449186B017C01F101EC579B
:1005C000FE4F008110E00150110980917707909152
:1005D0007807A0917907B0917A0729813A814B81F8
:1005E0005C81281739074A075B0708F4A4C0E85460
:1005F000FB4F6080712C6D817E818F819885905832
:100600000E942F194B015C01069DB001079D700DE2
:10061000169D700D1124072E000C880B990B0E945B
:1006200099199B01AC01C701B6010E944918905865
:100630000E942F1920919D0730E089010451110972
:1006400020E030E040E85FE30E9449189B01AC01E4
:1006500060E070E080E89FE30E94B51820E030E0A1
:1006600040EA51E40E94C71A20E030E040E05FE336
:100670000E9449180E946119060F171F8091B10747
:1006800090E07C0134E1E31AF10820E030E040E83A
:100690005FE3C501B4010E9449189B01AC0160E011
:1006A00070E080E89FE30E94B51820E030E040EA67
:1006B00051E40E94C71A20E030E040E05FE30E946E
:1006C00049180E946119862F602F8E0D28960FB64B
:1006D000F894DEBF0FBECDBFDF91CF911F910F9178
:1006E000FF90EF90DF90CF90BF90AF909F908F9052
:1006F0007F906F905F904F903F902F900C94090DDA
:100700002FEF30E0CFCE00E010E0812C912C54018F
:1007100025CE072E000C880B990B0E9499199B017E
:10072000AC0190CE072E000C880B990B0E949919F2
:100730009B01AC013DCF66246A94712C5CCFCF92B3
:10074000DF92EF92FF921F93CF93DF9320910001EE
:1007500030910101F9018081882309F447C0E90142
:10076000F6E08F9FC00DD11D11242597A90145509A
:10077000510916E07FEF8091770790917807A0915B
:100780007907B0917A07CA80DB80EC80FD808C19F4
:100790009D09AE09BF098197A105B10518F1F901BD
:1007A0006081862F90E0FC01EE0FFF1FE80FF91F1C
:1007B000EE0FFF1FE20FF31F3196DE01F12E0190C5
:1007C0000D92FA94E1F70197FC01EE0FFF1F8E0FD7
:1007D0009F1FFC01EE0FFF1FE20FF31F728361509A
:1007E000F90160832697C417D50729F6DF91CF91C9
:1007F0001F91FF90EF90DF90CF90089580910001BE
:1008000090910101FC01E45CF94FDC01A858BE4F56
:100810002C91208340917707509178076091790758
:1008200070917A0732964083518362837383E458D0
:10083000F54010820895EF92FF920F931F93CF938C
:10084000DF93A0910001B0910101FD01E459FE4F39
:100850006081462F50E04115510509F4DFC07C91BD
:10086000C72FD0E0EA56F14020E030E002C02F5F11
:100870003F4FC217D30709F4F0C0808190E036964D
:1008800084179507A1F7F901EE0FFF1FE20FF31F81
:10089000EE0FFF1FEA0FFB1F628300917707109195
:1008A00078072091790730917A0703831483258391
:1008B0003683ED01C858DE4F888181834336510568
:1008C00009F4A5C0FD01EC58FE4F70817F3F09F48B
:1008D0009EC07D018BE7E81A8EEFF80AF7011081C0
:1008E000C12FD0E03B9620E030E002C02F5F3F4FA9
:1008F0002C173D0709F4B9C0808190E03C9684171D
:100900009507A1F7C901880F991F280F391F220FDA
:10091000331F220F331F2A0F3B1FF901E057FE4FF1
:100920006083FD01E359FE4F808149E2849F912D50
:10093000112492959F70E901CA57DE4F98836CE9A4
:10094000969F800D11249DEC899F512D1124569561
:100950005695569521965883CAE05C9F80191124BC
:100960008083F901E857FE4F8083FD01E259FE4F75
:100970008081849F512D112452955F70E901C757E2
:10098000DE4F5883569F800D1124899F512D1124CD
:1009900056955695569521965883CAE05C9F8019C6
:1009A00011248083F901E557FE4F8083FD01E15951
:1009B000FE4F8081849F512D112452955F70E90173
:1009C000C457DE4F5883569F800D1124899F912D67
:1009D0001124969596959695219698835AE0959F21
:1009E000801911248083F901E257FE4F80833196EC
:1009F000ED01C059DE4F8881849F812D112482959D
:100A00008F70808332967083A654BF4F1C92DF9103
:100A1000CF911F910F91FF90EF900895FD01E45C3D
:100A2000F94FED01C858DE4F8881808340917707E8
:100A3000509178076091790770917A0732964083D8
:100A4000518362837383A654BF4F1C92DF91CF9171
:100A50001F910F91FF90EF9008957E3118F47F5F02
:100A60007C9311CF215031090ECF143620F41F5F33
:100A7000F701108347CF2150310944CFCF93DF9343
:100A8000C0910001D0910101FE01E758FE4F108294
:100A9000EE5BF1099E01255A3E4F80E090E04191C6
:100AA000519161917191840F951FE217F307B9F786
:100AB000FE01E55CF94F20812130C1F0FE01E859CB
:100AC000FE4F8083CE01805A9E4F0E947A13C659F2
:100AD000DE4F99838883E0910001F0910101E7588E
:100AE000FE4F81E08083DF91CF9108958FEFE6CFB5
:100AF000A0910001B09101012C912223C9F012961E
:100B00008C911297833669F1CD010896AD0136E0DC
:100B1000239F400D511D11244E5F5F4F06C0069666
:100B2000FC01369720812336E1F084179507B9F749
:100B3000FD01E55AFE4F2081822F90E034E0239F93
:100B4000A00DB11D1124A554BF4F1D921D921D92E1
:100B50001C921397019668E270E00E94B21780839E
:100B60000895FD01E55AFE4F2081822F90E034E088
:100B7000239FA00DB11D1124A554BF4F41E050E0AB
:100B800060E070E04D935D936D937C9313970196B5
:100B900068E270E00E94B21780830895CF93DF93DC
:100BA000C0910001D0910101FE01E758FE4F108273
:100BB00070971082CE01805A9E4F2091AD07FC01A4
:100BC00020837B96A0813196408132962081319698
:100BD0006081FAE06F9FB001112434E6239F600D1D
:100BE000711D1124FE01E058FE4F2081620F711D1E
:100BF0003196508131962081BAE02B9F90011124CB
:100C0000E4E65E9F200D311D1124FE01ED57FE4FDD
:100C10005081250F311D31963081B397BAE04B9F3B
:100C2000A0011124B4E6AB9F400D511D1124DE013B
:100C3000A358BE4F7C91470F511D4083319660836E
:100C400031962083319644E6349F9001112420830D
:100C5000E95AF109929720E030E041915191619178
:100C60007191240F351FEA17FB07B9F7FE01E55C08
:100C7000F94F40814130A9F0FE01E859FE4F208331
:100C80000E947A13C659DE4F99838883E091000150
:100C9000F0910101E758FE4F81E08083DF91CF9111
:100CA00008952FEFE9CF4F925F926F927F928F92CC
:100CB0009F92BF92CF92DF92EF92FF920F931F937A
:100CC000CF93DF93E0900001F0900101F701E65C23
:100CD000F94F8081811161C1C0E0D0E01BEA04C0FE
:100CE000E0900001F09001010E94680DEC0EFD1EE5
:100CF000F701E558FE4F819F912D11249695292FDC
:100D0000220F920F891B80832196CA30D10541F7AB
:100D1000C0910001D0910101FE01E65CF94F81E034
:100D20008083FE01E558FE4F608170E080E090E036
:100D30000E94991920E030E0A9010E9449180E9400
:100D40006119072E000C880B990B0E9499196B01F1
:100D50007C01FE01E458FE4F8081682F70E080E046
:100D600090E00E9499199B01AC010E9449189B01D7
:100D7000AC01C701B6010E9449180E946119072EF3
:100D8000000C880B990B0E9499196B017C01FE01E4
:100D9000E358FE4F8081682F70E080E090E00E9471
:100DA000991920E030E040E850E40E94C71A9B0106
:100DB000AC01C701B6010E9449180E946119072EB3
:100DC000000C880B990B0E9499196B017C01FE01A4
:100DD000E258FE4F8081682F70E080E090E00E9432
:100DE000991920E030E040E051E40E94C71A9B01CD
:100DF000AC01C701B6010E9449180E946119072E73
:100E0000000C880B990B0E9499196B017C01FE0163
:100E1000E158FE4F8081682F70E080E090E00E94F2
:100E2000991920E030E040E851E40E94C71A9B0184
:100E3000AC01C701B6010E9449180E946119072E32
:100E4000000C880B990B0E9499196B017C01FE0123
:100E5000E058FE4F8081682F70E080E090E00E94B3
:100E6000991920E030E040E052E40E94C71A9B014B
:100E7000AC01C701B6010E9449180E946119072EF2
:100E8000000C880B990B0E9499196B017C01FE01E3
:100E9000EF57FE4F8081682F70E080E090E00E9465
:100EA000991920E030E040E852E40E94C71A9B0103
:100EB000AC01C701B6010E9449180E946119072EB2
:100EC000000C880B990B0E9499196B017C01FE01A3
:100ED000EE57FE4F8081682F70E080E090E00E9426
:100EE000991920E030E040E053E40E94C71A9B01CA
:100EF000AC01C701B6010E9449180E946119072E72
:100F0000000C880B990B0E9499196B017C01FE0162
:100F1000ED57FE4F8081682F70E080E090E00E94E6
:100F2000991920E030E040E853E40E94C71A9B0181
:100F3000AC01C701B6010E9449180E946119FE0167
:100F4000EC57FE4F8081860F0E942A11809100018C
:100F5000909101014091770750917807609179074E
:100F600070917A07FC01EA5CF94F408351836283F8
:100F70007383E15BF4401082DF91CF911F910F9159
:100F8000FF90EF90DF90CF90BF909F908F907F90D9
:100F90006F905F904F900C94CE05F701EB57FE4F8A
:100FA000C080CC2009F46CC0E701CF56DE4F6881C9
:100FB00070E080E090E00E9497192B013C01D12C59
:100FC0008E01C0E0D0E0812C912CF801B0806B2D17
:100FD00070E080E090E00E949919A30192010E94C4
:100FE0004C1A18164CF46B2D70E080E090E00E94D3
:100FF00097192B013C014E012196045F1F4FCC1520
:10100000DD0519F7F701E558FE4FC401880F991F58
:10101000880E991E880C991C880C991C8E0C9F1C9C
:10102000D401AA57BE4F8C918083319611968C9132
:101030008083319611968C918083319611968C9194
:101040008083319611968C918083319611968C9184
:101050008083319611968C918083319611968C9174
:101060008083319611968C918083319611968C9164
:1010700080830E94680DC0910001D091010151CE82
:10108000EA54FB4F81E08083809177079091780745
:10109000A0917907B0917A07359780839183A283D5
:1010A000B383DF91CF911F910F91FF90EF90DF906D
:1010B000CF90BF909F908F907F906F905F904F9058
:1010C0000895CF93DF93C0910001D0910101FE01FB
:1010D000E759FE4F1082CE01805A9E4F2091AD07F6
:1010E000DC012C93319710820E947A13C659DE4F8F
:1010F00099838883E0910001F0910101DF01A654FA
:10110000BF4F1C92A154BF4F81E08C9311961C924B
:10111000A45CB1091D921D921D921C92139710821E
:10112000AB57BA4F1C9211971C92A55BB4401C920E
:10113000AF54BB4F1D921D921D921C921397169691
:101140008FEF8C9311968C9311961D921D921D9288
:101150001C921397A358B54080EAED0119928A9525
:10116000E9F7A056BF4F1C92EF59FE4F88E0DF0110
:101170001D928A95E9F70E9453060E940E0D609118
:10118000B0078091AF070E94090DE0910001F09136
:101190000101E45AFE4F1082118212821382DF9104
:1011A000CF9108958F929F92AF92BF92FF920F932B
:1011B0001F93CF93DF93C0910001D0910101409123
:1011C0007707509178076091790770917A078E01BF
:1011D000045A1E4FF80180819181A281B3818096CB
:1011E000A11DB11DF88084179507A607B70708F45D
:1011F000FCC09E01255A3E4FFF2009F449C0AE01B4
:10120000F6E0FF9E400D511D112445505109BE01CD
:101210006550710916E0F12E0FEF809177079091DC
:101220007807A0917907B0917A07FA0182809380BC
:10123000A480B58088199909AA09BB098197A105DD
:10124000B10508F11881812F90E0FC01EE0FFF1F1E
:10125000E80FF91FEE0FFF1FEC0FFD1F3196DA01AB
:10126000BF2C01900D92BA94E1F70197FC01EE0FAB
:10127000FF1F8E0F9F1FFC01EE0FFF1FEC0FFD1FC6
:10128000028311501883465051094617570729F613
:10129000FE01E758FE4F1082EE5BF10980E090E01E
:1012A0004191519161917191840F951FE217F3075C
:1012B000B9F7FE01E55CF94F2081213009F4D6C071
:1012C000FE01E859FE4F8083CE01805A9E4F0E9456
:1012D0007A13C659DE4F99838883809100019091DB
:1012E0000101FC01E758FE4F21E02083EF5BF1098B
:1012F0002081213009F4D4C04091770750917807BC
:101300006091790770917A070091770710917807BB
:101310002091790730917A07FC01EA5CF94F40810E
:101320005181628173814058584F6F4F7F4F4017F2
:1013300051076207730708F44EC0009177071091B8
:1013400078072091790730917A07FC01EA54FF4F22
:101350004081518162817381405E5F4F6F4F7F4F4B
:10136000401751076207730760F540917707509166
:1013700078076091790770917A074083518362837F
:101380007383EB57FA4F808181110BC0DF91CF91AE
:101390001F910F91FF90BF90AF909F908F900C94F2
:1013A000680180E00E942A1160E080E0DF91CF9127
:1013B0001F910F91FF90BF90AF909F908F900C94D2
:1013C000090DDF91CF911F910F91FF90BF90AF90CA
:1013D0009F908F9008958FE30E942A110E945306D8
:1013E0008091000190910101A8CFFF20B9F08A817E
:1013F0008336F1F1CE010896AE01F6E0FF9E400D76
:10140000511D11244E5F5F4F06C00696FC013697B2
:101410002081233669F184179507B9F79E01255A73
:101420003E4FF9014081842F90E0FE0154E0459F3A
:10143000E00DF11D1124E554FF4F1082118212823C
:101440001382019668E270E00E94B217F90180836E
:101450008091770790917807A0917907B0917A07EA
:10146000F80180839183A283B383C6CE8FEF28CF08
:101470009E01255A3E4FF9014081842F90E0FE01E4
:1014800054E0459FE00DF11D1124E554FF4F41E06C
:1014900050E060E070E04083518362837383D1CF7A
:1014A0000E941B04809100019091010125CFE091E1
:1014B0000001F091010120812223B9F0828183365D
:1014C000B9F0CF010896AF0136E0239F400D511DC2
:1014D00011244E5F5F4F06C00696FC0136972081AF
:1014E000233631F084179507B9F780E090E008952E
:1014F00081E090E008952091000130910101409138
:101500007707509178076091790770917A07F90110
:10151000E25CF94F80819181A281B3818096A11D07
:10152000B11D84179507A607B70710F48FEF08952C
:1015300032978081089520E030E040E05FE30E9430
:1015400049180E946119CB010895089580E090E048
:1015500008950895DF92EF92FF920F931F93CF9318
:10156000DF93F89414B817B81AB815B818B81BB8A0
:10157000529A5A9A14BC85E085BD8FEF87BD82E0F0
:1015800080936E0010928000109281002FE83BE063
:10159000309389002093880080936F00539823989C
:1015A00091EA9093B0008093B1001092B400109231
:1015B000B3008BE080BF83E080937F0086E0809360
:1015C0007C0083E880937A0080917A008064809325
:1015D0007A0080917A0086FDFCCF10927C0083EA2D
:1015E00080937A0081E080937B0081E090E00E940C
:1015F000461D8F3F11F08093660010927B07C1E07B
:10160000C0935407C0939807109272071092AC07CA
:1016100080E990E00E94461D8093710780917107D8
:10162000887311F0C093710710929C0710929B076A
:101630008FEF90E090939A07809399071092770725
:10164000109278071092790710927A0781E08093C0
:10165000110182E49FE09093AB078093AA0780EB8F
:1016600090E00E94461DC82F81EB90E00E94461D2D
:101670002C2F30E0382B3093AE072093AD0785E058
:1016800090E00E94461D8093B10789E090E00E949F
:10169000461D80939D078CE090E00E94461D80933C
:1016A000AF0784E190E00E94461D8093B0075CE79D
:1016B000E52E57E0F52E05E517E0C0E2D0E0CE01BB
:1016C0000E94461DD82ECE0101960E94461D2D2D4A
:1016D00030E0322F2227282BF701219331937F010D
:1016E000CE01C0960E94461DD82ECE01C1960E9402
:1016F000461D2D2D30E0322F2227282BF801219373
:1017000031938F012296CC33D105C9F67894DF91BD
:10171000CF911F910F91FF90EF90DF9008951F924E
:101720000F920FB60F9211248F930FB6F894A895CD
:1017300080916000886180936000109260000FBE0D
:101740008F910F900FBE0F901F9018953C01EB01E9
:1017500010E099249A9484E0C82E96E0A92E23E8FC
:10176000B22E38E1D32E49E2E42E90911101E92FF7
:10177000F0E0E730F105C8F7EC5CFF4F0C94E81798
:10178000112309F4FCC0C092110111E0FE0109957A
:10179000ECCF80917B078111EBC0F894A0927C0084
:1017A000B0927A0080917A00806480937A00909160
:1017B0007A0096FDFCCF8091780090917900789422
:1017C0008B3AE2E09E070CF0EDC08938F2E09F070B
:1017D0000CF0EFC0873692400CF4CAC0559A549A68
:1017E0003B9A3A9A3D983C98C0CFF89480B7877F4F
:1017F00080BF80917A008F7780937A0014B817B8F1
:101800001AB815B818B81BB80FB6F894A895D092A6
:1018100060000FBEE0926000809160008064809361
:10182000600093B7917F946093BFF89483B7816011
:1018300083BF7894889583B78E7F83BF7894109206
:101840007B07529A5A9A80917A00806880937A0036
:1018500087E592E00197F1F700C0000080B788614A
:1018600080BF559A549A3B9A3A9A3D9A3C9AEFE136
:10187000FEE43197F1F700C0000080917B078111F1
:1018800081C0559854983B983A983D983C986DCFB4
:1018900080910F01811141C01092B3001092B400E9
:1018A0001092100162CF4899ECCF559A54983B980A
:1018B0003A983D983C988FEC97E00197F1F700C07B
:1018C0000000559854983B983A983D983C989FEF63
:1018D000E1EEF4E09150E040F040E1F700C000009C
:1018E00044CF559854983B9A3A9A3D983C98EFECDF
:1018F000F7E03197F1F700C00000559854983B98F5
:101900003A983D983C98FFEF21EE84E0F15020405A
:101910008040E1F700C0000028CF90910F01809136
:101920001001981709F421CF80910F0180931001C5
:1019300080910F01813009F450C080910F01109205
:10194000B3009092B4008230D9F19092B30090929B
:10195000B4008FE295E70197F1F700C00000809195
:10196000B0079091AF079093B3008093B400FDCE81
:10197000559A549A3B983A983D983C98F6CEF30184
:10198000099501CF559A549A3B983A983D983C98BE
:10199000FFEF20E782E0F15020408040E1F700C0F7
:1019A00000006FCF559854983B9A3A9A3D983C98CE
:1019B000DCCE559854983B983A983D9A3C9AD5CEAF
:1019C000EFE2F5E73197F1F700C0000080919D0745
:1019D0001092B3008093B400C8CE9092B3001092DE
:1019E000B4008FE295E70197F1F700C00000809105
:1019F000B1078093B3001092B400B7CE07C0EFECEC
:101A0000F7E03197F1F700C0000001970097B9F7B0
:101A100008958093B3006093B40008958FEF80938E
:101A2000B3008093B4008FE090E0EFECF7E03197E3
:101A3000F1F700C000000197C1F7089580917B077E
:101A400081111EC0F89487E080937C0083E8809326
:101A50007A0080917A00806480937A0080917A0085
:101A600086FDFCCF809178009091790010927C00E7
:101A700023EA20937A0021E020937B007894089554
:101A80008FEF9FEF089580917B0781111EC0F8941E
:101A900088EC80937C0087E880937A0080917A00BC
:101AA000806480937A0080917A0086FDFCCF8091DB
:101AB00078009091790010927C0023EA20937A00BC
:101AC00021E020937B00789408958FEF9FEF089595
:101AD0000F931F93CF93DF93E0E0F0E080E003EA01
:101AE00011E0D6E0C3E8A1E0B0E060E870E0F8946F
:101AF000D0937C00C0937A0090917A009064909388
:101B00007A0090917A0096FDFCCF20917800309178
:101B10007900217090917A00906490937A0090916E
:101B20007A0096FDFCCF4091780050917900109298
:101B30007C0000937A0010937B007894417024130A
:101B400003C06150710999F6222339F09D010E2ED0
:101B500001C0220F0A94EAF7822B3196E830F10592
:101B600009F0C3CFDF91CF911F910F91089580911C
:101B70000201982F990F990F990F892790910E01C3
:101B800021E0290F20930E01282F229526952770FA
:101B900082279695969589278093020108958093D0
:101BA0000201089580917B07811116C0F89486E0A8
:101BB00080937C0083E880937A0080917A0080642F
:101BC00080937A0080917A0086FDFCCF8091780026
:101BD00090917900789408958FEF9FEF08952F9258
:101BE0003F924F925F926F927F928F929F92AF92AD
:101BF000BF92CF92DF92EF92FF920F931F93CF93FA
:101C0000DF9300D000D000D0CDB7DEB71C01DC01DF
:101C100012960D90BC91A02DBE83AD83A438E3E055
:101C2000BE070CF0C9C080915507909156078A17DE
:101C30009B0708F437C100915707109158070A17FE
:101C40001B0708F42FC20091590710915A070A1771
:101C50001B0708F42FC200915B0710915C070A175D
:101C60001B0708F42FC200915D0710915E070A1749
:101C70001B0708F42FC200915F07109160070A1735
:101C80001B0708F4EFC100916107109162070A1762
:101C90001B0708F427C200916307109164070A1715
:101CA0001B0708F427C200916507109166070A1701
:101CB0001B0708F427C200916707109168070A17ED
:101CC0001B0708F427C20091690710916A070A17D9
:101CD0001B0708F427C200916B0710916C070A17C5
:101CE0001B0708F423C200916D0710916E070A17B5
:101CF0001B0708F423C200916F07109170070A17A1
:101D00001B0708F423C280E090E0A0EDB0E48983D3
:101D10009A83AB83BC834CE0E42EF12CF701EE0FE9
:101D2000FF1FEB5AF84F80819181B801681B790B36
:101D300080E090E00E9497199B01AC010E94491835
:101D40006B017C01AD81BE81BD01BB0F880B990B7E
:101D50000E9499194B015C01B80180E090E00E945B
:101D600097192B013C0129813A814B815C81C70184
:101D7000B6010E94C71A9B01AC01C301B2010E94C7
:101D800048189B01AC01C501B4010E94481820E02D
:101D900030E040E251E40E94C71A0E9461198B01B1
:101DA000C701B6010E946119AB01BC01C801BA01AB
:101DB0000E94B217162F77C0DC01CD90DC90809185
:101DC0007C0790917D078C159D0508F48CC01FEF52
:101DD000E0907E07F0907F07EC14FD0408F45EC1EC
:101DE000E0908007F0908107EC14FD0408F45EC1D8
:101DF000E0908207F0908307EC14FD0408F45EC1C4
:101E0000E0908407F0908507EC14FD0408F45EC1AF
:101E1000E0908607F0908707EC14FD0408F4C3C037
:101E2000E0908807F0908907EC14FD0408F456C18F
:101E3000E0908A07F0908B07EC14FD0408F456C17B
:101E4000E0908C07F0908D07EC14FD0408F456C167
:101E5000E0908E07F0908F07EC14FD0408F456C153
:101E6000E0909007F0909107EC14FD0408F456C13F
:101E7000E0909207F0909307EC14FD0408F45AC127
:101E8000E0909407F0909507EC14FD0408F45AC113
:101E9000E0909607F0909707EC14FD0408F45AC1FF
:101EA0000AE531C010E0ED81FE81ED3BF240FCF42B
:101EB00081E2810F26960FB6F894DEBF0FBECDBF2C
:101EC000DF91CF911F910F91FF90EF90DF90CF9016
:101ED000BF90AF909F908F907F906F905F904F904A
:101EE0003F902F90089500E081E2800FE3CFD10171
:101EF000CD90DC9080917C0790917D078C159D059D
:101F000008F066CF00E01F3F79F3ED81FE81BF014D
:101F1000FF0F880B990B0E9499196B017C01612FAF
:101F200070E080E090E00E9497194B015C01A701EE
:101F3000960160E070E081E694E40E9448189B01FD
:101F4000AC01C501B4010E94C71A4B015C01602FAE
:101F500070E080E090E00E9497192B013C0120E0A6
:101F600030E04FE254E4C701B6010E9448189B01DB
:101F7000AC01C301B2010E94C71A9B01AC01C501AB
:101F8000B4010E94491820E030E048E453E40E9484
:101F9000B51820E030E044E052E40E9449180E9465
:101FA0006819862F87CF05E085E090E0880F991F9C
:101FB000FC01E658F84F80819181B701681B790BCD
:101FC00080E090E00E9497199B01AC010E944918A3
:101FD0004B015C01B601DD0C880B990B0E9499192D
:101FE0002B013C01B70180E090E00E9497196B0142
:101FF0007C01602F70E080E090E00E94971920E063
:1020000030E040E05FE30E94C71A20E030E0A90121
:102010000E944918A50194010E94C71A9B01AC01B6
:10202000C701B6010E9448189B01AC01C301B2016F
:102030000E94481820E030E040E251E40E94C71AB4
:102040000E9461197B01C501B4010E946119AB01B5
:10205000BC01C701BA010E94B217062F6F3F09F0F9
:1020600052CF26CF65E085E090E07C01F1E0EF1AE9
:10207000F10870E080E090E00E94971920E030E0E5
:1020800040E05FE30E94C71A20E030E0A9010E940F
:10209000491869837A838B839C8340CE01E081E079
:1020A00090E084CF61E081E090E0DFCF02E082E069
:1020B00090E07CCF62E082E090E0D7CF03E083E065
:1020C00090E074CF63E083E090E0CFCF04E084E061
:1020D00090E06CCF64E084E090E0C7CF06E086E05B
:1020E00090E064CF66E086E090E0BFCF07E087E055
:1020F00090E05CCF67E087E090E0B7CF08E088E051
:1021000090E054CF68E088E090E0AFCF09E089E04C
:1021100090E04CCF69E089E090E0A7CF0AE08AE048
:1021200090E044CF6AE08AE090E09FCF6BE08BE0E4
:1021300090E09BCF0BE08BE090E038CF6CE08CE040
:1021400090E093CF0CE08CE090E030CF6DE08DE03C
:1021500090E08BCF0DE08DE090E028CF1F920F92A2
:102160000FB60F9211242F933F934F935F936F936A
:102170007F938F939F93AF93BF93EF93FF932091A0
:102180009B0730919C078091990790919A07820F45
:10219000931F90939C0780939B078FEF90E0909301
:1021A0009A07809399078FEF87BD80917707909169
:1021B0007807A0917907B0917A070196A11DB11D0A
:1021C0008093770790937807A0937907B0937A0765
:1021D00080917B0781110FC08091AA079091AB0776
:1021E00020919B0730919C078217930720F48091E0
:1021F0001101843089F0FF91EF91BF91AF919F91D0
:102200008F917F916F915F914F913F912F910F909F
:102210000FBE0F901F901895E0910501F0910601F7
:102220000995009741F30E949613811109C00E94FD
:10223000B21B992790939A078093990787BDDBCFAC
:10224000E0910301F0910401099510929C0710920E
:102250009B07D1CF80FF11C0559A81FF11C0549ABE
:1022600082FF11C03B9A83FF11C03A9A84FF11C0CC
:102270003D9A85FD11C03C980895559881FDEFCF9A
:10228000549882FDEFCF3B9883FDEFCF3A9884FDC1
:10229000EFCF3D9885FFEFCF3C9A08951F920F92A4
:1022A0000FB60F9211248F939F931092810010927A
:1022B00085001092840081E08093540780939807F2
:1022C00010927B0710927C0093EA90937A0080939F
:1022D0007B009F918F910F900FBE0F901F901895CC
:1022E0001F920F920FB60F9211242F933F934F938B
:1022F0005F936F937F938F939F93AF93BF93CF938E
:10230000DF93EF93FF93209184003091850041E0AB
:1023100040937B07809154078823A9F11092850090
:1023200010928400409381001092AC0710925407E1
:10233000809198078823A1F080917A0086FDFCCFD8
:10234000809178009091790090937607809375073B
:1023500081E080937C0093EA90937A0080937B00E5
:10236000FF91EF91DF91CF91BF91AF919F918F91AD
:102370007F916F915F914F913F912F910F900FBE81
:102380000F901F901895C90187589109843799407B
:1023900008F052C026583109A4EFB0E00E94EE17B1
:1023A000AA27BB2788309105A105B10508F47BC099
:1023B0004093540780919807811152C08091720711
:1023C000E82FF0E0E256F84F9091AC0790838F5FD2
:1023D000809372078C3021F6109281001092850054
:1023E000109284004093980710927B07C091A80731
:1023F000D091A9078EE997E00E947A13C817D907F0
:1024000009F0AECF8091A70787FF61C098E7980FCA
:10241000933030F0539823981092B4001092B30088
:1024200090E0FC01E058F109EB30F10508F098CF9D
:10243000E55CFF4F0C94E817109281001092850024
:1024400010928400409354074093980710927B07A2
:1024500010927C0083EA80937A0040937B0080CFC7
:1024600080917A0086FDFCCF809178009091790070
:10247000909374078093730710927C0083EA809393
:102480007A0081E080937B009091AC079923D1F092
:10249000109281001092850010928400809398071A
:1024A00010927B075DCF21E030E0F90102C0EE0F12
:1024B000FF1F8A95E2F7CF019091AC07892B80939B
:1024C000AC074ECF109298071092720749CFE09157
:1024D0000701F091080163E777E08EE997E009953D
:1024E0003FCF80919E07823009F4DDC008F4BAC066
:1024F000833009F4C6C0843009F0B1C080910F0167
:102500009091A407833009F4E3C08091A30710924F
:10251000100123E020930F018093AF079093B00741
:1025200080911101863009F41BCF539A239A10929F
:10253000B4001092B30086E08093110111CF809116
:102540001101863099F0539A239A1092B400109298
:10255000B300559854983B983A983D983C981092FF
:102560000F011092100186E08093110181E090E04C
:102570009C0100909E0702C0220F331F0A94E2F7CD
:102580008091AD079091AE0782239323892B09F0A8
:1025900086C010920F01E4CE81E080931101E0CE5D
:1025A000E0E0F0E0099580916E008D7F80936E00F1
:1025B00016BCE0E0F0E7099510921101D1CE82E05F
:1025C00080931101CDCE85E080931101C9CE809119
:1025D0001101833009F4C4CE80911101843009F4D3
:1025E000BFCE539A239A1092B4001092B30083E0A6
:1025F00080931101B5CE80911101863009F0B0CEE3
:102600006091AD0780EB90E00E944E1D6091AE0797
:1026100081EB90E00E944E1D6091B10785E090E053
:102620000E944E1D60919D0789E090E00E944E1D22
:102630006091AF078CE090E00E944E1D6091B00762
:1026400084E190E00E944E1D539823981092B400AC
:102650001092B30081E08093110180919E07811157
:102660005FCF7ECE882339F28130C9F780919F07F2
:102670009091A0079093AE078093AD0710920F0141
:102680004FCF80910F01823071F18091A20710929B
:10269000100192E090930F0180939D0741CF81E05C
:1026A00080930F015DCE80910F01813051F08091B8
:1026B000A1071092100191E090930F018093B10750
:1026C0002FCF8091A1079091B1078913F2CF28CF26
:1026D0008091B007981319CF8091A3072091AF077D
:1026E000821315CF1DCF8091A20790919D0789136A
:1026F000CECF16CFFC01AC01465F5F4F8FEF9FEF4F
:1027000021918227082E8295807F8025092E982F7F
:1027100082958F700826869598278927880F880FBD
:10272000880F8025E417F50759F708950FB6F89438
:10273000A4B1209171072A2B24B921E030917107AF
:10274000203029F0000025B1232B25B904C000005A
:102750000000000000C0000000000000309525B11E
:10276000232325B92EEA2A95F1F72BEE30B735FF52
:102770000AC0A4B930917107309525B1232325B93A
:102780000FBE80E0089500002A9581F721E0309186
:102790007107203029F0000025B1232B25B904C092
:1027A00000000000000000C00000000000003095A4
:1027B00025B1232325B9000024E52A95F1F7FC0172
:1027C0008CE0619170E0660F771F616072609AE043
:1027D00041E050E09A0126233723232B30917107E3
:1027E000203029F0000025B1232B25B904C00000BA
:1027F0000000000000C0000000000000309525B17E
:10280000232325B9000021E52A95F1F7440F551F30
:102810009A9501F78A95A9F620B7206120BFA4B93F
:1028200030917107309525B1232325B90FBE81E082
:102830000895A3E1B0E0EFE1F4E10C94FD176C0121
:102840004B012A01FC0117821682838181FF43C359
:10285000AE014F5F5F4F3A01F6019381F40193FDA2
:10286000859193FF81914F01882309F430C385320C
:1028700039F493FD859193FF81914F01853239F4AD
:10288000B60190E00E94B01C52012501E5CF10E096
:10289000F12C20E02032A0F48B3269F030F4803249
:1028A00059F0833269F420612CC08D3239F08033C5
:1028B00039F4216026C02260246023C0286021C032
:1028C00027FD27C030ED380F3A3078F426FF06C0D8
:1028D000FAE01F9F300D1124132F13C04AE0F49E1D
:1028E000300D1124F32E20620CC08E3221F426FD0F
:1028F000EEC2206406C08C3611F4206802C088360F
:1029000041F4F40193FD859193FF81914F01811171
:10291000C1CF9BEB980F933018F42061805E06C006
:102920009BE9980F933008F071C12F7E26FF16E0C7
:102930002F73322E853619F42064322E08C0863665
:1029400021F4F22FF0683F2E02C01111115037FE12
:1029500007C01C3350F4EE24E394E10E27E00BC0D3
:10296000183038F027E017E005C027E04CE3E42EEC
:1029700002C0212FE12C520144E0A40EB11CF2014F
:1029800060817181828193810E2DA3010E94C21BFF
:102990002C01098100FF02C003FF07C031FC08C001
:1029A00032FE09C030E2232E07C02DE2222E04C0E1
:1029B0009BE2292E01C0212C802F8C7019F0211050
:1029C00068C2A8C237FE0FC0E40C04FF04C08A81AD
:1029D000813309F4EA941E1474F5F8E0FE1578F5D5
:1029E00088E0E82E2CC036FC2AC0812F90E08415A8
:1029F00095059CF02CEF42162FEF520674F0432DF4
:102A00004068342E0AC0E2E0F0E0EC0FFD1FE10F59
:102A1000F11D8081803319F411501111F4CF37FE6C
:102A20000EC0EE24E394E10E812F90E04816590683
:102A30002CF4141904C0EE24E39401C010E037FE16
:102A400006C01414150434F4C201019605C085E0D3
:102A500090E002C081E090E021100196112331F056
:102A6000212F30E02F5F3F4F820F931F2F2D30E03B
:102A70008217930714F4F81A01C0F12C832D897082
:102A800049F4FF2039F0B60180E290E00E94B01CCA
:102A9000FA94F7CF222029F0B601822D90E00E940F
:102AA000B01C33FC09C0FF2039F0B60180E390E090
:102AB0000E94B01CFA94F7CF37FE5AC0942D852D92
:102AC00057FE02C090E080E0292E382E20E030E052
:102AD000A2014E1951095D874C87A2014219530981
:102AE0005F874E87612F70E044275527461B570BA1
:102AF000598B488B5FEF2516350649F4B6018EE2F7
:102B000090E02A8B3B8B0E94B01C3B892A8942149F
:102B100053046CF04C855D854215530544F4EE85F5
:102B2000FF85E20FF31FE60DF71D818101C080E3F1
:102B300051E0251A31082F5F3F4F488959892416E3
:102B400035064CF0B60190E02A8B3B8B0E94B01CFE
:102B50002A893B89CFCF2414350439F49A819633DE
:102B600018F4953311F404FF81E3B60190E04BC0F3
:102B70008A81813309F00F7EB60190E00E94B01C7B
:102B8000111105C034FC18C085E690E017C0B601ED
:102B90008EE290E00E94B01C82E0EE24E394E80E06
:102BA000F301E80FF11D8081B60190E00E94B01C96
:102BB00011508E2D91F7E6CF85E490E0B6010E948A
:102BC000B01C57FC05C04114510439F404FF05C082
:102BD0005194419451088DE201C08BE2B60190E01E
:102BE0000E94B01C80E39AE0491651042CF08F5FDC
:102BF0005AE0451A5108F7CFB60190E00E94B01C88
:102C0000B601C201C0960E94B01C57C1833631F094
:102C1000833779F0833509F058C021C05201E2E0D2
:102C2000AE0EB11CF2018081898301E010E0230126
:102C300014C05201F2E0AF0EB11CF201408051808D
:102C400026FF03C0612F70E002C06FEF7FEFC2016B
:102C50002A8B0E94A51C8C012A892F7715C052014E
:102C6000F2E0AF0EB11CF2014080518026FF03C09C
:102C7000612F70E002C06FEF7FEFC2012A8B0E94CC
:102C80009A1C8C012A892068322E23FD1AC08F2DB0
:102C900090E008171907A8F4B60180E290E00E94BE
:102CA000B01CFA94F4CFF20137FC859137FE819184
:102CB0002F01B60190E00E94B01CF110FA9401506F
:102CC00011090115110579F7F8C0843611F089361C
:102CD00059F5520127FF09C0F4E0AF0EB11CF20113
:102CE00060817181828193810AC0F2E0AF0EB11CD4
:102CF000F20160817181072E000C880B990B2F76F1
:102D0000322E97FF09C090958095709561957F4F01
:102D10008F4F9F4F2068322E2AE030E0A3010E949F
:102D2000E81CE82EE6183FC0022F853721F40F7EFD
:102D30002AE030E01DC0097F8F3691F018F4883505
:102D400059F0C5C0803719F0883711F0C0C0006154
:102D500004FF09C0046007C024FF08C0066006C065
:102D600028E030E005C020E130E002C020E132E0A0
:102D7000520107FF09C0F4E0AF0EB11CF2016081FF
:102D800071818281938108C0F2E0AF0EB11CF20123
:102D90006081718180E090E0A3010E94E81CE82E30
:102DA000E6180F77302E36FE0BC0332D3E7FE1162E
:102DB00050F434FE0AC032FC08C0332D3E7E05C0FC
:102DC0000E2D332D03C00E2D01C0012F34FF0CC07A
:102DD000FE01EE0DF11D8081803311F4397E08C0B3
:102DE00032FF05C00E5F04C0832F867809F00F5FA5
:102DF00033FD13C030FF06C01E2D0F1518F41F0D34
:102E0000101B0F2D0F1568F4B60180E290E03B8B8C
:102E10000E94B01C0F5F3B89F5CF0F1510F4F01A1C
:102E200001C0F12C34FF12C0B60180E390E03B8B6F
:102E30000E94B01C3B8932FF17C031FD03C088E7F8
:102E400090E002C088E590E0B6010CC0832F867840
:102E500059F031FF02C08BE201C080E237FD8DE204
:102E6000B60190E00E94B01CE11638F4B60180E390
:102E700090E00E94B01C1150F7CFEA94F301EE0DE0
:102E8000F11D8081B60190E00E94B01CE110F5CFE9
:102E900014C0F4E0FF1558F584E0F81A33FE1EC0A4
:102EA000211026C003FF2AC004EB10E0F32DF071BF
:102EB0003F2EF8018491811124C0FF2009F4E5CC54
:102EC000B60180E290E00E94B01CFA94F6CFF601C1
:102ED0008681978126C08FEF9FEF23C0B60180E2E5
:102EE00090E00E94B01CFA94F110F8CFD9CFF12CE9
:102EF000B601822D90E00E94B01CD4CF08EB10E008
:102F0000D5CF31108052B60190E00E94B01C0F5F07
:102F10001F4FCFCF23E02F1510F483E0BECFF12C4D
:102F2000C1CF6396E2E10C9419180E94AA0A8FE0BF
:102F300091E090930801809307018BE291E09093D8
:102F400006018093050186E091E09093040180934F
:102F5000030162ED78E081E698E00E94A60B80E034
:102F600090E0089597FB072E16F4009407D077FDA4
:102F700009D00E94341807FC05D03EF49095819545
:102F80009F4F0895709561957F4F0895A1E21A2E85
:102F9000AA1BBB1BFD010DC0AA1FBB1FEE1FFF1FFD
:102FA000A217B307E407F50720F0A21BB30BE40B4D
:102FB000F50B661F771F881F991F1A9469F7609594
:102FC0007095809590959B01AC01BD01CF0108954E
:102FD000EE0FFF1F0590F491E02D0994A29FB00120
:102FE000B39FC001A39F700D811D1124911DB29F3D
:102FF000700D811D1124911D08952F923F924F92C3
:103000005F926F927F928F929F92AF92BF92CF9278
:10301000DF92EF92FF920F931F93CF93DF93CDB781
:10302000DEB7CA1BDB0B0FB6F894DEBF0FBECDBFF9
:1030300009942A88398848885F846E847D848C84CA
:103040009B84AA84B984C884DF80EE80FD800C81D3
:103050001B81AA81B981CE0FD11D0FB6F894DEBFB6
:103060000FBECDBFED010895AA1BBB1B51E107C0E8
:10307000AA1FBB1FA617B70710F0A61BB70B881F08
:10308000991F5A95A9F780959095BC01CD01089597
:103090005058BB27AA270E9460180C94121A0E944D
:1030A000041A38F00E940B1A20F039F49F3F19F4EB
:1030B00026F40C94DA190EF4E095E7FB0C94D4197D
:1030C000E92F0E94231A58F3BA176207730784077F
:1030D000950720F079F4A6F50C94451A0EF4E095C6
:1030E0000B2EBA2FA02D0B01B90190010C01CA01C2
:1030F000A0011124FF27591B99F0593F50F4503E6D
:1031000068F11A16F040A22F232F342F4427585F5E
:10311000F3CF469537952795A795F0405395C9F776
:103120007EF41F16BA0B620B730B840BBAF091502E
:10313000A1F0FF0FBB1F661F771F881FC2F70EC0CD
:10314000BA0F621F731F841F48F4879577956795A0
:10315000B795F7959E3F08F0B0CF9395880F08F08C
:103160009927EE0F9795879508950E94C9180C949A
:10317000121A0E940B1A58F00E94041A40F029F407
:103180005F3F29F00C94D41951110C94461A0C94F9
:10319000DA190E94231A68F39923B1F3552391F3A6
:1031A000951B550BBB27AA2762177307840738F0B6
:1031B0009F5F5F4F220F331F441FAA1FA9F335D013
:1031C0000E2E3AF0E0E832D091505040E695001CC7
:1031D000CAF72BD0FE2F29D0660F771F881FBB1F81
:1031E000261737074807AB07B0E809F0BB0B802D5F
:1031F000BF01FF2793585F4F3AF09E3F510578F08B
:103200000C94D4190C94461A5F3FE4F3983ED4F31F
:10321000869577956795B795F7959F5FC9F7880F5E
:10322000911D9695879597F90895E1E0660F771FB0
:10323000881FBB1F621773078407BA0720F0621B41
:10324000730B840BBA0BEE1F88F7E095089529F4F1
:1032500016F00C94D4190C94451A0C94DA190E94A7
:103260002B1AA8F39638A0F707F80F92E8942BE3EF
:103270003AEA48EB5FE70E94DD1A0F920F920F9235
:103280004DB75EB70F920E94931AECE8F0E00E94EF
:10329000DD194F915F91EF91FF91E595EE1FFF1FB3
:1032A00049F0FE57E0684427EE0F441FFA95E1F716
:1032B0004195550B0E945D1A0F9007FE0C94511A10
:1032C00008950E9468196894B1110C94461A0895E3
:1032D0000E942B1A88F09F5798F0B92F9927B75161
:1032E000B0F0E1F0660F771F881F991F1AF0BA95AA
:1032F000C9F714C0B13091F00E94451AB1E00895A9
:103300000C94451A672F782F8827B85F39F0B93F9A
:10331000CCF3869577956795B395D9F73EF490955C
:103320008095709561957F4F8F4F9F4F0895E894DA
:1033300009C097FB3EF490958095709561957F4FFD
:103340008F4F9F4F9923A9F0F92F96E9BB279395AB
:10335000F695879577956795B795F111F8CFFAF4BB
:10336000BB0F11F460FF1BC06F5F7F4F8F4F9F4FEC
:1033700016C0882311F096E911C0772321F09EE84A
:10338000872F762F05C0662371F096E8862F70E0B0
:1033900060E02AF09A95660F771F881FDAF7880F8A
:1033A0009695879597F9089597F99F6780E870E05B
:1033B00060E008959FEF80EC0895DF93CF931F9313
:1033C0000F93FF92EF92DF927B018C01689406C00D
:1033D000DA2EEF010E94DA1AFE01E894A5912591F8
:1033E000359145915591A6F3EF010E946018FE01B9
:1033F0009701A801DA9469F7DF90EF90FF900F91A1
:103400001F91CF91DF91089500240A941616170694
:1034100018060906089500240A94121613061406C5
:1034200005060895092E0394000C11F4882352F028
:10343000BB0F40F4BF2B11F460FF04C06F5F7F4FE0
:103440008F4F9F4F089557FD9058440F551F59F0C7
:103450005F3F71F04795880F97FB991F61F09F3F81
:1034600079F087950895121613061406551FF2CFAA
:103470004695F1DF08C0161617061806991FF1CFFA
:1034800086957105610508940895E894BB27662721
:103490007727CB0197F908950E94341B08F48FEF2A
:1034A00008959B01AC0160E070E080E89FE30C941C
:1034B000B5180C94D4190C94581B0E942B1AD8F3ED
:1034C0009923C9F3940F511DA3F39150504094F0E8
:1034D00059F0882332F0660F771F881F91505040B3
:1034E000C1F79E3F51052CF7880F911D9695879542
:1034F00097F908955F3FACF0983E9CF0BB27869506
:1035000077956795B79508F4B1609395C1F7BB0FB0
:1035100058F711F460FFE8CF6F5F7F4F8F4F9F4FD9
:10352000E3CF0C94461AFA01DC01AA0FBB1F9B01E2
:10353000AC01BF5728F4222733274427507820C0F6
:10354000B75190F4AB2F0024469537952795011C71
:10355000A395D2F3002071F0220F331F441FB395BF
:10356000DAF30ED00C94481861307105A0E88A0790
:10357000B94630F49B01AC016627772788279078FD
:10358000309621F0208331834283538308950E9433
:10359000DA1A0C94121A0E94041A38F00E940B1ABC
:1035A00020F0952311F00C94D4190C94DA191124FD
:1035B0000C94461A0E94231A70F3959FC1F3950F3D
:1035C00050E0551F629FF001729FBB27F00DB11DA7
:1035D000639FAA27F00DB11DAA1F649F6627B00D37
:1035E000A11D661F829F2227B00DA11D621F739F20
:1035F000B00DA11D621F839FA00D611D221F749F2E
:103600003327A00D611D231F849F600D211D822F74
:10361000762F6A2F11249F5750409AF0F1F088239B
:103620004AF0EE0FFF1FBB1F661F771F881F9150C8
:103630005040A9F79E3F510580F00C94D4190C948A
:10364000461A5F3FE4F3983ED4F3869577956795E5
:10365000B795F795E7959F5FC1F7FE2B880F911DF2
:103660009695879597F90895990F0008550FAA0B1D
:10367000E0E8FEEF16161706E807F907C0F0121685
:103680001306E407F50798F0621B730B840B950B88
:1036900039F40A2661F0232B242B252B21F40895DD
:1036A0000A2609F4A140A6958FEF811D811D08957A
:1036B0009F3F31F0915020F4879577956795B795A6
:1036C000880F911D9695879597F908958F929F92EF
:1036D000AF92BF92CF92DF92EF92FF92CF93DF93A0
:1036E000EC01688179818A819B8161157105810571
:1036F000910521F464E279ED8BE597E02DE133EF5C
:1037000041E050E00E945C1D49015A019B01AC015F
:10371000A7EAB1E40E947B1D6B017C01ACEEB4EF23
:10372000A50194010E94891DDC01CB018C0D9D1D1A
:10373000AE1DBF1DB7FF03C00197A109B048888324
:103740009983AA83BB839F77DF91CF91FF90EF90FE
:10375000DF90CF90BF90AF909F908F9008950E9480
:10376000661B089589E091E00E94661B0895A0E021
:10377000B0E08093090190930A01A0930B01B093EC
:103780000C010895283008F027E03327DA01990F5B
:10379000311D87FD916000966105710539F4326035
:1037A0002E5F3D9330E32A95E1F708959F3F30F077
:1037B00080387105610509F03C5F3C5F3D939130B5
:1037C00008F08068911DDF93CF931F930F93FF92B2
:1037D000EF92192F987F9695E92F96959695E90F78
:1037E000FF27EA5EFE4F99273327EE24FF24A70127
:1037F000E70105900894079428F4360FE71EF81E99
:10380000491F511D660F771F881F991F0694A1F746
:103810000590079428F4E70EF81E491F561FC11D96
:10382000770F881F991F661F0694A1F705900794CC
:1038300028F4F80E491F561FC71FD11D880F991F66
:10384000661F771F0694A1F70590079420F4490F8F
:10385000561FC71FD81F990F661F771F881F069412
:10386000A9F784911095177041F0D695C795579593
:103870004795F794E7941A95C1F7ECEBF0E068945C
:103880001590159135916591959105907FE273950D
:10389000E118F10A430B560BC90BD009C0F7E10C34
:1038A000F11E431F561FC91FD01D7EF4703311F443
:1038B0008A95E6CFE894015030F0080F0AF400270B
:1038C000021708F4202F2395022F7A3328F079E38A
:1038D0007D932A95E9F710C07D932A9589F6069481
:1038E00097956795379517951794E118F10A430B4B
:1038F000560BC90BD00998F023957E9173957A33B6
:1039000008F070E37C932013B8F77E9170617D938B
:1039100030F0839571E37D9370E32A95E1F71124EC
:10392000EF90FF900F911F91CF91DF91992787FD25
:1039300090950895FC010590615070400110D8F7F2
:10394000809590958E0F9F1F0895FC0161507040E7
:1039500001900110D8F7809590958E0F9F1F0895C4
:103960000F931F93CF93DF93FB01238121FD03C0AE
:103970008FEF9FEF28C022FF16C046815781248118
:1039800035814217530744F4A081B1819D012F5F17
:103990003F4F318320838C93268137812F5F3F4FA8
:1039A0003783268310C0EB01092F182F0084F1857F
:1039B000E02D0995892BE1F68E819F8101969F83E9
:1039C0008E83812F902FDF91CF911F910F910895BA
:1039D000FA01AA27283051F1203181F1E8946F9340
:1039E0006E7F6E5F7F4F8F4F9F4FAF4FB1E03ED0E6
:1039F000B4E03CD0670F781F891F9A1FA11D680F84
:103A0000791F8A1F911DA11D6A0F711D811D911DB6
:103A1000A11D20D009F468943F912AE0269F11242B
:103A20003019305D3193DEF6CF010895462F47708F
:103A3000405D4193B3E00FD0C9F7F6CF462F4F70EA
:103A4000405D4A3318F0495D31FD4052419302D048
:103A5000A9F7EACFB4E0A6959795879577956795EE
:103A6000BA95C9F700976105710508959B01AC01EE
:103A70000A2E06945795479537952795BA95C9F715
:103A8000620F731F841F951FA01D0895F999FECF23
:103A900092BD81BDF89A992780B50895262FF9998E
:103AA000FECF1FBA92BD81BD20BD0FB6F894FA9A21
:103AB000F99A0FBE01960895052E97FB1EF4009407
:103AC0000E94731D57FD07D00E94C61707FC03D044
:103AD0004EF40C94731D50954095309521953F4FB1
:103AE0004F4F5F4F089590958095709561957F4FEA
:103AF0008F4F9F4F08950E94EE17A59F900DB49F82
:103B0000900DA49F800D911D11240895B7FF0C9472
:103B10007B1D0E947B1D821B930B0895F894FFCFA1
:0E3B20001201AAA90AA60AA50A0100000000C7
:00000001FF
