:100000000C94DB000C9404010C9404010C94040186
:100010000C9404010C9404010C94E20B0C94040164
:100020000C9404010C9404010C9404010C94A1118F
:100030000C9404010C9404010C9401110C9404011F
:100040000C9404010C9404010C9404010C9404011C
:100050000C9404010C9404010C9404010C94C3113D
:100060000C9404010C940401480CC40C1C0C130CDB
:10007000190CA60C9B0C26130312031223132F1327
:100080001F13361332133A13F212C41207634236A7
:10009000B79BD8A71A39685618AEBAAB558C1D3C19
:1000A000B7CC5763BD6DEDFD753EF6177231BF00DD
:1000B0000000803F6E616E00696E660000407A103D
:1000C000F35A00A0724E18090010A5D4E80000E809
:1000D0007648170000E40B54020000CA9A3B000067
:1000E00000E1F505000080969800000040420F00F6
:1000F0000000A08601000000102700000000E803B7
:10010000000000006400000000000A000000000081
:100110000100000000002C76D888DC674F0823DF40
:10012000C1DFAE59E1B1B796E5E3E453C63AE65113
:10013000997696E8E6C28426EB898C9B62ED407C3A
:100140006FFCEFBC9C9F40F2BAA56FA5F490055AD6
:100150002AF75C936B6CF9676DC11BFCE0E40D47FB
:10016000FEF520E6B500D0ED902E0300943577051E
:100170000080841E080000204E0A000000C80C33D6
:100180003333330F986E12831141EF8D2114893B65
:10019000E65516CFFEE6DB18D1844B381BF77C1DE5
:1001A000901DA4BBE424203284725E228100C9F138
:1001B00024ECA1E53D2711241FBECFEFD8E0DEBF20
:1001C000CDBF14BE0FB6F894A895809160008861E9
:1001D00080936000109260000FBE11E0A0E0B1E0DB
:1001E000E0EDFBE302C005900D92AE30B107D9F708
:1001F00024E0AEE0B1E001C01D92AC36B207E1F7F9
:100200000E94E8170C94E61D0C940000E091000198
:10021000F0910101E658FE4F81E080830895CF936D
:10022000DF93FC01C0910001D0910101DE01A654D1
:10023000BF4F81E08C93AE54BF4F9CE001900D9274
:100240009A95E1F7CB010E94420EC858DE4F888391
:10025000DF91CF9108958091670490916804892B74
:1002600069F08091000190910101FC01E758FE4F77
:100270002081222351F0805A9E4F089580910001E1
:1002800090910101805A9E4F089580E090E008957A
:100290006091000170910101FB01E554FF4FAB013A
:1002A000455A5E4F20E030E081919191A191B1914A
:1002B000280F391FE417F507B9F7FB01ED50FD4F83
:1002C0008081813011F0C90108958FEF90E0089589
:1002D0002F923F924F925F926F927F928F929F9256
:1002E000AF92BF92CF92DF92EF92FF920F931F9344
:1002F000CF93DF93CDB7DEB728970FB6F894DEBF64
:100300000FBECDBF2090000130900101D1012C9192
:10031000222309F412C2022F10E0F1013196A1014B
:10032000B6E02B9F400D511D11244F5F5F4F60E0E1
:1003300070E0CB013081630F711D811D911D3696D8
:10034000E417F507B9F730E040E050E00E941918D3
:10035000CA01B9010E94EF194B015C01B801012EDD
:10036000000C880B990B0E94F1196B017C01F101C3
:10037000E558FE4F608170E061507109072E000C56
:10038000880B990B0E94F1192B013C01F101E358F4
:10039000FE4F608170E061507109072E000C880BE0
:1003A000990B0E94F119A50194010E94431B9B0126
:1003B000AC01C301B2010E949C182B013C01F10168
:1003C000E158FE4F608170E061507109072E000C0A
:1003D000880B990B0E94F119A70196010E94431BFB
:1003E0009B01AC01C301B2010E949C182B013C018E
:1003F000F101EF57FE4F608170E061507109011506
:100400001105E9F0F1018281833609F4A5C1C1012A
:1004100008969801220F331F200F311F220F331F20
:100420002E5F3F4F220D331D07C00696FC01369705
:100430004081433609F490C182179307B1F720E059
:1004400030E0A901C301B2010E949C182B013C01BC
:10045000F101ED57FE4F808190E09C012150310960
:100460003E832D83ED58FE4F40815181628173811F
:10047000DB01CA018096A11DB11D89839A83AB83DC
:10048000BC834091310450913204609133047091E7
:10049000340484179507A607B70708F44BC13297B1
:1004A000208130E0AD81BE81A29FB001A39F700D7D
:1004B000B29F700D1124072E000C880B990B0E941F
:1004C000F1199B01AC01C301B2010E949C186D831C
:1004D0007E838F839887F101E458FE4F608170E03E
:1004E00061507109072E000C880B990B0E94F119BD
:1004F0002B013C01F101E258FE4F608170E0615038
:100500007109072E000C880B990B0E94F119A501A7
:1005100094010E94431B9B01AC01C301B2010E94E4
:100520009C184B015C01F101E058FE4F608170E0C6
:1005300061507109072E000C880B990B0E94F1196C
:100540009B01AC01C701B6010E94431B9B01AC019A
:10055000C501B4010E949C186B017C01F101EE57AA
:10056000FE4F608170E06150710901151105E9F0DD
:10057000F1018281833609F4E6C0C1010896980131
:10058000220F331F020F131F000F111F0E5F1F4F8B
:10059000020D131D07C00696FC01369720812336F5
:1005A00009F4D1C080179107B1F720E030E0A9012C
:1005B000C701B6010E949C186B017C01F101EC5748
:1005C000FE4F008110E0015011098091310490919B
:1005D0003204A0913304B091340429813A814B81D3
:1005E0005C81281739074A075B0708F49FC0E05968
:1005F000FE4FA080B12C6D817E818F8198859058AF
:100600000E9487192B013C010A9DB0010B9D700DC2
:100610001A9D700D1124072E000C880B990B0E9457
:10062000F1199B01AC01C701B6010E949C189058BA
:100630000E9487196B017C0100916B0410E004514A
:10064000110920E030E040E85FE3C301B2010E94FD
:100650009C189B01AC0160E070E080E89FE30E9481
:100660000D1920E030E040EA51E40E94431B20E0F5
:1006700030E040E05FE30E949C180E94B919060F29
:10068000171FA0905704B12C34E1A31AB10820E041
:1006900030E040E85FE3C701B6010E949C189B016F
:1006A000AC0160E070E080E89FE30E940D1920E05B
:1006B00030E040EA51E40E94431B20E030E040E09B
:1006C0005FE30E949C180E94B9196A0D7B1DCB0143
:1006D000801B910B08970CF048C0C801861B970B34
:1006E00008971CF0B80167507109F101E650FD4F01
:1006F000608331960083802F28960FB6F894DEBF72
:100700000FBECDBFDF91CF911F910F91FF90EF9062
:10071000DF90CF90BF90AF909F908F907F906F9021
:100720005F904F903F902F900C945C0DAA24AA9458
:10073000B12C61CF2FEF30E0B5CE00E010E0812C7E
:10074000912C54010BCE072E000C880B990B0E94A4
:10075000F1199B01AC012CCF072E000C880B990BD3
:100760000E94F1199B01AC016DCE8B01075011095C
:10077000BCCFCF92DF92EF92FF921F93CF93DF9384
:100780002091000130910101F9018081882309F451
:1007900047C0E901F6E08F9FC00DD11D11242597B8
:1007A000A9014550510916E07FEF809131049091E5
:1007B0003204A0913304B0913404CA80DB80EC8011
:1007C000FD808C199D09AE09BF098197A105B1056E
:1007D00018F1F9016081862F90E0FC01EE0FFF1FF8
:1007E000E80FF91FEE0FFF1FE20FF31F3196DE0136
:1007F000F12E01900D92FA94E1F70197FC01EE0FB2
:10080000FF1F8E0F9F1FFC01EE0FFF1FE20FF31F54
:1008100072836150F90160832697C417D50729F6C2
:10082000DF91CF911F91FF90EF90DF90CF900895CF
:100830008091000190910101FC01EC50FD4FDC0121
:10084000A858BE4F2C91208340913104509132041E
:1008500060913304709134043296408351836283F3
:100860007383EC53F24010820895EF92FF920F933E
:100870001F93CF93DF93A0910001B0910101FD017F
:10088000E459FE4F6081462F50E04115510509F4AF
:10089000DFC07C91C72FD0E0EA56F14020E030E085
:1008A00002C02F5F3F4FC217D30709F4F0C0808109
:1008B00090E0369684179507A1F7F901EE0FFF1F18
:1008C000E20FF31FEE0FFF1FEA0FFB1F6283009181
:1008D00031041091320420913304309134040383A5
:1008E000148325833683ED01C858DE4F88818183C8
:1008F0004336510509F4A5C0FD01EC58FE4F708147
:100900007F3F09F49EC07D018BE7E81A8EEFF80A5D
:10091000F7011081C12FD0E03B9620E030E002C00B
:100920002F5F3F4F2C173D0709F4B9C0808190E03D
:100930003C9684179507A1F7C901880F991F280FC6
:10094000391F220F331F220F331F2A0F3B1FF901BC
:10095000E057FE4F6083FD01E359FE4F808149E27D
:10096000849F912D112492959F70E901CA57DE4F03
:1009700098836CE9969F800D11249DEC899F512DE1
:10098000112456955695569521965883CAE05C9F3A
:10099000801911248083F901E857FE4F8083FD01FF
:1009A000E259FE4F8081849F512D112452955F7032
:1009B000E901C757DE4F5883569F800D1124899F48
:1009C000512D112456955695569521965883CAE077
:1009D0005C9F801911248083F901E557FE4F8083C5
:1009E000FD01E159FE4F8081849F512D11245295C4
:1009F0005F70E901C457DE4F5883569F800D112464
:100A0000899F912D11249695969596952196988378
:100A10005AE0959F801911248083F901E257FE4F17
:100A200080833196ED01C059DE4F8881849F812DEE
:100A3000112482958F70808332967083A654BF4FA5
:100A40001C92DF91CF911F910F91FF90EF9008952D
:100A5000FD01EC50FD4FED01C858DE4F88818083C9
:100A60004091310450913204609133047091340408
:100A700032964083518362837383A654BF4F1C9286
:100A8000DF91CF911F910F91FF90EF9008957E31EC
:100A900018F47F5F7C9311CF215031090ECF1E31A6
:100AA00020F41F5FF701108347CF2150310944CF55
:100AB000CF93DF93C0910001D0910101FE01E7586F
:100AC000FE4F1082EE5BF1099E01255A3E4F80E0F9
:100AD00090E04191519161917191840F951FE217BE
:100AE000F307B9F7FE01ED50FD4F20812130C1F031
:100AF000FE01E859FE4F8083CE01805A9E4F0E942E
:100B0000CD13C659DE4F99838883E0910001F0919F
:100B10000101E758FE4F81E08083DF91CF91089576
:100B20008FEFE6CFA0910001B09101012C9122231B
:100B3000C9F012968C911297833669F1CD0108960F
:100B4000AD0136E0239F400D511D11244E5F5F4FD4
:100B500006C00696FC01369720812336E1F0841703
:100B60009507B9F7FD01E55AFE4F2081822F90E0ED
:100B700034E0239FA00DB11D1124A554BF4F1D9239
:100B80001D921D921C921397019668E270E00E94DC
:100B9000051880830895FD01E55AFE4F2081822FBC
:100BA00090E034E0239FA00DB11D1124A554BF4F48
:100BB00041E050E060E070E04D935D936D937C9375
:100BC0001397019668E270E00E94051880830895EB
:100BD000CF93DF93C0910001D0910101FE01E7584E
:100BE000FE4F108270971082CE01805A9E4F209146
:100BF0006704FC0120837B96A08131964081329668
:100C0000208131966081FAE06F9FB001112434E6B3
:100C1000239F600D711D1124FE01E058FE4F2081BD
:100C2000620F711D3196508131962081BAE02B9F61
:100C300090011124E4E65E9F200D311D1124FE0178
:100C4000ED57FE4F5081250F311D31963081B397FE
:100C5000BAE04B9FA0011124B4E6AB9F400D511D9B
:100C60001124DE01A358BE4F7C91470F511D4083D4
:100C70003196608331962083319644E6349F90010B
:100C800011242083E95AF109929720E030E0419144
:100C9000519161917191240F351FEA17FB07B9F744
:100CA000FE01ED50FD4F40814130A9F0FE01E859B1
:100CB000FE4F20830E94CD13C659DE4F998388834F
:100CC000E0910001F0910101E758FE4F81E080833F
:100CD000DF91CF9108952FEFE9CF4F925F926F92FE
:100CE0007F928F929F92BF92CF92DF92EF92FF926C
:100CF0000F931F93CF93DF93C0910001D091010117
:100D0000FE01EE50FD4F808181115CC100E010E0DA
:100D10004BEAF42E0E94BB0DC00FD11FC558DE4F09
:100D20008F9D912D11249695292F220F920F891BAB
:100D300088830F5F1F4FC0910001D09101010A30DD
:100D4000110541F7FE01EE50FD4F81E08083FE0169
:100D5000E558FE4F608170E080E090E00E94F1195C
:100D600020E030E0A9010E949C180E94B919072ECA
:100D7000000C880B990B0E94F1196B017C01FE019C
:100D8000E458FE4F8081682F70E080E090E00E9480
:100D9000F1199B01AC010E949C189B01AC01C70199
:100DA000B6010E949C180E94B919072E000C880BEE
:100DB000990B0E94F1196B017C01FE01E358FE4F73
:100DC0008081682F70E080E090E00E94F11920E0BF
:100DD00030E040E850E40E94431B9B01AC01C70196
:100DE000B6010E949C180E94B919072E000C880BAE
:100DF000990B0E94F1196B017C01FE01E258FE4F34
:100E00008081682F70E080E090E00E94F11920E07E
:100E100030E040E051E40E94431B9B01AC01C7015C
:100E2000B6010E949C180E94B919072E000C880B6D
:100E3000990B0E94F1196B017C01FE01E158FE4FF4
:100E40008081682F70E080E090E00E94F11920E03E
:100E500030E040E851E40E94431B9B01AC01C70114
:100E6000B6010E949C180E94B919072E000C880B2D
:100E7000990B0E94F1196B017C01FE01E058FE4FB5
:100E80008081682F70E080E090E00E94F11920E0FE
:100E900030E040E052E40E94431B9B01AC01C701DB
:100EA000B6010E949C180E94B919072E000C880BED
:100EB000990B0E94F1196B017C01FE01EF57FE4F67
:100EC0008081682F70E080E090E00E94F11920E0BE
:100ED00030E040E852E40E94431B9B01AC01C70193
:100EE000B6010E949C180E94B919072E000C880BAD
:100EF000990B0E94F1196B017C01FE01EE57FE4F28
:100F00008081682F70E080E090E00E94F11920E07D
:100F100030E040E053E40E94431B9B01AC01C70159
:100F2000B6010E949C180E94B919072E000C880B6C
:100F3000990B0E94F1196B017C01FE01ED57FE4FE8
:100F40008081682F70E080E090E00E94F11920E03D
:100F500030E040E853E40E94431B9B01AC01C70111
:100F6000B6010E949C180E94B919CC57DE4F8881A7
:100F7000860F0E947D1180910001909101014091A6
:100F80003104509132046091330470913404FC01B7
:100F9000E251FD4F4083518362837383E956F140F0
:100FA0001082DF91CF911F910F91FF90EF90DF9012
:100FB000CF90BF909F908F907F906F905F904F9059
:100FC0000C94E805FE01EB57FE4FC080CC2009F4DD
:100FD00087C07E018FE6E81A8EEFF80AF70160817C
:100FE00070E080E090E00E94EF192B013C01D12CD1
:100FF00000E010E0812C912CF701B0806B2D70E0A7
:1010000080E090E00E94F119A30192010E94C81AA9
:1010100018164CF46B2D70E080E090E00E94EF1900
:101020002B013C0148010F5F1F4FFCE0EF0EF11C4C
:101030000C151D0509F7FE01E558FE4FC401880F88
:10104000991F880E991E880C991C880C991C8C0E6F
:101050009D1ED401AA57BE4F8C9180833196119664
:101060008C918083319611968C9180833196119664
:101070008C918083319611968C9180833196119654
:101080008C918083319611968C9180833196119644
:101090008C918083319611968C918083CC57DE4F52
:1010A000F401E157FE4F808188830E94BB0D682FB9
:1010B00070E080E090E00E94EF1920E030E040E82E
:1010C0005BE30E94431B23E333E343E35FE30E94BC
:1010D000081987FD27C0C0910001D091010137CECA
:1010E000E259FE4F81E08083809131049091320477
:1010F000A0913304B0913404C251DD4F88839983A9
:10110000AA83BB83DF91CF911F910F91FF90EF9046
:10111000DF90CF90BF909F908F907F906F905F9067
:101120004F9008950E94BB0D09E2809F012D11246C
:101130000695069510E00E94BB0DC0910001D0916C
:1011400001010C0F1D1FF801E558FE4F2081881F7B
:101150008827881F90E00196820F911D63E070E060
:101160000E9405188083F3CDCF93DF93C0910001D7
:10117000D0910101FE01E759FE4F1082CE01805A45
:101180009E4F20916704DC012C93319710820E94BE
:10119000CD13C659DE4F99838883E0910001F09109
:1011A0000101DF01A654BF4F1C92A154BF4F81E043
:1011B0008C9311961C92A45CB1091D921D921D92F4
:1011C0001C9213971082A35CBD4F1C9211971C9226
:1011D000AD56B1401C92A759BE4F1D921D921D9253
:1011E0001C92139716968FEF8C9311968C931196F1
:1011F0001D921D921D921C921397AB53B24080EA30
:10120000ED0119928A95E9F7A056BF4F1C92EF594C
:10121000FE4F88E0DF011D928A95E9F70E946D0676
:101220000E94610D60916A04809169040E945C0DC6
:10123000E0910001F0910101E45AFE4F1082118209
:1012400012821382DF91CF9108958F929F92AF9275
:10125000BF92FF920F931F93CF93DF93C091000132
:10126000D0910101409131045091320460913304D6
:10127000709134048E01045A1E4FF80180819181CF
:10128000A281B3818096A11DB11DF88084179507B6
:10129000A607B70708F4FCC09E01255A3E4FFF2061
:1012A00009F449C0AE01F6E0FF9E400D511D112426
:1012B00045505109BE016550710916E0F12E0FEF3E
:1012C0008091310490913204A0913304B0913404A0
:1012D000FA0182809380A480B58088199909AA09AF
:1012E000BB098197A105B10508F11881812F90E014
:1012F000FC01EE0FFF1FE80FF91FEE0FFF1FEC0FB1
:10130000FD1F3196DA01BF2C01900D92BA94E1F7DE
:101310000197FC01EE0FFF1F8E0F9F1FFC01EE0FC8
:10132000FF1FEC0FFD1F0283115018834650510917
:101330004617570729F6FE01E758FE4F1082EE5B6D
:10134000F10980E090E04191519161917191840F98
:10135000951FE217F307B9F7FE01ED50FD4F20810D
:10136000213009F4D6C0FE01E859FE4F8083CE013A
:10137000805A9E4F0E94CD13C659DE4F99838883B1
:101380008091000190910101FC01E758FE4F21E09E
:101390002083EF5BF1092081213009F4D4C0409112
:1013A00031045091320460913304709134040091FF
:1013B0003104109132042091330430913404FC0143
:1013C000E251FD4F40815181628173814058584FF5
:1013D0006F4F7F4F401751076207730708F44EC0E5
:1013E000009131041091320420913304309134047F
:1013F000FC01EA54FF4F4081518162817381405E5C
:101400005F4F6F4F7F4F401751076207730760F5BB
:10141000409131045091320460913304709134044E
:101420004083518362837383E35CFD4F808181112C
:101430000BC0DF91CF911F910F91FF90BF90AF90A4
:101440009F908F900C94680180E00E947D1160E075
:1014500080E0DF91CF911F910F91FF90BF90AF90EF
:101460009F908F900C945C0DDF91CF911F910F9105
:10147000FF90BF90AF909F908F9008958FE30E9450
:101480007D110E946D068091000190910101A8CF0D
:10149000FF20B9F08A818336F1F1CE010896AE01C2
:1014A000F6E0FF9E400D511D11244E5F5F4F06C0B8
:1014B0000696FC0136972081233669F1841795073B
:1014C000B9F79E01255A3E4FF9014081842F90E0E3
:1014D000FE0154E0459FE00DF11D1124E554FF4F3E
:1014E0001082118212821382019668E270E00E94DB
:1014F0000518F90180838091310490913204A09104
:101500003304B0913404F80180839183A283B383C0
:10151000C6CE8FEF28CF9E01255A3E4FF90140815C
:10152000842F90E0FE0154E0459FE00DF11D112451
:10153000E554FF4F41E050E060E070E040835183AC
:1015400062837383D1CF0E94350480910001909112
:10155000010125CFE0910001F091010120812223BA
:10156000B9F082818336B9F0CF010896AF0136E039
:10157000239F400D511D11244E5F5F4F06C00696FC
:10158000FC0136972081233631F084179507B9F78F
:1015900080E090E0089581E090E0089520910001BE
:1015A0003091010140913104509132046091330433
:1015B00070913404F901EA50FD4F80819181A2813C
:1015C000B3818096A11DB11D84179507A607B707A3
:1015D00010F48FEF089532978081089520E030E075
:1015E00040E05FE30E949C180E94B919CB01089566
:1015F000089580E090E008950895DF92EF92FF92C1
:101600000F931F93CF93DF93F89414B817B81AB8B9
:1016100015B818B81BB8529A5A9A14BC85E085BD03
:101620008FEF87BD82E080936E0010928000109251
:1016300081002FE83BE0309389002093880080935D
:101640006F005398239891EA9093B0008093B10073
:101650001092B4001092B3008BE080BF83E08093BF
:101660007F0086E080937C0083E880937A008091FD
:101670007A00806480937A0080917A0086FDFCCFA6
:1016800010927C0083EA80937A0081E080937B0053
:1016900081E090E00E949E1D8F3F11F080936600D4
:1016A00010923504C1E0C0930E04C093520410920E
:1016B0002C041092660480E990E00E949E1D8093A5
:1016C0002B0480912B04887311F0C0932B0410928B
:1016D0005604109255048FEF90E090935404809339
:1016E0005304109231041092320410923304109279
:1016F000340481E08093110182E49FE090936504BB
:101700008093640480EB90E00E949E1DC82F81EBC3
:1017100090E00E949E1D2C2F30E0382B30936804FF
:101720002093670485E090E00E949E1D80936B04E7
:1017300089E090E00E949E1D809357048CE090E029
:101740000E949E1D8093690484E190E00E949E1D8A
:1017500080936A0456E3E52E54E0F52E0FE014E082
:10176000C0E2D0E0CE010E949E1DD82ECE0101968F
:101770000E949E1D2D2D30E0322F2227282BF701AD
:10178000219331937F01CE01C0960E949E1DD82ED9
:10179000CE01C1960E949E1D2D2D30E0322F2227B2
:1017A000282BF801219331938F012296CC33D10558
:1017B000C9F67894DF91CF911F910F91FF90EF9030
:1017C000DF9008951F920F920FB60F9211248F93FE
:1017D0000FB6F894A89580916000886180936000AE
:1017E000109260000FBE8F910F900FBE0F901F9050
:1017F00018953C01EB0110E099249A9484E0C82EDE
:1018000096E0A92E23E8B22E38E1D32E49E2E42E49
:1018100090911101E92FF0E0E730F105C8F7EC5C99
:10182000FF4F0C943B18112309F4FCC0C092110126
:1018300011E0FE010995ECCF809135048111EBC0D8
:10184000F894A0927C00B0927A0080917A00806433
:1018500080937A0090917A0096FDFCCF8091780079
:101860009091790078948B3AE2E09E070CF0EDC0FD
:101870008938F2E09F070CF0EFC0873692400CF4F5
:10188000CAC0559A549A3B9A3A9A3D983C98C0CF10
:10189000F89480B7877F80BF80917A008F7780939C
:1018A0007A0014B817B81AB815B818B81BB80FB61C
:1018B000F894A895D09260000FBEE09260008091ED
:1018C000600080648093600093B7917F946093BFC1
:1018D000F89483B7816083BF7894889583B78E7FAF
:1018E00083BF789410923504529A5A9A80917A0064
:1018F000806880937A0087E592E00197F1F700C055
:10190000000080B7886180BF559A549A3B9A3A9AF2
:101910003D9A3C9AEFE1FEE43197F1F700C00000F8
:1019200080913504811181C0559854983B983A981C
:101930003D983C986DCF80910F01811141C010926C
:10194000B3001092B4001092100162CF4899ECCF0E
:10195000559A54983B983A983D983C988FEC97E06C
:101960000197F1F700C00000559854983B983A98B9
:101970003D983C989FEFE1EEF4E09150E040F0405C
:10198000E1F700C0000044CF559854983B9A3A9A2A
:101990003D983C98EFECF7E03197F1F700C000007C
:1019A000559854983B983A983D983C98FFEF21EE13
:1019B00084E0F15020408040E1F700C0000028CFD3
:1019C00090910F0180911001981709F421CF809117
:1019D0000F018093100180910F01813009F450C0F4
:1019E00080910F011092B3009092B4008230D9F12F
:1019F0009092B3009092B4008FE295E70197F1F7CF
:101A000000C0000080916A04909169049093B30033
:101A10008093B400FDCE559A549A3B983A983D98DD
:101A20003C98F6CEF301099501CF559A549A3B980C
:101A30003A983D983C98FFEF20E782E0F150204033
:101A40008040E1F700C000006FCF559854983B9A52
:101A50003A9A3D983C98DCCE559854983B983A98E1
:101A60003D9A3C9AD5CEEFE2F5E73197F1F700C009
:101A70000000809157041092B3008093B400C8CE48
:101A80009092B3001092B4008FE295E70197F1F7BE
:101A900000C0000080916B048093B3001092B400EA
:101AA000B7CE07C0EFECF7E03197F1F700C00000C8
:101AB00001970097B9F708958093B3006093B4003D
:101AC00008958FEF8093B3008093B4008FE090E08F
:101AD000EFECF7E03197F1F700C000000197C1F794
:101AE00008958091350481111EC0F89487E0809399
:101AF0007C0083E880937A0080917A0080648093F0
:101B00007A0080917A0086FDFCCF809178009091D8
:101B1000790010927C0023EA20937A0021E0209340
:101B20007B00789408958FEF9FEF0895809135049E
:101B300081111EC0F89488EC80937C0087E8809324
:101B40007A0080917A00806480937A0080917A0094
:101B500086FDFCCF809178009091790010927C00F6
:101B600023EA20937A0021E020937B007894089563
:101B70008FEF9FEF08950F931F93CF93DF93E0E0D4
:101B8000F0E080E003EA11E0D6E0C3E8A1E0B0E0D5
:101B900060E870E0F894D0937C00C0937A00909154
:101BA0007A00906490937A0090917A0096FDFCCF31
:101BB0002091780030917900217090917A009064A2
:101BC00090937A0090917A0096FDFCCF4091780036
:101BD0005091790010927C0000937A0010937B0062
:101BE00078944170241303C06150710999F622233F
:101BF00039F09D010E2E01C0220F0A94EAF7822BC4
:101C00003196E830F10509F0C3CFDF91CF911F91F4
:101C10000F91089580910201982F990F990F990FB4
:101C2000892790910E0121E0290F20930E01282F82
:101C300022952695277082279695969589278093D9
:101C40000201089580930201089580913504811165
:101C500016C0F89486E080937C0083E880937A0035
:101C600080917A00806480937A0080917A0086FD6A
:101C7000FCCF8091780090917900789408958FEF4F
:101C80009FEF08952F923F924F925F926F927F92B3
:101C90008F929F92AF92BF92CF92DF92EF92FF927C
:101CA0000F931F93CF93DF9300D000D000D0CDB718
:101CB000DEB71C01DC0112960D90BC91A02DBE83F5
:101CC000AD83A438E3E0BE070CF0C9C080910F04D7
:101CD000909110048A179B0708F437C100911104F2
:101CE000109112040A171B0708F42FC20091130465
:101CF000109114040A171B0708F42FC20091150451
:101D0000109116040A171B0708F42FC2009117043C
:101D1000109118040A171B0708F42FC20091190428
:101D200010911A040A171B0708F4EFC100911B0455
:101D300010911C040A171B0708F427C200911D0408
:101D400010911E040A171B0708F427C200911F04F4
:101D5000109120040A171B0708F427C200912104E0
:101D6000109122040A171B0708F427C200912304CC
:101D7000109124040A171B0708F427C200912504B8
:101D8000109126040A171B0708F423C200912704A8
:101D9000109128040A171B0708F423C20091290494
:101DA00010912A040A171B0708F423C280E090E070
:101DB000A0EDB0E489839A83AB83BC834CE0E42E2E
:101DC000F12CF701EE0FFF1FE15FFB4F8081918146
:101DD000B801681B790B80E090E00E94EF199B012D
:101DE000AC010E949C186B017C01AD81BE81BD01DC
:101DF000BB0F880B990B0E94F1194B015C01B801D4
:101E000080E090E00E94EF192B013C0129813A818A
:101E10004B815C81C701B6010E94431B9B01AC0151
:101E2000C301B2010E949B189B01AC01C501B40122
:101E30000E949B1820E030E040E251E40E94431BE6
:101E40000E94B9198B01C701B6010E94B919AB01F3
:101E5000BC01C801BA010E940518162F77C0DC0129
:101E6000CD90DC9080913604909137048C159D05BF
:101E700008F48CC01FEFE0903804F0903904EC14A3
:101E8000FD0408F45EC1E0903A04F0903B04EC14C9
:101E9000FD0408F45EC1E0903C04F0903D04EC14B5
:101EA000FD0408F45EC1E0903E04F0903F04EC14A1
:101EB000FD0408F45EC1E0904004F0904104EC148D
:101EC000FD0408F4C3C0E0904204F0904304EC1415
:101ED000FD0408F456C1E0904404F0904504EC146D
:101EE000FD0408F456C1E0904604F0904704EC1459
:101EF000FD0408F456C1E0904804F0904904EC1445
:101F0000FD0408F456C1E0904A04F0904B04EC1430
:101F1000FD0408F456C1E0904C04F0904D04EC141C
:101F2000FD0408F45AC1E0904E04F0904F04EC1404
:101F3000FD0408F45AC1E0905004F0905104EC14F0
:101F4000FD0408F45AC10AE531C010E0ED81FE81BC
:101F5000ED3BF240FCF481E2810F26960FB6F89437
:101F6000DEBF0FBECDBFDF91CF911F910F91FF90CC
:101F7000EF90DF90CF90BF90AF909F908F907F9029
:101F80006F905F904F903F902F90089500E081E216
:101F9000800FE3CFD101CD90DC90809136049091F9
:101FA00037048C159D0508F066CF00E01F3F79F3DC
:101FB000ED81FE81BF01FF0F880B990B0E94F11983
:101FC0006B017C01612F70E080E090E00E94EF19CE
:101FD0004B015C01A701960160E070E081E694E4AA
:101FE0000E949B189B01AC01C501B4010E94431BD8
:101FF0004B015C01602F70E080E090E00E94EF19DF
:102000002B013C0120E030E04FE254E4C701B6016F
:102010000E949B189B01AC01C301B2010E94431BAB
:102020009B01AC01C501B4010E949C1820E030E086
:1020300048E453E40E940D1920E030E044E052E40B
:102040000E949C180E94C019862F87CF05E085E06A
:1020500090E0880F991FFC01EC5CFB4F808191811F
:10206000B701681B790B80E090E00E94EF199B019B
:10207000AC010E949C184B015C01B601DD0C880B81
:10208000990B0E94F1192B013C01B70180E090E00F
:102090000E94EF196B017C01602F70E080E090E0FE
:1020A0000E94EF1920E030E040E05FE30E94431B14
:1020B00020E030E0A9010E949C18A50194010E9433
:1020C000431B9B01AC01C701B6010E949B189B01F9
:1020D000AC01C301B2010E949B1820E030E040E255
:1020E00051E40E94431B0E94B9197B01C501B40150
:1020F0000E94B919AB01BC01C701BA010E940518C1
:10210000062F6F3F09F052CF26CF65E085E090E0C3
:102110007C01F1E0EF1AF10870E080E090E00E94AD
:10212000EF1920E030E040E05FE30E94431B20E035
:1021300030E0A9010E949C1869837A838B839C8379
:1021400040CE01E081E090E084CF61E081E090E06A
:10215000DFCF02E082E090E07CCF62E082E090E0BE
:10216000D7CF03E083E090E074CF63E083E090E0BA
:10217000CFCF04E084E090E06CCF64E084E090E0B6
:10218000C7CF06E086E090E064CF66E086E090E0AE
:10219000BFCF07E087E090E05CCF67E087E090E0AA
:1021A000B7CF08E088E090E054CF68E088E090E0A6
:1021B000AFCF09E089E090E04CCF69E089E090E0A2
:1021C000A7CF0AE08AE090E044CF6AE08AE090E09E
:1021D0009FCF6BE08BE090E09BCF0BE08BE090E03B
:1021E00038CF6CE08CE090E093CF0CE08CE090E096
:1021F00030CF6DE08DE090E08BCF0DE08DE090E092
:1022000028CF1F920F920FB60F9211242F933F9356
:102210004F935F936F937F938F939F93AF93BF93EE
:10222000EF93FF932091550430915604809153040D
:1022300090915404820F931F9093560480935504F9
:102240008FEF90E090935404809353048FEF87BDF9
:102250008091310490913204A0913304B091340400
:102260000196A11DB11D8093310490933204A09377
:102270003304B09334048091350481110FC08091F0
:10228000640490916504209155043091560482179E
:10229000930720F480911101843089F0FF91EF9130
:1022A000BF91AF919F918F917F916F915F914F916E
:1022B0003F912F910F900FBE0F901F901895E091B6
:1022C0000501F09106010995009741F30E94E91379
:1022D000811109C00E940A1C99279093540480938D
:1022E000530487BDDBCFE0910301F0910401099510
:1022F0001092560410925504D1CF80FF11C0559A08
:1023000081FF11C0549A82FF11C03B9A83FF11C014
:102310003A9A84FF11C03D9A85FD11C03C980895FA
:10232000559881FDEFCF549882FDEFCF3B9883FD08
:10233000EFCF3A9884FDEFCF3D9885FFEFCF3C9AE1
:1023400008951F920F920FB60F9211248F939F93AF
:1023500010928100109285001092840081E0809399
:102360000E04809352041092350410927C0093EA7C
:1023700090937A0080937B009F918F910F900FBE76
:102380000F901F9018951F920F920FB60F92112465
:102390002F933F934F935F936F937F938F939F936D
:1023A000AF93BF93CF93DF93EF93FF93209184007C
:1023B0003091850041E04093350480910E048823DC
:1023C000A9F1109285001092840040938100109230
:1023D000660410920E04809152048823A1F080912B
:1023E0007A0086FDFCCF80917800909179009093DF
:1023F000300480932F0481E080937C0093EA9093D3
:102400007A0080937B00FF91EF91DF91CF91BF9194
:10241000AF919F918F917F916F915F914F913F917C
:102420002F910F900FBE0F901F901895C9018758DC
:1024300091098437994008F052C026583109A4EF19
:10244000B0E00E944118AA27BB2788309105A1055A
:10245000B10508F47BC040930E04809152048111B1
:1024600052C080912C04E82FF0E0E85AFB4F909185
:10247000660490838F5F80932C048C3021F6109239
:1024800081001092850010928400409352041092B3
:102490003504C0916204D091630488E594E00E9401
:1024A000CD13C817D90709F0AECF8091610487FF1B
:1024B00061C098E7980F933030F0539823981092AA
:1024C000B4001092B30090E0FC01E058F109EB3049
:1024D000F10508F098CFE55CFF4F0C943B18109283
:1024E0008100109285001092840040930E04409366
:1024F00052041092350410927C0083EA80937A0093
:1025000040937B0080CF80917A0086FDFCCF809144
:1025100078009091790090932E0480932D0410926E
:102520007C0083EA80937A0081E080937B00909125
:1025300066049923D1F010928100109285001092C8
:10254000840080935204109235045DCF21E030E086
:10255000F90102C0EE0FFF1F8A95E2F7CF019091BB
:102560006604892B809366044ECF10925204109219
:102570002C0449CFE0910701F09108016DE274E06D
:1025800088E594E009953FCF80915804823009F4A2
:10259000DDC008F4BAC0833009F4C6C0843009F045
:1025A000B1C080910F0190915E04833009F4E3C0C3
:1025B00080915D041092100123E020930F0180931D
:1025C000690490936A0480911101863009F41BCF4D
:1025D000539A239A1092B4001092B30086E080932D
:1025E000110111CF80911101863099F0539A239AED
:1025F0001092B4001092B300559854983B983A98B2
:102600003D983C9810920F011092100186E0809343
:10261000110181E090E09C010090580402C0220F5B
:10262000331F0A94E2F78091670490916804822333
:102630009323892B09F086C010920F01E4CE81E02C
:1026400080931101E0CEE0E0F0E0099580916E000A
:102650008D7F80936E0016BCE0E0F0E70995109244
:102660001101D1CE82E080931101CDCE85E080931F
:102670001101C9CE80911101833009F4C4CE80913B
:102680001101843009F4BFCE539A239A1092B400FA
:102690001092B30083E080931101B5CE80911101B7
:1026A000863009F0B0CE6091670480EB90E00E9424
:1026B000A61D6091680481EB90E00E94A61D6091C8
:1026C0006B0485E090E00E94A61D6091570489E0AC
:1026D00090E00E94A61D609169048CE090E00E9449
:1026E000A61D60916A0484E190E00E94A61D5398A3
:1026F00023981092B4001092B30081E080931101EE
:102700008091580481115FCF7ECE882339F28130C9
:10271000C9F78091590490915A049093680480936A
:10272000670410920F014FCF80910F01823071F139
:1027300080915C041092100192E090930F018093BD
:10274000570441CF81E080930F015DCE80910F014E
:10275000813051F080915B041092100191E09093D0
:102760000F0180936B042FCF80915B0490916B04D9
:102770008913F2CF28CF80916A04981319CF8091E2
:102780005D0420916904821315CF1DCF80915C04F4
:10279000909157048913CECF16CFFC01AC01465F50
:1027A0005F4F8FEF9FEF21918227082E8295807FC8
:1027B0008025092E982F82958F7008268695982758
:1027C0008927880F880F880F8025E417F50759F7A8
:1027D00008950FB6F894A4B120912B042A2B24B9A4
:1027E00021E030912B04203029F0000025B1232B6B
:1027F00025B904C000000000000000C00000000077
:102800000000309525B1232325B92EEA2A95F1F74A
:102810002BEE30B735FF0AC0A4B930912B043095A8
:1028200025B1232325B90FBE80E0089500002A9525
:1028300081F721E030912B04203029F0000025B1F0
:10284000232B25B904C000000000000000C00000D8
:1028500000000000309525B1232325B9000024E5B0
:102860002A95F1F7FC018CE0619170E0660F771F0B
:10287000616072609AE041E050E09A0126233723BC
:10288000232B30912B04203029F0000025B1232B7D
:1028900025B904C000000000000000C000000000D6
:1028A0000000309525B1232325B9000021E52A95A4
:1028B000F1F7440F551F9A9501F78A95A9F620B7AD
:1028C000206120BFA4B930912B04309525B123237A
:1028D00025B90FBE81E00895A3E1B0E0E2E7F4E19D
:1028E0000C9450186C014B012A01FC0117821682CE
:1028F000838181FF43C3AE014F5F5F4F3A01F60111
:102900009381F40193FD859193FF81914F01882379
:1029100009F430C3853239F493FD859193FF819199
:102920004F01853239F4B60190E00E94081D520132
:102930002501E5CF10E0F12C20E02032A0F48B320D
:1029400069F030F4803259F0833269F420612CC090
:102950008D3239F0803339F4216026C02260246042
:1029600023C0286021C027FD27C030ED380F3A3042
:1029700078F426FF06C0FAE01F9F300D1124132FB4
:1029800013C04AE0F49E300D1124F32E20620CC0D7
:102990008E3221F426FDEEC2206406C08C3611F47E
:1029A000206802C0883641F4F40193FD859193FFBD
:1029B00081914F018111C1CF9BEB980F933018F497
:1029C0002061805E06C09BE9980F933008F071C1CA
:1029D0002F7E26FF16E02F73322E853619F42064E1
:1029E000322E08C0863621F4F22FF0683F2E02C046
:1029F0001111115037FE07C01C3350F4EE24E3943C
:102A0000E10E27E00BC0183038F027E017E005C0D2
:102A100027E04CE3E42E02C0212FE12C520144E0D8
:102A2000A40EB11CF20160817181828193810E2D0F
:102A3000A3010E941A1C2C01098100FF02C003FFA0
:102A400007C031FC08C032FE09C030E2232E07C0A7
:102A50002DE2222E04C09BE2292E01C0212C802FC2
:102A60008C7019F0211068C2A8C237FE0FC0E40CA8
:102A700004FF04C08A81813309F4EA941E1474F5BA
:102A8000F8E0FE1578F588E0E82E2CC036FC2AC068
:102A9000812F90E0841595059CF02CEF42162FEFC6
:102AA000520674F0432D4068342E0AC0E2E0F0E094
:102AB000EC0FFD1FE10FF11D8081803319F41150DF
:102AC0001111F4CF37FE0EC0EE24E394E10E812FF6
:102AD00090E0481659062CF4141904C0EE24E3942F
:102AE00001C010E037FE06C01414150434F4C2010E
:102AF000019605C085E090E002C081E090E02110E1
:102B00000196112331F0212F30E02F5F3F4F820FCC
:102B1000931F2F2D30E08217930714F4F81A01C089
:102B2000F12C832D897049F4FF2039F0B60180E241
:102B300090E00E94081DFA94F7CF222029F0B601F8
:102B4000822D90E00E94081D33FC09C0FF2039F05F
:102B5000B60180E390E00E94081DFA94F7CF37FE9B
:102B60005AC0942D852D57FE02C090E080E0292E9A
:102B7000382E20E030E0A2014E1951095D874C87C4
:102B8000A201421953095F874E87612F70E04427E5
:102B90005527461B570B598B488B5FEF251635067B
:102BA00049F4B6018EE290E02A8B3B8B0E94081D0F
:102BB0003B892A89421453046CF04C855D8542158B
:102BC000530544F4EE85FF85E20FF31FE60DF71D74
:102BD000818101C080E351E0251A31082F5F3F4F0A
:102BE00048895989241635064CF0B60190E02A8BA5
:102BF0003B8B0E94081D2A893B89CFCF24143504C2
:102C000039F49A81963318F4953311F404FF81E373
:102C1000B60190E04BC08A81813309F00F7EB60186
:102C200090E00E94081D111105C034FC18C085E613
:102C300090E017C0B6018EE290E00E94081D82E08D
:102C4000EE24E394E80EF301E80FF11D8081B60154
:102C500090E00E94081D11508E2D91F7E6CF85E47B
:102C600090E0B6010E94081D57FC05C041145104B4
:102C700039F404FF05C05194419451088DE201C01C
:102C80008BE2B60190E00E94081D80E39AE04916AD
:102C900051042CF08F5F5AE0451A5108F7CFB60166
:102CA00090E00E94081DB601C201C0960E94081D56
:102CB00057C1833631F0833779F0833509F058C036
:102CC00021C05201E2E0AE0EB11CF2018081898385
:102CD00001E010E0230114C05201F2E0AF0EB11C7C
:102CE000F2014080518026FF03C0612F70E002C0D6
:102CF0006FEF7FEFC2012A8B0E94FD1C8C012A8995
:102D00002F7715C05201F2E0AF0EB11CF2014080E6
:102D1000518026FF03C0612F70E002C06FEF7FEF8C
:102D2000C2012A8B0E94F21C8C012A892068322E53
:102D300023FD1AC08F2D90E008171907A8F4B601DB
:102D400080E290E00E94081DFA94F4CFF20137FC73
:102D5000859137FE81912F01B60190E00E94081DF8
:102D6000F110FA94015011090115110579F7F8C015
:102D7000843611F0893659F5520127FF09C0F4E075
:102D8000AF0EB11CF20160817181828193810AC012
:102D9000F2E0AF0EB11CF20160817181072E000CD0
:102DA000880B990B2F76322E97FF09C0909580954E
:102DB000709561957F4F8F4F9F4F2068322E2AE08C
:102DC00030E0A3010E94401DE82EE6183FC0022F0C
:102DD000853721F40F7E2AE030E01DC0097F8F3651
:102DE00091F018F4883559F0C5C0803719F088374C
:102DF00011F0C0C0006104FF09C0046007C024FFD7
:102E000008C0066006C028E030E005C020E130E0E0
:102E100002C020E132E0520107FF09C0F4E0AF0E2A
:102E2000B11CF201608171818281938108C0F2E05E
:102E3000AF0EB11CF2016081718180E090E0A301CE
:102E40000E94401DE82EE6180F77302E36FE0BC08C
:102E5000332D3E7FE11650F434FE0AC032FC08C028
:102E6000332D3E7E05C00E2D332D03C00E2D01C027
:102E7000012F34FF0CC0FE01EE0DF11D8081803367
:102E800011F4397E08C032FF05C00E5F04C0832FE5
:102E9000867809F00F5F33FD13C030FF06C01E2D8A
:102EA0000F1518F41F0D101B0F2D0F1568F4B60128
:102EB00080E290E03B8B0E94081D0F5F3B89F5CFBD
:102EC0000F1510F4F01A01C0F12C34FF12C0B60136
:102ED00080E390E03B8B0E94081D3B8932FF17C0C6
:102EE00031FD03C088E790E002C088E590E0B601BC
:102EF0000CC0832F867859F031FF02C08BE201C0ED
:102F000080E237FD8DE2B60190E00E94081DE116D7
:102F100038F4B60180E390E00E94081D1150F7CF0D
:102F2000EA94F301EE0DF11D8081B60190E00E945C
:102F3000081DE110F5CF14C0F4E0FF1558F584E04A
:102F4000F81A33FE1EC0211026C003FF2AC004EB6E
:102F500010E0F32DF0713F2EF8018491811124C00F
:102F6000FF2009F4E5CCB60180E290E00E94081D44
:102F7000FA94F6CFF6018681978126C08FEF9FEFF6
:102F800023C0B60180E290E00E94081DFA94F1107F
:102F9000F8CFD9CFF12CB601822D90E00E94081D08
:102FA000D4CF08EB10E0D5CF31108052B60190E0BD
:102FB0000E94081D0F5F1F4FCFCF23E02F1510F485
:102FC00083E0BECFF12CC1CF6396E2E10C946C1884
:102FD0000E94FD0A8FE091E0909308018093070121
:102FE0008BE291E0909306018093050186E091E0E9
:102FF000909304018093030165E279E084EB98E00B
:103000000E94F90B80E090E0089597FB072E16F4DC
:10301000009407D077FD09D00E94871807FC05D0DF
:103020003EF4909581959F4F0895709561957F4FDF
:103030000895A1E21A2EAA1BBB1BFD010DC0AA1FF9
:10304000BB1FEE1FFF1FA217B307E407F50720F011
:10305000A21BB30BE40BF50B661F771F881F991F8C
:103060001A9469F760957095809590959B01AC01D5
:10307000BD01CF010895EE0FFF1F0590F491E02DE3
:103080000994A29FB001B39FC001A39F700D811D41
:103090001124911DB29F700D811D1124911D089561
:1030A0002F923F924F925F926F927F928F929F9258
:1030B000AF92BF92CF92DF92EF92FF920F931F9346
:1030C000CF93DF93CDB7DEB7CA1BDB0B0FB6F894F7
:1030D000DEBF0FBECDBF09942A88398848885F8437
:1030E0006E847D848C849B84AA84B984C884DF80A8
:1030F000EE80FD800C811B81AA81B981CE0FD11D8C
:103100000FB6F894DEBF0FBECDBFED010895AA1B28
:10311000BB1B51E107C0AA1FBB1FA617B70710F0C2
:10312000A61BB70B881F991F5A95A9F780959095F4
:10313000BC01CD0108955058BB27AA270E94B3189F
:103140000C948E1A0E94801A38F00E94871A20F080
:1031500039F49F3F19F426F40C94561A0EF4E095B6
:10316000E7FB0C94501AE92F0E949F1A58F3BA17E4
:10317000620773078407950720F079F4A6F50C948D
:10318000C11A0EF4E0950B2EBA2FA02D0B01B90138
:1031900090010C01CA01A0011124FF27591B99F0CD
:1031A000593F50F4503E68F11A16F040A22F232FD9
:1031B000342F4427585FF3CF469537952795A79529
:1031C000F0405395C9F77EF41F16BA0B620B730BD0
:1031D000840BBAF09150A1F0FF0FBB1F661F771F41
:1031E000881FC2F70EC0BA0F621F731F841F48F4F6
:1031F000879577956795B795F7959E3F08F0B0CF7F
:103200009395880F08F09927EE0F97958795089565
:103210000E942C1A08F481E008950E9421190C9450
:103220008E1A0E94871A58F00E94801A40F029F4E2
:103230005F3F29F00C94501A51110C94C21A0C944F
:10324000561A0E949F1A68F39923B1F3552391F3FC
:10325000951B550BBB27AA2762177307840738F005
:103260009F5F5F4F220F331F441FAA1FA9F335D062
:103270000E2E3AF0E0E832D091505040E695001C16
:10328000CAF72BD0FE2F29D0660F771F881FBB1FD0
:10329000261737074807AB07B0E809F0BB0B802DAE
:1032A000BF01FF2793585F4F3AF09E3F510578F0DA
:1032B0000C94501A0C94C21A5F3FE4F3983ED4F376
:1032C000869577956795B795F7959F5FC9F7880FAE
:1032D000911D9695879597F90895E1E0660F771F00
:1032E000881FBB1F621773078407BA0720F0621B91
:1032F000730B840BBA0BEE1F88F7E095089529F441
:1033000016F00C94501A0C94C11A0C94561A0E9480
:10331000A71AA8F39638A0F707F80F92E8942BE3C2
:103320003AEA48EB5FE70E94591B0F920F920F9207
:103330004DB75EB70F920E940F1BECE8F0E00E94C1
:10334000591A4F915F91EF91FF91E595EE1FFF1F85
:1033500049F0FE57E0684427EE0F441FFA95E1F765
:103360004195550B0E94D91A0F9007FE0C94CD1A67
:1033700008950E94C0196894B1110C94C21A08955E
:103380000E94A71A88F09F5798F0B92F9927B75134
:10339000B0F0E1F0660F771F881F991F1AF0BA95F9
:1033A000C9F714C0B13091F00E94C11AB1E008957C
:1033B0000C94C11A672F782F8827B85F39F0B93F6E
:1033C000CCF3869577956795B395D9F73EF49095AC
:1033D0008095709561957F4F8F4F9F4F0895E8942A
:1033E00009C097FB3EF490958095709561957F4F4D
:1033F0008F4F9F4F9923A9F0F92F96E9BB279395FB
:10340000F695879577956795B795F111F8CFFAF40A
:10341000BB0F11F460FF1BC06F5F7F4F8F4F9F4F3B
:1034200016C0882311F096E911C0772321F09EE899
:10343000872F762F05C0662371F096E8862F70E0FF
:1034400060E02AF09A95660F771F881FDAF7880FD9
:103450009695879597F90895990F0008550FAA0B2F
:10346000E0E8FEEF16161706E807F907C0F0121697
:103470001306E407F50798F0621B730B840B950B9A
:1034800039F40A2661F0232B242B252B21F40895EF
:103490000A2609F4A140A6958FEF811D811D08958C
:1034A00097F99F6780E870E060E008959FEF80ECF7
:1034B0000895DF93CF931F930F93FF92EF92DF92C4
:1034C0007B018C01689406C0DA2EEF010E94561B26
:1034D000FE01E894A5912591359145915591A6F36A
:1034E000EF010E94B318FE019701A801DA9469F771
:1034F000DF90EF90FF900F911F91CF91DF91089592
:1035000000240A94161617061806090608950024C2
:103510000A9412161306140605060895092E03943C
:10352000000C11F4882352F0BB0F40F4BF2B11F4B0
:1035300060FF04C06F5F7F4F8F4F9F4F089557FD0F
:103540009058440F551F59F05F3F71F04795880F11
:1035500097FB991F61F09F3F79F0879508951216A8
:1035600013061406551FF2CF4695F1DF08C0161654
:1035700017061806991FF1CF869571056105089405
:103580000895E894BB2766277727CB0197F908951C
:103590000E942C1A08F48FEF08959B01AC0160E0A3
:1035A00070E080E89FE30C940D190C94501A0C9471
:1035B000B01B0E94A71AD8F39923C9F3940F511D89
:1035C000A3F39150504094F059F0882332F0660FE5
:1035D000771F881F91505040C1F79E3F51052CF72F
:1035E000880F911D9695879597F908955F3FACF0E8
:1035F000983E9CF0BB27869577956795B79508F41C
:10360000B1609395C1F7BB0F58F711F460FFE8CF95
:103610006F5F7F4F8F4F9F4FE3CF0C94C21AFA0119
:10362000DC01AA0FBB1F9B01AC01BF5728F4222766
:1036300033274427507820C0B75190F4AB2F002493
:10364000469537952795011CA395D2F3002071F07C
:10365000220F331F441FB395DAF30ED00C949B183E
:1036600061307105A0E88A07B94630F49B01AC01CE
:103670006627772788279078309621F0208331833A
:103680004283538308950E94561B0C948E1A0E9405
:10369000801A38F00E94871A20F0952311F00C94BC
:1036A000501A0C94561A11240C94C21A0E949F1A94
:1036B00070F3959FC1F3950F50E0551F629FF00185
:1036C000729FBB27F00DB11D639FAA27F00DB11D9E
:1036D000AA1F649F6627B00DA11D661F829F222727
:1036E000B00DA11D621F739FB00DA11D621F839FAE
:1036F000A00D611D221F749F3327A00D611D231F84
:10370000849F600D211D822F762F6A2F11249F57D1
:1037100050409AF0F1F088234AF0EE0FFF1FBB1FD4
:10372000661F771F881F91505040A9F79E3F510593
:1037300080F00C94501A0C94C21A5F3FE4F3983E48
:10374000D4F3869577956795B795F795E7959F5F3D
:10375000C1F7FE2B880F911D9695879597F90895CF
:103760009F3F31F0915020F4879577956795B795F5
:10377000880F911D9695879597F908958F929F923E
:10378000AF92BF92CF92DF92EF92FF92CF93DF93EF
:10379000EC01688179818A819B81611571058105C0
:1037A000910521F464E279ED8BE597E02DE133EFAB
:1037B00041E050E00E94B41D49015A019B01AC0157
:1037C000A7EAB1E40E94D31D6B017C01ACEEB4EF1B
:1037D000A50194010E94E11DDC01CB018C0D9D1D12
:1037E000AE1DBF1DB7FF03C00197A109B048888374
:1037F0009983AA83BB839F77DF91CF91FF90EF904E
:10380000DF90CF90BF90AF909F908F9008950E94CF
:10381000BE1B089589E091E00E94BE1B0895A0E0C0
:10382000B0E08093090190930A01A0930B01B0933B
:103830000C010895283008F027E03327DA01990FAA
:10384000311D87FD916000966105710539F4326084
:103850002E5F3D9330E32A95E1F708959F3F30F0C6
:1038600080387105610509F03C5F3C5F3D93913004
:1038700008F08068911DDF93CF931F930F93FF9201
:10388000EF92192F987F9695E92F96959695E90FC7
:10389000FF27EA5EFE4F99273327EE24FF24A70176
:1038A000E70105900894079428F4360FE71EF81EE8
:1038B000491F511D660F771F881F991F0694A1F796
:1038C0000590079428F4E70EF81E491F561FC11DE6
:1038D000770F881F991F661F0694A1F7059007941C
:1038E00028F4F80E491F561FC71FD11D880F991FB6
:1038F000661F771F0694A1F70590079420F4490FDF
:10390000561FC71FD81F990F661F771F881F069461
:10391000A9F784911095177041F0D695C7955795E2
:103920004795F794E7941A95C1F7ECEBF0E06894AB
:103930001590159135916591959105907FE273955C
:10394000E118F10A430B560BC90BD009C0F7E10C83
:10395000F11E431F561FC91FD01D7EF4703311F492
:103960008A95E6CFE894015030F0080F0AF400275A
:10397000021708F4202F2395022F7A3328F079E3D9
:103980007D932A95E9F710C07D932A9589F60694D0
:1039900097956795379517951794E118F10A430B9A
:1039A000560BC90BD00998F023957E9173957A3305
:1039B00008F070E37C932013B8F77E9170617D93DB
:1039C00030F0839571E37D9370E32A95E1F711243C
:1039D000EF90FF900F911F91CF91DF91992787FD75
:1039E00090950895FC010590615070400110D8F742
:1039F000809590958E0F9F1F0895FC016150704037
:103A000001900110D8F7809590958E0F9F1F089513
:103A10000F931F93CF93DF93FB01238121FD03C0FD
:103A20008FEF9FEF28C022FF16C046815781248167
:103A300035814217530744F4A081B1819D012F5F66
:103A40003F4F318320838C93268137812F5F3F4FF7
:103A50003783268310C0EB01092F182F0084F185CE
:103A6000E02D0995892BE1F68E819F8101969F8338
:103A70008E83812F902FDF91CF911F910F91089509
:103A8000FA01AA27283051F1203181F1E8946F938F
:103A90006E7F6E5F7F4F8F4F9F4FAF4FB1E03ED035
:103AA000B4E03CD0670F781F891F9A1FA11D680FD3
:103AB000791F8A1F911DA11D6A0F711D811D911D06
:103AC000A11D20D009F468943F912AE0269F11247B
:103AD0003019305D3193DEF6CF010895462F4770DF
:103AE000405D4193B3E00FD0C9F7F6CF462F4F703A
:103AF000405D4A3318F0495D31FD4052419302D098
:103B0000A9F7EACFB4E0A69597958795779567953D
:103B1000BA95C9F700976105710508959B01AC013D
:103B20000A2E06945795479537952795BA95C9F764
:103B3000620F731F841F951FA01D0895F999FECF72
:103B400092BD81BDF89A992780B50895262FF999DD
:103B5000FECF1FBA92BD81BD20BD0FB6F894FA9A70
:103B6000F99A0FBE01960895052E97FB1EF4009456
:103B70000E94CB1D57FD07D00E94191807FC03D0E7
:103B80004EF40C94CB1D50954095309521953F4FA8
:103B90004F4F5F4F089590958095709561957F4F39
:103BA0008F4F9F4F08950E944118A59F900DB49F7D
:103BB000900DA49F800D911D11240895B7FF0C94C2
:103BC000D31D0E94D31D821B930B0895F894FFCF41
:0E3BD0001201AAFC0AF90AF80A01000000001E
:00000001FF
