:100000000C9434000C945A000C945A000C945A002E
:100010000C945A000C945A000C9451030C945A00FE
:100020000C945A000C945A000C945A000C948909B0
:100030000C945A000C945A000C94ED080C945A003D
:100040000C945A000C945A000C945A000C945A00C8
:100050000C945A000C945A000C945A000C94AB095E
:100060000C945A000C945A0011241FBECFEFD8E014
:10007000DEBFCDBF14BE88E10FB6F8948093600058
:10008000109260000FBE11E0A0E0B1E0E0E7F9E2FD
:1000900002C005900D92A232B107D9F711E0A2E299
:1000A000B1E001C01D92AC39B107E1F70E944F13D6
:1000B0000C94B6140C9400008093C6008091C0008C
:1000C00085FFFCCF80E090E008958091220190911F
:1000D0002301892B21F42CE231E0C901089520E0AD
:1000E00030E0C901089521E030E0309327012093EA
:1000F000260180912401909125010196909325017C
:10010000809324018837910509F0089530932301E5
:100110002093220108958091260190912701019753
:1001200039F08091220190912301019759F00895AF
:1001300010922701109226018091220190912301B3
:100140000197A9F78FE30C9465091092350110927D
:100150002C018CE291E00E94BC0B909337018093BC
:10016000360181E090E0909323018093220180E6A4
:100170009AEE0E94CA0481E00E9465091092230150
:10018000109222010895F894519A8CE090E0909397
:10019000C5008093C400E0ECF0E080818D7F808317
:1001A000E2ECF0E0808186608083E1ECF0E0808129
:1001B0008860808380E091E090939901809398011A
:1001C00078940895089580E090E008950895CF937D
:1001D000F89414B817B81AB815B818B81BB8529ACA
:1001E0005A9A14BC85E085BD8FEF87BD22E020932D
:1001F0006E0010928000109281008FE89BE0909337
:1002000089008093880020936F005398239881EA97
:100210008093B0002093B1001092B4001092B3000C
:100220008BE080BF83E080937F0086E080937C003A
:1002300083E880937A0080917A00806480937A00CA
:1002400080917A0086FDFCCF10927C0083EA809337
:100250007A0081E080937B0081E090E00E944F145F
:100260008F3F11F08093660010925F01C1E0C09350
:100270003801C0937C01109256011092900180E9E0
:1002800090E00E944F14809355018091550188732E
:1002900011F0C09355011092800110927F018FEFF1
:1002A00090E090937E0180937D0110925B0110920B
:1002B0005C0110925D0110925E0181E080932A0141
:1002C00082E49FE090938F0180938E0180EB90E019
:1002D0000E944F14C82F81EB90E00E944F14382FDA
:1002E00020E02C2B309392012093910185E090E047
:1002F0000E944F148093950189E090E00E944F1472
:10030000809381018CE090E00E944F1480939301D0
:1003100084E190E00E944F148093940180E290E089
:100320000E944F14C82F81E290E00E944F143C2F8E
:1003300020E0282B309361012093600180E590E05C
:100340000E944F14C82F81E590E00E944F143C2F6B
:1003500020E0282B30933A012093390182E290E08B
:100360000E944F14C82F83E290E00E944F143C2F4C
:1003700020E0282B309363012093620182E590E016
:100380000E944F14C82F83E590E00E944F143C2F29
:1003900020E0282B30933C0120933B0184E290E045
:1003A0000E944F14C82F85E290E00E944F143C2F0A
:1003B00020E0282B309365012093640184E590E0D0
:1003C0000E944F14C82F85E590E00E944F143C2FE7
:1003D00020E0282B30933E0120933D0186E290E0FF
:1003E0000E944F14C82F87E290E00E944F143C2FC8
:1003F00020E0282B309367012093660186E590E08A
:100400000E944F14C82F87E590E00E944F143C2FA4
:1004100020E0282B3093400120933F0188E290E0B8
:100420000E944F14C82F89E290E00E944F143C2F85
:1004300020E0282B309369012093680188E590E043
:100440000E944F14C82F89E590E00E944F143C2F62
:1004500020E0282B30934201209341018AE290E072
:100460000E944F14C82F8BE290E00E944F143C2F43
:1004700020E0282B30936B0120936A018AE590E0FD
:100480000E944F14C82F8BE590E00E944F143C2F20
:1004900020E0282B30934401209343018CE290E02C
:1004A0000E944F14C82F8DE290E00E944F143C2F01
:1004B00020E0282B30936D0120936C018CE590E0B7
:1004C0000E944F14C82F8DE590E00E944F143C2FDE
:1004D00020E0282B30934601209345018EE290E0E6
:1004E0000E944F14C82F8FE290E00E944F143C2FBF
:1004F00020E0282B30936F0120936E018EE590E071
:100500000E944F14C82F8FE590E00E944F143C2F9B
:1005100020E0282B309348012093470180E390E0AE
:100520000E944F14C82F81E390E00E944F143C2F8B
:1005300020E0282B309371012093700180E690E039
:100540000E944F14C82F81E690E00E944F143C2F68
:1005500020E0282B30934A012093490182E390E068
:100560000E944F14C82F83E390E00E944F143C2F49
:1005700020E0282B309373012093720182E690E0F3
:100580000E944F14C82F83E690E00E944F143C2F26
:1005900020E0282B30934C0120934B0184E390E022
:1005A0000E944F14C82F85E390E00E944F143C2F07
:1005B00020E0282B309375012093740184E690E0AD
:1005C0000E944F14C82F85E690E00E944F143C2FE4
:1005D00020E0282B30934E0120934D0186E390E0DC
:1005E0000E944F14C82F87E390E00E944F143C2FC5
:1005F00020E0282B309377012093760186E690E067
:100600000E944F14C82F87E690E00E944F143C2FA1
:1006100020E0282B3093500120934F0188E390E095
:100620000E944F14C82F89E390E00E944F143C2F82
:1006300020E0282B309379012093780188E690E020
:100640000E944F14C82F89E690E00E944F143C2F5F
:1006500020E0282B30935201209351018AE390E04F
:100660000E944F14C82F8BE390E00E944F143C2F40
:1006700020E0282B30937B0120937A018AE690E0DA
:100680000E944F14C82F8BE690E00E944F143C2F1D
:1006900020E0282B30935401209353017894CF917C
:1006A00008951F920F920FB60F9211248F9388E135
:1006B0000FB6F89480936000109260000FBE8F9187
:1006C0000F900FBE0F901F9018957C01EB01D12C5D
:1006D00088248A9486E0982E93E8A92E08E110E0F9
:1006E00029E2B22E34E0C32E80912A018330B9F181
:1006F000843008F03EC0813009F4BEC008F44BC01D
:1007000080915F01811100C1F89490927C00A092C9
:100710007A0080917A00806480937A0080917A00D8
:1007200086FDFCCF209178003091790078942B3AA7
:1007300092E039070CF002C12938E2E03E070CF0E4
:1007400004C1273632400CF4DFC0559A549A3B9AC4
:100750003A9A3D983C9880912A01833049F6DD20F1
:1007600009F4D9C0C0922A01DD24D394FE01099571
:10077000BBCF853009F462C0C8F3863009F0B4CF2E
:1007800080912801811194C01092B3001092B4009E
:1007900010922901A9CFF89480B7877F80BF8091FC
:1007A0007A008F7780937A0014B817B81AB815B802
:1007B00018B81BB80FB6F894A895009360000FBE48
:1007C000B09260008091600080648093600083B785
:1007D000817F846083BFF89483B7816083BF7894FE
:1007E000889583B78E7F83BF789410925F01529A69
:1007F0005A9A80917A00806880937A0087E592E027
:100800000197F1F700C0000080B7886180BF559A5A
:10081000549A3B9A3A9A3D9A3C9AEFE1FEE431971A
:10082000F1F700C0000080915F01811177C05598F9
:1008300054983B983A983D983C9856CF4899F7CFB2
:10084000559A54983B983A983D983C988FEC97E08D
:100850000197F1F700C00000559854983B983A98DA
:100860003D983C989FEFE1EEF4E09150E040F0407D
:10087000E1F700C0000038CF559854983B9A3A9A57
:100880003D983C98EFECF7E03197F1F700C000009D
:10089000559854983B983A983D983C98FFEF21EE34
:1008A00084E0F15020408040E1F700C000001CCF00
:1008B0009091280180912901981709F415CF809112
:1008C00028018093290180912801813009F444C0D6
:1008D000809128011092B3008092B400823009F414
:1008E0004CC08092B3008092B4008FE295E70197EC
:1008F000F1F700C0000080919401909193019093D2
:10090000B3008093B400F0CE559A549A3B983A982D
:100910003D983C98E9CEF701099524CF559A549A11
:100920003B983A983D983C98FFEF20E782E0F150E1
:1009300020408040E1F700C0000079CF55985498DE
:100940003B9A3A9A3D983C98CFCE559854983B980C
:100950003A983D9A3C9AC8CE8092B3001092B40067
:100960008FE295E70197F1F700C0000080919501B3
:100970008093B3001092B400B7CEEFE2F5E7319761
:10098000F1F700C00000809181011092B3008093C4
:10099000B400AACE07C0EFECF7E03197F1F700C042
:1009A000000001970097B9F708958093B300609312
:1009B000B40008958FEF8093B3008093B4008FEC60
:1009C00097E00197F1F700C000008FEC97E00197E6
:1009D000F1F700C000008FEC97E00197F1F700C03D
:1009E00000008FEC97E00197F1F700C000008FEC5A
:1009F00097E00197F1F700C000008FEC97E00197B6
:100A0000F1F700C000008FEC97E00197F1F700C00C
:100A100000008FEC97E00197F1F700C000008FEC29
:100A200097E00197F1F700C000008FEC97E0019785
:100A3000F1F700C000008FEC97E00197F1F700C0DC
:100A400000008FEC97E00197F1F700C000008FECF9
:100A500097E00197F1F700C000008FEC97E0019755
:100A6000F1F700C000008FEC97E00197F1F700C0AC
:100A70000000089580915F0181111FC0F89487E004
:100A800080937C0083E880937A0080917A00806470
:100A900080937A0080917A0086FDFCCF20917800C7
:100AA0003091790010927C0083EA80937A0081E093
:100AB00080937B007894C90108952FEF3FEFFBCF1F
:100AC00080915F0181111FC0F89488EC80937C00B5
:100AD00087E880937A0080917A00806480937A001E
:100AE00080917A0086FDFCCF2091780030917900CA
:100AF00010927C0083EA80937A0081E080937B00EF
:100B00007894C90108952FEF3FEFFBCF1F93CF9348
:100B1000DF9360E070E080E013EAD1E0C6E0B3E884
:100B2000E1E0F0E040E850E0F894C0937C00B0933E
:100B30007A0090917A00906490937A0090917A0074
:100B400096FDFCCF2091780030917900A22FA17002
:100B500090917A00906490937A0090917A0096FD3B
:100B6000FCCF209178003091790010927C00109396
:100B70007A00D0937B00789421703327A21303C0AE
:100B80004150510989F6AA2339F09F01062E01C070
:100B9000220F0A94EAF7822B6F5F7F4F683071054E
:100BA00009F0C0CFDF91CF911F910895809114017A
:100BB000982F990F990F990F982720912B01822F29
:100BC0008695869589279295969597708927809323
:100BD00014012F5F20932B01089580931401089531
:100BE00080915F01811117C0F89486E080937C00AA
:100BF00083E880937A0080917A00806480937A0001
:100C000080917A0086FDFCCF2091780030917900A8
:100C10007894C90108952FEF3FEFFBCF2F923F92B9
:100C20004F925F926F927F928F929F92AF92BF92FC
:100C3000CF92DF92EF92FF920F931F93CF93DF93A8
:100C400000D000D000D0CDB7DEB75C01FC0102803F
:100C5000F381E02DFE83ED83E43823E0F2070CF00E
:100C6000D8C08091390190913A018E179F0708F4FE
:100C7000B4C100913B0110913C010E171F0708F40D
:100C800040C200913D0110913E010E171F0708F46C
:100C900041C200913F01109140010E171F0708F457
:100CA00042C200914101109142010E171F0708F442
:100CB00043C200914301109144010E171F0708F42D
:100CC00096C100914501109146010E171F0708F4C7
:100CD0003CC200914701109148010E171F0708F40C
:100CE0003DC20091490110914A010E171F0708F4F7
:100CF0003EC200914B0110914C010E171F0708F4E2
:100D00003FC200914D0110914E010E171F0708F4CC
:100D100040C200914F01109150010E171F0708F4B7
:100D200046C200915101109152010E171F0708F49D
:100D300047C200915301109154010E171F0708F488
:100D400048C219821A8280ED8B8390E49C835CE018
:100D5000E52EF12CF701EE0FFF1FE75CFE4F8081BF
:100D60009181B801681B790B80E090E00E943F11EF
:100D70009B01AC010E94810E3B014C01ED81FE8183
:100D8000BF01882777FD8095982F0E9494106B01F2
:100D90007C01B80180E090E00E943F111B012C0112
:100DA00079816A819B818C81272F362F492F582F7B
:100DB000662D772D882D992D0E94DD0E9B01AC01AB
:100DC000C201B1010E94AD0E9B01AC01C701B60189
:100DD0000E94AD0E20E030E040E251E40E94DD0EC2
:100DE0000E94F0108B01662D772D882D992D0E9481
:100DF000F010AB01BC01C801BA010E94741388272E
:100E000077FD8095982F0E9494100E94F80C062F71
:100E1000E5C00FEFF5018080918080916001909195
:100E200061018815990508F46EC0E0906201F090A8
:100E30006301E814F90408F468C1E0906401F090DB
:100E40006501E814F90408F469C1E0906601F090C6
:100E50006701E814F90408F46AC1E0906801F090B1
:100E60006901E814F90408F46BC1E0906A01F0909C
:100E70006B01E814F90408F4D6C0E0906C01F0901E
:100E80006D01E814F90408F464C1E0906E01F0907B
:100E90006F01E814F90408F465C1E0907001F09066
:100EA0007101E814F90408F466C1E0907201F09051
:100EB0007301E814F90408F467C1E0907401F0903C
:100EC0007501E814F90408F468C1E0907601F09027
:100ED0007701E814F90408F465C1E0907801F09016
:100EE0007901E814F90408F466C1E0907A01F09001
:100EF0007B01E814F90408F467C11AE50F3F31F4E7
:100F0000812F8F5D51C010E00F3FD1F32D813E81C5
:100F1000B901882777FD8095982F0E9494106B0166
:100F20007C01602F70E080E090E00E943F114B0157
:100F30005C01A701960160E070E081E694E40E9404
:100F4000AD0E9B01AC01C501B4010E94DD0E4B0149
:100F50005C01612F70E080E090E00E943F112B0166
:100F60003C0120E030E04FE254E4C701B6010E94AA
:100F7000AD0E9B01AC01C301B2010E94DD0E9B01CD
:100F8000AC01C501B4010E94810E20E030E048E4CC
:100F900053E40E94C20F20E030E044E052E40E949B
:100FA000810E0E94F80C862F26960FB6F894DEBFAD
:100FB0000FBECDBFDF91CF911F910F91FF90EF90AA
:100FC000DF90CF90BF90AF909F908F907F906F9069
:100FD0005F904F903F902F90089500E02D813E81CB
:100FE0002D3B32400CF016CF802F8F5DDDCF65E0BA
:100FF00085E090E07C0131E0E31AF10870E080E0E8
:1010000090E00E943F1120E030E040E05FE30E946A
:10101000DD0E20E030E0A9010E94810E69837A8311
:101020008B839C8397CE85E0382EE5E0F0E0EE0FD1
:10103000FF1FE25AFE4F80819181B701681B790B37
:1010400080E090E00E943F119B01AC010E94810E64
:10105000262EC72ED82E192FB401882777FD80950C
:10106000982F0E9494102B013C01B70180E090E082
:101070000E943F114B015C01632D70E080E090E025
:101080000E943F1120E030E040E05FE30E94DD0E6F
:1010900020E030E0A9010E94810E222D3C2D4D2D33
:1010A000512F0E94DD0E9B01AC01C501B4010E94CD
:1010B000AD0E9B01AC01C301B2010E94AD0E20E058
:1010C00030E040E251E40E94DD0E0E94F0107B010E
:1010D000622D7C2D8D2D912F0E94F010AB01BC0153
:1010E000C701BA010E947413882777FD8095982F55
:1010F0000E9494100E94F80C162F6F3F09F004CF45
:1011000073CF61E081E090E075CF33243394E1E068
:10111000F0E08DCF62E082E090E06CCF32E0332EE1
:10112000E2E0F0E084CF63E083E090E063CF23E08F
:10113000322EE3E0F0E07BCF64E084E090E05ACF31
:1011400094E0392EE4E0F0E072CF66E086E090E0D3
:1011500051CF16E0312EE6E0F0E069CF67E087E09E
:1011600090E048CFB7E03B2EE7E0F0E060CF68E0EA
:1011700088E090E03FCFA8E03A2EE8E0F0E057CFDB
:1011800069E089E090E036CFF9E03F2EE9E0F0E059
:101190004ECF6AE08AE090E02DCFEAE03E2EEAE012
:1011A000F0E045CF7BE0372EEBE0F0E040CF6BE0A6
:1011B0008BE090E01FCF6CE0362EECE0F0E037CF14
:1011C0006CE08CE090E016CF5DE0352EEDE0F0E0D5
:1011D0002ECF6DE08DE090E00DCF1F920F920FB6F5
:1011E0000F9211242F933F934F935F936F937F93AD
:1011F0008F939F93AF93BF93EF93FF9320917F01C2
:101200003091800180917D0190917E01280F391FDE
:101210003093800120937F018FEF90E090937E01C7
:1012200080937D018FEF87BD80915B0190915C0180
:10123000A0915D01B0915E010196A11DB11D809349
:101240005B0190935C01A0935D01B0935E0180917E
:101250005F0181110BC080918E0190918F018217E7
:10126000930720F480912A01843089F0FF91EF9157
:10127000BF91AF919F918F917F916F915F914F91AE
:101280003F912F910F900FBE0F901F901895E091F6
:101290001001F09111010995009741F30E94750C1E
:1012A000811109C00E943F14992790937E01809379
:1012B0007D0187BDDBCFE0910E01F0910F01099513
:1012C0001092800110927F01D1CF80FF11C0559AFA
:1012D00081FF11C0549A82FF11C03B9A83FF11C055
:1012E0003A9A84FF11C03D9A85FD11C03C9808953B
:1012F000559881FDEFCF549882FDEFCF3B9883FD49
:10130000EFCF3A9884FDEFCF3D9885FFEFCF3C9A21
:1013100008951F920F920FB60F9211248F939F93EF
:1013200010928100109285001092840081E08093D9
:10133000380180937C0110925F0110927C0093EA47
:1013400090937A0080937B009F918F910F900FBEB6
:101350000F901F9018951F920F920FB60F921124A5
:101360002F933F934F935F936F937F938F939F93AD
:10137000AF93BF93CF93DF93EF93FF9320918400BC
:101380003091850041E040935F01809138018823CE
:10139000A9F1109285001092840040938100109270
:1013A00090011092380180917C018823A1F08091F6
:1013B0007A0086FDFCCF809178009091790090931F
:1013C0005A018093590181E080937C0093EA9093C5
:1013D0007A0080937B00FF91EF91DF91CF91BF91D5
:1013E000AF919F918F917F916F915F914F913F91BD
:1013F0002F910F900FBE0F901F901895C90187581D
:1014000091098437994008F057C026583109A4EF54
:10141000B0E00E946813883008F485C0409338011A
:1014200080917C0181115CC080915601E82FF0E031
:10143000EE57FE4F9091900190838F5F80935601FD
:101440008C3049F610928100109285001092840031
:1014500040937C0110925F01C0918C01D0918D016D
:1014600082E891E00E94BC0BC817D90709F0B3CFFE
:1014700080918B0187FF68C0982F9858933030F087
:10148000539823981092B4001092B300863809F450
:10149000BFC008F063C0833809F41BC108F010C155
:1014A000803809F098CF80916E008D7F80936E0018
:1014B00016BCE0E0F0E709951092810010928500DB
:1014C000109284004093380140937C0110925F0198
:1014D00010927C0083EA80937A0040937B007BCF5C
:1014E00080917A0086FDFCCF809178009091790000
:1014F000909358018093570110927C0083EA809367
:101500007A0081E080937B00909190019923B9F05B
:1015100010928100109285001092840080937C01CB
:1015200010925F0158CF21E030E001C0220F8A9570
:10153000EAF780919001822B809390014CCF10921A
:101540007C011092560147CFE0911201F0911301F6
:1015500067E571E082E891E009953DCF883809F4AC
:10156000BBC008F4A9C0893809F47BC08A3809F0E7
:1015700032CF80918201823009F4C9C008F059C08D
:1015800081114AC080912A01863009F024CF6091F0
:10159000910180EB90E00E9457146091920181EBE1
:1015A00090E00E9457146091950185E090E00E94C0
:1015B00057146091810189E090E00E945714609176
:1015C00093018CE090E00E9457146091940184E1B3
:1015D00090E00E945714539823981092B4001092F0
:1015E000B30081E080932A0180918201882309F46D
:1015F000F2CE80912A01863009F4EDCE539A239AD7
:101600001092B4001092B30086E080932A01E3CEDA
:1016100085E080932A01DFCE813041F780918301FC
:1016200090918401909392018093910110922801EE
:10163000E0CF833009F484C08430C1F68091280162
:1016400090918801833009F470C0809187011092D5
:10165000290123E020932801809393019093940122
:10166000C8CF80912A01863099F0539A239A10921C
:10167000B4001092B300559854983B983A983D980E
:101680003C98109228011092290186E080932A014B
:1016900081E090E00090820102C0880F991F0A94B7
:1016A000E2F7209191013091920182239323892BBB
:1016B00051F5109228018FCE82E080932A018BCEC3
:1016C0008438F1F0853809F086CE81E080932A01D4
:1016D00082CEE0E0F0E0099580912A01833009F4A0
:1016E0007ACE80912A01843009F475CE539A239AD8
:1016F0001092B4001092B30083E080932A016BCE65
:1017000010922A0168CE81E08093280164CE8091F6
:101710002801813019F1809185011092290191E011
:10172000909328018093950164CF80919401981340
:101730008CCF8091870120919301821388CF59CF5C
:1017400080912801823089F08091860110922901D0
:1017500092E090932801809381014BCF8091850185
:10176000909195018913D9CF44CF809186019091B2
:1017700081018913EBCF3DCFFC0180812FEF3FEF3B
:101780002827022E2295207F2025032E322F2295F6
:101790002F700226269532272327220F220F220F91
:1017A000202581812827022E2295207F2025032EA7
:1017B000322F22952F700226269532272327220FBB
:1017C000220F220F202582812827022E2295207F9A
:1017D0002025032E322F22952F70022626953227A0
:1017E0002327220F220F220F202583812827022E54
:1017F0002295207F2025032E322F22952F7002263E
:10180000269532272327220F220F220F202584819D
:101810002827022E2295207F2025032E322F229565
:101820002F700226269532272327220F220F220F00
:10183000202585812827022E2295207F2025032E12
:10184000322F22952F700226269532272327220F2A
:10185000220F220F202586812827022E2295207F05
:101860002025032E322F22952F700226269532270F
:101870002327220F220F220F202587812827022EBF
:101880002295207F2025032E322F22952F700226AD
:10189000269532272327220F220F220F202580850D
:1018A0002827022E2295207F2025032E322F2295D5
:1018B0002F700226269532272327220F220F220F70
:1018C000202581852827022E2295207F2025032E82
:1018D000322F22952F700226269532272327220F9A
:1018E000220F220F2025C90108950FB6F894A4B144
:1018F000209155012A2B24B921E030915501203047
:1019000029F0000025B1232B25B904C000000000F8
:10191000000000C0000000000000309525B1232326
:1019200025B92EEA2A95F1F72BEE30B735FF0AC01C
:10193000A4B930915501309525B1232325B90FBEA7
:1019400080E0089500002A9581F721E0309155014B
:10195000203029F0000025B1232B25B904C0000058
:101960000000000000C0000000000000309525B11C
:10197000232325B9000024E52A95F1F7FC018CE02A
:10198000619170E0660F771F616072609AE041E0DC
:1019900050E09A0126233723232B30915501203024
:1019A00029F0000025B1232B25B904C00000000058
:1019B000000000C0000000000000309525B1232386
:1019C00025B9000021E52A95F1F7440F551F9A9596
:1019D00001F78A95A9F620B7206120BFA4B93091FC
:1019E0005501309525B1232325B90FBE81E0089517
:1019F000CF92DF92EF92FF920F931F936B017C01C6
:101A000020E030E040E05FE40E94651087FD0EC0FA
:101A100020E030E040E05FE4C701B6010E94AD0E77
:101A20000E94F0108B019C01305806C0C701B6011E
:101A30000E94F0108B019C01B801C9011F910F9108
:101A4000FF90EF90DF90CF900895A4E0B0E0EBE23C
:101A5000FDE00C949E137C016A01FC0180818230C0
:101A600008F44AC1FB019081923008F442C18430ED
:101A700079F4943009F040C1F7019181FB01818133
:101A8000981709F439C1A9E1EA2EA1E0FA2E34C170
:101A9000943009F42EC1923091F4823009F02CC1B7
:101AA00088E0F701DA0101900D928A95E1F7FB01D8
:101AB0008181F70191818923FA0181831CC18230E0
:101AC00009F417C1F70182819381FB01A281B381DF
:101AD000F7010481158126813781FB01848095807F
:101AE000A680B780FC01EA1BFB0BAF01F7FF04C027
:101AF000442755274E1B5F0B403251050CF074C034
:101B00001E161F06B4F524013501042E04C0769478
:101B10006794579447940A94D2F749825A826B8209
:101B20007C82412C512C3201439404C0440C551C3E
:101B3000661C771C4A95D2F741E0441A51086108A7
:101B40007108482059206A207B20812C912C540157
:101B5000839445284628472819F4812C912C540158
:101B600049805A806B807C8084289528A628B728D5
:101B700046C0EF2B09F443C0840F951F280139019B
:101B8000042E04C076946794579447940A94D2F72D
:101B900049825A826B827C82412C512C32014394BF
:101BA00004C0440C551C661C771C4A95D2F741E0D2
:101BB000441A51086108710840225122622273229E
:101BC00001E010E020E030E045284628472819F4DD
:101BD00000E010E0980149805A806B807C800429E5
:101BE0001529262937290BC0A817B90724F4812CF9
:101BF000912C540104C0CD0100E010E09801F701E0
:101C00004181FB015181451709F446C0442349F045
:101C100024013501401A510A620A730A93018201B4
:101C200004C0081919092A093B0937FD05C0F60146
:101C30001182938382830CC041E0F6014183938338
:101C4000828330952095109501951F4F2F4F3F4F60
:101C500004831583268337830EC0880F991FAA1F1C
:101C6000BB1FF60184839583A683B783828193810A
:101C7000019793838283F60184819581A681B78140
:101C8000AC01BD0141505109610971094F3F5F4FDE
:101C90006F4F7F4310F30CC0F6014183938382831F
:101CA000080D191D2A1D3B1D0483158326833783C8
:101CB00083E0F6018083448155816681778177FFD7
:101CC0001AC0DB01CA0181709927AA27BB27769524
:101CD000679557954795842B952BA62BB72B848317
:101CE0009583A683B78382819381019693838283B0
:101CF00002C07B0101C07601C7012496E0E10C948B
:101D0000BA13A0E2B0E0E7E8FEE00C94AC136D8FEC
:101D10007E8F8F8F98A3298F3A8F4B8F5C8FBE0158
:101D20006F5E7F4FCE014D960E947F12BE01675FAE
:101D30007F4FCE0149960E947F12AE014F5F5F4FE9
:101D4000BE01675F7F4FCE0141960E94250D0E9424
:101D5000B511A096E2E00C94C813A0E2B0E0E3EB6A
:101D6000FEE00C94AC136D8F7E8F8F8F98A3298F1C
:101D70003A8F4B8F5C8FBE016F5E7F4FCE014D96C9
:101D80000E947F12BE01675F7F4FCE0149960E947D
:101D90007F128A8591E089278A87AE014F5F5F4F66
:101DA000BE01675F7F4FCE0141960E94250D0E94C4
:101DB000B511A096E2E00C94C813A0E2B0E0E3EE07
:101DC000FEE00C949E136D8F7E8F8F8F98A3298FCA
:101DD0003A8F4B8F5C8FBE016F5E7F4FCE014D9669
:101DE0000E947F12BE01675F7F4FCE0149960E941D
:101DF0007F129989923008F412C08985823008F4E4
:101E00001AC0943021F4823009F4B4C008C0843080
:101E100021F4923009F4AEC00EC0923051F481E04A
:101E20002A899A85291301C080E08A8BCE014196C8
:101E3000A3C0823051F481E02A899A85291301C018
:101E400080E08A87CE01099697C08D889E88AF88EA
:101E5000B88C0D851E852F853889E0E2F0E080E0A2
:101E600090E0DC01C12CD12C760140E050E0BA01B9
:101E700080FE18C0400F511F621F731F8C0D9D1DE7
:101E8000AE1DBF1D412C512C320143944017510708
:101E90006207730718F0412C512C3201840D951DF7
:101EA000A61DB71DCC0CDD1CEE1CFF1C37FF02C0AD
:101EB0006894C0F8000F111F221F331FB694A79417
:101EC000979487943197A1F62B893C89EB85FC8503
:101ED0002E0F3F1F2E5F3F4F3C832B8321E0EA896B
:101EE0003A85E31301C020E02A83EB81FC810CC01A
:101EF00080FF05C076956795579547957068B695AC
:101F0000A795979587953196B7FDF2CF9F010CC0A5
:101F1000880F991FAA1FBB1F77FD8160440F551FB3
:101F2000661F771F215031090097A105E0E4BE0725
:101F300078F32B833C838C019D010F771127222797
:101F40003327003411052105310559F487FD09C0F7
:101F5000452B462B472B29F0805C9F4FAF4FBF4F3F
:101F600080788D839E83AF83B88783E08983CE0199
:101F7000019602C089E191E00E94B511A096E0E1CE
:101F80000C94BA13A8E1B0E0E8ECFFE00C94A613BF
:101F90006D8B7E8B8F8B988F298B3A8B4B8B5C8BC9
:101FA000BE01675F7F4FCE0145960E947F12BE0142
:101FB0006F5F7F4FCE0141960E947F1299859230CC
:101FC00008F475C08981823008F474C02A853A818A
:101FD00023272A87943011F0923019F4981367C0A0
:101FE0006CC0843039F41D861E861F86188A1C86B4
:101FF0001B8604C0823029F484E08987CE010996CB
:102000005EC08B859C852B813C81821B930B9C87BA
:102010008B874D855E856F857889CD80DE80EF80EA
:10202000F8844C155D056E057F0538F4440F551F87
:10203000661F771F01979C878B87EFE1F0E000E038
:1020400010E020E030E480E090E0DC014C155D051C
:102050006E057F0540F0802B912BA22BB32B4C19E2
:102060005D096E097F093695279517950795440FE9
:10207000551F661F771F319749F78C019D010F7718
:10208000112722273327003411052105310559F482
:1020900087FD09C0452B462B472B29F0805C9F4FBD
:1020A000AF4FBF4F80788D879E87AF87B88BCE01AB
:1020B000099605C0CE01019602C089E191E00E9417
:1020C000B5116896E8E00C94C213A8E1B0E0EBE625
:1020D000F0E10C94AC136D8B7E8B8F8B988F298BDA
:1020E0003A8B4B8B5C8BBE01675F7F4FCE01459671
:1020F0000E947F12BE016F5F7F4FCE0141960E940A
:102100007F128985823058F08981823040F0BE018B
:102110006F5F7F4FCE0109960E94EE1201C08FEFD4
:102120006896E2E00C94C813A8E0B0E0EAE9F0E1B8
:102130000C94AA1323E029838B019C01002737FD0F
:102140000395112722273327402F0A836115710534
:102150008105910519F482E0898335C02EE130E0D4
:102160003C832B83442371F061157105810520E8C0
:10217000920771F1002711279801061B170B280BF6
:10218000390B02C08B019C01C901B8010E94D31315
:102190000197181619062CF00D831E832F8338879C
:1021A00012C0082E04C0000F111F221F331F0A94F3
:1021B000D2F70D831E832F8338872EE130E0281B52
:1021C000390B3C832B83CE0101960E94B51104C0CC
:1021D00060E070E080E09FEC2896E4E00C94C61389
:1021E000ACE0B0E0E6EFF0E10C94AA1369877A87DF
:1021F0008B879C87BE016F5F7F4FCE0109960E943F
:102200007F128981823091F1823080F1843041F4F3
:102210008A81882331F100E010E020E030E829C015
:102220002B813C8137FD22C02F3131058CF78EE1A7
:1022300090E0821B930B0D811E812F81388504C095
:1022400036952795179507958A95D2F78A81882321
:1022500081F030952095109501951F4F2F4F3F4FDE
:1022600008C00FEF1FEF2FEF3FE703C000E010E0C3
:102270009801B801C9012C96E4E00C94C613A8E0BB
:10228000B0E0E5E4F1E10C94A6138B019C011A8205
:10229000611571058105910519F482E089835DC09E
:1022A00083E089834EE150E05C834B83C901B80130
:1022B0000E94D313019797FF39C0EE27FF27E81B31
:1022C000F90B41E050E060E070E00E2E04C0440FD6
:1022D000551F661F771F0A94D2F7415051096109B3
:1022E00071094023512362237323C12CD12C760121
:1022F000C394452B462B472B19F4C12CD12C7601C6
:1023000004C03695279517950795EA95D2F70C29BD
:102310001D292E293F290D831E832F8338872EE107
:1023200030E0281B390B3C832B8317C0009729F41E
:102330000D831E832F83388710C0082E04C0000F22
:10234000111F221F331F0A94D2F70D831E832F8380
:102350003887481B590B5C834B83CE0101960E9442
:10236000B5112896E8E00C94C2130F931F93CF93F6
:10237000DF93DC0114964D915D916D917C911797DF
:102380001196EC9111978C91823020F460618FEF5F
:1023900090E0A6C0843009F49EC0823009F495C054
:1023A000411551056105710509F492C012962D91F0
:1023B0003C91139722388FEF38070CF058C0C2E8D1
:1023C000DFEFC21BD30BCA31D1056CF58A019B012B
:1023D0000C2E04C036952795179507950A94D2F7C9
:1023E00081E090E0A0E0B0E00C2E04C0880F991FBF
:1023F000AA1FBB1F0A94D2F70197A109B109842330
:102400009523A623B72341E050E060E070E0892BDC
:102410008A2B8B2B19F440E050E0BA01402B512B52
:10242000622B732B03C040E050E0BA01DB01CA010C
:102430008F779927AA27BB2780349105A105B1057D
:1024400039F447FF09C0405C5F4F6F4F7F4F04C0B6
:10245000415C5F4F6F4F7F4F81E090E04115510528
:10246000610520E4720748F580E090E026C020383E
:1024700031058CF5DB01CA018F779927AA27BB2785
:1024800080349105A105B10539F447FF09C0405CCE
:102490005F4F6F4F7F4F04C0415C5F4F6F4F7F4F67
:1024A00077FD04C0C90181589F4F07C07695679595
:1024B00057954795C90180589F4F97E07695679546
:1024C000579547959A95D1F70BC080E090E005C0ED
:1024D00080E090E005C08FEF90E040E050E0BA016E
:1024E000982F9695E0FB97F9362F80FB37F9642FEC
:1024F000752F832FDF91CF911F910F910895CF9268
:10250000DF92EF92DC01FB01CC901196DC901197E9
:1025100012968C9112973FE7E32EE8226E2DA601CA
:1025200070E0982F991F9927991F13962C91822F4D
:10253000880F892B90E027FB222720F92183009721
:1025400029F5411551056105710511F482E027C097
:1025500082E89FEF9383828327E0440F551F661F15
:10256000771F2A95D1F783E0808309C0440F551F58
:10257000661F771F82819381019793838283411520
:102580005105610580E4780788F320C08F3F9105ED
:1025900079F4411551056105710519F484E08083D2
:1025A00019C0E4FE03C081E0808310C010820EC019
:1025B0008F5791099383828383E0808387E0440F60
:1025C000551F661F771F8A95D1F770644483558322
:1025D00066837783EF90DF90CF900895CF93FC01CF
:1025E000DB019081923008F452C08C91823008F463
:1025F0004EC0943071F4843039F411962C9130E04F
:102600008181281B310948C08181882309F43FC09A
:102610003BC0843029F411968C91811138C034C0AC
:10262000923019F48230B9F735C0823069F3C18134
:1026300011968C911197C8131DC022813381129677
:102640008D919C911397821793070CF413C0281750
:1026500039070CF417C0448155816681778114963F
:102660008D919D910D90BC91A02D84179507A60783
:10267000B70718F4C11108C00AC0481759076A07FC
:102680007B0740F4C11103C02FEF3FEF05C021E0ED
:1026900030E002C020E030E0C901CF9108950E94EF
:1026A000E7000E94C30085E690E0909311018093BB
:1026B000100183E790E090930F0180930E016BE887
:1026C00070E085EA90E00E94650380E090E0089564
:1026D000A29FB001B39FC001A39F01D0B29F700D14
:1026E000811D1124911D089597FB072E16F4009467
:1026F00007D077FD09D00E94881307FC05D03EF46F
:10270000909581959F4F0895709561957F4F08959D
:10271000AA1BBB1B51E107C0AA1FBB1FA617B70707
:1027200010F0A61BB70B881F991F5A95A9F7809523
:102730009095BC01CD0108952F923F924F925F92E8
:102740006F927F928F929F92AF92BF92CF92DF92C1
:10275000EF92FF920F931F93CF93DF93CDB7DEB726
:10276000CA1BDB0B0FB6F894DEBF0FBECDBF0994BA
:102770002A88398848885F846E847D848C849B8411
:10278000AA84B984C884DF80EE80FD800C811B811F
:10279000AA81B981CE0FD11D0FB6F894DEBF0FBE4E
:1027A000CDBFED0108950E94DC1384FF0895CB0195
:1027B0000E94DC13805F0895AA27992329F4A85F5B
:1027C000982B11F480E10895903118F4AD5F929543
:1027D000A395990FE8F78A2F992708958F929F92D2
:1027E000AF92BF92CF92DF92EF92FF92CF93DF939F
:1027F000EC01688179818A819B8161157105810570
:10280000910521F464E279ED8BE597E02DE133EF5A
:1028100041E050E00E94781449015A019B01AC014B
:10282000A7EAB1E40E9465146B017C01ACEEB4EF41
:10283000A50194010E947314C60ED71EE81EF91E4E
:10284000F7FE06C081E0C81AD108E10880E8F80A5E
:10285000C882D982EA82FB82E894D7F8EE24FF246A
:10286000C601DF91CF91FF90EF90DF90CF90BF90A6
:10287000AF909F908F9008950E94EE13089585E188
:1028800091E00E94EE130895A0E0B0E0809315015E
:1028900090931601A0931701B09318010895F99928
:1028A000FECF92BD81BDF89A992780B50895262F55
:1028B000F999FECF1FBA92BD81BD20BD0FB6F89425
:1028C000FA9AF99A0FBE019608950E946813A59F7F
:1028D000900DB49F900DA49F800D911D112408951B
:1028E000B7FF0C9465140E946514821B930B089526
:1028F000052E97FB16F4009407D057FD0DD00E94CB
:10290000941407FC09D07EF490958095709561959C
:102910007F4F8F4F9F4F089550954095309521954B
:102920003F4F4F4F5F4F0895A1E21A2EAA1BBB1BCA
:10293000FD010DC0AA1FBB1FEE1FFF1FA217B3078B
:10294000E407F50720F0A21BB30BE40BF50B661FA1
:10295000771F881F991F1A9469F760957095809565
:1029600090959B01AC01BD01CF010895F894FFCF74
:1029700000000002000000005C0000000000E60013
:10298000E300E200AA0100000000000000000000D7
:02299000000045
:00000001FF
