:100000000C9434000C945A000C945A000C945A002E
:100010000C945A000C945A000C9427030C945A0028
:100020000C945A000C945A000C945A000C945F09DA
:100030000C945A000C945A000C94C3080C945A0067
:100040000C945A000C945A000C945A000C945A00C8
:100050000C945A000C945A000C945A000C94810988
:100060000C945A000C945A0011241FBECFEFD8E014
:10007000DEBFCDBF14BE88E10FB6F8948093600058
:10008000109260000FBE11E0A0E0B1E0E8E3FEE2F4
:1000900002C005900D92A833B107D9F711E0A8E38B
:1000A000B1E001C01D92A63AB107E1F70E94251305
:1000B0000C941A170C9400008093C6008091C00025
:1000C00085FFFCCF80E090E008950895CB0121E00A
:1000D00030E030933D0120933C0120913A01309172
:1000E0003B012F5F3F4F30933B0120933A010E9429
:1000F000E4058093380110923901089580913C0104
:1001000090913D01019721F410923D0110923C0124
:1001100080913B018F9380913A018F9381E291E02E
:100120009F938F930E941F140F900F900F900F902A
:100130000895F894519A8CE090E09093C5008093D4
:10014000C400E0ECF0E080818D7F8083E2ECF0E0A1
:10015000808186608083E1ECF0E08081886080832C
:1001600080E091E09093A3018093A2017894089598
:10017000089580E090E008950895CF93F89414B81E
:1001800017B81AB815B818B81BB8529A5A9A14BCAE
:1001900085E085BD8FEF87BD22E020936E00109231
:1001A0008000109281008FE89BE0909389008093FB
:1001B000880020936F005398239881EA8093B000C1
:1001C0002093B1001092B4001092B3008BE080BF76
:1001D00083E080937F0086E080937C0083E88093B7
:1001E0007A0080917A00806480937A0080917A000E
:1001F00086FDFCCF10927C0083EA80937A0081E038
:1002000080937B0081E090E00E9413168F3F11F0F5
:100210008093660010926901C1E0C0934201C093CF
:1002200086011092600110929A0180E990E00E948C
:10023000131680935F0180915F01887311F0C09362
:100240005F0110928A01109289018FEF90E09093E4
:1002500088018093870110926501109266011092C7
:1002600067011092680181E08093400182E49FE081
:10027000909399018093980180EB90E00E9413166F
:10028000C82F81EB90E00E941316382F20E02C2B12
:1002900030939C0120939B0185E090E00E9413160F
:1002A00080939F0189E090E00E94131680938B0158
:1002B0008CE090E00E94131680939D0184E190E011
:1002C0000E94131680939E0180E290E00E94131614
:1002D000C82F81E290E00E9413163C2F20E0282BCB
:1002E00030936B0120936A0180E590E00E94131621
:1002F000C82F81E590E00E9413163C2F20E0282BA8
:10030000309344012093430182E290E00E9413164F
:10031000C82F83E290E00E9413163C2F20E0282B88
:1003200030936D0120936C0182E590E00E941316DA
:10033000C82F83E590E00E9413163C2F20E0282B65
:10034000309346012093450184E290E00E94131609
:10035000C82F85E290E00E9413163C2F20E0282B46
:1003600030936F0120936E0184E590E00E94131694
:10037000C82F85E590E00E9413163C2F20E0282B23
:10038000309348012093470186E290E00E941316C3
:10039000C82F87E290E00E9413163C2F20E0282B04
:1003A000309371012093700186E590E00E9413164E
:1003B000C82F87E590E00E9413163C2F20E0282BE1
:1003C00030934A012093490188E290E00E9413167D
:1003D000C82F89E290E00E9413163C2F20E0282BC2
:1003E000309373012093720188E590E00E94131608
:1003F000C82F89E590E00E9413163C2F20E0282B9F
:1004000030934C0120934B018AE290E00E94131636
:10041000C82F8BE290E00E9413163C2F20E0282B7F
:1004200030937501209374018AE590E00E941316C1
:10043000C82F8BE590E00E9413163C2F20E0282B5C
:1004400030934E0120934D018CE290E00E941316F0
:10045000C82F8DE290E00E9413163C2F20E0282B3D
:1004600030937701209376018CE590E00E9413167B
:10047000C82F8DE590E00E9413163C2F20E0282B1A
:100480003093500120934F018EE290E00E941316AA
:10049000C82F8FE290E00E9413163C2F20E0282BFB
:1004A00030937901209378018EE590E00E94131635
:1004B000C82F8FE590E00E9413163C2F20E0282BD8
:1004C000309352012093510180E390E00E94131673
:1004D000C82F81E390E00E9413163C2F20E0282BC8
:1004E00030937B0120937A0180E690E00E941316FE
:1004F000C82F81E690E00E9413163C2F20E0282BA5
:10050000309354012093530182E390E00E9413162C
:10051000C82F83E390E00E9413163C2F20E0282B85
:1005200030937D0120937C0182E690E00E941316B7
:10053000C82F83E690E00E9413163C2F20E0282B62
:10054000309356012093550184E390E00E941316E6
:10055000C82F85E390E00E9413163C2F20E0282B43
:1005600030937F0120937E0184E690E00E94131671
:10057000C82F85E690E00E9413163C2F20E0282B20
:10058000309358012093570186E390E00E941316A0
:10059000C82F87E390E00E9413163C2F20E0282B01
:1005A000309381012093800186E690E00E9413162B
:1005B000C82F87E690E00E9413163C2F20E0282BDE
:1005C00030935A012093590188E390E00E9413165A
:1005D000C82F89E390E00E9413163C2F20E0282BBF
:1005E000309383012093820188E690E00E941316E5
:1005F000C82F89E690E00E9413163C2F20E0282B9C
:1006000030935C0120935B018AE390E00E94131613
:10061000C82F8BE390E00E9413163C2F20E0282B7C
:1006200030938501209384018AE690E00E9413169E
:10063000C82F8BE690E00E9413163C2F20E0282B59
:1006400030935E0120935D017894CF9108951F92BD
:100650000F920FB60F9211248F9388E10FB6F89482
:1006600080936000109260000FBE8F910F900FBEBC
:100670000F901F9018957C01EB01D12C88248A944F
:1006800086E0982E93E8A92E08E110E029E2B22E28
:1006900034E0C32E809140018330B9F1843008F0FA
:1006A0003EC0813009F4BEC008F44BC0809169019E
:1006B000811100C1F89490927C00A0927A00809100
:1006C0007A00806480937A0080917A0086FDFCCF66
:1006D000209178003091790078942B3A92E0390794
:1006E0000CF002C12938E2E03E070CF004C12736C5
:1006F00032400CF4DFC0559A549A3B9A3A9A3D988E
:100700003C9880914001833049F6DD2009F4D9C03E
:10071000C0924001DD24D394FE010995BBCF853002
:1007200009F462C0C8F3863009F0B4CF80913E016D
:10073000811194C01092B3001092B40010923F0146
:10074000A9CFF89480B7877F80BF80917A008F7798
:1007500080937A0014B817B81AB815B818B81BB82F
:100760000FB6F894A895009360000FBEB092600099
:100770008091600080648093600083B7817F846093
:1007800083BFF89483B7816083BF7894889583B7DB
:100790008E7F83BF789410926901529A5A9A809101
:1007A0007A00806880937A0087E592E00197F1F7FC
:1007B00000C0000080B7886180BF559A549A3B9A68
:1007C0003A9A3D9A3C9AEFE1FEE43197F1F700C086
:1007D000000080916901811177C0559854983B9829
:1007E0003A983D983C9856CF4899F7CF559A5498E7
:1007F0003B983A983D983C988FEC97E00197F1F739
:1008000000C00000559854983B983A983D983C9801
:100810009FEFE1EEF4E09150E040F040E1F700C0DE
:10082000000038CF559854983B9A3A9A3D983C9896
:10083000EFECF7E03197F1F700C0000055985498BD
:100840003B983A983D983C98FFEF21EE84E0F150B8
:1008500020408040E1F700C000001CCF90913E0195
:1008600080913F01981709F415CF80913E01809344
:100870003F0180913E01813009F444C080913E01E6
:100880001092B3008092B400823009F44CC0809280
:10089000B3008092B4008FE295E70197F1F700C0B2
:1008A000000080919E0190919D019093B3008093F0
:1008B000B400F0CE559A549A3B983A983D983C989B
:1008C000E9CEF701099524CF559A549A3B983A9866
:1008D0003D983C98FFEF20E782E0F15020408040B7
:1008E000E1F700C0000079CF559854983B9A3A9AA6
:1008F0003D983C98CFCE559854983B983A983D9A5D
:100900003C9AC8CE8092B3001092B4008FE295E773
:100910000197F1F700C0000080919F018093B30020
:100920001092B400B7CEEFE2F5E73197F1F700C0CF
:10093000000080918B011092B3008093B400AACE86
:1009400007C0EFECF7E03197F1F700C00000019726
:100950000097B9F708958093B3006093B4000895A9
:100960008FEF8093B3008093B4008FEC97E00197F2
:10097000F1F700C000008FEC97E00197F1F700C09D
:1009800000008FEC97E00197F1F700C000008FECBA
:1009900097E00197F1F700C000008FEC97E0019716
:1009A000F1F700C000008FEC97E00197F1F700C06D
:1009B00000008FEC97E00197F1F700C000008FEC8A
:1009C00097E00197F1F700C000008FEC97E00197E6
:1009D000F1F700C000008FEC97E00197F1F700C03D
:1009E00000008FEC97E00197F1F700C000008FEC5A
:1009F00097E00197F1F700C000008FEC97E00197B6
:100A0000F1F700C000008FEC97E00197F1F700C00C
:100A100000008FEC97E00197F1F700C00000089507
:100A20008091690181111FC0F89487E080937C0058
:100A300083E880937A0080917A00806480937A00C2
:100A400080917A0086FDFCCF20917800309179006A
:100A500010927C0083EA80937A0081E080937B008F
:100A60007894C90108952FEF3FEFFBCF8091690182
:100A700081111FC0F89488EC80937C0087E88093F4
:100A80007A0080917A00806480937A0080917A0065
:100A900086FDFCCF209178003091790010927C0087
:100AA00083EA80937A0081E080937B007894C90187
:100AB00008952FEF3FEFFBCF1F93CF93DF9360E0BD
:100AC00070E080E013EAD1E0C6E0B3E8E1E0F0E0F6
:100AD00040E850E0F894C0937C00B0937A00909185
:100AE0007A00906490937A0090917A0096FDFCCF02
:100AF0002091780030917900A22FA17090917A0016
:100B0000906490937A0090917A0096FDFCCF2091AA
:100B100078003091790010927C0010937A00D09385
:100B20007B00789421703327A21303C041505109F0
:100B300089F6AA2339F09F01062E01C0220F0A94DC
:100B4000EAF7822B6F5F7F4F6830710509F0C0CFE5
:100B5000DF91CF911F91089580911401982F990FE3
:100B6000990F990F982720914101822F869586959C
:100B700089279295969597708927809314012F5F06
:100B80002093410108958093140108958091690193
:100B9000811117C0F89486E080937C0083E88093ED
:100BA0007A0080917A00806480937A0080917A0044
:100BB00086FDFCCF20917800309179007894C901AE
:100BC00008952FEF3FEFFBCF2F923F924F925F920E
:100BD0006F927F928F929F92AF92BF92CF92DF924D
:100BE000EF92FF920F931F93CF93DF9300D000D02B
:100BF00000D0CDB7DEB75C01FC010280F381E02DAF
:100C0000FE83ED83E43823E0F2070CF0D8C0809136
:100C10004301909144018E179F0708F4B4C10091DD
:100C20004501109146010E171F0708F440C20091BC
:100C30004701109148010E171F0708F441C20091A7
:100C4000490110914A010E171F0708F442C2009192
:100C50004B0110914C010E171F0708F443C200917D
:100C60004D0110914E010E171F0708F496C1009117
:100C70004F01109150010E171F0708F43CC200915C
:100C80005101109152010E171F0708F43DC2009147
:100C90005301109154010E171F0708F43EC2009132
:100CA0005501109156010E171F0708F43FC200911D
:100CB0005701109158010E171F0708F440C2009108
:100CC000590110915A010E171F0708F446C20091EE
:100CD0005B0110915C010E171F0708F447C20091D9
:100CE0005D0110915E010E171F0708F448C21982BA
:100CF0001A8280ED8B8390E49C835CE0E52EF12CDE
:100D0000F701EE0FFF1FED5BFE4F80819181B8016F
:100D1000681B790B80E090E00E9415119B01AC01EB
:100D20000E94570E3B014C01ED81FE81BF018827D7
:100D300077FD8095982F0E946A106B017C01B801A5
:100D400080E090E00E9415111B012C0179816A81DD
:100D50009B818C81272F362F492F582F662D772D79
:100D6000882D992D0E94B30E9B01AC01C201B101E7
:100D70000E94830E9B01AC01C701B6010E94830E45
:100D800020E030E040E251E40E94B30E0E94C61021
:100D90008B01662D772D882D992D0E94C610AB01F1
:100DA000BC01C801BA010E944413882777FD8095D1
:100DB000982F0E946A100E94CE0C062FE5C00FEFFC
:100DC000F5018080918080916A0190916B01881576
:100DD000990508F46EC0E0906C01F0906D01E81484
:100DE000F90408F468C1E0906E01F0906F01E81416
:100DF000F90408F469C1E0907001F0907101E81401
:100E0000F90408F46AC1E0907201F0907301E814EB
:100E1000F90408F46BC1E0907401F0907501E814D6
:100E2000F90408F4D6C0E0907601F0907701E81458
:100E3000F90408F464C1E0907801F0907901E814B5
:100E4000F90408F465C1E0907A01F0907B01E814A0
:100E5000F90408F466C1E0907C01F0907D01E8148B
:100E6000F90408F467C1E0907E01F0907F01E81476
:100E7000F90408F468C1E0908001F0908101E81461
:100E8000F90408F465C1E0908201F0908301E81450
:100E9000F90408F466C1E0908401F0908501E8143B
:100EA000F90408F467C11AE50F3F31F4812F8F5D13
:100EB00051C010E00F3FD1F32D813E81B901882749
:100EC00077FD8095982F0E946A106B017C01602F3E
:100ED00070E080E090E00E9415114B015C01A701D9
:100EE000960160E070E081E694E40E94830E9B012D
:100EF000AC01C501B4010E94B30E4B015C01612F2E
:100F000070E080E090E00E9415112B013C0120E090
:100F100030E04FE254E4C701B6010E94830E9B010A
:100F2000AC01C301B2010E94B30E9B01AC01C5012B
:100F3000B4010E94570E20E030E048E453E40E94E0
:100F4000980F20E030E044E052E40E94570E0E94E7
:100F5000CE0C862F26960FB6F894DEBF0FBECDBFFF
:100F6000DF91CF911F910F91FF90EF90DF90CF9085
:100F7000BF90AF909F908F907F906F905F904F90B9
:100F80003F902F90089500E02D813E812D3B32400F
:100F90000CF016CF802F8F5DDDCF65E085E090E00F
:100FA0007C0131E0E31AF10870E080E090E00E94FB
:100FB000151120E030E040E05FE30E94B30E20E036
:100FC00030E0A9010E94570E69837A838B839C834A
:100FD00097CE85E0382EE5E0F0E0EE0FFF1FE859F0
:100FE000FE4F80819181B701681B790B80E090E012
:100FF0000E9415119B01AC010E94570E262EC72E90
:10100000D82E192FB401882777FD8095982F0E943C
:101010006A102B013C01B70180E090E00E9415119D
:101020004B015C01632D70E080E090E00E9415119F
:1010300020E030E040E05FE30E94B30E20E030E0CB
:10104000A9010E94570E222D3C2D4D2D512F0E949B
:10105000B30E9B01AC01C501B4010E94830E9B013C
:10106000AC01C301B2010E94830E20E030E040E2F7
:1010700051E40E94B30E0E94C6107B01622D7C2DAC
:101080008D2D912F0E94C610AB01BC01C701BA0182
:101090000E944413882777FD8095982F0E946A103C
:1010A0000E94CE0C162F6F3F09F004CF73CF61E082
:1010B00081E090E075CF33243394E1E0F0E08DCF10
:1010C00062E082E090E06CCF32E0332EE2E0F0E0CC
:1010D00084CF63E083E090E063CF23E0322EE3E04F
:1010E000F0E07BCF64E084E090E05ACF94E0392ECA
:1010F000E4E0F0E072CF66E086E090E051CF16E0E9
:10110000312EE6E0F0E069CF67E087E090E048CF7D
:10111000B7E03B2EE7E0F0E060CF68E088E090E0E9
:101120003FCFA8E03A2EE8E0F0E057CF69E089E051
:1011300090E036CFF9E03F2EE9E0F0E04ECF6AE0F4
:101140008AE090E02DCFEAE03E2EEAE0F0E045CFE5
:101150007BE0372EEBE0F0E040CF6BE08BE090E0FF
:101160001FCF6CE0362EECE0F0E037CF6CE08CE087
:1011700090E016CF5DE0352EEDE0F0E02ECF6DE093
:101180008DE090E00DCF1F920F920FB60F921124B9
:101190002F933F934F935F936F937F938F939F937F
:1011A000AF93BF93EF93FF932091890130918A0110
:1011B0008091870190918801280F391F30938A010F
:1011C000209389018FEF90E09093880180938701AD
:1011D0008FEF87BD8091650190916601A0916701B5
:1011E000B09168010196A11DB11D80936501909396
:1011F0006601A0936701B093680180916901811134
:101200000BC080919801909199018217930720F467
:1012100080914001843089F0FF91EF91BF91AF91AF
:101220009F918F917F916F915F914F913F912F91FE
:101230000F900FBE0F901F901895E0911001F09144
:1012400011010995009741F30E944B0C811109C0CF
:101250000E940F149927909388018093870187BD7E
:10126000DBCFE0910E01F0910F01099510928A01F8
:1012700010928901D1CF80FF11C0559A81FF11C012
:10128000549A82FF11C03B9A83FF11C03A9A84FF9F
:1012900011C03D9A85FD11C03C980895559881FD77
:1012A000EFCF549882FDEFCF3B9883FDEFCF3A9874
:1012B00084FDEFCF3D9885FFEFCF3C9A08951F92B4
:1012C0000F920FB60F9211248F939F93109281006B
:1012D000109285001092840081E0809342018093F7
:1012E00086011092690110927C0093EA90937A0033
:1012F00080937B009F918F910F900FBE0F901F9056
:1013000018951F920F920FB60F9211242F933F93AF
:101310004F935F936F937F938F939F93AF93BF93FD
:10132000CF93DF93EF93FF9320918400309185005A
:1013300041E040936901809142018823A9F1109214
:101340008500109284004093810010929A011092BF
:101350004201809186018823A1F080917A0086FD68
:10136000FCCF8091780090917900909364018093F4
:10137000630181E080937C0093EA90937A008093EC
:101380007B00FF91EF91DF91CF91BF91AF919F9142
:101390008F917F916F915F914F913F912F910F901E
:1013A0000FBE0F901F901895C90187589109843777
:1013B000994008F057C026583109A4EFB0E00E94C8
:1013C0003813883008F485C040934201809186012B
:1013D00081115CC080916001E82FF0E0E457FE4F7E
:1013E00090919A0190838F5F809360018C3049F6D1
:1013F0001092810010928500109284004093860123
:1014000010926901C0919601D09197018CE891E00A
:101410000E94920BC817D90709F0B3CF80919501AC
:1014200087FF68C0982F9858933030F053982398CE
:101430001092B4001092B300863809F4BFC008F0CF
:1014400063C0833809F41BC108F010C1803809F06B
:1014500098CF80916E008D7F80936E0016BCE0E087
:10146000F0E7099510928100109285001092840097
:1014700040934201409386011092690110927C00D2
:1014800083EA80937A0040937B007BCF80917A003F
:1014900086FDFCCF80917800909179009093620155
:1014A0008093610110927C0083EA80937A0081E04E
:1014B00080937B0090919A019923B9F0109281005A
:1014C0001092850010928400809386011092690129
:1014D00058CF21E030E001C0220F8A95EAF78091D1
:1014E0009A01822B80939A014CCF10928601109220
:1014F000600147CFE0911201F091130161E671E0C4
:101500008CE891E009953DCF883809F4BBC008F418
:10151000A9C0893809F47BC08A3809F032CF80919C
:101520008C01823009F4C9C008F059C081114AC049
:1015300080914001863009F024CF60919B0180EBBF
:1015400090E00E941B1660919C0181EB90E00E944C
:101550001B1660919F0185E090E00E941B16609130
:101560008B0189E090E00E941B1660919D018CE048
:1015700090E00E941B1660919E0184E190E00E9421
:101580001B16539823981092B4001092B30081E078
:101590008093400180918C01882309F4F2CE8091E0
:1015A0004001863009F4EDCE539A239A1092B4008C
:1015B0001092B30086E080934001E3CE85E08093F3
:1015C0004001DFCE813041F780918D0190918E01F5
:1015D00090939C0180939B0110923E01E0CF833059
:1015E00009F484C08430C1F680913E01909192014B
:1015F000833009F470C08091910110923F0123E083
:1016000020933E0180939D0190939E01C8CF8091CD
:101610004001863099F0539A239A1092B4001092A8
:10162000B300559854983B983A983D983C9810923E
:101630003E0110923F0186E08093400181E090E0FE
:1016400000908C0102C0880F991F0A94E2F7209144
:101650009B0130919C0182239323892B51F5109299
:101660003E018FCE82E0809340018BCE8438F1F032
:10167000853809F086CE81E08093400182CEE0E09B
:10168000F0E0099580914001833009F47ACE809191
:101690004001843009F475CE539A239A1092B40015
:1016A0001092B30083E0809340016BCE1092400112
:1016B00068CE81E080933E0164CE80913E0181300E
:1016C00019F180918F0110923F0191E090933E01BA
:1016D00080939F0164CF80919E0198138CCF80915D
:1016E000910120919D01821388CF59CF80913E01B5
:1016F000823089F08091900110923F0192E09093A6
:101700003E0180938B014BCF80918F0190919F017F
:101710008913D9CF44CF8091900190918B01891387
:10172000EBCF3DCFFC0180812FEF3FEF2827022E2A
:101730002295207F2025032E322F22952F700226FE
:10174000269532272327220F220F220F2025818161
:101750002827022E2295207F2025032E322F229526
:101760002F700226269532272327220F220F220FC1
:10177000202582812827022E2295207F2025032ED6
:10178000322F22952F700226269532272327220FEB
:10179000220F220F202583812827022E2295207FC9
:1017A0002025032E322F22952F70022626953227D0
:1017B0002327220F220F220F202584812827022E83
:1017C0002295207F2025032E322F22952F7002266E
:1017D000269532272327220F220F220F20258581CD
:1017E0002827022E2295207F2025032E322F229596
:1017F0002F700226269532272327220F220F220F31
:10180000202586812827022E2295207F2025032E41
:10181000322F22952F700226269532272327220F5A
:10182000220F220F202587812827022E2295207F34
:101830002025032E322F22952F700226269532273F
:101840002327220F220F220F202580852827022EF2
:101850002295207F2025032E322F22952F700226DD
:10186000269532272327220F220F220F202581853C
:101870002827022E2295207F2025032E322F229505
:101880002F700226269532272327220F220F220FA0
:101890002025C90108950FB6F894A4B120915F01E5
:1018A0002A2B24B921E030915F01203029F000007B
:1018B00025B1232B25B904C000000000000000C0A2
:1018C000000000000000309525B1232325B92EEA41
:1018D0002A95F1F72BEE30B735FF0AC0A4B9309145
:1018E0005F01309525B1232325B90FBE80E008950F
:1018F00000002A9581F721E030915F01203029F026
:10190000000025B1232B25B904C000000000000011
:1019100000C0000000000000309525B1232325B948
:10192000000024E52A95F1F7FC018CE0619170E05C
:10193000660F771F616072609AE041E050E09A01A3
:1019400026233723232B30915F01203029F000001C
:1019500025B1232B25B904C000000000000000C001
:10196000000000000000309525B1232325B90000B8
:1019700021E52A95F1F7440F551F9A9501F78A95AD
:10198000A9F620B7206120BFA4B930915F0130953E
:1019900025B1232325B90FBE81E00895CF92DF92B0
:1019A000EF92FF920F931F936B017C0120E030E0D8
:1019B00040E05FE40E943B1087FD0EC020E030E075
:1019C00040E05FE4C701B6010E94830E0E94C6108A
:1019D0008B019C01305806C0C701B6010E94C61099
:1019E0008B019C01B801C9011F910F91FF90EF90ED
:1019F000DF90CF900895A4E0B0E0E1E0FDE00C942A
:101A00006E137C016A01FC018081823008F44AC1B6
:101A1000FB019081923008F442C1843079F4943013
:101A200009F040C1F7019181FB018181981709F408
:101A300039C1A9E1EA2EA1E0FA2E34C1943009F4AB
:101A40002EC1923091F4823009F02CC188E0F70168
:101A5000DA0101900D928A95E1F7FB018181F7018E
:101A600091818923FA0181831CC1823009F417C155
:101A7000F70182819381FB01A281B381F701048187
:101A8000158126813781FB0184809580A680B780EF
:101A9000FC01EA1BFB0BAF01F7FF04C044275527ED
:101AA0004E1B5F0B403251050CF074C01E161F0612
:101AB000B4F524013501042E04C07694679457943C
:101AC00047940A94D2F749825A826B827C82412CD5
:101AD000512C3201439404C0440C551C661C771CE5
:101AE0004A95D2F741E0441A51086108710848202C
:101AF00059206A207B20812C912C54018394452805
:101B00004628472819F4812C912C540149805A8089
:101B10006B807C8084289528A628B72846C0EF2BA8
:101B200009F443C0840F951F28013901042E04C015
:101B300076946794579447940A94D2F749825A82CC
:101B40006B827C82412C512C3201439404C0440CA2
:101B5000551C661C771C4A95D2F741E0441A51087F
:101B600061087108402251226222732201E010E0D4
:101B700020E030E045284628472819F400E010E02E
:101B8000980149805A806B807C8004291529262978
:101B900037290BC0A817B90724F4812C912C5401C4
:101BA00004C0CD0100E010E09801F7014181FB0184
:101BB0005181451709F446C0442349F024013501F9
:101BC000401A510A620A730A9301820104C008197B
:101BD00019092A093B0937FD05C0F60111829383D3
:101BE00082830CC041E0F601418393838283309568
:101BF0002095109501951F4F2F4F3F4F048315835C
:101C0000268337830EC0880F991FAA1FBB1FF601BA
:101C100084839583A683B78382819381019793837D
:101C20008283F60184819581A681B781AC01BD01D3
:101C300041505109610971094F3F5F4F6F4F7F4319
:101C400010F30CC0F601418393838283080D191DA4
:101C50002A1D3B1D048315832683378383E0F60109
:101C60008083448155816681778177FF1AC0DB01CB
:101C7000CA0181709927AA27BB2776956795579542
:101C80004795842B952BA62BB72B84839583A6830E
:101C9000B7838281938101969383828302C07B0103
:101CA00001C07601C7012496E0E10C948A13A0E2FA
:101CB000B0E0EDE5FEE00C947C136D8F7E8F8F8F8E
:101CC00098A3298F3A8F4B8F5C8FBE016F5E7F4F39
:101CD000CE014D960E945512BE01675F7F4FCE0127
:101CE00049960E945512AE014F5F5F4FBE01675F7C
:101CF0007F4FCE0141960E94FB0C0E948B11A09653
:101D0000E2E00C949813A0E2B0E0E9E8FEE00C9465
:101D10007C136D8F7E8F8F8F98A3298F3A8F4B8F77
:101D20005C8FBE016F5E7F4FCE014D960E945512B3
:101D3000BE01675F7F4FCE0149960E9455128A858A
:101D400091E089278A87AE014F5F5F4FBE01675FD1
:101D50007F4FCE0141960E94FB0C0E948B11A096F2
:101D6000E2E00C949813A0E2B0E0E9EBFEE00C9402
:101D70006E136D8F7E8F8F8F98A3298F3A8F4B8F25
:101D80005C8FBE016F5E7F4FCE014D960E94551253
:101D9000BE01675F7F4FCE0149960E945512998917
:101DA000923008F412C08985823008F41AC0943049
:101DB00021F4823009F4B4C008C0843021F4923098
:101DC00009F4AEC00EC0923051F481E02A899A85A0
:101DD000291301C080E08A8BCE014196A3C08230D6
:101DE00051F481E02A899A85291301C080E08A870D
:101DF000CE01099697C08D889E88AF88B88C0D85D6
:101E00001E852F853889E0E2F0E080E090E0DC017B
:101E1000C12CD12C760140E050E0BA0180FE18C000
:101E2000400F511F621F731F8C0D9D1DAE1DBF1DE6
:101E3000412C512C3201439440175107620773071C
:101E400018F0412C512C3201840D951DA61DB71D93
:101E5000CC0CDD1CEE1CFF1C37FF02C06894C0F8E0
:101E6000000F111F221F331FB694A79497948794D5
:101E70003197A1F62B893C89EB85FC852E0F3F1FFE
:101E80002E5F3F4F3C832B8321E0EA893A85E313A1
:101E900001C020E02A83EB81FC810CC080FF05C0DB
:101EA00076956795579547957068B695A7959795D8
:101EB00087953196B7FDF2CF9F010CC0880F991F0F
:101EC000AA1FBB1F77FD8160440F551F661F771F38
:101ED000215031090097A105E0E4BE0778F32B8378
:101EE0003C838C019D010F77112722273327003473
:101EF00011052105310559F487FD09C0452B462BF5
:101F0000472B29F0805C9F4FAF4FBF4F80788D8368
:101F10009E83AF83B88783E08983CE01019602C098
:101F200089E191E00E948B11A096E0E10C948A1364
:101F3000A8E1B0E0EEE9FFE00C9476136D8B7E8BA8
:101F40008F8B988F298B3A8B4B8B5C8BBE01675F95
:101F50007F4FCE0145960E945512BE016F5F7F4FA5
:101F6000CE0141960E9455129985923008F475C0B1
:101F70008981823008F474C02A853A8123272A8710
:101F8000943011F0923019F4981367C06CC084300B
:101F900039F41D861E861F86188A1C861B8604C07F
:101FA000823029F484E08987CE0109965EC08B8552
:101FB0009C852B813C81821B930B9C878B874D8555
:101FC0005E856F857889CD80DE80EF80F8844C1542
:101FD0005D056E057F0538F4440F551F661F771F9A
:101FE00001979C878B87EFE1F0E000E010E020E0B4
:101FF00030E480E090E0DC014C155D056E057F0566
:1020000040F0802B912BA22BB32B4C195D096E094C
:102010007F093695279517950795440F551F661F1D
:10202000771F319749F78C019D010F7711272227E0
:102030003327003411052105310559F487FD09C006
:10204000452B462B472B29F0805C9F4FAF4FBF4F4E
:1020500080788D879E87AF87B88BCE01099605C0A3
:10206000CE01019602C089E191E00E948B11689631
:10207000E8E00C949213A8E1B0E0E1E4F0E10C9404
:102080007C136D8B7E8B8F8B988F298B3A8B4B8B30
:102090005C8BBE01675F7F4FCE0145960E94551253
:1020A000BE016F5F7F4FCE0141960E945512898518
:1020B000823058F08981823040F0BE016F5F7F4FDF
:1020C000CE0109960E94C41201C08FEF6896E2E02B
:1020D0000C949813A8E0B0E0E0E7F0E10C947A13D8
:1020E00023E029838B019C01002737FD03951127ED
:1020F00022273327402F0A83611571058105910539
:1021000019F482E0898335C02EE130E03C832B83D3
:10211000442371F061157105810520E8920771F182
:10212000002711279801061B170B280B390B02C03B
:102130008B019C01C901B8010E94A31301971816D5
:1021400019062CF00D831E832F83388712C0082EAA
:1021500004C0000F111F221F331F0A94D2F70D83F2
:102160001E832F8338872EE130E0281B390B3C83F8
:102170002B83CE0101960E948B1104C060E070E0B9
:1021800080E09FEC2896E4E00C949613ACE0B0E07D
:10219000ECECF0E10C947A1369877A878B879C8743
:1021A000BE016F5F7F4FCE0109960E945512898153
:1021B000823091F1823080F1843041F48A81882329
:1021C00031F100E010E020E030E829C02B813C81B3
:1021D00037FD22C02F3131058CF78EE190E0821B54
:1021E000930B0D811E812F81388504C0369527956C
:1021F000179507958A95D2F78A81882381F03095C3
:102200002095109501951F4F2F4F3F4F08C00FEF9E
:102210001FEF2FEF3FE703C000E010E09801B80187
:10222000C9012C96E4E00C949613A8E0B0E0EBE131
:10223000F1E10C9476138B019C011A8261157105F2
:102240008105910519F482E089835DC083E089836B
:102250004EE150E05C834B83C901B8010E94A31397
:10226000019797FF39C0EE27FF27E81BF90B41E0E4
:1022700050E060E070E00E2E04C0440F551F661F52
:10228000771F0A94D2F7415051096109710940231F
:10229000512362237323C12CD12C7601C394452B87
:1022A000462B472B19F4C12CD12C760104C036954E
:1022B000279517950795EA95D2F70C291D292E2900
:1022C0003F290D831E832F8338872EE130E0281BA2
:1022D000390B3C832B8317C0009729F40D831E8391
:1022E0002F83388710C0082E04C0000F111F221F33
:1022F000331F0A94D2F70D831E832F833887481B20
:10230000590B5C834B83CE0101960E948B1128965A
:10231000E8E00C9492130F931F93CF93DF93DC01AB
:1023200014964D915D916D917C9117971196EC915A
:1023300011978C91823020F460618FEF90E0A6C0FD
:10234000843009F49EC0823009F495C041155105CE
:102350006105710509F492C012962D913C91139775
:1023600022388FEF38070CF058C0C2E8DFEFC21BED
:10237000D30BCA31D1056CF58A019B010C2E04C028
:1023800036952795179507950A94D2F781E090E046
:10239000A0E0B0E00C2E04C0880F991FAA1FBB1F3D
:1023A0000A94D2F70197A109B10984239523A623A2
:1023B000B72341E050E060E070E0892B8A2B8B2B43
:1023C00019F440E050E0BA01402B512B622B732BE3
:1023D00003C040E050E0BA01DB01CA018F779927C2
:1023E000AA27BB2780349105A105B10539F447FF21
:1023F00009C0405C5F4F6F4F7F4F04C0415C5F4F2F
:102400006F4F7F4F81E090E041155105610520E459
:10241000720748F580E090E026C0203831058CF541
:10242000DB01CA018F779927AA27BB278034910542
:10243000A105B10539F447FF09C0405C5F4F6F4FFC
:102440007F4F04C0415C5F4F6F4F7F4F77FD04C0EB
:10245000C90181589F4F07C0769567955795479555
:10246000C90180589F4F97E0769567955795479596
:102470009A95D1F70BC080E090E005C080E090E035
:1024800005C08FEF90E040E050E0BA01982F96959C
:10249000E0FB97F9362F80FB37F9642F752F832FD8
:1024A000DF91CF911F910F910895CF92DF92EF921C
:1024B000DC01FB01CC901196DC90119712968C9167
:1024C00012973FE7E32EE8226E2DA60170E0982FC9
:1024D000991F9927991F13962C91822F880F892B6A
:1024E00090E027FB222720F92183009729F5411549
:1024F00051056105710511F482E027C082E89FEF64
:102500009383828327E0440F551F661F771F2A9508
:10251000D1F783E0808309C0440F551F661F771FE2
:1025200082819381019793838283411551056105CF
:1025300080E4780788F320C08F3F910579F4411536
:1025400051056105710519F484E0808319C0E4FE2A
:1025500003C081E0808310C010820EC08F579109A4
:102560009383828383E0808387E0440F551F661F37
:10257000771F8A95D1F77064448355836683778388
:10258000EF90DF90CF900895CF93FC01DB01908115
:10259000923008F452C08C91823008F44EC09430CE
:1025A00071F4843039F411962C9130E08181281B2C
:1025B000310948C08181882309F43FC03BC0843081
:1025C00029F411968C91811138C034C0923019F4DD
:1025D0008230B9F735C0823069F3C18111968C9190
:1025E0001197C8131DC02281338112968D919C9141
:1025F0001397821793070CF413C0281739070CF4AC
:1026000017C0448155816681778114968D919D9183
:102610000D90BC91A02D84179507A607B70718F455
:10262000C11108C00AC0481759076A077B0740F460
:10263000C11103C02FEF3FEF05C021E030E002C021
:1026400020E030E0C901CF9108950E94BD000E94B2
:10265000990086E690E090931301809312016EE753
:1026600070E085E690E00E943B0380E090E00895F2
:10267000A29FB001B39FC001A39F01D0B29F700D74
:10268000811D1124911D089597FB072E16F40094C7
:1026900007D077FD09D00E94581307FC05D03EF4FF
:1026A000909581959F4F0895709561957F4F0895FE
:1026B000AA1BBB1B51E107C0AA1FBB1FA617B70768
:1026C00010F0A61BB70B881F991F5A95A9F7809584
:1026D0009095BC01CD0108952F923F924F925F9249
:1026E0006F927F928F929F92AF92BF92CF92DF9222
:1026F000EF92FF920F931F93CF93DF93CDB7DEB787
:10270000CA1BDB0B0FB6F894DEBF0FBECDBF09941A
:102710002A88398848885F846E847D848C849B8471
:10272000AA84B984C884DF80EE80FD800C811B817F
:10273000AA81B981CE0FD11D0FB6F894DEBF0FBEAE
:10274000CDBFED0108950E94AC1384FF0895CB0125
:102750000E94AC13805F0895AA27992329F4A85FEB
:10276000982B11F480E10895903118F4AD5F9295A3
:10277000A395990FE8F78A2F992708958F929F9232
:10278000AF92BF92CF92DF92EF92FF92CF93DF93FF
:10279000EC01688179818A819B81611571058105D0
:1027A000910521F464E279ED8BE597E02DE133EFBB
:1027B00041E050E00E94DC1649015A019B01AC0146
:1027C000A7EAB1E40E94C9166B017C01ACEEB4EF3C
:1027D000A50194010E94D716C60ED71EE81EF91E49
:1027E000F7FE06C081E0C81AD108E10880E8F80ABF
:1027F000C882D982EA82FB82E894D7F8EE24FF24CB
:10280000C601DF91CF91FF90EF90DF90CF90BF9006
:10281000AF909F908F9008950E94BE13089585E118
:1028200091E00E94BE130895A0E0B0E080931501EE
:1028300090931601A0931701B09318010895A2E098
:10284000B0E0E5E2F4E10C947C13FE01379661916F
:102850007191FA83E983AF018091A2019091A30164
:102860000E9436142296E2E00C949813ACE0B0E09B
:10287000ECE3F4E10C946C137C016B018A01FC0124
:1028800017821682838181FFC7C188248394912C8B
:102890008C0E9D1EF7019381F60193FD859193FFA8
:1028A00081916F01882309F4B3C1853239F493FD16
:1028B000859193FF81916F01853229F4B70190E0F2
:1028C0000E943F16E7CF712C312C20E02032A8F473
:1028D0008B3261F028F4803251F0833271F40BC0F6
:1028E0008D3239F0803349F4216028C022602460A1
:1028F00025C0286023C0206121C027FD27C0382FB4
:1029000030533A3078F426FF06C0FAE07F9E300D4F
:102910001124732E13C08AE0389E300D1124332EFB
:1029200020620CC08E3221F426FD72C1206406C0E4
:102930008C3611F4206802C0883641F4F60193FD0C
:10294000859193FF81916F018111C0CF982F95548C
:10295000933018F09052933028F40C5F1F4FFFE330
:10296000F9830DC0833631F0833771F0833509F078
:102970005EC023C0F801808189830E5F1F4F6624EB
:102980006394712C540115C02801F2E04F0E511CC4
:10299000F801A080B18026FF03C0672D70E002C05F
:1029A0006FEF7FEFC5012C870E9434163C01820136
:1029B0002C856FE7262E222218C02801F2E04F0E48
:1029C000511CF801A080B18026FF03C0672D70E084
:1029D00002C06FEF7FEFC5012C870E9429163C01D2
:1029E0002C8550E8252E222A820123FC1CC006C01B
:1029F000B70180E290E00E943F163A94832D90E068
:102A000068167906A8F30FC0F50127FC859127FE0B
:102A100081915F01B70190E00E943F1631103A9416
:102A2000F1E06F1A71086114710471F7EEC0843619
:102A300011F0893641F5F80127FF07C060817181E7
:102A4000828193810C5F1F4F08C06081718188274C
:102A500077FD8095982F0E5F1F4F4FE6642E622200
:102A600097FF09C090958095709561957F4F8F4F26
:102A70009F4FF0E86F2A2AE030E0A4010E946B1615
:102A8000A82EA81844C0853731F43FEEB32EB222E9
:102A90002AE030E024C099EFB92EB2228F36B9F087
:102AA00020F4883509F0B4C00DC0803721F0883794
:102AB00009F0AEC002C020E1B22AB4FE0BC084E02F
:102AC000B82A08C024FF09C0E6E0BE2A06C028E0F4
:102AD00030E005C020E130E002C020E132E0F80142
:102AE000B7FE07C060817181828193810C5F1F4FA7
:102AF00006C06081718180E090E00E5F1F4FA401ED
:102B00000E946B16A82EA8188FE7682E6B2066FE11
:102B10000BC0362D3E7FA71450F464FE0AC062FC41
:102B200008C0362D3E7E05C0BA2C362D03C0BA2C07
:102B300001C0B72C34FF0DC0FE01EA0DF11D8081EC
:102B4000803311F4397E09C032FF06C0B394B394C8
:102B500004C0832F867809F0B39433FD14C030FF8E
:102B60000FC07A2CB31460F4730C7B18B32C08C01C
:102B7000B70180E290E03C870E943F16B3943C8509
:102B8000B314B0F304C0B31410F43B1801C0312CDB
:102B900034FF12C0B70180E390E03C870E943F16EB
:102BA0003C8532FF1EC031FF03C088E590E002C0C3
:102BB00088E790E0B7010CC0832F867891F031FD53
:102BC00002C080E201C08BE237FD8DE2B70190E0E8
:102BD0000E943F1606C0B70180E390E00E943F16B6
:102BE0007A94A714C0F3AA94F401EA0DF11DB70179
:102BF000808190E00E943F16A110F5CF06C0B7017A
:102C000080E290E00E943F163A943110F8CF42CE15
:102C1000F7012681378102C02FEF3FEFC9012C96C3
:102C2000E2E10C948813F999FECF92BD81BDF89A28
:102C3000992780B50895262FF999FECF1FBA92BD26
:102C400081BD20BD0FB6F894FA9AF99A0FBE01968D
:102C50000895FC010590615070400110D8F78095EF
:102C600090958E0F9F1F0895FC0161507040019058
:102C70000110D8F7809590958E0F9F1F08950F93A0
:102C80001F93CF93DF938C01EB018B8181FD03C0F8
:102C90000FEF1FEF1AC082FF0DC02E813F818C8184
:102CA0009D812817390764F4E881F9810193F9833C
:102CB000E88306C0E885F985802F0995892B41F7BF
:102CC0008E819F8101969F838E83C801DF91CF9172
:102CD0001F910F910895FA01AA27283051F1203150
:102CE00081F1E8946F936E7F6E5F7F4F8F4F9F4FA0
:102CF000AF4FB1E03ED0B4E03CD0670F781F891FE2
:102D00009A1FA11D680F791F8A1F911DA11D6A0FAF
:102D1000711D811D911DA11D20D009F468943F9162
:102D20002AE0269F11243019305D3193DEF6CF0161
:102D30000895462F4770405D4193B3E00FD0C9F727
:102D4000F6CF462F4F70405D4A3318F0495D31FD94
:102D50004052419302D0A9F7EACFB4E0A6959795E7
:102D6000879577956795BA95C9F7009761057105BD
:102D700008959B01AC010A2E069457954795379507
:102D80002795BA95C9F7620F731F841F951FA01D61
:102D900008950E943813A59F900DB49F900DA49F95
:102DA000800D911D11240895B7FF0C94C9160E943F
:102DB000C916821B930B0895052E97FB16F40094F9
:102DC00007D057FD0DD00E94F81607FC09D07EF4FD
:102DD00090958095709561957F4F8F4F9F4F089587
:102DE00050954095309521953F4F4F4F5F4F089537
:102DF000A1E21A2EAA1BBB1BFD010DC0AA1FBB1FFF
:102E0000EE1FFF1FA217B307E407F50720F0A21B70
:102E1000B30BE40BF50B661F771F881F991F1A94DD
:102E200069F760957095809590959B01AC01BD0107
:082E3000CF010895F894FFCFD3
:102E380000000002000000005C0000000000BC0070
:102E4800B900B800AA01000000000000000000005E
:102E5800004E6F7576656175206D65737361676582
:082E6800203A2025640A000055
:00000001FF
