:100000000C94C7000C94F0000C94F0000C94F000D9
:100010000C94F0000C94F0000C94AF070C94F000DA
:100020000C94F0000C94F0000C94F0000C946E0D05
:100030000C94F0000C94F0000C94CE0C0C94F00096
:100040000C94F0000C94F0000C94F0000C94F00070
:100050000C94F0000C94F0000C94F0000C94900DB3
:100060000C94F0000C94F00015089108E907E007E3
:10007000E60773086808F30ED00DD00DF00EFC0EE5
:10008000EC0E030FFF0E070FBF0E910E6E616E0098
:10009000696E660000407A10F35A00A0724E18098B
:1000A0000010A5D4E80000E87648170000E40B54DF
:1000B000020000CA9A3B000000E1F50500008096AE
:1000C0009800000040420F000000A08601000000E0
:1000D000102700000000E80300000000640000009A
:1000E00000000A00000000000100000000002C7663
:1000F000D888DC674F0823DFC1DFAE59E1B1B7967E
:10010000E5E3E453C63AE651997696E8E6C28426DA
:10011000EB898C9B62ED407C6FFCEFBC9C9F40F2B6
:10012000BAA56FA5F490055A2AF75C936B6CF96732
:100130006DC11BFCE0E40D47FEF520E6B500D0EDF7
:10014000902E0300943577050080841E080000205F
:100150004E0A000000C80C333333330F986E1283FD
:100160001141EF8D2114893BE65516CFFEE6DB18D1
:10017000D1844B381BF77C1D901DA4BBE424203296
:1001800084725E228100C9F124ECA1E53D2711248F
:100190001FBECFEFD8E0DEBFCDBF14BE0FB6F894C0
:1001A000A895809160008861809360001092600043
:1001B0000FBE11E0A0E0B1E0EEECF1E302C005906B
:1001C0000D92A231B107D9F722E0A2E1B1E001C05E
:1001D0001D92AB38B207E1F70E94B5130C94E518F5
:1001E0000C940000CF93DF93C0910001D0910101E6
:1001F000FE01EA5FFE4F108232978FEF80833196C7
:1002000010820E94880983708883C0910001D09178
:1002100001010E94D116C95FDE4F6FEF7FE70E9498
:10022000D813092E000CAA0BBB0B88839983AA83D1
:10023000BB83E0910001F0910101E95FFE4F8381F2
:100240008F9382818F9381818F9380818F938DE0B3
:1002500091E09F938F930E940718E0910001F09125
:1002600001011182379689E0DF011D928A95E9F735
:100270000E940D06E0910001F0910101178EDF014F
:10028000A15FBE4F11961C921E92199781E08C932C
:10029000128280914A0290914B02A0914C02B0913F
:1002A0004D0283839483A583B68380914A02909103
:1002B0004B02A0914C02B0914D02E55FFE4F80834E
:1002C0009183A283B3830F900F900F900F900F90A4
:1002D0000F90DF91CF9108950F931F93CF93DF93EA
:1002E000E0910001F0910101C78DC11131C1409130
:1002F0004A0250914B0260914C0270914D028381F1
:100300009481A581B6818058984FAF4FBF4F481751
:1003100059076A077B0708F074C00E94D116EC01E8
:10032000E0910001F09101018281811167C00E947A
:100330000D06809100019091010100914A021091F7
:100340004B0220914C0230914D02FC01E55FFE4FC3
:100350004081518162817381485F5F4F6F4F7F4F52
:10036000401751076207730708F043C040914A02E3
:1003700050914B0260914C0270914D024083518329
:100380006283738336978081882309F401C18130A9
:1003900081F58CE00E944A0DE0910001F09101018D
:1003A000808100914A0210914B0220914C023091C1
:1003B0004D0240E2849FC0011124092E000CAA0BBB
:1003C000BB0BF3954081518162817381840F951F2E
:1003D000A61FB71F80179107A207B30750F483E049
:1003E0000E94C104E0910001F0910101EB5FFE4F1A
:1003F0001082DF91CF911F910F9108950E94830584
:1004000096CF8FE30E944A0DE0910001F091010127
:100410008181882309F4A6C00E9488090091000107
:1004200010910101F801A1816A2F0E94CC13792F4C
:10043000292F30E0A901440F551F440F551F440FC9
:10044000551FFA01E21BF30BE00FF11F85A196A1E6
:10045000AA2359F1F801B5960DC0472F742F28171C
:10046000390790F4522F232F852F922F3796CF5F85
:10047000CA1791F0208131812817390770F74C2F66
:10048000742F2817390770F3582F292F852F922F93
:100490003796CF5FCA13EECF242F30E0A901440F67
:1004A000551F440F551F440F551FD801A95FBE4F5C
:1004B000421B530BF801E40FF51F41A152A163A1A8
:1004C00074A14D935D936D937C931397F801118202
:1004D00080914A0290914B02A0914C02B0914D0242
:1004E00083839483A583B683E15FFE4F11821082DC
:1004F0000E948809682F70E080E090E00E946615F5
:1005000020E030E040E85BE30E9418162DEC3CEC64
:100510004CEC5DE30E94B91487FD76C0E0910001C8
:10052000F0910101E95FFE4F80819181A281B38149
:1005300081159048A105B10540F08FEF9FE7A0E03D
:10054000B0E080839183A283B3830E940D06E5CE41
:1005500080E00E944A0D80E0DF91CF911F910F91C2
:100560000C94C10481E0878F80E00E944A0D809145
:100570004A0290914B02A0914C02B0914D02E09141
:100580000001F091010183839483A583B683C5CED6
:1005900083E00E944A0D83E00E94C1042091000183
:1005A00030910101CE016FEF7FE70E94D813092E31
:1005B000000CAA0BBB0BF901E95FFE4F4081518192
:1005C0006281738184179507A607B70708F011CFDA
:1005D000329781E080830E944305C0910001D09151
:1005E000010180914A0290914B02A0914C02B0917E
:1005F0004D02FE01F39580839183A283B3830E9411
:10060000880983708883F5CE0E948809C82F0E94CC
:10061000880949E2849F412D112442954F70F4E6E8
:100620004F9F80191124482FC0FD17C050E060E093
:1006300070E0E0910001F0910101E95FFE4F8081DF
:100640009181A281B38184179507A607B707C0F4EB
:10065000108211821282138278CFE0910001F09112
:100660000101E95FFE4F80819181A281B381840FF6
:10067000911DA11DB11D80839183A283B38358CFA7
:10068000841B950BA60BB70B80839183A283B38346
:100690004FCFCF93DF93E0910001F0910101818171
:1006A000882309F49CC00E948809C0910001D09160
:1006B0000101B9816B2F0E94CC13A92F292F30E0A3
:1006C000A901440F551F440F551F440F551FFA0130
:1006D000E21BF30BEC0FFD1F85A196A1BB2361F17B
:1006E000FE01B59640E00DC05A2FA52F28173907F7
:1006F00090F4722F232F872F922F37964F5F4B172F
:1007000091F0208131812817390770F7542FA52FD8
:100710002817390770F3782F292F872F922F3796B4
:100720004F5F4B13EECF252F30E0A901440F551F2B
:10073000440F551F440F551FDE01A95FBE4F421BDA
:10074000530BFE01E40FF51F41A152A163A174A157
:100750004D935D936D937C931397198280914A0218
:1007600090914B02A0914C02B0914D028B839C83DF
:10077000AD83BE83C15FDE4F198218820E94880953
:10078000682F70E080E090E00E94661520E030E085
:1007900040E85BE30E9418162DEC3CEC4CEC5DE36A
:1007A0000E94B91487FD33C0E0910001F09101016E
:1007B000E95FFE4F80819181A281B38181159048CC
:1007C000A105B10540F08FEF9FE7A0E0B0E0808386
:1007D0009183A283B383DF91CF910C940D0681E0C6
:1007E000878F80E00E944A0D80914A0290914B02CF
:1007F000A0914C02B0914D02E0910001F0910101F5
:1008000083839483A583B683DF91CF9108950E945B
:100810008809C82F0E94880949E2849F412D11242C
:1008200042954F7024E6429F80191124482FC0FD45
:1008300017C050E060E070E0E0910001F09101012C
:10084000E95FFE4F80819181A281B3818417950772
:10085000A607B707C0F41082118212821382BBCFA1
:10086000E0910001F0910101E95FFE4F80819181EB
:10087000A281B381840F911DA11DB11D808391833D
:10088000A283B3839BCF841B950BA60BB70B8083EE
:100890009183A283B38392CFCF930E948809682F5C
:1008A00070E080E090E00E94661520E030E040E8D3
:1008B0005BE30E9418162DEC3CEC4CEC5DE30E94CF
:1008C000B91487FD19C0E0910001F0910101E95FC1
:1008D000FE4F80819181A281B38181159048A1054D
:1008E000B10540F08FEF9FE7A0E0B0E080839183F7
:1008F000A283B383CF9108950E948809C82F0E94D4
:10090000880949E2849F412D112442954F7024E6C5
:10091000429F80191124482FC0FD17C050E060E0AD
:1009200070E0E0910001F0910101E95FFE4F8081EC
:100930009181A281B38184179507A607B707C0F4F8
:100940001082118212821382D5CFE0910001F091C2
:100950000101E95FFE4F80819181A281B381840F03
:10096000911DA11DB11D80839183A283B383B5CF57
:10097000841B950BA60BB70B80839183A283B38353
:10098000ACCFCF93E0910001F0910101EC5FFE4FFD
:100990009081981791F0C82F8230D1F0833079F090
:1009A0008130F1F060E080E00E942909E0910001CF
:1009B000F0910101EC5FFE4FC083CF9108950E943A
:1009C0002E0960917002809184020E942909EECF65
:1009D0000E942E096091700280E00E942909E6CFF2
:1009E0000E942E0960E0809184020E942909DECFD6
:1009F000CF930E948809C82FC370E0910001F09145
:100A00000101EC5FFE4F8081CC23B9F0C330A9F027
:100A1000C13039F1823079F00E942E096091700264
:100A200080E00E942909E0910001F0910101EC5F52
:100A3000FE4F82E08083CF9108958330E1F30E94DE
:100A40002E0960917002809184020E942909E09130
:100A50000001F0910101EC5FFE4F83E08083CF91B4
:100A60000895813041F30E942E0960E08091840254
:100A70000E942909E0910001F0910101EC5FFE4F15
:100A8000C083CF9108950E948809E0910001F09100
:100A90000101EC5FFE4F80FF13C08081823079F04E
:100AA0000E942E096091700280E00E942909E09165
:100AB0000001F0910101EC5FFE4F82E08083089518
:100AC00080818130E1F30E942E0960E080918402F0
:100AD0000E942909E0910001F0910101EC5FFE4FB5
:100AE00081E080830895E0910001F091010181810E
:100AF00090E00895E0910001F0910101E15FFE4F67
:100B00008081918108950F931F93CF93DF93C091BC
:100B10000001D09101017B8D7F3F09F45EC0FE0191
:100B2000E15FFE4F808191810196918380836B8983
:100B30001981EF5EF109A12FB0E080E090E0582F1D
:100B40008A179B0709F44EC09C0140810196379695
:100B50004613F5CF511708F048C0F901EE0FFF1FFB
:100B6000EE0FFF1FEE0FFF1FE21BF30BEC0FFD1F3D
:100B700060A32A8D4E893F895C8980E197E2589F66
:100B8000D001599FB00D11245D8908EE13E0509FEC
:100B9000C001519F900D11248A0F9B1F54E6459F61
:100BA000800D911D11244AE0349F800D911D112468
:100BB000388D830F911D092E000CAA0BBB0B81A34E
:100BC00092A3A3A3B4A3872F90E054E6259F800DA2
:100BD000911D112496A385A31A82DF91CF911F91B5
:100BE0000F910895103220F05150252F30E0B5CFED
:100BF0001F5F1983252F30E0B0CFFC01A0910001C9
:100C0000B091010181E012968C9312979CE053966B
:100C100001900D929A95E1F70895CF93DF93C091DB
:100C20000001D0910101FE01EA5FFE4F1082188A97
:100C3000809180028F833196408151819A01329553
:100C400022952F7023273F702327A7E4B3E00E944B
:100C5000F2139695879596958795969587958887AB
:100C600060E177E2869F9001879F300D969F300D5F
:100C70001124421B530B9A013695279536952795DB
:100C800036952795A5ECB0E20E94F21392958295D5
:100C90008F7089279F708927898768EE73E0869F08
:100CA0009001879F300D969F300D1124421B530BEE
:100CB0009A013695279536952795ABE7B4E10E94C2
:100CC000F213969587958A87E4E6E89F9001E99F5D
:100CD000300D1124421B530B9A01ADECBCEC0E9469
:100CE000F2139695879596958795969587958B8718
:100CF0009C01220F331F880F991F880F991F880F9F
:100D0000991F820F931F481B590B4C87498150E054
:100D10009A013695279536952795ABE7B4E10E9461
:100D2000F21396958795E89F9001E99F300D112465
:100D3000421B530B4F878E878F8D882311F08FEFC7
:100D40008F87CE0107960E949A0F9A8B898BE0912C
:100D50000001F0910101EA5FFE4F81E08083DF91A5
:100D6000CF910895E0910001F0910101DF01AA5FA8
:100D7000BE4F8C91882331F0878D811103C0CF0144
:100D80000796089580E090E00895089580E090E04F
:100D900008950895DF92EF92FF920F931F93CF93E0
:100DA000DF93F89414B817B81AB815B818B81BB868
:100DB000529A5A9A14BC85E085BD8FEF87BD82E0B8
:100DC00080936E0010928000109281002FE83BE02B
:100DD000309389002093880080936F005398239864
:100DE00091EA9093B0008093B1001092B4001092F9
:100DF000B3008BE080BF83E080937F0086E0809328
:100E00007C0083E880937A0080917A0080648093EC
:100E10007A0080917A0086FDFCCF10927C0083EAF4
:100E200080937A0081E080937B0081E090E00E94D3
:100E30007B188F3F11F08093660010924E02C1E044
:100E4000C0932702C0936B021092450210927F025A
:100E500080E990E00E947B188093440280914402D4
:100E6000887311F0C093440210926F0210926E02C8
:100E70008FEF90E090936D0280936C0210924A0283
:100E800010924B0210924C0210924D0281E080931E
:100E9000150182E49FE090937E0280937D0280EBB7
:100EA00090E00E947B18C82F81EB90E00E947B1895
:100EB0002C2F30E0382B309381022093800285E084
:100EC00090E00E947B188093840289E090E00E9469
:100ED0007B18809370028CE090E00E947B188093D6
:100EE000820284E190E00E947B18809383025FE499
:100EF000E52E52E0F52E08E212E0C0E2D0E0CE018D
:100F00000E947B18D82ECE0101960E947B182D2DB1
:100F100030E0322F2227282BF701219331937F01D4
:100F2000CE01C0960E947B18D82ECE01C1960E9499
:100F30007B182D2D30E0322F2227282BF80121930A
:100F400031938F012296CC33D105C9F67894DF9185
:100F5000CF911F910F91FF90EF90DF9008951F9216
:100F60000F920FB60F9211248F930FB6F894A89595
:100F700080916000886180936000109260000FBED5
:100F80008F910F900FBE0F901F9018953C01EB01B1
:100F900010E099249A9484E0C82E96E0A92E23E8C4
:100FA000B22E38E1D32E49E2E42E90911501E92FBB
:100FB000F0E0E730F105C8F7EC5CFF4F0C94EC1360
:100FC000112309F4FCC0C092150111E0FE0109953E
:100FD000ECCF80914E028111EBC0F894A0927C007E
:100FE000B0927A0080917A00806480937A00909128
:100FF0007A0096FDFCCF80917800909179007894EA
:101000008B3AE2E09E070CF0EDC08938F2E09F07D2
:101010000CF0EFC0873692400CF4CAC0559A549A2F
:101020003B9A3A9A3D983C98C0CFF89480B7877F16
:1010300080BF80917A008F7780937A0014B817B8B8
:101040001AB815B818B81BB80FB6F894A895D0926E
:1010500060000FBEE0926000809160008064809329
:10106000600093B7917F946093BFF89483B78160D9
:1010700083BF7894889583B78E7F83BF78941092CE
:101080004E02529A5A9A80917A00806880937A0030
:1010900087E592E00197F1F700C0000080B7886112
:1010A00080BF559A549A3B9A3A9A3D9A3C9AEFE1FE
:1010B000FEE43197F1F700C0000080914E028111EB
:1010C00081C0559854983B983A983D983C986DCF7C
:1010D00080911301811141C01092B3001092B400AD
:1010E0001092140162CF4899ECCF559A54983B98CE
:1010F0003A983D983C988FEC97E00197F1F700C043
:101100000000559854983B983A983D983C989FEF2A
:10111000E1EEF4E09150E040F040E1F700C0000063
:1011200044CF559854983B9A3A9A3D983C98EFECA6
:10113000F7E03197F1F700C00000559854983B98BC
:101140003A983D983C98FFEF21EE84E0F150204022
:101150008040E1F700C0000028CF909113018091FA
:101160001401981709F421CF809113018093140181
:1011700080911301813009F450C0809113011092C5
:10118000B3009092B4008230D9F19092B300909263
:10119000B4008FE295E70197F1F700C0000080915D
:1011A0008302909182029093B3008093B400FDCEAD
:1011B000559A549A3B983A983D983C98F6CEF3014C
:1011C000099501CF559A549A3B983A983D983C9886
:1011D000FFEF20E782E0F15020408040E1F700C0BF
:1011E00000006FCF559854983B9A3A9A3D983C9896
:1011F000DCCE559854983B983A983D9A3C9AD5CE77
:10120000EFE2F5E73197F1F700C00000809170023E
:101210001092B3008093B400C8CE9092B3001092A5
:10122000B4008FE295E70197F1F700C000008091CC
:1012300084028093B3001092B400B7CE07C0EFECE5
:10124000F7E03197F1F700C0000001970097B9F778
:1012500008958093B3006093B40008958FEF809356
:10126000B3008093B4008FE090E0EFECF7E03197AB
:10127000F1F700C000000197C1F7089580914E0278
:1012800081111EC0F89487E080937C0083E88093EE
:101290007A0080917A00806480937A0080917A004D
:1012A00086FDFCCF809178009091790010927C00AF
:1012B00023EA20937A0021E020937B00789408951C
:1012C0008FEF9FEF089580914E0281111EC0F89418
:1012D00088EC80937C0087E880937A0080917A0084
:1012E000806480937A0080917A0086FDFCCF8091A3
:1012F00078009091790010927C0023EA20937A0084
:1013000021E020937B00789408958FEF9FEF08955C
:101310000F931F93CF93DF93E0E0F0E080E003EAC8
:1013200011E0D6E0C3E8A1E0B0E060E870E0F89436
:10133000D0937C00C0937A0090917A00906490934F
:101340007A0090917A0096FDFCCF20917800309140
:101350007900217090917A00906490937A00909136
:101360007A0096FDFCCF4091780050917900109260
:101370007C0000937A0010937B00789441702413D2
:1013800003C06150710999F6222339F09D010E2E98
:1013900001C0220F0A94EAF7822B3196E830F1055A
:1013A00009F0C3CFDF91CF911F910F9108958091E4
:1013B0000201982F990F990F990F89279091120187
:1013C00021E0290F20931201282F229526952770BE
:1013D0008227969596958927809302010895809398
:1013E0000201089580914E02811116C0F89486E0A2
:1013F00080937C0083E880937A0080917A008064F7
:1014000080937A0080917A0086FDFCCF80917800ED
:1014100090917900789408958FEF9FEF08952F921F
:101420003F924F925F926F927F928F929F92AF9274
:10143000BF92CF92DF92EF92FF920F931F93CF93C1
:10144000DF9300D000D000D0CDB7DEB71C01DC01A7
:1014500012960D90BC91A02DBE83AD83A438E3E01D
:10146000BE070CF0C9C080912802909129028A170A
:101470009B0708F437C100912A0210912B020A172A
:101480001B0708F42FC200912C0210912D020A179D
:101490001B0708F42FC200912E0210912F020A1789
:1014A0001B0708F42FC200913002109131020A1775
:1014B0001B0708F42FC200913202109133020A1761
:1014C0001B0708F4EFC100913402109135020A178E
:1014D0001B0708F427C200913602109137020A1741
:1014E0001B0708F427C200913802109139020A172D
:1014F0001B0708F427C200913A0210913B020A1719
:101500001B0708F427C200913C0210913D020A1704
:101510001B0708F427C200913E0210913F020A17F0
:101520001B0708F423C200914002109141020A17E0
:101530001B0708F423C200914202109143020A17CC
:101540001B0708F423C280E090E0A0EDB0E489839B
:101550009A83AB83BC834CE0E42EF12CF701EE0FB1
:10156000FF1FE85DFD4F80819181B801681B790BF9
:1015700080E090E00E9466159B01AC010E944D1432
:101580006B017C01AD81BE81BD01BB0F880B990B46
:101590000E9468154B015C01B80180E090E00E9458
:1015A00066152B013C0129813A814B815C81C70181
:1015B000B6010E9418169B01AC01C301B2010E9442
:1015C0004C149B01AC01C501B4010E944C1420E0F5
:1015D00030E040E251E40E9418160E9430158B0161
:1015E000C701B6010E943015AB01BC01C801BA01A8
:1015F0000E94D813162F77C0DC01CD90DC9080912B
:101600004F02909150028C159D0508F48CC01FEF7D
:10161000E0905102F0905202EC14FD0408F45EC117
:10162000E0905302F0905402EC14FD0408F45EC103
:10163000E0905502F0905602EC14FD0408F45EC1EF
:10164000E0905702F0905802EC14FD0408F45EC1DB
:10165000E0905902F0905A02EC14FD0408F4C3C063
:10166000E0905B02F0905C02EC14FD0408F456C1BB
:10167000E0905D02F0905E02EC14FD0408F456C1A7
:10168000E0905F02F0906002EC14FD0408F456C193
:10169000E0906102F0906202EC14FD0408F456C17F
:1016A000E0906302F0906402EC14FD0408F456C16B
:1016B000E0906502F0906602EC14FD0408F45AC153
:1016C000E0906702F0906802EC14FD0408F45AC13F
:1016D000E0906902F0906A02EC14FD0408F45AC12B
:1016E0000AE531C010E0ED81FE81ED3BF240FCF4F3
:1016F00081E2810F26960FB6F894DEBF0FBECDBFF4
:10170000DF91CF911F910F91FF90EF90DF90CF90DD
:10171000BF90AF909F908F907F906F905F904F9011
:101720003F902F90089500E081E2800FE3CFD10138
:10173000CD90DC9080914F02909150028C159D05C8
:1017400008F066CF00E01F3F79F3ED81FE81BF0115
:10175000FF0F880B990B0E9468156B017C01612FAC
:1017600070E080E090E00E9466154B015C01A701EB
:10177000960160E070E081E694E40E944C149B01C5
:10178000AC01C501B4010E9418164B015C01602F29
:1017900070E080E090E00E9466152B013C0120E0A3
:1017A00030E04FE254E4C701B6010E944C149B01A3
:1017B000AC01C301B2010E9418169B01AC01C50126
:1017C000B4010E944D1420E030E048E453E40E944C
:1017D000BE1420E030E044E052E40E944D140E9428
:1017E0003715862F87CF05E085E090E0880F991F99
:1017F000FC01E35BFD4F80819181B701681B790B90
:1018000080E090E00E9466159B01AC010E944D149F
:101810004B015C01B601DD0C880B990B0E94681529
:101820002B013C01B70180E090E00E9466156B013E
:101830007C01602F70E080E090E00E94661520E05F
:1018400030E040E05FE30E94181620E030E0A9019C
:101850000E944D14A50194010E9418169B01AC0131
:10186000C701B6010E944C149B01AC01C301B20137
:101870000E944C1420E030E040E251E40E9418162F
:101880000E9430157B01C501B4010E943015AB01E7
:10189000BC01C701BA010E94D813062F6F3F09F09F
:1018A00052CF26CF65E085E090E07C01F1E0EF1AB1
:1018B000F10870E080E090E00E94661520E030E0E2
:1018C00040E05FE30E94181620E030E0A9010E948A
:1018D0004D1469837A838B839C8340CE01E081E041
:1018E00090E084CF61E081E090E0DFCF02E082E031
:1018F00090E07CCF62E082E090E0D7CF03E083E02D
:1019000090E074CF63E083E090E0CFCF04E084E028
:1019100090E06CCF64E084E090E0C7CF06E086E022
:1019200090E064CF66E086E090E0BFCF07E087E01C
:1019300090E05CCF67E087E090E0B7CF08E088E018
:1019400090E054CF68E088E090E0AFCF09E089E014
:1019500090E04CCF69E089E090E0A7CF0AE08AE010
:1019600090E044CF6AE08AE090E09FCF6BE08BE0AC
:1019700090E09BCF0BE08BE090E038CF6CE08CE008
:1019800090E093CF0CE08CE090E030CF6DE08DE004
:1019900090E08BCF0DE08DE090E028CF1F920F926A
:1019A0000FB60F9211242F933F934F935F936F9332
:1019B0007F938F939F93AF93BF93EF93FF93209168
:1019C0006E0230916F0280916C0290916D02820FD5
:1019D000931F90936F0280936E028FEF90E090932D
:1019E0006D0280936C028FEF87BD80914A029091C7
:1019F0004B02A0914C02B0914D020196A11DB11D68
:101A000080934A0290934B02A0934C02B0934D02F4
:101A100080914E0281110FC080917D0290917E02D3
:101A200020916E0230916F028217930720F480910B
:101A30001501843089F0FF91EF91BF91AF919F9193
:101A40008F917F916F915F914F913F912F910F9067
:101A50000FBE0F901F901895E0910501F0910601BF
:101A60000995009741F30E94B60F811109C00E94A9
:101A7000D116992790936D0280936C0287BDDBCFBE
:101A8000E0910301F0910401099510926F02109208
:101A90006E02D1CF80FF11C0559A81FF11C0549AB8
:101AA00082FF11C03B9A83FF11C03A9A84FF11C094
:101AB0003D9A85FD11C03C980895559881FDEFCF62
:101AC000549882FDEFCF3B9883FDEFCF3A9884FD89
:101AD000EFCF3D9885FFEFCF3C9A08951F920F926C
:101AE0000FB60F9211248F939F9310928100109242
:101AF00085001092840081E08093270280936B021E
:101B000010924E0210927C0093EA90937A00809398
:101B10007B009F918F910F900FBE0F901F90189593
:101B20001F920F920FB60F9211242F933F934F9352
:101B30005F936F937F938F939F93AF93BF93CF9355
:101B4000DF93EF93FF93209184003091850041E073
:101B500040934E02809127028823A9F110928500BC
:101B6000109284004093810010927F02109227020D
:101B700080916B028823A1F080917A0086FDFCCFD2
:101B80008091780090917900909349028093480267
:101B900081E080937C0093EA90937A0080937B00AD
:101BA000FF91EF91DF91CF91BF91AF919F918F9175
:101BB0007F916F915F914F913F912F910F900FBE49
:101BC0000F901F901895C901875891098437994043
:101BD00008F052C026583109A4EFB0E00E94F21379
:101BE000AA27BB2788309105A105B10508F47BC061
:101BF0004093270280916B02811152C0809145026F
:101C0000E82FF0E0EF58FD4F90917F0290838F5FB7
:101C1000809345028C3021F610928100109285004D
:101C20001092840040936B0210924E02C0917B028E
:101C3000D0917C0281E792E00E949A0FC817D907E1
:101C400009F0AECF80917A0287FF61C098E7980FC4
:101C5000933030F0539823981092B4001092B30050
:101C600090E0FC01E058F109EB30F10508F098CF65
:101C7000E55CFF4F0C94EC131092810010928500EC
:101C8000109284004093270240936B0210924E0200
:101C900010927C0083EA80937A0040937B0080CF8F
:101CA00080917A0086FDFCCF809178009091790038
:101CB000909347028093460210927C0083EA8093BF
:101CC0007A0081E080937B0090917F029923D1F08C
:101CD00010928100109285001092840080936B0214
:101CE00010924E025DCF21E030E0F90102C0EE0F0C
:101CF000FF1F8A95E2F7CF0190917F02892B809395
:101D00007F024ECF10926B021092450249CFE091B4
:101D10000701F091080166E472E081E792E009951D
:101D20003FCF80917102823009F4DDC008F4BAC05F
:101D3000833009F4C6C0843009F0B1C0809113012A
:101D400090917702833009F4E3C08091760210927B
:101D5000140123E020931301809382029093830265
:101D600080911501863009F41BCF539A239A109263
:101D7000B4001092B30086E08093150111CF8091DA
:101D80001501863099F0539A239A1092B40010925C
:101D9000B300559854983B983A983D983C981092C7
:101DA00013011092140186E08093150181E090E008
:101DB0009C010090710202C0220F331F0A94E2F7C7
:101DC000809180029091810282239323892B09F0D4
:101DD00086C010921301E4CE81E080931501E0CE1D
:101DE000E0E0F0E0099580916E008D7F80936E00B9
:101DF00016BCE0E0F0E7099510921501D1CE82E023
:101E000080931501CDCE85E080931501C9CE8091D8
:101E10001501833009F4C4CE80911501843009F492
:101E2000BFCE539A239A1092B4001092B30083E06D
:101E300080931501B5CE80911501863009F0B0CEA2
:101E40006091800280EB90E00E9483186091810293
:101E500081EB90E00E9483186091840285E090E01D
:101E60000E9483186091700289E090E00E948318BC
:101E7000609182028CE090E00E948318609183025E
:101E800084E190E00E948318539823981092B40044
:101E90001092B30081E0809315018091710281114D
:101EA0005FCF7ECE882339F28130C9F780917202EC
:101EB000909173029093810280938002109213019B
:101EC0004FCF80911301823071F180917502109291
:101ED000140192E0909313018093700241CF81E04E
:101EE000809313015DCE80911301813051F0809178
:101EF00074021092140191E0909313018093840274
:101F00002FCF80917402909184028913F2CF28CF51
:101F100080918302981319CF8091760220918202DA
:101F2000821315CF1DCF8091750290917002891395
:101F3000CECF16CFFC01AC01465F5F4F8FEF9FEF16
:101F400021918227082E8295807F8025092E982F47
:101F500082958F700826869598278927880F880F85
:101F6000880F8025E417F50759F708950FB6F89400
:101F7000A4B1209144022A2B24B921E030914402DB
:101F8000203029F0000025B1232B25B904C0000022
:101F90000000000000C0000000000000309525B1E6
:101FA000232325B92EEA2A95F1F72BEE30B735FF1A
:101FB0000AC0A4B930914402309525B1232325B934
:101FC0000FBE80E0089500002A9581F721E030914E
:101FD0004402203029F0000025B1232B25B904C08C
:101FE00000000000000000C000000000000030956C
:101FF00025B1232325B9000024E52A95F1F7FC013A
:102000008CE0619170E0660F771F616072609AE00A
:1020100041E050E09A0126233723232B30914402DC
:10202000203029F0000025B1232B25B904C0000081
:102030000000000000C0000000000000309525B145
:10204000232325B9000021E52A95F1F7440F551FF8
:102050009A9501F78A95A9F620B7206120BFA4B907
:1020600030914402309525B1232325B90FBE81E07C
:102070000895A3E1B0E0EFE3F0E10C9401146C01EA
:102080004B012A01FC0117821682838181FF43C321
:10209000AE014F5F5F4F3A01F6019381F40193FD6A
:1020A000859193FF81914F01882309F430C38532D4
:1020B00039F493FD859193FF81914F01853239F475
:1020C000B60190E00E94CF1752012501E5CF10E044
:1020D000F12C20E02032A0F48B3269F030F4803211
:1020E00059F0833269F420612CC08D3239F080338D
:1020F00039F4216026C02260246023C0286021C0FA
:1021000027FD27C030ED380F3A3078F426FF06C09F
:10211000FAE01F9F300D1124132F13C04AE0F49EE4
:10212000300D1124F32E20620CC08E3221F426FDD6
:10213000EEC2206406C08C3611F4206802C08836D6
:1021400041F4F40193FD859193FF81914F01811139
:10215000C1CF9BEB980F933018F42061805E06C0CE
:102160009BE9980F933008F071C12F7E26FF16E08F
:102170002F73322E853619F42064322E08C086362D
:1021800021F4F22FF0683F2E02C01111115037FEDA
:1021900007C01C3350F4EE24E394E10E27E00BC09B
:1021A000183038F027E017E005C027E04CE3E42EB4
:1021B00002C0212FE12C520144E0A40EB11CF20117
:1021C00060817181828193810E2DA3010E94E116AD
:1021D0002C01098100FF02C003FF07C031FC08C0C9
:1021E00032FE09C030E2232E07C02DE2222E04C0A9
:1021F0009BE2292E01C0212C802F8C7019F0211018
:1022000068C2A8C237FE0FC0E40C04FF04C08A8174
:10221000813309F4EA941E1474F5F8E0FE1578F59C
:1022200088E0E82E2CC036FC2AC0812F90E084156F
:1022300095059CF02CEF42162FEF520674F0432DBB
:102240004068342E0AC0E2E0F0E0EC0FFD1FE10F21
:10225000F11D8081803319F411501111F4CF37FE34
:102260000EC0EE24E394E10E812F90E0481659064B
:102270002CF4141904C0EE24E39401C010E037FEDE
:1022800006C01414150434F4C201019605C085E09B
:1022900090E002C081E090E021100196112331F01E
:1022A000212F30E02F5F3F4F820F931F2F2D30E003
:1022B0008217930714F4F81A01C0F12C832D89704A
:1022C00049F4FF2039F0B60180E290E00E94CF1778
:1022D000FA94F7CF222029F0B601822D90E00E94D7
:1022E000CF1733FC09C0FF2039F0B60180E390E03E
:1022F0000E94CF17FA94F7CF37FE5AC0942D852D40
:1023000057FE02C090E080E0292E382E20E030E019
:10231000A2014E1951095D874C87A2014219530948
:102320005F874E87612F70E044275527461B570B68
:10233000598B488B5FEF2516350649F4B6018EE2BE
:1023400090E02A8B3B8B0E94CF173B892A8942144D
:1023500053046CF04C855D854215530544F4EE85BD
:10236000FF85E20FF31FE60DF71D818101C080E3B9
:1023700051E0251A31082F5F3F4F488959892416AB
:1023800035064CF0B60190E02A8B3B8B0E94CF17AC
:102390002A893B89CFCF2414350439F49A819633A6
:1023A00018F4953311F404FF81E3B60190E04BC0BB
:1023B0008A81813309F00F7EB60190E00E94CF1729
:1023C000111105C034FC18C085E690E017C0B601B5
:1023D0008EE290E00E94CF1782E0EE24E394E80EB4
:1023E000F301E80FF11D8081B60190E00E94CF1744
:1023F00011508E2D91F7E6CF85E490E0B6010E9452
:10240000CF1757FC05C04114510439F404FF05C02F
:102410005194419451088DE201C08BE2B60190E0E5
:102420000E94CF1780E39AE0491651042CF08F5F89
:102430005AE0451A5108F7CFB60190E00E94CF1735
:10244000B601C201C0960E94CF1757C1833631F042
:10245000833779F0833509F058C021C05201E2E09A
:10246000AE0EB11CF2018081898301E010E02301EE
:1024700014C05201F2E0AF0EB11CF2014080518055
:1024800026FF03C0612F70E002C06FEF7FEFC20133
:102490002A8B0E94C4178C012A892F7715C05201FC
:1024A000F2E0AF0EB11CF2014080518026FF03C064
:1024B000612F70E002C06FEF7FEFC2012A8B0E9494
:1024C000B9178C012A892068322E23FD1AC08F2D5E
:1024D00090E008171907A8F4B60180E290E00E9486
:1024E000CF17FA94F4CFF20137FC859137FE819132
:1024F0002F01B60190E00E94CF17F110FA9401501D
:1025000011090115110579F7F8C0843611F08936E3
:1025100059F5520127FF09C0F4E0AF0EB11CF201DA
:1025200060817181828193810AC0F2E0AF0EB11C9B
:10253000F20160817181072E000C880B990B2F76B8
:10254000322E97FF09C090958095709561957F4FC9
:102550008F4F9F4F2068322E2AE030E0A3010E9467
:102560001D18E82EE6183FC0022F853721F40F7E94
:102570002AE030E01DC0097F8F3691F018F48835CD
:1025800059F0C5C0803719F0883711F0C0C000611C
:1025900004FF09C0046007C024FF08C0066006C02D
:1025A00028E030E005C020E130E002C020E132E068
:1025B000520107FF09C0F4E0AF0EB11CF2016081C7
:1025C00071818281938108C0F2E0AF0EB11CF201EB
:1025D0006081718180E090E0A3010E941D18E82EC7
:1025E000E6180F77302E36FE0BC0332D3E7FE116F6
:1025F00050F434FE0AC032FC08C0332D3E7E05C0C4
:102600000E2D332D03C00E2D01C0012F34FF0CC041
:10261000FE01EE0DF11D8081803311F4397E08C07A
:1026200032FF05C00E5F04C0832F867809F00F5F6C
:1026300033FD13C030FF06C01E2D0F1518F41F0DFB
:10264000101B0F2D0F1568F4B60180E290E03B8B54
:102650000E94CF170F5F3B89F5CF0F1510F4F01ACA
:1026600001C0F12C34FF12C0B60180E390E03B8B37
:102670000E94CF173B8932FF17C031FD03C088E7A6
:1026800090E002C088E590E0B6010CC0832F867808
:1026900059F031FF02C08BE201C080E237FD8DE2CC
:1026A000B60190E00E94CF17E11638F4B60180E33E
:1026B00090E00E94CF171150F7CFEA94F301EE0D8E
:1026C000F11D8081B60190E00E94CF17E110F5CF97
:1026D00014C0F4E0FF1558F584E0F81A33FE1EC06C
:1026E000211026C003FF2AC00CE810E0F32DF07182
:1026F0003F2EF8018491811124C0FF2009F4E5CC1C
:10270000B60180E290E00E94CF17FA94F6CFF6016E
:102710008681978126C08FEF9FEF23C0B60180E2AC
:1027200090E00E94CF17FA94F110F8CFD9CFF12C96
:10273000B601822D90E00E94CF17D4CF00E910E0BF
:10274000D5CF31108052B60190E00E94CF170F5FB5
:102750001F4FCFCF23E02F1510F483E0BECFF12C15
:10276000C1CF6396E2E10C941D140E94CA0682EB6D
:1027700096E090930601809305018DEF95E090938C
:102780000801809307016CE671E082EF90E00E94FF
:10279000C60780E090E00895991B79E004C0991F76
:1027A000961708F0961B881F7A95C9F780950895AB
:1027B00097FB072E16F4009407D077FD09D00E94EE
:1027C000381407FC05D03EF4909581959F4F0895ED
:1027D000709561957F4F0895EE0FFF1F0590F4915E
:1027E000E02D0994A29FB001B39FC001A39F700D7B
:1027F000811D1124911DB29F700D811D1124911D09
:1028000008952F923F924F925F926F927F928F9294
:102810009F92AF92BF92CF92DF92EF92FF920F936F
:102820001F93CF93DF93CDB7DEB7CA1BDB0B0FB679
:10283000F894DEBF0FBECDBF09942A883988488836
:102840005F846E847D848C849B84AA84B984C884CC
:10285000DF80EE80FD800C811B81AA81B981CE0FC3
:10286000D11D0FB6F894DEBF0FBECDBFED010895A8
:10287000AA1BBB1B51E107C0AA1FBB1FA617B707A6
:1028800010F0A61BB70B881F991F5A95A9F78095C2
:102890009095BC01CD0108955058BB27AA270E94EE
:1028A00064140C94DE150E94D01538F00E94D715E0
:1028B00020F039F49F3F19F426F40C94CD150EF452
:1028C000E095E7FB0C94C715E92F0E94EF1558F32C
:1028D000BA17620773078407950720F079F4A6F505
:1028E0000C9411160EF4E0950B2EBA2FA02D0B01AF
:1028F000B90190010C01CA01A0011124FF27591B45
:1029000099F0593F50F4503E68F11A16F040A22F4A
:10291000232F342F4427585FF3CF469537952795BB
:10292000A795F0405395C9F77EF41F16BA0B620BBA
:10293000730B840BBAF09150A1F0FF0FBB1F661F01
:10294000771F881FC2F70EC0BA0F621F731F841F44
:1029500048F4879577956795B795F7959E3F08F06A
:10296000B0CF9395880F08F09927EE0F979587952C
:1029700008950E94A31508F481E008950E94D214DE
:102980000C94DE150E94D71558F00E94D01540F027
:1029900029F45F3F29F00C94C71551110C941216BD
:1029A0000C94CD150E94EF1568F39923B1F35523CC
:1029B00091F3951B550BBB27AA2762177307840752
:1029C00038F09F5F5F4F220F331F441FAA1FA9F3E8
:1029D00035D00E2E3AF0E0E832D091505040E695D6
:1029E000001CCAF72BD0FE2F29D0660F771F881F37
:1029F000BB1F261737074807AB07B0E809F0BB0B2A
:102A0000802DBF01FF2793585F4F3AF09E3F51053D
:102A100078F00C94C7150C9412165F3FE4F3983EBF
:102A2000D4F3869577956795B795F7959F5FC9F726
:102A3000880F911D9695879597F90895E1E0660FA7
:102A4000771F881FBB1F621773078407BA0720F020
:102A5000621B730B840BBA0BEE1F88F7E095089589
:102A60000E9437156894B1110C94121608950E94B3
:102A7000F71588F09F5798F0B92F9927B751B0F004
:102A8000E1F0660F771F881F991F1AF0BA95C9F7F2
:102A900014C0B13091F00E941116B1E008950C9469
:102AA0001116672F782F8827B85F39F0B93FCCF31C
:102AB000869577956795B395D9F73EF4909580956F
:102AC000709561957F4F8F4F9F4F0895E89409C08F
:102AD00097FB3EF490958095709561957F4F8F4F51
:102AE0009F4F9923A9F0F92F96E9BB279395F69567
:102AF000879577956795B795F111F8CFFAF4BB0FE5
:102B000011F460FF1BC06F5F7F4F8F4F9F4F16C048
:102B1000882311F096E911C0772321F09EE8872FD2
:102B2000762F05C0662371F096E8862F70E060E08E
:102B30002AF09A95660F771F881FDAF7880F969507
:102B4000879597F90895990F0008550FAA0BE0E8AB
:102B5000FEEF16161706E807F907C0F0121613065F
:102B6000E407F50798F0621B730B840B950B39F49F
:102B70000A2661F0232B242B252B21F408950A2605
:102B800009F4A140A6958FEF811D811D089597F945
:102B90009F6780E870E060E008959FEF80EC089503
:102BA00000240A941616170618060906089500242C
:102BB0000A9412161306140605060895092E0394A6
:102BC000000C11F4882352F0BB0F40F4BF2B11F41A
:102BD00060FF04C06F5F7F4F8F4F9F4F089557FD79
:102BE0009058440F551F59F05F3F71F04795880F7B
:102BF00097FB991F61F09F3F79F087950895121612
:102C000013061406551FF2CF4695F1DF08C01616BD
:102C100017061806991FF1CF86957105610508946E
:102C20000895E894BB2766277727CB0197F9089585
:102C30000E942B160C94DE150E94D01538F00E94CD
:102C4000D71520F0952311F00C94C7150C94CD15D1
:102C500011240C9412160E94EF1570F3959FC1F386
:102C6000950F50E0551F629FF001729FBB27F00D3A
:102C7000B11D639FAA27F00DB11DAA1F649F66278F
:102C8000B00DA11D661F829F2227B00DA11D621FDE
:102C9000739FB00DA11D621F839FA00D611D221F98
:102CA000749F3327A00D611D231F849F600D211D7C
:102CB000822F762F6A2F11249F5750409AF0F1F0FF
:102CC00088234AF0EE0FFF1FBB1F661F771F881F68
:102CD00091505040A9F79E3F510580F00C94C715C4
:102CE0000C9412165F3FE4F3983ED4F386957795E3
:102CF0006795B795F795E7959F5FC1F7FE2B880F0E
:102D0000911D9695879597F908958F929F92AF920E
:102D1000BF92CF92DF92EF92FF92CF93DF93EC01BD
:102D2000688179818A819B81611571058105910591
:102D300021F464E279ED8BE597E02DE133EF41E09A
:102D400050E00E94911849015A019B01AC01A7EA89
:102D5000B1E40E94B0186B017C01ACEEB4EFA501A8
:102D600094010E94BE18DC01CB018C0D9D1DAE1D8F
:102D7000BF1DB7FF03C00197A109B048888399839D
:102D8000AA83BB839F77DF91CF91FF90EF90DF9075
:102D9000CF90BF90AF909F908F9008950E9485161E
:102DA000089589E091E00E9485160895A0E0B0E0C2
:102DB0008093090190930A01A0930B01B0930C0139
:102DC0000895283008F027E03327DA01990F311DE4
:102DD00087FD916000966105710539F432602E5FC0
:102DE0003D9330E32A95E1F708959F3F30F0803816
:102DF0007105610509F03C5F3C5F3D93913008F03F
:102E00008068911DDF93CF931F930F93FF92EF92F2
:102E1000192F987F9695E92F96959695E90FFF279C
:102E2000E251FF4F99273327EE24FF24A701E70142
:102E300005900894079428F4360FE71EF81E491FE2
:102E4000511D660F771F881F991F0694A1F70590E3
:102E5000079428F4E70EF81E491F561FC11D770F6F
:102E6000881F991F661F0694A1F70590079428F400
:102E7000F80E491F561FC71FD11D880F991F661FC7
:102E8000771F0694A1F70590079420F4490F561F69
:102E9000C71FD81F990F661F771F881F0694A9F7B1
:102EA00084911095177041F0D695C7955795479521
:102EB000F794E7941A95C1F7E4E9F0E06894159067
:102EC000159135916591959105907FE27395E11883
:102ED000F10A430B560BC90BD009C0F7E10CF11EE8
:102EE000431F561FC91FD01D7EF4703311F48A95FD
:102EF000E6CFE894015030F0080F0AF400270217DB
:102F000008F4202F2395022F7A3328F079E37D935C
:102F10002A95E9F710C07D932A9589F6069497952E
:102F20006795379517951794E118F10A430B560BDF
:102F3000C90BD00998F023957E9173957A3308F0E8
:102F400070E37C932013B8F77E9170617D9330F02D
:102F5000839571E37D9370E32A95E1F71124EF9057
:102F6000FF900F911F91CF91DF91992787FD909549
:102F70000895FC010590615070400110D8F78095CC
:102F800090958E0F9F1F0895FC0161507040019035
:102F90000110D8F7809590958E0F9F1F08950F937D
:102FA0001F93CF93DF93FB01238121FD03C08FEF9C
:102FB0009FEF28C022FF16C04681578124813581AA
:102FC0004217530744F4A081B1819D012F5F3F4F09
:102FD000318320838C93268137812F5F3F4F378346
:102FE000268310C0EB01092F182F0084F185E02DF6
:102FF0000995892BE1F68E819F8101969F838E83AF
:10300000812F902FDF91CF911F910F910895A0E014
:10301000B0E0EDE0F8E10C941114AE014B5F5F4FAE
:10302000FA0161917191AF018091870290918802BC
:103030000E943910E2E00C942D14FA01AA272830DE
:1030400051F1203181F1E8946F936E7F6E5F7F4F75
:103050008F4F9F4FAF4FB1E03ED0B4E03CD0670FF1
:10306000781F891F9A1FA11D680F791F8A1F911D44
:10307000A11D6A0F711D811D911DA11D20D009F494
:1030800068943F912AE0269F11243019305D3193D6
:10309000DEF6CF010895462F4770405D4193B3E0BF
:1030A0000FD0C9F7F6CF462F4F70405D4A3318F066
:1030B000495D31FD4052419302D0A9F7EACFB4E017
:1030C000A6959795879577956795BA95C9F70097CF
:1030D0006105710508959B01AC010A2E0694579570
:1030E000479537952795BA95C9F7620F731F841FC7
:1030F000951FA01D0895F999FECF92BD81BDF89A44
:10310000992780B50895262FF999FECF1FBA92BD51
:1031100081BD20BD0FB6F894FA9AF99A0FBE0196B8
:103120000895052E97FB1EF400940E94A81857FDE1
:1031300007D00E94C31807FC03D04EF40C94A818C3
:1031400050954095309521953F4F4F4F5F4F0895D3
:1031500090958095709561957F4F8F4F9F4F089503
:103160000E94F213A59F900DB49F900DA49F800D17
:10317000911D11240895B7FF0C94B0180E94B01847
:10318000821B930B0895A1E21A2EAA1BBB1BFD0103
:103190000DC0AA1FBB1FEE1FFF1FA217B307E40736
:1031A000F50720F0A21BB30BE40BF50B661F771F8E
:1031B000881F991F1A9469F760957095809590956E
:0E31C0009B01AC01BD01CF010895F894FFCF33
:1031CE001601AAC906C606C5060100000025640A36
:0231DE000000EF
:00000001FF
