:100000000C94C7000C94F0000C94F0000C94F000D9
:100010000C94F0000C94F0000C9465020C94F00029
:100020000C94F0000C94F0000C94F0000C94240854
:100030000C94F0000C94F0000C9484070C94F000E5
:100040000C94F0000C94F0000C94F0000C94F00070
:100050000C94F0000C94F0000C94F0000C94460802
:100060000C94F0000C94F000CB0247039F02960220
:100070009C0229031E03A90986088608A609B2095D
:10008000A209B909B509BD09750947096E616E0074
:10009000696E660000407A10F35A00A0724E18098B
:1000A0000010A5D4E80000E87648170000E40B54DF
:1000B000020000CA9A3B000000E1F50500008096AE
:1000C0009800000040420F000000A08601000000E0
:1000D000102700000000E80300000000640000009A
:1000E00000000A00000000000100000000002C7663
:1000F000D888DC674F0823DFC1DFAE59E1B1B7967E
:10010000E5E3E453C63AE651997696E8E6C28426DA
:10011000EB898C9B62ED407C6FFCEFBC9C9F40F2B6
:10012000BAA56FA5F490055A2AF75C936B6CF96732
:100130006DC11BFCE0E40D47FEF520E6B500D0EDF7
:10014000902E0300943577050080841E080000205F
:100150004E0A000000C80C333333330F986E1283FD
:100160001141EF8D2114893BE65516CFFEE6DB18D1
:10017000D1844B381BF77C1D901DA4BBE424203296
:1001800084725E228100C9F124ECA1E53D2711248F
:100190001FBECFEFD8E0DEBFCDBF14BE0FB6F894C0
:1001A000A895809160008861809360001092600043
:1001B0000FBE11E0A0E0B1E0E8ECF6E202C005906D
:1001C0000D92A834B107D9F721E0A8E4B1E001C04D
:1001D0001D92A83BB207E1F70E946B0E0C946213CC
:1001E0000C9400008093C6008091C00085FFFCCF76
:1001F00080E090E0089510924B0110924A011F9206
:100200001F9289E191E09F938F930E9484120F9037
:100210000F900F900F90089580914C0190914D0197
:10022000019719F080E00C940008E0915201F091E0
:10023000530180811F928F938CE291E09F938F9363
:100240000E948412809149018F93809148018F937D
:1002500089E391E09F938F930E94841210924D0145
:1002600010924C0180914A0190914B01019690931C
:100270004B0180934A018FE30E9400088DB79EB71F
:1002800008960FB6F8949EBF0FBE8DBF80E00C9409
:10029000000821E030E030934D0120934C01909311
:1002A000530180935201CB010E94C50490E09093CA
:1002B0004901809348010895F894519A8CE090E0A8
:1002C0009093C5008093C400E0ECF0E080818D7FC6
:1002D0008083E2ECF0E0808186608083E1ECF0E0F6
:1002E00080818860808380E091E09093B501809365
:1002F000B40178940895089580E090E008950895F9
:10030000DF92EF92FF920F931F93CF93DF93F894B6
:1003100014B817B81AB815B818B81BB8529A5A9A20
:1003200014BC85E085BD8FEF87BD82E080936E00B1
:1003300010928000109281002FE83BE030938900FA
:100340002093880080936F005398239891EA9093AC
:10035000B0008093B1001092B4001092B3008BE013
:1003600080BF83E080937F0086E080937C0083E8F9
:1003700080937A0080917A00806480937A008091E3
:100380007A0086FDFCCF10927C0083EA80937A008D
:1003900081E080937B0081E090E00E94F8128F3F23
:1003A00011F08093660010927B01C1E0C09354016C
:1003B000C0939801109272011092AC0180E990E014
:1003C0000E94F8128093710180917101887311F07D
:1003D000C093710110929C0110929B018FEF90E0ED
:1003E00090939A018093990110927701109278016D
:1003F0001092790110927A0181E08093510182E498
:100400009FE09093AB018093AA0180EB90E00E9463
:10041000F812C82F81EB90E00E94F8122C2F30E0E8
:10042000382B3093AE012093AD0185E090E00E941F
:10043000F8128093B10189E090E00E94F812809355
:100440009D018CE090E00E94F8128093AF0184E15E
:1004500090E00E94F8128093B0015CE7E52E51E035
:10046000F52E05E511E0C0E2D0E0CE010E94F812C1
:10047000D82ECE0101960E94F8122D2D30E0322F99
:100480002227282BF701219331937F01CE01C096BB
:100490000E94F812D82ECE01C1960E94F8122D2D7E
:1004A00030E0322F2227282BF801219331938F013E
:1004B0002296CC33D105C9F67894DF91CF911F9164
:1004C0000F91FF90EF90DF9008951F920F920FB65B
:1004D0000F9211248F930FB6F894A8958091600025
:1004E000886180936000109260000FBE8F910F9022
:1004F0000FBE0F901F9018953C01EB0110E099245E
:100500009A9484E0C82E96E0A92E23E8B22E38E112
:10051000D32E49E2E42E90915101E92FF0E0E7302B
:10052000F105C8F7EC5CFF4F0C94920E112309F40F
:10053000FCC0C092510111E0FE010995ECCF809101
:100540007B018111EBC0F894A0927C00B0927A00FC
:1005500080917A00806480937A0090917A0096FD71
:10056000FCCF809178009091790078948B3AE2E00A
:100570009E070CF0EDC08938F2E09F070CF0EFC049
:10058000873692400CF4CAC0559A549A3B9A3A9ACC
:100590003D983C98C0CFF89480B7877F80BF80910A
:1005A0007A008F7780937A0014B817B81AB815B804
:1005B00018B81BB80FB6F894A895D09260000FBE7B
:1005C000E09260008091600080648093600093B747
:1005D000917F946093BFF89483B7816083BF7894D0
:1005E000889583B78E7F83BF789410927B01529A4F
:1005F0005A9A80917A00806880937A0087E592E029
:100600000197F1F700C0000080B7886180BF559A5C
:10061000549A3B9A3A9A3D9A3C9AEFE1FEE431971C
:10062000F1F700C0000080917B01811181C05598D5
:1006300054983B983A983D983C986DCF80914F01E3
:10064000811141C01092B3001092B4001092500179
:1006500062CF4899ECCF559A54983B983A983D9878
:100660003C988FEC97E00197F1F700C00000559897
:1006700054983B983A983D983C989FEFE1EEF4E00F
:100680009150E040F040E1F700C0000044CF5598A1
:1006900054983B9A3A9A3D983C98EFECF7E03197A2
:1006A000F1F700C00000559854983B983A983D984F
:1006B0003C98FFEF21EE84E0F15020408040E1F7CC
:1006C00000C0000028CF90914F01809150019817F1
:1006D00009F421CF80914F018093500180914F0107
:1006E000813009F450C080914F011092B300909274
:1006F000B4008230D9F19092B3009092B4008FE2AE
:1007000095E70197F1F700C000008091B00190914A
:10071000AF019093B3008093B400FDCE559A549AE4
:100720003B983A983D983C98F6CEF301099501CF55
:10073000559A549A3B983A983D983C98FFEF20E799
:1007400082E0F15020408040E1F700C000006FCF10
:10075000559854983B9A3A9A3D983C98DCCE5598D7
:1007600054983B983A983D9A3C9AD5CEEFE2F5E7FB
:100770003197F1F700C0000080919D011092B30005
:100780008093B400C8CE9092B3001092B4008FE270
:1007900095E70197F1F700C000008091B1018093C7
:1007A000B3001092B400B7CE07C0EFECF7E031977A
:1007B000F1F700C0000001970097B9F70895809302
:1007C000B3006093B40008958FEF8093B3008093DB
:1007D000B4008FE090E0EFECF7E03197F1F700C064
:1007E00000000197C1F7089580917B0181111EC01F
:1007F000F89487E080937C0083E880937A0080916E
:100800007A00806480937A0080917A0086FDFCCF24
:10081000809178009091790010927C0023EA2093D7
:100820007A0021E020937B00789408958FEF9FEF6A
:10083000089580917B0181111EC0F89488EC80930B
:100840007C0087E880937A0080917A0080648093AE
:100850007A0080917A0086FDFCCF8091780090919B
:10086000790010927C0023EA20937A0021E0209303
:100870007B00789408958FEF9FEF08950F931F9357
:10088000CF93DF93E0E0F0E080E003EA11E0D6E010
:10089000C3E8A1E0B0E060E870E0F894D0937C0099
:1008A000C0937A0090917A00906490937A0090912E
:1008B0007A0096FDFCCF209178003091790021706C
:1008C00090917A00906490937A0090917A0096FDCE
:1008D000FCCF409178005091790010927C000093F9
:1008E0007A0010937B0078944170241303C0615008
:1008F000710999F6222339F09D010E2E01C0220FB5
:100900000A94EAF7822B3196E830F10509F0C3CF5B
:10091000DF91CF911F910F91089580910E01982F33
:10092000990F990F990F892790914E0121E0290F76
:1009300020934E01282F2295269527708227969581
:100940009695892780930E01089580930E0108954E
:1009500080917B01811116C0F89486E080937C0021
:1009600083E880937A0080917A00806480937A0093
:1009700080917A0086FDFCCF80917800909179007B
:10098000789408958FEF9FEF08952F923F924F92A2
:100990005F926F927F928F929F92AF92BF92CF920F
:1009A000DF92EF92FF920F931F93CF93DF9300D0CC
:1009B00000D000D0CDB7DEB71C01DC0112960D903F
:1009C000BC91A02DBE83AD83A438E3E0BE070CF03C
:1009D000C9C080915501909156018A179B0708F470
:1009E00037C100915701109158010A171B0708F4ED
:1009F0002FC20091590110915A010A171B0708F4E0
:100A00002FC200915B0110915C010A171B0708F4CB
:100A10002FC200915D0110915E010A171B0708F4B7
:100A20002FC200915F01109160010A171B0708F4A3
:100A3000EFC100916101109162010A171B0708F4D0
:100A400027C200916301109164010A171B0708F483
:100A500027C200916501109166010A171B0708F46F
:100A600027C200916701109168010A171B0708F45B
:100A700027C20091690110916A010A171B0708F447
:100A800027C200916B0110916C010A171B0708F433
:100A900023C200916D0110916E010A171B0708F423
:100AA00023C200916F01109170010A171B0708F40F
:100AB00023C280E090E0A0EDB0E489839A83AB8309
:100AC000BC834CE0E42EF12CF701EE0FFF1FEB5A34
:100AD000FE4F80819181B801681B790B80E090E026
:100AE0000E9407109B01AC010E94F30E6B017C0178
:100AF000AD81BE81BD01BB0F880B990B0E9409100F
:100B00004B015C01B80180E090E00E9407102B01CE
:100B10003C0129813A814B815C81C701B6010E9469
:100B200095109B01AC01C301B2010E94F20E9B0122
:100B3000AC01C501B4010E94F20E20E030E040E2B9
:100B400051E40E9495100E94D10F8B01C701B6019C
:100B50000E94D10FAB01BC01C801BA010E947E0EF8
:100B6000162F77C0DC01CD90DC9080917C019091B4
:100B70007D018C159D0508F48CC01FEFE0907E016F
:100B8000F0907F01EC14FD0408F45EC1E090800158
:100B9000F0908101EC14FD0408F45EC1E090820144
:100BA000F0908301EC14FD0408F45EC1E090840130
:100BB000F0908501EC14FD0408F45EC1E09086011C
:100BC000F0908701EC14FD0408F4C3C0E0908801A4
:100BD000F0908901EC14FD0408F456C1E0908A01FC
:100BE000F0908B01EC14FD0408F456C1E0908C01E8
:100BF000F0908D01EC14FD0408F456C1E0908E01D4
:100C0000F0908F01EC14FD0408F456C1E0909001BF
:100C1000F0909101EC14FD0408F456C1E0909201AB
:100C2000F0909301EC14FD0408F45AC1E090940193
:100C3000F0909501EC14FD0408F45AC1E09096017F
:100C4000F0909701EC14FD0408F45AC10AE531C094
:100C500010E0ED81FE81ED3BF240FCF481E2810F7A
:100C600026960FB6F894DEBF0FBECDBFDF91CF91B1
:100C70001F910F91FF90EF90DF90CF90BF90AF90BA
:100C80009F908F907F906F905F904F903F902F90AC
:100C9000089500E081E2800FE3CFD101CD90DC9098
:100CA00080917C0190917D018C159D0508F066CFA7
:100CB00000E01F3F79F3ED81FE81BF01FF0F880B3C
:100CC000990B0E9409106B017C01612F70E080E09C
:100CD00090E00E9407104B015C01A701960160E0C3
:100CE00070E081E694E40E94F20E9B01AC01C50124
:100CF000B4010E9495104B015C01602F70E080E010
:100D000090E00E9407102B013C0120E030E04FE210
:100D100054E4C701B6010E94F20E9B01AC01C3016D
:100D2000B2010E9495109B01AC01C501B4010E9463
:100D3000F30E20E030E048E453E40E945F0F20E02F
:100D400030E044E052E40E94F30E0E94D80F862F58
:100D500087CF05E085E090E0880F991FFC01E658F9
:100D6000FE4F80819181B701681B790B80E090E094
:100D70000E9407109B01AC010E94F30E4B015C0125
:100D8000B601DD0C880B990B0E9409102B013C0168
:100D9000B70180E090E00E9407106B017C01602F9A
:100DA00070E080E090E00E94071020E030E040E03A
:100DB0005FE30E94951020E030E0A9010E94F30E4D
:100DC000A50194010E9495109B01AC01C701B601D9
:100DD0000E94F20E9B01AC01C301B2010E94F20E0F
:100DE00020E030E040E251E40E9495100E94D10FD3
:100DF0007B01C501B4010E94D10FAB01BC01C70149
:100E0000BA010E947E0E062F6F3F09F052CF26CF07
:100E100065E085E090E07C01F1E0EF1AF10870E018
:100E200080E090E00E94071020E030E040E05FE3C7
:100E30000E94951020E030E0A9010E94F30E698322
:100E40007A838B839C8340CE01E081E090E084CF65
:100E500061E081E090E0DFCF02E082E090E07CCFD3
:100E600062E082E090E0D7CF03E083E090E074CFCF
:100E700063E083E090E0CFCF04E084E090E06CCFCB
:100E800064E084E090E0C7CF06E086E090E064CFC5
:100E900066E086E090E0BFCF07E087E090E05CCFBF
:100EA00067E087E090E0B7CF08E088E090E054CFBB
:100EB00068E088E090E0AFCF09E089E090E04CCFB7
:100EC00069E089E090E0A7CF0AE08AE090E044CFB3
:100ED0006AE08AE090E09FCF6BE08BE090E09BCFF0
:100EE0000BE08BE090E038CF6CE08CE090E093CFAB
:100EF0000CE08CE090E030CF6DE08DE090E08BCFA7
:100F00000DE08DE090E028CF1F920F920FB60F9268
:100F100011242F933F934F935F936F937F938F93FE
:100F20009F93AF93BF93EF93FF9320919B013091D9
:100F30009C018091990190919A01820F931F909347
:100F40009C0180939B018FEF90E090939A01809396
:100F500099018FEF87BD8091770190917801A091E1
:100F60007901B0917A010196A11DB11D809377019D
:100F700090937801A0937901B0937A0180917B01DD
:100F800081110FC08091AA019091AB0120919B012A
:100F900030919C018217930720F480915101843095
:100FA00089F0FF91EF91BF91AF919F918F917F91C8
:100FB0006F915F914F913F912F910F900FBE0F90C6
:100FC0001F901895E0911101F09112010995009779
:100FD00041F30E946C0A811109C00E944E119927A9
:100FE00090939A018093990187BDDBCFE0910F0127
:100FF000F0911001099510929C0110929B01D1CFA4
:1010000080FF11C0559A81FF11C0549A82FF11C010
:101010003B9A83FF11C03A9A84FF11C03D9A85FD27
:1010200011C03C980895559881FDEFCF549882FDEA
:10103000EFCF3B9883FDEFCF3A9884FDEFCF3D98FB
:1010400085FFEFCF3C9A08951F920F920FB60F9233
:1010500011248F939F93109281001092850010921B
:10106000840081E0809354018093980110927B0169
:1010700010927C0093EA90937A0080937B009F917A
:101080008F910F900FBE0F901F9018951F920F9287
:101090000FB60F9211242F933F934F935F936F934B
:1010A0007F938F939F93AF93BF93CF93DF93EF93F0
:1010B000FF93209184003091850041E040937B01B3
:1010C000809154018823A9F1109285001092840028
:1010D000409381001092AC011092540180919801CC
:1010E0008823A1F080917A0086FDFCCF8091780062
:1010F00090917900909376018093750181E08093BF
:101100007C0093EA90937A0080937B00FF91EF91AB
:10111000DF91CF91BF91AF919F918F917F916F910F
:101120005F914F913F912F910F900FBE0F901F90A5
:101130001895C901875891098437994008F052C021
:1011400026583109A4EFB0E00E94980EAA27BB27C9
:1011500088309105A105B10508F47BC04093540186
:1011600080919801811152C080917201E82FF0E0C6
:10117000E256FE4F9091AC0190838F5F8093720195
:101180008C3021F61092810010928500109284001C
:101190004093980110927B01C091A801D091A901C0
:1011A0008EE991E00E94500AC817D90709F0AECF26
:1011B0008091A70187FF61C098E7980F933030F0C6
:1011C000539823981092B4001092B30090E0FC0161
:1011D000E058F109EB30F10508F098CFE55CFF4FDE
:1011E0000C94920E1092810010928500109284004F
:1011F000409354014093980110927B0110927C001F
:1012000083EA80937A0040937B0080CF80917A00BC
:1012100086FDFCCF809178009091790090937401C5
:101220008093730110927C0083EA80937A0081E0BE
:1012300080937B009091AC019923D1F010928100B2
:1012400010928500109284008093980110927B0187
:101250005DCF21E030E0F90102C0EE0FFF1F8A955B
:10126000E2F7CF019091AC01892B8093AC014ECF76
:10127000109298011092720149CFE0911301F09100
:10128000140163E771E08EE991E009953FCF809109
:101290009E01823009F4DDC008F4BAC0833009F43D
:1012A000C6C0843009F0B1C080914F019091A40173
:1012B000833009F4E3C08091A3011092500123E030
:1012C00020934F018093AF019093B0018091510121
:1012D000863009F41BCF539A239A1092B4001092CF
:1012E000B30086E08093510111CF80915101863087
:1012F00099F0539A239A1092B4001092B300559823
:1013000054983B983A983D983C9810924F0110920F
:10131000500186E08093510181E090E09C010090B3
:101320009E0102C0220F331F0A94E2F78091AD01A3
:101330009091AE0182239323892B09F086C01092ED
:101340004F01E4CE81E080935101E0CEE0E0F0E097
:10135000099580916E008D7F80936E0016BCE0E051
:10136000F0E7099510925101D1CE82E080935101AE
:10137000CDCE85E080935101C9CE8091510183305B
:1013800009F4C4CE80915101843009F4BFCE539A40
:10139000239A1092B4001092B30083E0809351011D
:1013A000B5CE80915101863009F0B0CE6091AD018B
:1013B00080EB90E00E9400136091AE0181EB90E021
:1013C0000E9400136091B10185E090E00E9400133B
:1013D00060919D0189E090E00E9400136091AF014F
:1013E0008CE090E00E9400136091B00184E190E0F5
:1013F0000E940013539823981092B4001092B300E7
:1014000081E08093510180919E0181115FCF7ECE5A
:10141000882339F28130C9F780919F019091A00112
:101420009093AE018093AD0110924F014FCF809108
:101430004F01823071F18091A2011092500192E02F
:1014400090934F0180939D0141CF81E080934F01A4
:101450005DCE80914F01813051F08091A1011092B9
:10146000500191E090934F018093B1012FCF809173
:10147000A1019091B1018913F2CF28CF8091B001E1
:10148000981319CF8091A3012091AF01821315CF3A
:101490001DCF8091A20190919D018913CECF16CFCF
:1014A000FC01AC01465F5F4F8FEF9FEF21918227D8
:1014B000082E8295807F8025092E982F82958F7027
:1014C0000826869598278927880F880F880F8025FA
:1014D000E417F50759F708950FB6F894A4B12091D1
:1014E00071012A2B24B921E030917101203029F0BB
:1014F000000025B1232B25B904C000000000000026
:1015000000C0000000000000309525B1232325B95C
:101510002EEA2A95F1F72BEE30B735FF0AC0A4B9B1
:1015200030917101309525B1232325B90FBE80E09C
:10153000089500002A9581F721E030917101203053
:1015400029F0000025B1232B25B904C000000000BC
:10155000000000C0000000000000309525B12323EA
:1015600025B9000024E52A95F1F7FC018CE0619192
:1015700070E0660F771F616072609AE041E050E0B2
:101580009A0126233723232B30917101203029F033
:10159000000025B1232B25B904C000000000000085
:1015A00000C0000000000000309525B1232325B9BC
:1015B000000021E52A95F1F7440F551F9A9501F790
:1015C0008A95A9F620B7206120BFA4B93091710196
:1015D000309525B1232325B90FBE81E00895A3E1FD
:1015E000B0E0E5EFFAE00C94A70E6C014B012A0184
:1015F000FC0117821682838181FF43C3AE014F5FD6
:101600005F4F3A01F6019381F40193FD859193FFB9
:1016100081914F01882309F430C3853239F493FD59
:10162000859193FF81914F01853239F4B60190E0A5
:101630000E944C1252012501E5CF10E0F12C20E070
:101640002032A0F48B3269F030F4803259F08332CA
:1016500069F420612CC08D3239F0803339F4216077
:1016600026C02260246023C0286021C027FD27C037
:1016700030ED380F3A3078F426FF06C0FAE01F9FAD
:10168000300D1124132F13C04AE0F49E300D1124A5
:10169000F32E20620CC08E3221F426FDEEC22064AF
:1016A00006C08C3611F4206802C0883641F4F4017B
:1016B00093FD859193FF81914F018111C1CF9BEBE8
:1016C000980F933018F42061805E06C09BE9980F54
:1016D000933008F071C12F7E26FF16E02F73322E53
:1016E000853619F42064322E08C0863621F4F22F94
:1016F000F0683F2E02C01111115037FE07C01C3395
:1017000050F4EE24E394E10E27E00BC0183038F0DB
:1017100027E017E005C027E04CE3E42E02C0212FAC
:10172000E12C520144E0A40EB11CF20160817181F0
:10173000828193810E2DA3010E945E112C010981EB
:1017400000FF02C003FF07C031FC08C032FE09C021
:1017500030E2232E07C02DE2222E04C09BE2292E68
:1017600001C0212C802F8C7019F0211068C2A8C2F2
:1017700037FE0FC0E40C04FF04C08A81813309F4F2
:10178000EA941E1474F5F8E0FE1578F588E0E82E6A
:101790002CC036FC2AC0812F90E0841595059CF062
:1017A0002CEF42162FEF520674F0432D4068342E72
:1017B0000AC0E2E0F0E0EC0FFD1FE10FF11D8081B7
:1017C000803319F411501111F4CF37FE0EC0EE24FE
:1017D000E394E10E812F90E0481659062CF4141979
:1017E00004C0EE24E39401C010E037FE06C01414D8
:1017F000150434F4C201019605C085E090E002C0F2
:1018000081E090E021100196112331F0212F30E08A
:101810002F5F3F4F820F931F2F2D30E082179307CA
:1018200014F4F81A01C0F12C832D897049F4FF20BB
:1018300039F0B60180E290E00E944C12FA94F7CFA2
:10184000222029F0B601822D90E00E944C1233FC38
:1018500009C0FF2039F0B60180E390E00E944C12ED
:10186000FA94F7CF37FE5AC0942D852D57FE02C04B
:1018700090E080E0292E382E20E030E0A2014E19C1
:1018800051095D874C87A201421953095F874E8732
:10189000612F70E044275527461B570B598B488B07
:1018A0005FEF2516350649F4B6018EE290E02A8BEB
:1018B0003B8B0E944C123B892A89421453046CF0E2
:1018C0004C855D854215530544F4EE85FF85E20F96
:1018D000F31FE60DF71D818101C080E351E0251A59
:1018E00031082F5F3F4F48895989241635064CF03F
:1018F000B60190E02A8B3B8B0E944C122A893B89CF
:10190000CFCF2414350439F49A81963318F49533E3
:1019100011F404FF81E3B60190E04BC08A8181336A
:1019200009F00F7EB60190E00E944C12111105C023
:1019300034FC18C085E690E017C0B6018EE290E056
:101940000E944C1282E0EE24E394E80EF301E80FCB
:10195000F11D8081B60190E00E944C1211508E2D35
:1019600091F7E6CF85E490E0B6010E944C1257FC57
:1019700005C04114510439F404FF05C05194419449
:1019800051088DE201C08BE2B60190E00E944C123A
:1019900080E39AE0491651042CF08F5F5AE0451A13
:1019A0005108F7CFB60190E00E944C12B601C20177
:1019B000C0960E944C1257C1833631F0833779F0BC
:1019C000833509F058C021C05201E2E0AE0EB11CCF
:1019D000F2018081898301E010E0230114C05201EB
:1019E000F2E0AF0EB11CF2014080518026FF03C02F
:1019F000612F70E002C06FEF7FEFC2012A8B0E945F
:101A000041128C012A892F7715C05201F2E0AF0EE6
:101A1000B11CF2014080518026FF03C0612F70E0AD
:101A200002C06FEF7FEFC2012A8B0E9436128C0139
:101A30002A892068322E23FD1AC08F2D90E00817C6
:101A40001907A8F4B60180E290E00E944C12FA94C3
:101A5000F4CFF20137FC859137FE81912F01B60159
:101A600090E00E944C12F110FA94015011090115F6
:101A7000110579F7F8C0843611F0893659F552010D
:101A800027FF09C0F4E0AF0EB11CF2016081718143
:101A9000828193810AC0F2E0AF0EB11CF201608135
:101AA0007181072E000C880B990B2F76322E97FF31
:101AB00009C090958095709561957F4F8F4F9F4F8E
:101AC0002068322E2AE030E0A3010E949A12E82E0C
:101AD000E6183FC0022F853721F40F7E2AE030E060
:101AE0001DC0097F8F3691F018F4883559F0C5C0B4
:101AF000803719F0883711F0C0C0006104FF09C0B9
:101B0000046007C024FF08C0066006C028E030E07B
:101B100005C020E130E002C020E132E0520107FFC1
:101B200009C0F4E0AF0EB11CF201608171818281C5
:101B3000938108C0F2E0AF0EB11CF20160817181A7
:101B400080E090E0A3010E949A12E82EE6180F7739
:101B5000302E36FE0BC0332D3E7FE11650F434FE9E
:101B60000AC032FC08C0332D3E7E05C00E2D332D39
:101B700003C00E2D01C0012F34FF0CC0FE01EE0D7D
:101B8000F11D8081803311F4397E08C032FF05C019
:101B90000E5F04C0832F867809F00F5F33FD13C0FA
:101BA00030FF06C01E2D0F1518F41F0D101B0F2D32
:101BB0000F1568F4B60180E290E03B8B0E944C1256
:101BC0000F5F3B89F5CF0F1510F4F01A01C0F12C0F
:101BD00034FF12C0B60180E390E03B8B0E944C12B0
:101BE0003B8932FF17C031FD03C088E790E002C097
:101BF00088E590E0B6010CC0832F867859F031FF5C
:101C000002C08BE201C080E237FD8DE2B60190E0B8
:101C10000E944C12E11638F4B60180E390E00E9475
:101C20004C121150F7CFEA94F301EE0DF11D8081B3
:101C3000B60190E00E944C12E110F5CF14C0F4E020
:101C4000FF1558F584E0F81A33FE1EC0211026C097
:101C500003FF2AC00CE810E0F32DF0713F2EF801CD
:101C60008491811124C0FF2009F4E5CCB60180E203
:101C700090E00E944C12FA94F6CFF601868197818B
:101C800026C08FEF9FEF23C0B60180E290E00E9454
:101C90004C12FA94F110F8CFD9CFF12CB601822D65
:101CA00090E00E944C12D4CF00E910E0D5CF311063
:101CB0008052B60190E00E944C120F5F1F4FCFCFB1
:101CC00023E02F1510F483E0BECFF12CC1CF639633
:101CD000E2E10C94C30E0E9480010E945C0189E441
:101CE00091E090931401809313016CE071E08BEF0D
:101CF00090E00E947C0280E090E0089597FB072E20
:101D000016F4009407D077FD09D00E94DE0E07FC80
:101D100005D03EF4909581959F4F089570956195FB
:101D20007F4F0895EE0FFF1F0590F491E02D099469
:101D3000A29FB001B39FC001A39F700D811D11240C
:101D4000911DB29F700D811D1124911D08952F9238
:101D50003F924F925F926F927F928F929F92AF923B
:101D6000BF92CF92DF92EF92FF920F931F93CF9388
:101D7000DF93CDB7DEB7CA1BDB0B0FB6F894DEBF1F
:101D80000FBECDBF09942A88398848885F846E8445
:101D90007D848C849B84AA84B984C884DF80EE808F
:101DA000FD800C811B81AA81B981CE0FD11D0FB698
:101DB000F894DEBF0FBECDBFED010895AA1BBB1B7B
:101DC00051E107C0AA1FBB1FA617B70710F0A61B3B
:101DD000B70B881F991F5A95A9F780959095BC015C
:101DE000CD0108955058BB27AA270E940A0F0C94D2
:101DF0005B100E944D1038F00E94541020F039F40E
:101E00009F3F19F426F40C944A100EF4E095E7FB7A
:101E10000C944410E92F0E946C1058F3BA17620713
:101E200073078407950720F079F4A6F50C948E10BB
:101E30000EF4E0950B2EBA2FA02D0B01B9019001E5
:101E40000C01CA01A0011124FF27591B99F0593F29
:101E500050F4503E68F11A16F040A22F232F342F71
:101E60004427585FF3CF469537952795A795F040BF
:101E70005395C9F77EF41F16BA0B620B730B840BD4
:101E8000BAF09150A1F0FF0FBB1F661F771F881F8C
:101E9000C2F70EC0BA0F621F731F841F48F48795E4
:101EA00077956795B795F7959E3F08F0B0CF9395D6
:101EB000880F08F09927EE0F9795879508950E944F
:101EC000730F0C945B100E94541058F00E944D1038
:101ED00040F029F45F3F29F00C94441051110C9408
:101EE0008F100C944A100E946C1068F39923B1F380
:101EF000552391F3951B550BBB27AA276217730730
:101F0000840738F09F5F5F4F220F331F441FAA1FC3
:101F1000A9F335D00E2E3AF0E0E832D0915050407F
:101F2000E695001CCAF72BD0FE2F29D0660F771F2D
:101F3000881FBB1F261737074807AB07B0E809F013
:101F4000BB0B802DBF01FF2793585F4F3AF09E3F98
:101F5000510578F00C9444100C948F105F3FE4F31B
:101F6000983ED4F3869577956795B795F7959F5FDB
:101F7000C9F7880F911D9695879597F90895E1E027
:101F8000660F771F881FBB1F621773078407BA0786
:101F900020F0621B730B840BBA0BEE1F88F7E095E1
:101FA00008950E94D80F6894B1110C948F10089571
:101FB0000E94741088F09F5798F0B92F9927B75155
:101FC000B0F0E1F0660F771F881F991F1AF0BA95DD
:101FD000C9F714C0B13091F00E948E10B1E008959D
:101FE0000C948E10672F782F8827B85F39F0B93F8F
:101FF000CCF3869577956795B395D9F73EF4909590
:102000008095709561957F4F8F4F9F4F0895E8940D
:1020100009C097FB3EF490958095709561957F4F30
:102020008F4F9F4F9923A9F0F92F96E9BB279395DE
:10203000F695879577956795B795F111F8CFFAF4EE
:10204000BB0F11F460FF1BC06F5F7F4F8F4F9F4F1F
:1020500016C0882311F096E911C0772321F09EE87D
:10206000872F762F05C0662371F096E8862F70E0E3
:1020700060E02AF09A95660F771F881FDAF7880FBD
:102080009695879597F9089597F99F6780E870E08E
:1020900060E008959FEF80EC089500240A941616DE
:1020A000170618060906089500240A941216130646
:1020B000140605060895092E0394000C11F48823D4
:1020C00052F0BB0F40F4BF2B11F460FF04C06F5FF0
:1020D0007F4F8F4F9F4F089557FD9058440F551FC6
:1020E00059F05F3F71F04795880F97FB991F61F09A
:1020F0009F3F79F087950895121613061406551F11
:10210000F2CF4695F1DF08C0161617061806991F7C
:10211000F1CF86957105610508940895E894BB2771
:1021200066277727CB0197F908950E94A8100C9491
:102130005B100E944D1038F00E94541020F095233F
:1021400011F00C9444100C944A1011240C948F102C
:102150000E946C1070F3959FC1F3950F50E0551FCE
:10216000629FF001729FBB27F00DB11D639FAA27EC
:10217000F00DB11DAA1F649F6627B00DA11D661F3B
:10218000829F2227B00DA11D621F739FB00DA11D5C
:10219000621F839FA00D611D221F749F3327A00D16
:1021A000611D231F849F600D211D822F762F6A2FB2
:1021B00011249F5750409AF0F1F088234AF0EE0F17
:1021C000FF1FBB1F661F771F881F91505040A9F744
:1021D0009E3F510580F00C9444100C948F105F3F8B
:1021E000E4F3983ED4F3869577956795B795F79580
:1021F000E7959F5FC1F7FE2B880F911D96958795F8
:1022000097F908958F929F92AF92BF92CF92DF92EB
:10221000EF92FF92CF93DF93EC01688179818A81FD
:102220009B81611571058105910521F464E279EDC9
:102230008BE597E02DE133EF41E050E00E940E1373
:1022400049015A019B01AC01A7EAB1E40E942D1398
:102250006B017C01ACEEB4EFA50194010E943B132D
:10226000DC01CB018C0D9D1DAE1DBF1DB7FF03C052
:102270000197A109B04888839983AA83BB839F777C
:10228000DF91CF91FF90EF90DF90CF90BF90AF9014
:102290009F908F9008950E940211089585E191E02A
:1022A0000E9402110895A0E0B0E080931501909380
:1022B0001601A0931701B09318010895283008F073
:1022C00027E03327DA01990F311D87FD91600096D1
:1022D0006105710539F432602E5F3D9330E32A9534
:1022E000E1F708959F3F30F080387105610509F0EE
:1022F0003C5F3C5F3D93913008F08068911DDF9317
:10230000CF931F930F93FF92EF92192F987F96957B
:10231000E92F96959695E90FFF27E251FF4F9927F0
:102320003327EE24FF24A701E701059008940794C2
:1023300028F4360FE71EF81E491F511D660F771F40
:10234000881F991F0694A1F70590079428F4E70EBB
:10235000F81E491F561FC11D770F881F991F661F42
:102360000694A1F70590079428F4F80E491F561F0C
:10237000C71FD11D880F991F661F771F0694A1F7ED
:102380000590079420F4490F561FC71FD81F990FB7
:10239000661F771F881F0694A9F784911095177000
:1023A00041F0D695C79557954795F794E7941A95B8
:1023B000C1F7E4E9F0E068941590159135916591C5
:1023C000959105907FE27395E118F10A430B560B46
:1023D000C90BD009C0F7E10CF11E431F561FC91FDE
:1023E000D01D7EF4703311F48A95E6CFE894015045
:1023F00030F0080F0AF40027021708F4202F239565
:10240000022F7A3328F079E37D932A95E9F710C0FB
:102410007D932A9589F60694979567953795179534
:102420001794E118F10A430B560BC90BD00998F029
:1024300023957E9173957A3308F070E37C93201393
:10244000B8F77E9170617D9330F0839571E37D9351
:1024500070E32A95E1F71124EF90FF900F911F91FF
:10246000CF91DF91992787FD90950895FC01059004
:10247000615070400110D8F7809590958E0F9F1F86
:102480000895FC016150704001900110D8F78095CB
:1024900090958E0F9F1F08950F931F93CF93DF93F7
:1024A000FB01238121FD03C08FEF9FEF28C022FF96
:1024B00016C046815781248135814217530744F461
:1024C000A081B1819D012F5F3F4F318320838C9389
:1024D000268137812F5F3F4F3783268310C0EB0162
:1024E000092F182F0084F185E02D0995892BE1F63D
:1024F0008E819F8101969F838E83812F902FDF9104
:10250000CF911F910F910895A0E0B0E0EAE8F2E1C9
:102510000C94B70EAE014B5F5F4FFA016191719160
:10252000AF018091B4019091B5010E94EF0AE2E001
:102530000C94D30EFA01AA27283051F1203181F1F1
:10254000E8946F936E7F6E5F7F4F8F4F9F4FAF4FBB
:10255000B1E03ED0B4E03CD0670F781F891F9A1FCE
:10256000A11D680F791F8A1F911DA11D6A0F711D82
:10257000811D911DA11D20D009F468943F912AE08E
:10258000269F11243019305D3193DEF6CF01089576
:10259000462F4770405D4193B3E00FD0C9F7F6CFA7
:1025A000462F4F70405D4A3318F0495D31FD40526F
:1025B000419302D0A9F7EACFB4E0A6959795879505
:1025C00077956795BA95C9F70097610571050895E4
:1025D0009B01AC010A2E0694579547953795279590
:1025E000BA95C9F7620F731F841F951FA01D089528
:1025F000F999FECF92BD81BDF89A992780B50895CB
:10260000262FF999FECF1FBA92BD81BD20BD0FB60E
:10261000F894FA9AF99A0FBE01960895052E97FB41
:102620001EF400940E94251357FD07D00E9440130A
:1026300007FC03D04EF40C9425135095409530952B
:1026400021953F4F4F4F5F4F08959095809570951E
:1026500061957F4F8F4F9F4F08950E94980EA59FC1
:10266000900DB49F900DA49F800D911D112408958D
:10267000B7FF0C942D130E942D13821B930B08950A
:10268000A1E21A2EAA1BBB1BFD010DC0AA1FBB1F76
:10269000EE1FFF1FA217B307E407F50720F0A21BE8
:1026A000B30BE40BF50B661F771F881F991F1A9455
:1026B00069F760957095809590959B01AC01BD017F
:0826C000CF010895F894FFCF4B
:1026C8000000000200000000F20000000000AA7FE5
:1026D800017C017B01010000006E62206D6573734F
:1026E800616765207265637525640A006D6573739B
:1026F800616765202564200A0064697374616E63EC
:0827080065202564200A000091
:00000001FF
