:100000000C94DB000C9404010C9404010C94040186
:100010000C9404010C9404010C94150A0C94040132
:100020000C9404010C9404010C9404010C94D40F5E
:100030000C9404010C9404010C94340F0C940401EE
:100040000C9404010C9404010C9404010C9404011C
:100050000C9404010C9404010C9404010C94F60F0C
:100060000C9404010C9404017B0AF70A4F0A460A17
:100070004C0AD90ACE0A591136103610561162119F
:100080005211691165116D112511F7100763423680
:10009000B79BD8A71A39685618AEBAAB558C1D3C19
:1000A000B7CC5763BD6DEDFD753EF6177231BF00DD
:1000B0000000803F6E616E00696E660000407A103D
:1000C000F35A00A0724E18090010A5D4E80000E809
:1000D0007648170000E40B54020000CA9A3B000067
:1000E00000E1F505000080969800000040420F00F6
:1000F0000000A08601000000102700000000E803B7
:10010000000000006400000000000A000000000081
:100110000100000000002C76D888DC674F0823DF40
:10012000C1DFAE59E1B1B796E5E3E453C63AE65113
:10013000997696E8E6C28426EB898C9B62ED407C3A
:100140006FFCEFBC9C9F40F2BAA56FA5F490055AD6
:100150002AF75C936B6CF9676DC11BFCE0E40D47FB
:10016000FEF520E6B500D0ED902E0300943577051E
:100170000080841E080000204E0A000000C80C33D6
:100180003333330F986E12831141EF8D2114893B65
:10019000E65516CFFEE6DB18D1844B381BF77C1DE5
:1001A000901DA4BBE424203284725E228100C9F138
:1001B00024ECA1E53D2711241FBECFEFD8E0DEBF20
:1001C000CDBF14BE0FB6F894A895809160008861E9
:1001D00080936000109260000FBE11E0A0E0B1E0DB
:1001E000ECE5F8E302C005900D92AE32B107D9F705
:1001F00027E0AEE2B1E001C01D92A830B207E1F7FE
:100200000E941B160C942C1C0C9400008093C600BA
:100210008091C00085FFFCCF80E090E00895E091E0
:100220000E01F0910F01E658FE4F81E080830895A2
:10023000CF93DF93FC01C0910E01D0910F01DE013D
:10024000A654BF4F81E08C93AE54BF4F9CE0019009
:100250000D929A95E1F7CB010E94750CC858DE4FBC
:100260008883DF91CF9108958091FD069091FE06DD
:10027000892B69F080910E0190910F01FC01E758E4
:10028000FE4F2081222351F0805A9E4F0895809185
:100290000E0190910F01805A9E4F089580E090E0EA
:1002A0000895F894519A8CE090E09093C500809363
:1002B000C400E0ECF0E080818D7F8083E2ECF0E030
:1002C000808186608083E1ECF0E0808188608083BB
:1002D00080E091E090930507809304077894089557
:1002E00060910E0170910F01FB01E554FF4FAB01CE
:1002F000455A5E4F20E030E081919191A191B191FA
:10030000280F391FE417F507B9F7FB01EF58FA4F2B
:100310008081813011F0C90108958FEF90E0089538
:100320002F923F924F925F926F927F928F929F9205
:10033000AF92BF92CF92DF92EF92FF920F931F93F3
:10034000CF93DF93CDB7DEB728970FB6F894DEBF13
:100350000FBECDBF20900E0130900F01F101208122
:10036000222309F489C1022F10E03196A10186E011
:10037000289F400D511D11244F5F5F4F60E070E0DA
:10038000CB013081630F711D811D911D3696E417DD
:10039000F507B9F730E040E050E00E944E16CA0180
:1003A000B9010E9424184B015C01B801012E000C18
:1003B000880B990B0E9426186B017C01F101E5580E
:1003C000FE4F608170E061507109072E000C880BB0
:1003D000990B0E9426182B013C01F101E358FE4FB6
:1003E000608170E061507109072E000C880B990B39
:1003F0000E942618A50194010E9473199B01AC016B
:10040000C301B2010E94D1162B013C01F101E15858
:10041000FE4F608170E061507109072E000C880B5F
:10042000990B0E942618A70196010E9473199B013F
:10043000AC01C301B2010E94D1162B013C01F101B4
:10044000EF57FE4F608170E0615071090115110591
:10045000E9F0F1018281833609F414C1C1010896E3
:100460009801220F331F200F311F220F331F2E5FE1
:100470003F4F220D331D07C00696FC013697408181
:10048000433609F4FFC082179307B1F720E030E04C
:10049000A901C301B2010E94D11669837A838B83BB
:1004A0009C83F101E458FE4F608170E06150710956
:1004B000072E000C880B990B0E9426182B013C017B
:1004C000F101E258FE4F608170E061507109072E22
:1004D000000C880B990B0E942618A50194010E941C
:1004E00073199B01AC01C301B2010E94D1164B01EB
:1004F0005C01F101E058FE4F608170E061507109CC
:10050000072E000C880B990B0E9426189B01AC014A
:10051000C701B6010E9473199B01AC01C501B4016A
:100520000E94D1166B017C01F101EE57FE4F6081F4
:1005300070E06150710901151105E9F0F101828146
:10054000833609F4A8C0C10108969801220F331F11
:10055000020F131F000F111F0E5F1F4F020D131DFF
:1005600007C00696FC0136972081233609F493C014
:1005700080179107B1F720E030E0A90169817A8105
:100580008B819C8190582D833E834F8358870E9496
:10059000BC174B015C012D813E814F815885C701FD
:1005A000B6010E94D11690580E94BC172091ED060A
:1005B00030E089010451110920E030E040E85FE3B8
:1005C0000E94D1169B01AC0160E070E080E89FE3DF
:1005D0000E94421720E030E040EA51E40E94731983
:1005E00020E030E040E05FE30E94D1160E94EE1769
:1005F000060F171F8091010790E07C01F4E1EF1ACC
:10060000F10820E030E040E85FE3C501B4010E945A
:10061000D1169B01AC0160E070E080E89FE30E948E
:10062000421720E030E040EA51E40E94731920E0D4
:1006300030E040E05FE30E94D1160E94EE17862F63
:10064000602F8E0D28960FB6F894DEBF0FBECDBF7B
:10065000DF91CF911F910F91FF90EF90DF90CF909E
:10066000BF90AF909F908F907F906F905F904F90D2
:100670003F902F900C948F0B00E010E0812C912C78
:10068000540193CE072E000C880B990B0E9426185C
:100690009B01AC01FECE072E000C880B990B0E942B
:1006A00026189B01AC016ACFCF92DF92EF92FF92A6
:1006B0001F93CF93DF9320910E0130910F01F90129
:1006C0008081882309F447C0E901F6E08F9FC00DBF
:1006D000D11D11242597A9014550510916E07FEF3E
:1006E0008091C7069091C806A091C906B091CA062C
:1006F000CA80DB80EC80FD808C199D09AE09BF09A2
:100700008197A105B10518F1F9016081862F90E06C
:10071000FC01EE0FFF1FE80FF91FEE0FFF1FE20FA6
:10072000F31F3196DE01F12E01900D92FA94E1F75C
:100730000197FC01EE0FFF1F8E0F9F1FFC01EE0FB4
:10074000FF1FE20FF31F72836150F9016083269748
:10075000C417D50729F6DF91CF911F91FF90EF9035
:10076000DF90CF900895EF92FF920F931F93CF9356
:10077000DF93A0910E01B0910F01FD01E459FE4FEE
:100780006081462F50E07C91C72FD0E0EA56F140BF
:1007900020E030E002C02F5F3F4F2C173D0709F4E7
:1007A000C6C0808190E0369684179507A1F7F901BD
:1007B000EE0FFF1F2E0F3F1F220F331FFD01E20F11
:1007C000F31F62830091C7061091C8062091C906E5
:1007D0003091CA060383148325833683ED01C858FC
:1007E000DE4F888181834336510509F499C0FD01AC
:1007F000EC58FE4F70817F3F09F492C07D018DE778
:10080000E81A8EEFF80AF7011081C12FD0E039966F
:1008100020E030E002C02F5F3F4F2C173D0709F466
:100820008BC0808190E03A9684179507A1F7C901A3
:10083000880F991F220F331F220F331F220F331FE0
:10084000280F391F2A0F3B1FF901E457FE4F608321
:10085000ED01C359DE4F488199E2499F812D112452
:1008600082958F70389780836CE9F62E8F9D400DAE
:1008700011246DEC469F512D112456955695569591
:1008800089010B571E4FF8015083FAE05F9F401912
:1008900011244883E901CA57DE4F4883ED01C2594C
:1008A000DE4F4881499F512D112452955F700E5F94
:1008B0001F4FF80150835F9D400D1124469F512D1D
:1008C00011245695569556950F5F1F4FF80150838A
:1008D000FAE05F9F401911244883E901C757DE4FB2
:1008E0004883ED01C159DE4F8881899F912D1124E4
:1008F00092959F70A90146575E4FFA0190839F9D84
:10090000800D112488833196869F812D1124869530
:1009100086958695808332967083A654BF4F1C922D
:10092000DF91CF911F910F91FF90EF9008957E314D
:1009300048F47F5F7C933BCF143638F41F5FF70198
:10094000108375CF2150310932CF215031096FCF3B
:10095000CF93DF93C0910E01D0910F01FE01E758B4
:10096000FE4F1082EE5BF1099E01255A3E4F80E05A
:1009700090E04191519161917191840F951FE2171F
:10098000F307B9F7FE01EF58FA4F20812130C1F08B
:10099000FE01E859FE4F8083CE01805A9E4F0E948F
:1009A0000012C659DE4F99838883E0910E01F091C1
:1009B0000F01E758FE4F81E08083DF91CF910895CA
:1009C0008FEFE6CFA0910E01B0910F012C91222361
:1009D000C9F012968C911297833669F1CD01089671
:1009E000AD0136E0239F400D511D11244E5F5F4F36
:1009F00006C00696FC01369720812336E1F0841765
:100A00009507B9F7FD01E55AFE4F2081822F90E04E
:100A100034E0239FA00DB11D1124A554BF4F1D929A
:100A20001D921D921C921397019668E270E00E943D
:100A30003A1680830895FD01E55AFE4F2081822FEA
:100A400090E034E0239FA00DB11D1124A554BF4FA9
:100A500041E050E060E070E04D935D936D937C93D6
:100A60001397019668E270E00E943A168083089519
:100A7000CF93DF93C0910E01D0910F01FE01E75893
:100A8000FE4F108270971082CE01805A9E4F2091A7
:100A9000FD06FC0120837B96708131964081329661
:100AA000508131962081FAE02F9F9001112464E655
:100AB000569F200D311D1124FE01E058FE4F50813C
:100AC000250F311D3196608131963081B197AAE0B2
:100AD0004A9FA0011124A4E67A9F400D511D1124C4
:100AE000DE01A358BE4F7C91470F511D40833196C4
:100AF000208331964AE0349F90011124A4E66A9F36
:100B0000200D311D11242083E85AF109DE01A55A78
:100B1000BE4F20E030E04191519161917191240FDD
:100B2000351FEA17FB07B9F7FE01EF58FA4F40816E
:100B30004130A9F0FE01E859FE4F20830E940012C7
:100B4000C659DE4F99838883E0910E01F0910F0121
:100B5000E758FE4F81E08083DF91CF9108952FEF1A
:100B6000E9CF4F925F926F927F928F929F92BF9246
:100B7000CF92DF92EF92FF920F931F93CF93DF9369
:100B8000E0900E01F0900F01F701E059FA4F8081DB
:100B900081115AC0C0E0D0E000E010E04BEAD42E52
:100BA0000E94EE0BEC0EFD1EF701E558FE4F8D9DE9
:100BB000912D11249695292F220F920F891B808346
:100BC000E0900E01F0900F01F701EC0FFD1FE558CA
:100BD000FE4F8081080F111D2196C830D10501F705
:100BE000F701E059FA4F81E08083000F802F880FD2
:100BF000880F080F802F0E94B00F80910E019091F6
:100C00000F014091C7065091C8066091C9067091C6
:100C1000CA06FC01E459FA4F40835183628373830F
:100C2000E95EF3401082DF91CF911F910F91FF9009
:100C3000EF90DF90CF90BF909F908F907F906F90BC
:100C40005F904F900C943805F701ED57FE4FC08030
:100C5000CC2009F497C0E701C357DE4F688170E0EC
:100C600080E090E00E9424182B013C01D12C8E01E1
:100C7000C0E0D0E0812C912CF801B0806B2D70E0A9
:100C800080E090E00E9426189B01AC01C301B201F4
:100C90000E943D1787FF09C06B2D70E080E090E057
:100CA0000E9424182B013C014E012196065F1F4F24
:100CB000CC15DD0509F7C401880F991F880C991C14
:100CC000880C991C880C991C880E991E8E0C9F1CF0
:100CD000F401EC57FE4F0081F701E558FE4F008309
:100CE000F401EB57FE4F8081F701E458FE4F8083FB
:100CF00010E0080F111DF401EA57FE4F8081F70143
:100D0000E358FE4F8083080F111DF401E957FE4F91
:100D10008081F701E258FE4F8083080F111DF40116
:100D2000E857FE4F8081F701E158FE4F8083080F9E
:100D3000111DF401E757FE4F8081F701E058FE4F87
:100D40008083080F111DF401E657FE4F8081F701E3
:100D5000EF57FE4F8083080F111DF401E557FE4F3A
:100D60008081F701EE57FE4F8083080F111D000FA1
:100D7000802F880F880F080F802F0E94B00F0E94CD
:100D8000EE0B38CFE251FC4F81E080838091C706A3
:100D90009091C806A091C906B091CA063597808384
:100DA0009183A283B383DF91CF911F910F91FF9025
:100DB000EF90DF90CF90BF909F908F907F906F903B
:100DC0005F904F900895CF93DF93C0910E01D09123
:100DD0000F01FE01E759FE4F1082CE01805A9E4F4F
:100DE0002091FD06DC012C93319710820E940012A5
:100DF000C659DE4F99838883E0910E01F0910F016F
:100E0000DF01A654BF4F1C92A154BF4F81E08C93C9
:100E100011961C92A45CB1091D921D921D921C9208
:100E200013971082A554BB4F1C9211971C92AD5E74
:100E3000B3401C92A751BC4F1D921D921D921C9253
:100E40001397A15BB44080EAED0119928A95E9F706
:100E5000A056BF4F1C92EF59FE4F88E0DF011D9254
:100E60008A95E9F70E94B1050E94940B84E00E94E4
:100E7000B00F609100078091FF060E948F0BE091F8
:100E80000E01F0910F01E45AFE4F1082118212827E
:100E90001382DF91CF9108958F929F92AF92BF926C
:100EA000FF920F931F93CF93DF93C0910E01D091C8
:100EB0000F014091C7065091C8066091C906709114
:100EC000CA068E01045A1E4FF80180819181A281C9
:100ED000B3818096A11DB11DF88084179507A607E0
:100EE000B70708F428C19E01255A3E4FFF2009F498
:100EF00049C0AE01F6E0FF9E400D511D1124455042
:100F00005109BE016550710916E0F12E0FEF809175
:100F1000C7069091C806A091C906B091CA06FA0109
:100F200082809380A480B58088199909AA09BB0999
:100F30008197A105B10508F11881812F90E0FC018E
:100F4000EE0FFF1FE80FF91FEE0FFF1FEC0FFD1F45
:100F50003196DA01BF2C01900D92BA94E1F7019716
:100F6000FC01EE0FFF1F8E0F9F1FFC01EE0FFF1FF6
:100F7000EC0FFD1F0283115018834650510946178C
:100F8000570729F6FE01E758FE4F1082EE5BF10984
:100F900080E090E04191519161917191840F951F92
:100FA000E217F307B9F7FE01EF58FA4F208121301D
:100FB00009F402C1FE01E859FE4F8083CE01805A38
:100FC0009E4F0E940012C659DE4F998388838091FC
:100FD0000E0190910F01FC01E758FE4F21E02083A4
:100FE000EF5BF1092081213009F400C14091C7066F
:100FF0005091C8066091C9067091CA060091C70653
:101000001091C8062091C9063091CA06FC01E45926
:10101000FA4F40815181628173814058584F6F4F20
:101020007F4F401751076207730708F47AC0009199
:10103000C7061091C8062091C9063091CA06FC0166
:10104000EA54FF4F4081518162817381405E5F4F5E
:101050006F4F7F4F401751076207730708F047C073
:101060004091C7065091C8066091C9067091CA06A2
:101070004083518362837383E554FB4F80818111E8
:1010800040C00E94900180910E0190910F01FC01DF
:10109000EE57FE4F20811F922F93319720811F9290
:1010A0002F93319720811F922F93319720811F9288
:1010B0002F93319720811F922F93319720811F9278
:1010C0002F93319720811F922F93319780811F9208
:1010D0008F938BE191E09F938F930E94701B8DB74C
:1010E0009EB742960FB6F8949EBF0FBE8DBFDF919C
:1010F000CF911F910F91FF90BF90AF909F908F90D5
:10110000089583E00E94B00F60E080E0DF91CF910E
:101110001F910F91FF90BF90AF909F908F900C9474
:101120008F0B8FE30E94B00F0E94B10580910E01DA
:1011300090910F017CCFFF20B9F08A818336F1F1C5
:10114000CE010896AE01F6E0FF9E400D511D112420
:101150004E5F5F4F06C00696FC013697208123360E
:1011600069F184179507B9F79E01255A3E4FF90199
:101170004081842F90E0FE0154E0459FE00DF11D79
:101180001124E554FF4F10821182128213820196BE
:1011900068E270E00E943A16F90180838091C706E8
:1011A0009091C806A091C906B091CA06F801808343
:1011B0009183A283B3839ACE8FEFFCCE9E01255AF2
:1011C0003E4FF9014081842F90E0FE0154E0459F9D
:1011D000E00DF11D1124E554FF4F41E050E060E0C7
:1011E00070E04083518362837383D1CF0E94B30345
:1011F00080910E0190910F01F9CEE0910E01F091D6
:101200000F0120812223B9F082818336B9F0CF010A
:101210000896AF0136E0239F400D511D11244E5F0B
:101220005F4F06C00696FC0136972081233631F0C9
:1012300084179507B9F780E090E0089581E090E089
:10124000089520E030E040E05FE30E94D1160E9464
:10125000EE17CB010895089580E090E00895089579
:10126000DF92EF92FF920F931F93CF93DF93F89447
:1012700014B817B81AB815B818B81BB8529A5A9AB1
:1012800014BC85E085BD8FEF87BD82E080936E0042
:1012900010928000109281002FE83BE0309389008B
:1012A0002093880080936F005398239891EA90933D
:1012B000B0008093B1001092B4001092B3008BE0A4
:1012C00080BF83E080937F0086E080937C0083E88A
:1012D00080937A0080917A00806480937A00809174
:1012E0007A0086FDFCCF10927C0083EA80937A001E
:1012F00081E080937B0081E090E00E94E41B8F3FBF
:1013000011F0809366001092CB06C1E0C093A40652
:10131000C093E8061092C2061092FC0680E990E0A5
:101320000E94E41B8093C1068091C106887311F06E
:10133000C093C1061092EC061092EB068FEF90E07E
:101340009093EA068093E9061092C7061092C806A9
:101350001092C9061092CA0681E08093310182E49E
:101360009FE09093FB068093FA0680EB90E00E944A
:10137000E41BC82F81EB90E00E94E41B2C2F30E08F
:10138000382B3093FE062093FD0685E090E00E9406
:10139000E41B8093010789E090E00E94E41B8093A6
:1013A000ED068CE090E00E94E41B8093FF0684E150
:1013B00090E00E94E41B809300075CECE52E56E071
:1013C000F52E05EA16E0C0E2D0E0CE010E94E41B53
:1013D000D82ECE0101960E94E41B2D2D30E0322F35
:1013E0002227282BF701219331937F01CE01C0964C
:1013F0000E94E41BD82ECE01C1960E94E41B2D2D25
:1014000030E0322F2227282BF801219331938F01CE
:101410002296CC33D105C9F67894DF91CF911F91F4
:101420000F91FF90EF90DF9008951F920F920FB6EB
:101430000F9211248F930FB6F894A89580916000B5
:10144000886180936000109260000FBE8F910F90B2
:101450000FBE0F901F9018953C01EB0110E09924EE
:101460009A9484E0C82E96E0A92E23E8B22E38E1A3
:10147000D32E49E2E42E90913101E92FF0E0E730DC
:10148000F105C8F7EC5CFF4F0C947016112309F4BA
:10149000FCC0C092310111E0FE010995ECCF8091B2
:1014A000CB068111EBC0F894A0927C00B0927A0038
:1014B00080917A00806480937A0090917A0096FD02
:1014C000FCCF809178009091790078948B3AE2E09B
:1014D0009E070CF0EDC08938F2E09F070CF0EFC0DA
:1014E000873692400CF4CAC0559A549A3B9A3A9A5D
:1014F0003D983C98C0CFF89480B7877F80BF80919B
:101500007A008F7780937A0014B817B81AB815B894
:1015100018B81BB80FB6F894A895D09260000FBE0B
:10152000E09260008091600080648093600093B7D7
:10153000917F946093BFF89483B7816083BF789460
:10154000889583B78E7F83BF78941092CB06529A8A
:101550005A9A80917A00806880937A0087E592E0B9
:101560000197F1F700C0000080B7886180BF559AED
:10157000549A3B9A3A9A3D9A3C9AEFE1FEE43197AD
:10158000F1F700C000008091CB06811181C0559811
:1015900054983B983A983D983C986DCF80912F0194
:1015A000811141C01092B3001092B400109230012A
:1015B00062CF4899ECCF559A54983B983A983D9809
:1015C0003C988FEC97E00197F1F700C00000559828
:1015D00054983B983A983D983C989FEFE1EEF4E0A0
:1015E0009150E040F040E1F700C0000044CF559832
:1015F00054983B9A3A9A3D983C98EFECF7E0319733
:10160000F1F700C00000559854983B983A983D98DF
:101610003C98FFEF21EE84E0F15020408040E1F75C
:1016200000C0000028CF90912F01809130019817C1
:1016300009F421CF80912F018093300180912F01F7
:10164000813009F450C080912F011092B300909224
:10165000B4008230D9F19092B3009092B4008FE23E
:1016600095E70197F1F700C0000080910007909185
:10167000FF069093B3008093B400FDCE559A549A20
:101680003B983A983D983C98F6CEF301099501CFE6
:10169000559A549A3B983A983D983C98FFEF20E72A
:1016A00082E0F15020408040E1F700C000006FCFA1
:1016B000559854983B9A3A9A3D983C98DCCE559868
:1016C00054983B983A983D9A3C9AD5CEEFE2F5E78C
:1016D0003197F1F700C000008091ED061092B30041
:1016E0008093B400C8CE9092B3001092B4008FE201
:1016F00095E70197F1F700C0000080910107809302
:10170000B3001092B400B7CE07C0EFECF7E031970A
:10171000F1F700C0000001970097B9F70895809392
:10172000B3006093B40008958FEF8093B30080936B
:10173000B4008FE090E0EFECF7E03197F1F700C0F4
:1017400000000197C1F708958091CB0681111EC05A
:10175000F89487E080937C0083E880937A008091FE
:101760007A00806480937A0080917A0086FDFCCFB5
:10177000809178009091790010927C0023EA209368
:101780007A0021E020937B00789408958FEF9FEFFB
:1017900008958091CB0681111EC0F89488EC809347
:1017A0007C0087E880937A0080917A00806480933F
:1017B0007A0080917A0086FDFCCF8091780090912C
:1017C000790010927C0023EA20937A0021E0209394
:1017D0007B00789408958FEF9FEF08950F931F93E8
:1017E000CF93DF93E0E0F0E080E003EA11E0D6E0A1
:1017F000C3E8A1E0B0E060E870E0F894D0937C002A
:10180000C0937A0090917A00906490937A009091BE
:101810007A0096FDFCCF20917800309179002170FC
:1018200090917A00906490937A0090917A0096FD5E
:10183000FCCF409178005091790010927C00009389
:101840007A0010937B0078944170241303C0615098
:10185000710999F6222339F09D010E2E01C0220F45
:101860000A94EAF7822B3196E830F10509F0C3CFEC
:10187000DF91CF911F910F91089580911001982FC2
:10188000990F990F990F892790912E0121E0290F27
:1018900020932E01282F2295269527708227969532
:1018A00096958927809310010895809310010895DB
:1018B0008091CB06811116C0F89486E080937C005D
:1018C00083E880937A0080917A00806480937A0024
:1018D00080917A0086FDFCCF80917800909179000C
:1018E000789408958FEF9FEF08952F923F924F9233
:1018F0005F926F927F928F929F92AF92BF92CF92A0
:10190000DF92EF92FF920F931F93CF93DF9300D05C
:1019100000D000D0CDB7DEB71C01DC0112960D90CF
:10192000BC91A02DBE83AD83A438E3E0BE070CF0CC
:10193000C9C08091A5069091A6068A179B0708F456
:1019400037C10091A7061091A8060A171B0708F4D3
:101950002FC20091A9061091AA060A171B0708F4C6
:101960002FC20091AB061091AC060A171B0708F4B2
:101970002FC20091AD061091AE060A171B0708F49E
:101980002FC20091AF061091B0060A171B0708F48A
:10199000EFC10091B1061091B2060A171B0708F4B7
:1019A00027C20091B3061091B4060A171B0708F46A
:1019B00027C20091B5061091B6060A171B0708F456
:1019C00027C20091B7061091B8060A171B0708F442
:1019D00027C20091B9061091BA060A171B0708F42E
:1019E00027C20091BB061091BC060A171B0708F41A
:1019F00023C20091BD061091BE060A171B0708F40A
:101A000023C20091BF061091C0060A171B0708F4F5
:101A100023C280E090E0A0EDB0E489839A83AB8399
:101A2000BC834CE0E42EF12CF701EE0FFF1FEB55C9
:101A3000F94F80819181B801681B790B80E090E0BB
:101A40000E9424189B01AC010E94D1166B017C01FD
:101A5000AD81BE81BD01BB0F880B990B0E9426187A
:101A60004B015C01B80180E090E00E9424182B013A
:101A70003C0129813A814B815C81C701B6010E94FA
:101A800073199B01AC01C301B2010E94D0169B01E6
:101A9000AC01C501B4010E94D01620E030E040E264
:101AA00051E40E9473190E94EE178B01C701B60121
:101AB0000E94EE17AB01BC01C801BA010E943A16A0
:101AC000162F77C0DC01CD90DC908091CC069091F0
:101AD000CD068C159D0508F48CC01FEFE090CE0656
:101AE000F090CF06EC14FD0408F45EC1E090D0063F
:101AF000F090D106EC14FD0408F45EC1E090D2062B
:101B0000F090D306EC14FD0408F45EC1E090D40616
:101B1000F090D506EC14FD0408F45EC1E090D60602
:101B2000F090D706EC14FD0408F4C3C0E090D8068A
:101B3000F090D906EC14FD0408F456C1E090DA06E2
:101B4000F090DB06EC14FD0408F456C1E090DC06CE
:101B5000F090DD06EC14FD0408F456C1E090DE06BA
:101B6000F090DF06EC14FD0408F456C1E090E006A6
:101B7000F090E106EC14FD0408F456C1E090E20692
:101B8000F090E306EC14FD0408F45AC1E090E4067A
:101B9000F090E506EC14FD0408F45AC1E090E60666
:101BA000F090E706EC14FD0408F45AC10AE531C0D0
:101BB00010E0ED81FE81ED3BF240FCF481E2810F0B
:101BC00026960FB6F894DEBF0FBECDBFDF91CF9142
:101BD0001F910F91FF90EF90DF90CF90BF90AF904B
:101BE0009F908F907F906F905F904F903F902F903D
:101BF000089500E081E2800FE3CFD101CD90DC9029
:101C00008091CC069091CD068C159D0508F066CF8D
:101C100000E01F3F79F3ED81FE81BF01FF0F880BCC
:101C2000990B0E9426186B017C01612F70E080E007
:101C300090E00E9424184B015C01A701960160E02E
:101C400070E081E694E40E94D0169B01AC01C501CE
:101C5000B4010E9473194B015C01602F70E080E0B9
:101C600090E00E9424182B013C0120E030E04FE27C
:101C700054E4C701B6010E94D0169B01AC01C30118
:101C8000B2010E9473199B01AC01C501B4010E940D
:101C9000D11620E030E048E453E40E94421720E0EF
:101CA00030E044E052E40E94D1160E94F517862FDE
:101CB00087CF05E085E090E0880F991FFC01E6538F
:101CC000F94F80819181B701681B790B80E090E02A
:101CD0000E9424189B01AC010E94D1164B015C01AB
:101CE000B601DD0C880B990B0E9426182B013C01D4
:101CF000B70180E090E00E9424186B017C01602F06
:101D000070E080E090E00E94241820E030E040E0A5
:101D10005FE30E94731920E030E0A9010E94D11610
:101D2000A50194010E9473199B01AC01C701B60182
:101D30000E94D0169B01AC01C301B2010E94D016D3
:101D400020E030E040E251E40E9473190E94EE1757
:101D50007B01C501B4010E94EE17AB01BC01C701B4
:101D6000BA010E943A16062F6F3F09F052CF26CFD4
:101D700065E085E090E07C01F1E0EF1AF10870E0A9
:101D800080E090E00E94241820E030E040E05FE333
:101D90000E94731920E030E0A9010E94D1166983E6
:101DA0007A838B839C8340CE01E081E090E084CFF6
:101DB00061E081E090E0DFCF02E082E090E07CCF64
:101DC00062E082E090E0D7CF03E083E090E074CF60
:101DD00063E083E090E0CFCF04E084E090E06CCF5C
:101DE00064E084E090E0C7CF06E086E090E064CF56
:101DF00066E086E090E0BFCF07E087E090E05CCF50
:101E000067E087E090E0B7CF08E088E090E054CF4B
:101E100068E088E090E0AFCF09E089E090E04CCF47
:101E200069E089E090E0A7CF0AE08AE090E044CF43
:101E30006AE08AE090E09FCF6BE08BE090E09BCF80
:101E40000BE08BE090E038CF6CE08CE090E093CF3B
:101E50000CE08CE090E030CF6DE08DE090E08BCF37
:101E60000DE08DE090E028CF1F920F920FB60F92F9
:101E700011242F933F934F935F936F937F938F938F
:101E80009F93AF93BF93EF93FF932091EB06309115
:101E9000EC068091E9069091EA06820F931F9093D9
:101EA000EC068093EB068FEF90E09093EA06809328
:101EB000E9068FEF87BD8091C7069091C806A09173
:101EC000C906B091CA060196A11DB11D8093C7062F
:101ED0009093C806A093C906B093CA068091CB061A
:101EE00081110FC08091FA069091FB062091EB06BC
:101EF0003091EC068217930720F4809131018430F1
:101F000089F0FF91EF91BF91AF919F918F917F9158
:101F10006F915F914F913F912F910F900FBE0F9056
:101F20001F901895E0911301F09114010995009705
:101F300041F30E941C12811109C00E943A1A99278C
:101F40009093EA068093E90687BDDBCFE09111010B
:101F5000F091120109951092EC061092EB06D1CF88
:101F600080FF11C0559A81FF11C0549A82FF11C0A1
:101F70003B9A83FF11C03A9A84FF11C03D9A85FDB8
:101F800011C03C980895559881FDEFCF549882FD7B
:101F9000EFCF3B9883FDEFCF3A9884FDEFCF3D988C
:101FA00085FFEFCF3C9A08951F920F920FB60F92C4
:101FB00011248F939F9310928100109285001092AC
:101FC000840081E08093A4068093E8061092CB06FB
:101FD00010927C0093EA90937A0080937B009F910B
:101FE0008F910F900FBE0F901F9018951F920F9218
:101FF0000FB60F9211242F933F934F935F936F93DC
:102000007F938F939F93AF93BF93CF93DF93EF9380
:10201000FF93209184003091850041E04093CB06EE
:102020008091A4068823A9F1109285001092840063
:10203000409381001092FC061092A4068091E8065D
:102040008823A1F080917A0086FDFCCF80917800F2
:10205000909179009093C6068093C50681E08093A5
:102060007C0093EA90937A0080937B00FF91EF913C
:10207000DF91CF91BF91AF919F918F917F916F91A0
:102080005F914F913F912F910F900FBE0F901F9036
:102090001895C901875891098437994008F052C0B2
:1020A00026583109A4EFB0E00E947616AA27BB2774
:1020B00088309105A105B10508F47BC04093A406C2
:1020C0008091E806811152C08091C206E82FF0E0AD
:1020D000E251F94F9091FC0690838F5F8093C20686
:1020E0008C3021F6109281001092850010928400AD
:1020F0004093E8061092CB06C091F806D091F906FD
:102100008EEE96E00E940012C817D90709F0AECFF4
:102110008091F70687FF61C098E7980F933030F001
:10212000539823981092B4001092B30090E0FC01F1
:10213000E058F109EB30F10508F098CFE55CFF4F6E
:102140000C947016109281001092850010928400F9
:102150004093A4064093E8061092CB0610927C00B0
:1021600083EA80937A0040937B0080CF80917A004D
:1021700086FDFCCF80917800909179009093C40601
:102180008093C30610927C0083EA80937A0081E0FA
:1021900080937B009091FC069923D1F010928100EE
:1021A00010928500109284008093E8061092CB066E
:1021B0005DCF21E030E0F90102C0EE0FFF1F8A95EC
:1021C000E2F7CF019091FC06892B8093FC064ECF5D
:1021D0001092E8061092C20649CFE0911501F091E5
:1021E000160163EC76E08EEE96E009953FCF809184
:1021F000EE06823009F4DDC008F4BAC0833009F479
:10220000C6C0843009F0B1C080912F019091F406CE
:10221000833009F4E3C08091F3061092300123E08B
:1022200020932F018093FF06909300078091310146
:10223000863009F41BCF539A239A1092B40010925F
:10224000B30086E08093310111CF80913101863057
:1022500099F0539A239A1092B4001092B3005598B3
:1022600054983B983A983D983C9810922F011092C0
:10227000300186E08093310181E090E09C01009084
:10228000EE0602C0220F331F0A94E2F78091FD068A
:102290009091FE0682239323892B09F086C0109229
:1022A0002F01E4CE81E080933101E0CEE0E0F0E068
:1022B000099580916E008D7F80936E0016BCE0E0E2
:1022C000F0E7099510923101D1CE82E0809331017F
:1022D000CDCE85E080933101C9CE8091310183302C
:1022E00009F4C4CE80913101843009F4BFCE539AF1
:1022F000239A1092B4001092B30083E080933101CE
:10230000B5CE80913101863009F0B0CE6091FD06E6
:1023100080EB90E00E94EC1B6091FE0681EB90E068
:102320000E94EC1B6091010785E090E00E94EC1B8D
:102330006091ED0689E090E00E94EC1B6091FF0641
:102340008CE090E00E94EC1B6091000784E190E03B
:102350000E94EC1B539823981092B4001092B30083
:1023600081E0809331018091EE0681115FCF7ECEB6
:10237000882339F28130C9F78091EF069091F006F9
:102380009093FE068093FD0610922F014FCF80910F
:102390002F01823071F18091F2061092300192E0AB
:1023A00090932F018093ED0641CF81E080932F0120
:1023B0005DCE80912F01813051F08091F106109215
:1023C000300191E090932F01809301072FCF8091EE
:1023D000F106909101078913F2CF28CF8091000771
:1023E000981319CF8091F3062091FF06821315CF21
:1023F0001DCF8091F2069091ED068913CECF16CFB6
:10240000FC01AC01465F5F4F8FEF9FEF2191822768
:10241000082E8295807F8025092E982F82958F70B7
:102420000826869598278927880F880F880F80258A
:10243000E417F50759F708950FB6F894A4B1209161
:10244000C1062A2B24B921E03091C106203029F0A1
:10245000000025B1232B25B904C0000000000000B6
:1024600000C0000000000000309525B1232325B9ED
:102470002EEA2A95F1F72BEE30B735FF0AC0A4B942
:102480003091C106309525B1232325B90FBE80E0D8
:10249000089500002A9581F721E03091C10620308F
:1024A00029F0000025B1232B25B904C0000000004D
:1024B000000000C0000000000000309525B123237B
:1024C00025B9000024E52A95F1F7FC018CE0619123
:1024D00070E0660F771F616072609AE041E050E043
:1024E0009A0126233723232B3091C106203029F06F
:1024F000000025B1232B25B904C000000000000016
:1025000000C0000000000000309525B1232325B94C
:10251000000021E52A95F1F7440F551F9A9501F720
:102520008A95A9F620B7206120BFA4B93091C106D1
:10253000309525B1232325B90FBE81E00895A3E18D
:10254000B0E0E5EAF2E10C9485166C014B012A013A
:10255000FC0117821682838181FF43C3AE014F5F66
:102560005F4F3A01F6019381F40193FD859193FF4A
:1025700081914F01882309F430C3853239F493FDEA
:10258000859193FF81914F01853239F4B60190E036
:102590000E94381B52012501E5CF10E0F12C20E00C
:1025A0002032A0F48B3269F030F4803259F083325B
:1025B00069F420612CC08D3239F0803339F4216008
:1025C00026C02260246023C0286021C027FD27C0C8
:1025D00030ED380F3A3078F426FF06C0FAE01F9F3E
:1025E000300D1124132F13C04AE0F49E300D112436
:1025F000F32E20620CC08E3221F426FDEEC2206440
:1026000006C08C3611F4206802C0883641F4F4010B
:1026100093FD859193FF81914F018111C1CF9BEB78
:10262000980F933018F42061805E06C09BE9980FE4
:10263000933008F071C12F7E26FF16E02F73322EE3
:10264000853619F42064322E08C0863621F4F22F24
:10265000F0683F2E02C01111115037FE07C01C3325
:1026600050F4EE24E394E10E27E00BC0183038F06C
:1026700027E017E005C027E04CE3E42E02C0212F3D
:10268000E12C520144E0A40EB11CF2016081718181
:10269000828193810E2DA3010E944A1A2C01098187
:1026A00000FF02C003FF07C031FC08C032FE09C0B2
:1026B00030E2232E07C02DE2222E04C09BE2292EF9
:1026C00001C0212C802F8C7019F0211068C2A8C283
:1026D00037FE0FC0E40C04FF04C08A81813309F483
:1026E000EA941E1474F5F8E0FE1578F588E0E82EFB
:1026F0002CC036FC2AC0812F90E0841595059CF0F3
:102700002CEF42162FEF520674F0432D4068342E02
:102710000AC0E2E0F0E0EC0FFD1FE10FF11D808147
:10272000803319F411501111F4CF37FE0EC0EE248E
:10273000E394E10E812F90E0481659062CF4141909
:1027400004C0EE24E39401C010E037FE06C0141468
:10275000150434F4C201019605C085E090E002C082
:1027600081E090E021100196112331F0212F30E01B
:102770002F5F3F4F820F931F2F2D30E0821793075B
:1027800014F4F81A01C0F12C832D897049F4FF204C
:1027900039F0B60180E290E00E94381BFA94F7CF3E
:1027A000222029F0B601822D90E00E94381B33FCD4
:1027B00009C0FF2039F0B60180E390E00E94381B89
:1027C000FA94F7CF37FE5AC0942D852D57FE02C0DC
:1027D00090E080E0292E382E20E030E0A2014E1952
:1027E00051095D874C87A201421953095F874E87C3
:1027F000612F70E044275527461B570B598B488B98
:102800005FEF2516350649F4B6018EE290E02A8B7B
:102810003B8B0E94381B3B892A89421453046CF07D
:102820004C855D854215530544F4EE85FF85E20F26
:10283000F31FE60DF71D818101C080E351E0251AE9
:1028400031082F5F3F4F48895989241635064CF0CF
:10285000B60190E02A8B3B8B0E94381B2A893B896A
:10286000CFCF2414350439F49A81963318F4953374
:1028700011F404FF81E3B60190E04BC08A818133FB
:1028800009F00F7EB60190E00E94381B111105C0BF
:1028900034FC18C085E690E017C0B6018EE290E0E7
:1028A0000E94381B82E0EE24E394E80EF301E80F67
:1028B000F11D8081B60190E00E94381B11508E2DD1
:1028C00091F7E6CF85E490E0B6010E94381B57FCF3
:1028D00005C04114510439F404FF05C051944194DA
:1028E00051088DE201C08BE2B60190E00E94381BD6
:1028F00080E39AE0491651042CF08F5F5AE0451AA4
:102900005108F7CFB60190E00E94381BB601C20112
:10291000C0960E94381B57C1833631F0833779F057
:10292000833509F058C021C05201E2E0AE0EB11C5F
:10293000F2018081898301E010E0230114C052017B
:10294000F2E0AF0EB11CF2014080518026FF03C0BF
:10295000612F70E002C06FEF7FEFC2012A8B0E94EF
:102960002D1B8C012A892F7715C05201F2E0AF0E82
:10297000B11CF2014080518026FF03C0612F70E03E
:1029800002C06FEF7FEFC2012A8B0E94221B8C01D5
:102990002A892068322E23FD1AC08F2D90E0081757
:1029A0001907A8F4B60180E290E00E94381BFA945F
:1029B000F4CFF20137FC859137FE81912F01B601EA
:1029C00090E00E94381BF110FA9401501109011592
:1029D000110579F7F8C0843611F0893659F552019E
:1029E00027FF09C0F4E0AF0EB11CF20160817181D4
:1029F000828193810AC0F2E0AF0EB11CF2016081C6
:102A00007181072E000C880B990B2F76322E97FFC1
:102A100009C090958095709561957F4F8F4F9F4F1E
:102A20002068322E2AE030E0A3010E94861BE82EA7
:102A3000E6183FC0022F853721F40F7E2AE030E0F0
:102A40001DC0097F8F3691F018F4883559F0C5C044
:102A5000803719F0883711F0C0C0006104FF09C049
:102A6000046007C024FF08C0066006C028E030E00C
:102A700005C020E130E002C020E132E0520107FF52
:102A800009C0F4E0AF0EB11CF20160817181828156
:102A9000938108C0F2E0AF0EB11CF2016081718138
:102AA00080E090E0A3010E94861BE82EE6180F77D5
:102AB000302E36FE0BC0332D3E7FE11650F434FE2F
:102AC0000AC032FC08C0332D3E7E05C00E2D332DCA
:102AD00003C00E2D01C0012F34FF0CC0FE01EE0D0E
:102AE000F11D8081803311F4397E08C032FF05C0AA
:102AF0000E5F04C0832F867809F00F5F33FD13C08B
:102B000030FF06C01E2D0F1518F41F0D101B0F2DC2
:102B10000F1568F4B60180E290E03B8B0E94381BF1
:102B20000F5F3B89F5CF0F1510F4F01A01C0F12C9F
:102B300034FF12C0B60180E390E03B8B0E94381B4B
:102B40003B8932FF17C031FD03C088E790E002C027
:102B500088E590E0B6010CC0832F867859F031FFEC
:102B600002C08BE201C080E237FD8DE2B60190E049
:102B70000E94381BE11638F4B60180E390E00E9411
:102B8000381B1150F7CFEA94F301EE0DF11D80814F
:102B9000B60190E00E94381BE110F5CF14C0F4E0BC
:102BA000FF1558F584E0F81A33FE1EC0211026C028
:102BB00003FF2AC004EB10E0F32DF0713F2EF80163
:102BC0008491811124C0FF2009F4E5CCB60180E294
:102BD00090E00E94381BFA94F6CFF6018681978127
:102BE00026C08FEF9FEF23C0B60180E290E00E94E5
:102BF000381BFA94F110F8CFD9CFF12CB601822D01
:102C000090E00E94381BD4CF08EB10E0D5CF3110F4
:102C10008052B60190E00E94381B0F5F1F4FCFCF4C
:102C200023E02F1510F483E0BECFF12CC1CF6396C3
:102C3000E2E10C94A1160E9430090E94510188E142
:102C400091E0909316018093150184E391E09093B5
:102C50001401809313018FE091E09093120180930F
:102C600011016CE477E083EE96E00E942C0A80E08C
:102C700090E0089597FB072E16F4009407D077FD97
:102C800009D00E94BC1607FC05D03EF490958195B2
:102C90009F4F0895709561957F4F0895A1E21A2E78
:102CA000AA1BBB1BFD010DC0AA1FBB1FEE1FFF1FF0
:102CB000A217B307E407F50720F0A21BB30BE40B40
:102CC000F50B661F771F881F991F1A9469F7609587
:102CD0007095809590959B01AC01BD01CF01089541
:102CE000EE0FFF1F0590F491E02D0994A29FB00113
:102CF000B39FC001A39F700D811D1124911DB29F30
:102D0000700D811D1124911D08952F923F924F92B5
:102D10005F926F927F928F929F92AF92BF92CF926B
:102D2000DF92EF92FF920F931F93CF93DF93CDB774
:102D3000DEB7CA1BDB0B0FB6F894DEBF0FBECDBFEC
:102D400009942A88398848885F846E847D848C84BD
:102D50009B84AA84B984C884DF80EE80FD800C81C6
:102D60001B81AA81B981CE0FD11D0FB6F894DEBFA9
:102D70000FBECDBFED010895AA1BBB1B51E107C0DB
:102D8000AA1FBB1FA617B70710F0A61BB70B881FFB
:102D9000991F5A95A9F780959095BC01CD0108958A
:102DA0005058BB27AA270E94E8160C94C3180E940B
:102DB000B51838F00E94BC1820F039F49F3F19F480
:102DC00026F40C948B180EF4E095E7FB0C94851810
:102DD000E92F0E94D41858F3BA17620773078407C3
:102DE000950720F079F4A6F50C94F6180EF4E0950A
:102DF0000B2EBA2FA02D0B01B90190010C01CA01B5
:102E0000A0011124FF27591B99F0593F50F4503E5F
:102E100068F11A16F040A22F232F342F4427585F51
:102E2000F3CF469537952795A795F0405395C9F769
:102E30007EF41F16BA0B620B730B840BBAF0915021
:102E4000A1F0FF0FBB1F661F771F881FC2F70EC0C0
:102E5000BA0F621F731F841F48F487957795679593
:102E6000B795F7959E3F08F0B0CF9395880F08F07F
:102E70009927EE0F9795879508950E94611808F499
:102E800081E008950E9456170C94C3180E94BC1844
:102E900058F00E94B51840F029F45F3F29F00C94D7
:102EA000851851110C94F7180C948B180E94D418A3
:102EB00068F39923B1F3552391F3951B550BBB2769
:102EC000AA2762177307840738F09F5F5F4F220FAE
:102ED000331F441FAA1FA9F335D00E2E3AF0E0E8A5
:102EE00032D091505040E695001CCAF72BD0FE2FEF
:102EF00029D0660F771F881FBB1F26173707480783
:102F0000AB07B0E809F0BB0B802DBF01FF2793583A
:102F10005F4F3AF09E3F510578F00C9485180C9461
:102F2000F7185F3FE4F3983ED4F38695779567955D
:102F3000B795F7959F5FC9F7880F911D969587956F
:102F400097F90895E1E0660F771F881FBB1F62178E
:102F500073078407BA0720F0621B730B840BBA0B4C
:102F6000EE1F88F7E095089529F416F00C94851863
:102F70000C94F6180C948B180E94DC18A8F3963861
:102F8000A0F707F80F92E8942BE33AEA48EB5FE7E3
:102F90000E9489190F920F920F924DB75EB70F9250
:102FA0000E943F19ECE8F0E00E948E184F915F916B
:102FB000EF91FF91E595EE1FFF1F49F0FE57E06886
:102FC0004427EE0F441FFA95E1F74195550B0E94F7
:102FD00009190F9007FE0C94FD1808950E94F5172B
:102FE0006894B1110C94F71808950E94DC1888F0C9
:102FF0009F5798F0B92F9927B751B0F0E1F0660FBD
:10300000771F881F991F1AF0BA95C9F714C0B130FD
:1030100091F00E94F618B1E008950C94F618672F0D
:10302000782F8827B85F39F0B93FCCF3869577952C
:103030006795B395D9F73EF4909580957095619515
:103040007F4F8F4F9F4F0895E89409C097FB3EF440
:1030500090958095709561957F4F8F4F9F4F9923E5
:10306000A9F0F92F96E9BB279395F6958795779563
:103070006795B795F111F8CFFAF4BB0F11F460FF23
:103080001BC06F5F7F4F8F4F9F4F16C0882311F07B
:1030900096E911C0772321F09EE8872F762F05C08F
:1030A000662371F096E8862F70E060E02AF09A952A
:1030B000660F771F881FDAF7880F9695879597F91F
:1030C0000895990F0008550FAA0BE0E8FEEF1616B9
:1030D0001706E807F907C0F012161306E407F5070C
:1030E00098F0621B730B840B950B39F40A2661F080
:1030F000232B242B252B21F408950A2609F4A14023
:10310000A6958FEF811D811D089597F99F6780E82F
:1031100070E060E008959FEF80EC0895DF93CF9317
:103120001F930F93FF92EF92DF927B018C016894C3
:1031300006C0DA2EEF010E948619FE01E894A591DF
:103140002591359145915591A6F3EF010E94E8161E
:10315000FE019701A801DA9469F7DF90EF90FF90E4
:103160000F911F91CF91DF91089500240A941616B4
:10317000170618060906089500240A941216130665
:10318000140605060895092E0394000C11F48823F3
:1031900052F0BB0F40F4BF2B11F460FF04C06F5F0F
:1031A0007F4F8F4F9F4F089557FD9058440F551FE5
:1031B00059F05F3F71F04795880F97FB991F61F0B9
:1031C0009F3F79F087950895121613061406551F30
:1031D000F2CF4695F1DF08C0161617061806991F9C
:1031E000F1CF86957105610508940895E894BB2791
:1031F00066277727CB0197F908959B01AC0160E022
:1032000070E080E89FE30C9442170C9485180C94AE
:10321000E0190E94DC18D8F39923C9F3940F511DCB
:10322000A3F39150504094F059F0882332F0660F88
:10323000771F881F91505040C1F79E3F51052CF7D2
:10324000880F911D9695879597F908955F3FACF08B
:10325000983E9CF0BB27869577956795B79508F4BF
:10326000B1609395C1F7BB0F58F711F460FFE8CF39
:103270006F5F7F4F8F4F9F4FE3CF0C94F718FA018A
:10328000DC01AA0FBB1F9B01AC01BF5728F422270A
:1032900033274427507820C0B75190F4AB2F002437
:1032A000469537952795011CA395D2F3002071F020
:1032B000220F331F441FB395DAF30ED00C94D016AF
:1032C00061307105A0E88A07B94630F49B01AC0172
:1032D0006627772788279078309621F020833183DE
:1032E0004283538308950E9486190C94C3180E9448
:1032F000B51838F00E94BC1820F0952311F00C94FA
:1033000085180C948B1811240C94F7180E94D4186B
:1033100070F3959FC1F3950F50E0551F629FF00128
:10332000729FBB27F00DB11D639FAA27F00DB11D41
:10333000AA1F649F6627B00DA11D661F829F2227CA
:10334000B00DA11D621F739FB00DA11D621F839F51
:10335000A00D611D221F749F3327A00D611D231F27
:10336000849F600D211D822F762F6A2F11249F5775
:1033700050409AF0F1F088234AF0EE0FFF1FBB1F78
:10338000661F771F881F91505040A9F79E3F510537
:1033900080F00C9485180C94F7185F3FE4F3983E86
:1033A000D4F3869577956795B795F795E7959F5FE1
:1033B000C1F7FE2B880F911D9695879597F9089573
:1033C0009F3F31F0915020F4879577956795B79599
:1033D000880F911D9695879597F908958F929F92E2
:1033E000AF92BF92CF92DF92EF92FF92CF93DF9393
:1033F000EC01688179818A819B8161157105810564
:10340000910521F464E279ED8BE597E02DE133EF4E
:1034100041E050E00E94FA1B49015A019B01AC01B6
:10342000A7EAB1E40E94191C6B017C01ACEEB4EF79
:10343000A50194010E94271CDC01CB018C0D9D1D70
:10344000AE1DBF1DB7FF03C00197A109B048888317
:103450009983AA83BB839F77DF91CF91FF90EF90F1
:10346000DF90CF90BF90AF909F908F9008950E9473
:10347000EE19089587E191E00E94EE190895A0E009
:10348000B0E08093170190931801A0931901B093B5
:103490001A010895283008F027E03327DA01990F40
:1034A000311D87FD916000966105710539F4326028
:1034B0002E5F3D9330E32A95E1F708959F3F30F06A
:1034C00080387105610509F03C5F3C5F3D939130A8
:1034D00008F08068911DDF93CF931F930F93FF92A5
:1034E000EF92192F987F9695E92F96959695E90F6B
:1034F000FF27EA5EFE4F99273327EE24FF24A7011A
:10350000E70105900894079428F4360FE71EF81E8B
:10351000491F511D660F771F881F991F0694A1F739
:103520000590079428F4E70EF81E491F561FC11D89
:10353000770F881F991F661F0694A1F705900794BF
:1035400028F4F80E491F561FC71FD11D880F991F59
:10355000661F771F0694A1F70590079420F4490F82
:10356000561FC71FD81F990F661F771F881F069405
:10357000A9F784911095177041F0D695C795579586
:103580004795F794E7941A95C1F7ECEBF0E068944F
:103590001590159135916591959105907FE2739500
:1035A000E118F10A430B560BC90BD009C0F7E10C27
:1035B000F11E431F561FC91FD01D7EF4703311F436
:1035C0008A95E6CFE894015030F0080F0AF40027FE
:1035D000021708F4202F2395022F7A3328F079E37D
:1035E0007D932A95E9F710C07D932A9589F6069474
:1035F00097956795379517951794E118F10A430B3E
:10360000560BC90BD00998F023957E9173957A33A8
:1036100008F070E37C932013B8F77E9170617D937E
:1036200030F0839571E37D9370E32A95E1F71124DF
:10363000EF90FF900F911F91CF91DF91992787FD18
:1036400090950895FC010590615070400110D8F7E5
:10365000809590958E0F9F1F0895FC0161507040DA
:1036600001900110D8F7809590958E0F9F1F0895B7
:103670000F931F93CF93DF93FB01238121FD03C0A1
:103680008FEF9FEF28C022FF16C04681578124810B
:1036900035814217530744F4A081B1819D012F5F0A
:1036A0003F4F318320838C93268137812F5F3F4F9B
:1036B0003783268310C0EB01092F182F0084F18572
:1036C000E02D0995892BE1F68E819F8101969F83DC
:1036D0008E83812F902FDF91CF911F910F910895AD
:1036E000A0E0B0E0E6E7FBE10C949516AE014B5F7D
:1036F0005F4FFA0161917191AF0180910407909140
:1037000005070E949F12E2E00C94B116FA01AA2765
:10371000283051F1203181F1E8946F936E7F6E5F14
:103720007F4F8F4F9F4FAF4FB1E03ED0B4E03CD0C2
:10373000670F781F891F9A1FA11D680F791F8A1FA5
:10374000911DA11D6A0F711D811D911DA11D20D00C
:1037500009F468943F912AE0269F11243019305DC6
:103760003193DEF6CF010895462F4770405D4193B7
:10377000B3E00FD0C9F7F6CF462F4F70405D4A3304
:1037800018F0495D31FD4052419302D0A9F7EACFCC
:10379000B4E0A6959795879577956795BA95C9F7FB
:1037A00000976105710508959B01AC010A2E0694EE
:1037B0005795479537952795BA95C9F7620F731FA7
:1037C000841F951FA01D0895F999FECF92BD81BD5C
:1037D000F89A992780B50895262FF999FECF1FBA38
:1037E00092BD81BD20BD0FB6F894FA9AF99A0FBE2A
:1037F00001960895052E97FB1EF400940E94111C5B
:1038000057FD07D00E944E1607FC03D04EF40C94CF
:10381000111C50954095309521953F4F4F4F5F4F6C
:10382000089590958095709561957F4F8F4F9F4F2C
:1038300008950E947616A59F900DB49F900DA49FA9
:10384000800D911D11240895B7FF0C94191C0E943E
:0C385000191C821B930B0895F894FFCF05
:10385C000000000200000000060100000000320120
:10386C00AA2F092C092B09010000002564256425C9
:0E387C0064256425642564256425640A000023
:00000001FF
