:100000000C94DB000C9404010C9404010C94040186
:100010000C9404010C9404010C94140A0C94040133
:100020000C9404010C9404010C9404010C94D30F5F
:100030000C9404010C9404010C94330F0C940401EF
:100040000C9404010C9404010C9404010C9404011C
:100050000C9404010C9404010C9404010C94F50F0D
:100060000C9404010C9404017A0AF60A4E0A450A1B
:100070004B0AD80ACD0A58113510351055116111A7
:100080005111681164116C112411F6100763423686
:10009000B79BD8A71A39685618AEBAAB558C1D3C19
:1000A000B7CC5763BD6DEDFD753EF6177231BF00DD
:1000B0000000803F6E616E00696E660000407A103D
:1000C000F35A00A0724E18090010A5D4E80000E809
:1000D0007648170000E40B54020000CA9A3B000067
:1000E00000E1F505000080969800000040420F00F6
:1000F0000000A08601000000102700000000E803B7
:10010000000000006400000000000A000000000081
:100110000100000000002C76D888DC674F0823DF40
:10012000C1DFAE59E1B1B796E5E3E453C63AE65113
:10013000997696E8E6C28426EB898C9B62ED407C3A
:100140006FFCEFBC9C9F40F2BAA56FA5F490055AD6
:100150002AF75C936B6CF9676DC11BFCE0E40D47FB
:10016000FEF520E6B500D0ED902E0300943577051E
:100170000080841E080000204E0A000000C80C33D6
:100180003333330F986E12831141EF8D2114893B65
:10019000E65516CFFEE6DB18D1844B381BF77C1DE5
:1001A000901DA4BBE424203284725E228100C9F138
:1001B00024ECA1E53D2711241FBECFEFD8E0DEBF20
:1001C000CDBF14BE0FB6F894A895809160008861E9
:1001D00080936000109260000FBE11E0A0E0B1E0DB
:1001E000E6E5F8E302C005900D92AC31B107D9F70E
:1001F00026E0ACE1B1E001C01D92A63FB207E1F7F5
:100200000E941A160C94291C0C940000E091000125
:10021000F0910101E658FE4F81E080830895CF936D
:10022000DF93FC01C0910001D0910101DE01A654D1
:10023000BF4F81E08C93AE54BF4F9CE001900D9274
:100240009A95E1F7CB010E94740CC858DE4F888361
:10025000DF91CF9108958091EB069091EC06892B68
:1002600069F08091000190910101FC01E758FE4F77
:100270002081222351F0805A9E4F089580910001E1
:1002800090910101805A9E4F089580E090E008957A
:100290006091000170910101FB01E554FF4FAB013A
:1002A000455A5E4F20E030E081919191A191B1914A
:1002B000280F391FE417F507B9F7FB01EF58FA4F7C
:1002C0008081813011F0C90108958FEF90E0089589
:1002D000CF93E0910001F0910101EB54FF4F908129
:1002E000981791F0C82F8230D1F0833079F08130A7
:1002F000F1F060E080E00E948E0BE0910001F0914F
:100300000101EB54FF4FC083CF9108950E94930BDE
:100310006091EE068091ED060E948E0BEECF0E945A
:10032000930B6091DB0680E00E948E0BE6CF0E946B
:10033000930B60E08091EF060E948E0BDECF2F9230
:100340003F924F925F926F927F928F929F92AF9265
:10035000BF92CF92DF92EF92FF920F931F93CF93B2
:10036000DF93CDB7DEB728970FB6F894DEBF0FBE88
:10037000CDBF84E00E94AF0F2090000130900101BA
:10038000F1012081222309F4A0C1022F10E031964F
:10039000A10186E0289F400D511D11244F5F5F4F42
:1003A00060E070E0CB013081630F711D811D911DF4
:1003B0003696E417F507B9F730E040E050E00E94C8
:1003C0004B16CA01B9010E941C184B015C01B8010F
:1003D000012E000C880B990B0E941E186B017C01EA
:1003E000F101E558FE4F608170E061507109072E00
:1003F000000C880B990B0E941E182B013C01F10187
:10040000E358FE4F608170E061507109072E000CC7
:10041000880B990B0E941E18A50194010E944C198B
:100420009B01AC01C301B2010E94CE162B013C011D
:10043000F101E158FE4F608170E061507109072EB3
:10044000000C880B990B0E941E18A70196010E94B0
:100450004C199B01AC01C301B2010E94CE162B01C5
:100460003C01F101EF57FE4F608170E0615071096E
:1004700001151105E9F0F1018281882309F42BC1EE
:10048000C10108969801220F331F200F311F220F40
:10049000331F2E5F3F4F220D331D07C00696FC0110
:1004A00036974081442309F416C182179307B1F7A8
:1004B00020E030E0A901C301B2010E94CE16698399
:1004C0007A838B839C83F101E458FE4F608170E056
:1004D00061507109072E000C880B990B0E941E18A1
:1004E0002B013C01F101E258FE4F608170E0615048
:1004F0007109072E000C880B990B0E941E18A5018C
:1005000094010E944C199B01AC01C301B2010E94ED
:10051000CE164B015C01F101E058FE4F608170E0A6
:1005200061507109072E000C880B990B0E941E1850
:100530009B01AC01C701B6010E944C199B01AC01A3
:10054000C501B4010E94CE166B017C01F101EE578A
:10055000FE4F608170E06150710901151105E9F0ED
:10056000F1018281882309F4BFC0C1010896980176
:10057000220F331F020F131F000F111F0E5F1F4F9B
:10058000020D131D07C00696FC0136972081222319
:1005900009F4AAC080179107B1F720E030E0A90163
:1005A00069817A818B819C8190582D833E834F8312
:1005B00058870E94B4174B015C012D813E814F8109
:1005C0005885C701B6010E94CE1690580E94B417F4
:1005D0006B017C016091EF0670E06C537109072E8E
:1005E000000C880B990B0E941E182B013C0120E087
:1005F00030E040E85FE3C501B4010E94CE169B01E4
:10060000AC0160E070E080E89FE30E943A179B0134
:10061000AC01C301B2010E944C1920E030E040E07F
:100620005FE30E94CE160E94E6173B01FCE36F0ECB
:10063000711C4091DB0650E04C535109BA01550F33
:10064000880B990B0E941E184B015C0120E030E0E2
:1006500040E85FE3C701B6010E94CE169B01AC01E2
:1006600060E070E080E89FE30E943A179B01AC01D4
:10067000C501B4010E944C1920E030E040E05FE386
:100680000E94CE160E94E6178B01045C1F4F0E9449
:10069000930B602F862D28960FB6F894DEBF0FBE01
:1006A000CDBFDF91CF911F910F91FF90EF90DF9021
:1006B000CF90BF90AF909F908F907F906F905F9002
:1006C0004F903F902F900C948E0B00E010E0812C07
:1006D000912C54017CCE072E000C880B990B0E94A4
:1006E0001E189B01AC01E7CE072E000C880B990B5E
:1006F0000E941E189B01AC0153CFCF92DF92EF9264
:10070000FF921F93CF93DF9320910001309101015D
:10071000F9018081882309F447C0E901F6E08F9F41
:10072000C00DD11D11242597A9014550510916E08E
:100730007FEF8091B5069091B606A091B706B09173
:10074000B806CA80DB80EC80FD808C199D09AE095B
:10075000BF098197A105B10518F1F9016081862FC4
:1007600090E0FC01EE0FFF1FE80FF91FEE0FFF1FD7
:10077000E20FF31F3196DE01F12E01900D92FA94F3
:10078000E1F70197FC01EE0FFF1F8E0F9F1FFC0189
:10079000EE0FFF1FE20FF31F72836150F9016083B8
:1007A0002697C417D50729F6DF91CF911F91FF90A7
:1007B000EF90DF90CF900895EF92FF920F931F93E9
:1007C000CF93DF93A0910001B0910101FD01E459A5
:1007D000FE4F6081462F50E07C91C72FD0E0EA5653
:1007E000F14020E030E002C02F5F3F4F2C173D0763
:1007F00009F4C6C0808190E0369684179507A1F76A
:10080000F901EE0FFF1F2E0F3F1F220F331FFD01B7
:10081000E20FF31F62830091B5061091B606209196
:10082000B7063091B8060383148325833683ED0120
:10083000C858DE4F888181834115510509F499C05C
:10084000FD01EC58FE4F70817F3F09F492C07D019D
:100850002DE7E21A2EEFF20AF7011081C12FD0E046
:10086000399620E030E002C02F5F3F4F2C173D0744
:1008700009F48EC0808190E03A9684179507A1F71D
:10088000C901880F991F220F331F220F331F220F18
:10089000331F820F931F8A0F9B1FFC01E457FE4FEB
:1008A0006083ED01C359DE4F488139E2439F212D1A
:1008B000112422952F70389720836CE9F62E2F9DF6
:1008C000400D11246DEC469F512D112456955695DF
:1008D00056958C010B571E4FF8015083FAE05F9F2D
:1008E000401911244883EC01CA57DE4F4883ED01BB
:1008F000C259DE4F4881439F512D112452955F709C
:100900000E5F1F4FF80150835F9D400D1124469FDD
:10091000512D11245695569556950F5F1F4FF8018E
:100920005083FAE05F9F401911244883EC01C757B8
:10093000DE4F4883ED01C159DE4F2881239F312DC1
:10094000112432953F70AC0146575E4FFA01308357
:100950003F9D200D112428833196269F212D11249F
:10096000269526952695208332967083A654BF4FF0
:100970001C92DF91CF911F910F91FF90EF900895FE
:100980007E3118F47F5F7C933BCF2150310938CF03
:10099000143620F41F5FF701108372CF2150310904
:1009A0006FCFCF93DF93C0910001D0910101FE0181
:1009B000E758FE4F1082EE5BF1099E01255A3E4F2B
:1009C00080E090E04191519161917191840F951F68
:1009D000E217F307B9F7FE01EF58FA4F20812130F3
:1009E000C1F0FE01E859FE4F8083CE01805A9E4F30
:1009F0000E94FF11C659DE4F99838883E091000160
:100A0000F0910101E758FE4F81E08083DF91CF91A3
:100A100008958FEFE6CFA0910001B09101012C91D4
:100A20002223C9F012968C911297882369F1CD0187
:100A30000896AD0136E0239F400D511D11244E5FF5
:100A40005F4F06C00696FC01369720812223E1F015
:100A500084179507B9F7FD01E55AFE4F2081822FD3
:100A600090E034E0239FA00DB11D1124A554BF4F89
:100A70001D921D921D921C921397019668E270E0E0
:100A80000E94371680830895FD01E55AFE4F2081AC
:100A9000822F90E034E0239FA00DB11D1124A554B6
:100AA000BF4F41E050E060E070E04D935D936D9387
:100AB0007C931397019668E270E00E94371680835A
:100AC0000895CF93DF93C0910001D0910101FE0101
:100AD000E758FE4F108270971082CE01805A9E4FC9
:100AE0002091EB06FC0120837B967081319640813A
:100AF0003296508131962081FAE02F9F9001112487
:100B000064E6569F200D311D1124FE01E058FE4F72
:100B10005081250F311D3196608131963081B1971A
:100B2000AAE04A9FA0011124A4E67A9F400D511D1E
:100B30001124DE01A358BE4F7C91470F511D408305
:100B40003196208331964AE0349F90011124A4E627
:100B50006A9F200D311D11242083E85AF109DE011E
:100B6000A55ABE4F20E030E04191519161917191C1
:100B7000240F351FEA17FB07B9F7FE01EF58FA4FAC
:100B800040814130A9F0FE01E859FE4F20830E94C8
:100B9000FF11C659DE4F99838883E0910001F091DF
:100BA0000101E758FE4F81E08083DF91CF910895E6
:100BB0002FEFE9CF4F925F926F927F928F929F9229
:100BC000BF92CF92DF92EF92FF920F931F93CF933A
:100BD000DF93C0900001D0900101F601E059FA4F77
:100BE0008081811148C0C0E0D0E01BEA04C0C09001
:100BF0000001D09001010E94ED0BCC0EDD1EF6012C
:100C0000E558FE4F819F912D11249695292F220F93
:100C1000920F891B80832196C830D10541F78091BE
:100C2000000190910101FC01E059FA4F21E020837D
:100C30004091B5065091B6066091B7067091B8061E
:100C4000FC01E459FA4F4083518362837383E95E68
:100C5000F3401082DF91CF911F910F91FF90EF90A1
:100C6000DF90CF90BF909F908F907F906F905F901C
:100C70004F900C946105F601ED57FE4FE080EE2099
:100C800009F46CC0E601C357DE4F688170E080E074
:100C900090E00E941C182B013C01F12C8E01C0E059
:100CA000D0E0812C912CF801B0806B2D70E080E0B9
:100CB00090E00E941E18A30192010E94D1181816FC
:100CC0004CF46B2D70E080E090E00E941C182B012A
:100CD0003C014E012196065F1F4FEC16FD0619F7E9
:100CE000F601E558FE4FC401880F991F880C991C26
:100CF000880C991C880C991C880E991E8C0C9D1CC4
:100D0000D401AC57BE4F8C918083319611968C9153
:100D10008083319611968C918083319611968C91B7
:100D20008083319611968C918083319611968C91A7
:100D30008083319611968C918083319611968C9197
:100D400080838091EB069091EC06019741F10E941F
:100D5000ED0B80910001909101016ACFE251FC4FAF
:100D600081E080838091B5069091B606A091B70688
:100D7000B091B806359780839183A283B383DF91C6
:100D8000CF911F910F91FF90EF90DF90CF90BF9088
:100D90009F908F907F906F905F904F9008958DE01F
:100DA00091E09F938F930E946D1B0F900F90CFCF78
:100DB000CF93DF93C0910001D0910101FE01E7596B
:100DC000FE4F1082CE01805A9E4F2091EB06DC012F
:100DD0002C93319710820E94FF11C659DE4F9983E0
:100DE0008883E0910001F0910101DF01A654BF4F1B
:100DF0001C92A154BF4F81E08C9311961C92A45C6D
:100E0000B1091D921D921D921C9213971082A55438
:100E1000BB4F1C9211971C92AD5EB3401C92A75120
:100E2000BC4F1D921D921D921C921397A15BB44062
:100E300080EAED0119928A95E9F7A056BF4F1C92FE
:100E4000EF59FE4F88E0DF011D928A95E9F70E9475
:100E5000DA058091000190910101FC01EB54FF4FF4
:100E60002081233089F00E94930B6091EE068091DF
:100E7000ED060E948E0B8091000190910101FC0112
:100E8000EB54FF4F23E02083FC01E45AFE4F108215
:100E9000118212821382DF91CF9108958F929F92D7
:100EA000AF92BF92FF920F931F93CF93DF938091E6
:100EB000EB069091EC06892B09F4EEC0C09100017D
:100EC000D09101014091B5065091B6066091B706E8
:100ED0007091B8068E01045A1E4FF80180819181ED
:100EE000A281B3818096A11DB11DF880841795075A
:100EF000A607B70708F4EEC09E01255A3E4FFF2013
:100F000009F449C0AE01F6E0FF9E400D511D1124C9
:100F100045505109BE016550710916E0F12E0FEFE1
:100F20008091B5069091B606A091B706B091B8062B
:100F3000FA0182809380A480B58088199909AA0952
:100F4000BB098197A105B10508F11881812F90E0B7
:100F5000FC01EE0FFF1FE80FF91FEE0FFF1FEC0F54
:100F6000FD1F3196DA01BF2C01900D92BA94E1F782
:100F70000197FC01EE0FFF1F8E0F9F1FFC01EE0F6C
:100F8000FF1FEC0FFD1F02831150188346505109BB
:100F90004617570729F6FE01E758FE4F1082EE5B11
:100FA000F10980E090E04191519161917191840F3C
:100FB000951FE217F307B9F7FE01EF58FA4F2081AA
:100FC000213009F4D9C0FE01E859FE4F8083CE01DB
:100FD000805A9E4F0E94FF11C659DE4F9983888325
:100FE0008091000190910101FC01E758FE4F21E042
:100FF0002083EF5BF1092081213009F4D7C00091F3
:10100000B5061091B6062091B7063091B806FC01DE
:10101000E459FA4F40815181628173814058584FA1
:101020006F4F7F4F401751076207730708F44BC09B
:101030000091B5061091B6062091B7063091B8061A
:10104000FC01EA54FF4F4081518162817381405E0F
:101050005F4F6F4F7F4F401751076207730748F587
:101060004091B5065091B6066091B7067091B806EA
:101070004083518362837383E554FB4F80818111E8
:101080006BC0DF91CF911F910F91FF90BF90AF90F8
:101090009F908F900C949F0181E00E94AF0FE09190
:1010A0000001F0910101E658FE4F8081813009F482
:1010B00084C0DF91CF911F910F91FF90BF90AF90AF
:1010C0009F908F9008950E94DA0580910001909181
:1010D0000101AECFFF20C1F08A81882309F44EC000
:1010E000CE010896AE01F6E0FF9E400D511D112481
:1010F0004E5F5F4F06C00696FC0136972081222383
:10110000E9F184179507B9F79E01255A3E4FF90179
:101110004081842F90E0FE0154E0459FE00DF11DD9
:101120001124E554FF4F108211821282138201961E
:1011300068E270E00E943716F90180838091B5065D
:101140009091B606A091B706B091B806F8018083D9
:101150009183A283B383D3CE80E00E94AF0F60E07F
:1011600080E0DF91CF911F910F91FF90BF90AF90E2
:101170009F908F900C948E0B8FEF25CF9E01255A58
:101180003E4FF9014081842F90E0FE0154E0459FDD
:10119000E00DF11D1124E554FF4F41E050E060E007
:1011A00070E04083518362837383C1CF0E94DC036C
:1011B000809100019091010122CF108280E1DF91A6
:1011C000CF911F910F91FF90BF90AF909F908F9004
:1011D0000C94AF0FE0910001F091010120812223D6
:1011E000B9F082818823B9F0CF010896AF0136E0CB
:1011F000239F400D511D11244E5F5F4F06C0069680
:10120000FC0136972081222331F084179507B9F726
:1012100080E090E0089581E090E0089520E030E0E3
:1012200040E05FE30E94CE160E94E617CB010895CE
:10123000E0910001F0910101E658FE4F808181307C
:1012400009F00895108280E10C94AF0F60E080E017
:101250000C948E0B089580E090E008950895DF923D
:10126000EF92FF920F931F93CF93DF93F89414B8EC
:1012700017B81AB815B818B81BB8529A5A9A14BCAD
:1012800085E085BD8FEF87BD82E080936E00109270
:101290008000109281002FE83BE03093890020937A
:1012A000880080936F005398239891EA9093B00040
:1012B0008093B1001092B4001092B3008BE080BF15
:1012C00083E080937F0086E080937C0083E88093B6
:1012D0007A0080917A00806480937A0080917A000D
:1012E00086FDFCCF10927C0083EA80937A0081E037
:1012F00080937B0081E090E00E94E11B8F3F11F022
:10130000809366001092B906C1E0C0939206C09324
:10131000D6061092B0061092EA0680E990E00E948C
:10132000E11B8093AF068091AF06887311F0C093E4
:10133000AF061092DA061092D9068FEF90E09093E4
:10134000D8068093D7061092B5061092B606109272
:10135000B7061092B80681E080931F0182E49FE0F7
:101360009093E9068093E80680EB90E00E94E11BF1
:10137000C82F81EB90E00E94E11B2C2F30E0382B2E
:101380003093EC062093EB0685E090E00E94E11B91
:101390008093EF0689E090E00E94E11B8093DB06DA
:1013A0008CE090E00E94E11B8093ED0684E190E0E8
:1013B0000E94E11B8093EE065AEBE52E56E0F52ED7
:1013C00003E916E0C0E2D0E0CE010E94E11BD82E76
:1013D000CE0101960E94E11B2D2D30E0322F2227F5
:1013E000282BF701219331937F01CE01C0960E94F3
:1013F000E11BD82ECE01C1960E94E11B2D2D30E0BD
:10140000322F2227282BF801219331938F01229626
:10141000CC33D105C9F67894DF91CF911F910F910C
:10142000FF90EF90DF9008951F920F920FB60F92EA
:1014300011248F930FB6F894A8958091600088616D
:1014400080936000109260000FBE8F910F900FBECE
:101450000F901F9018953C01EB0110E099249A948D
:1014600084E0C82E96E0A92E23E8B22E38E1D32ED0
:1014700049E2E42E90911F01E92FF0E0E730F105F9
:10148000C8F7EC5CFF4F0C946D16112309F4FCC0F7
:10149000C0921F0111E0FE010995ECCF8091B906C1
:1014A0008111EBC0F894A0927C00B0927A008091F8
:1014B0007A00806480937A0090917A0096FDFCCF48
:1014C000809178009091790078948B3AE2E09E07C1
:1014D0000CF0EDC08938F2E09F070CF0EFC08736C2
:1014E00092400CF4CAC0559A549A3B9A3A9A3D9845
:1014F0003C98C0CFF89480B7877F80BF80917A00F6
:101500008F7780937A0014B817B81AB815B818B83E
:101510001BB80FB6F894A895D09260000FBEE09269
:1015200060008091600080648093600093B7917F39
:10153000946093BFF89483B7816083BF7894889553
:1015400083B78E7F83BF78941092B906529A5A9AC5
:1015500080917A00806880937A0087E592E0019715
:10156000F1F700C0000080B7886180BF559A549A97
:101570003B9A3A9A3D9A3C9AEFE1FEE43197F1F7B3
:1015800000C000008091B906811181C0559854981F
:101590003B983A983D983C986DCF80911D01811100
:1015A00041C01092B3001092B40010921E0162CF9D
:1015B0004899ECCF559A54983B983A983D983C9866
:1015C0008FEC97E00197F1F700C000005598549810
:1015D0003B983A983D983C989FEFE1EEF4E09150AB
:1015E000E040F040E1F700C0000044CF5598549827
:1015F0003B9A3A9A3D983C98EFECF7E03197F1F737
:1016000000C00000559854983B983A983D983C98F3
:10161000FFEF21EE84E0F15020408040E1F700C070
:10162000000028CF90911D0180911E01981709F4A8
:1016300021CF80911D0180931E0180911D01813079
:1016400009F450C080911D011092B3009092B40033
:101650008230D9F19092B3009092B4008FE295E776
:101660000197F1F700C000008091EE069091ED0621
:101670009093B3008093B400FDCE559A549A3B9852
:101680003A983D983C98F6CEF301099501CF559ACA
:10169000549A3B983A983D983C98FFEF20E782E0B7
:1016A000F15020408040E1F700C000006FCF559816
:1016B00054983B9A3A9A3D983C98DCCE5598549869
:1016C0003B983A983D9A3C9AD5CEEFE2F5E73197B0
:1016D000F1F700C000008091DB061092B300809308
:1016E000B400C8CE9092B3001092B4008FE295E798
:1016F0000197F1F700C000008091EF068093B300DE
:101700001092B400B7CE07C0EFECF7E03197F1F7D5
:1017100000C0000001970097B9F708958093B300C7
:101720006093B40008958FEF8093B3008093B4006A
:101730008FE090E0EFECF7E03197F1F700C00000A8
:101740000197C1F708958091B90681111EC0F894E0
:1017500087E080937C0083E880937A0080917A0010
:10176000806480937A0080917A0086FDFCCF80911E
:1017700078009091790010927C0023EA20937A00FF
:1017800021E020937B00789408958FEF9FEF0895D8
:101790008091B90681111EC0F89488EC80937C007A
:1017A00087E880937A0080917A00806480937A0041
:1017B00080917A0086FDFCCF80917800909179002D
:1017C00010927C0023EA20937A0021E020937B0092
:1017D000789408958FEF9FEF08950F931F93CF9301
:1017E000DF93E0E0F0E080E003EA11E0D6E0C3E858
:1017F000A1E0B0E060E870E0F894D0937C00C09382
:101800007A0090917A00906490937A0090917A0097
:1018100096FDFCCF20917800309179002170909155
:101820007A00906490937A0090917A0096FDFCCFB4
:10183000409178005091790010927C0000937A00DA
:1018400010937B0078944170241303C06150710998
:1018500099F6222339F09D010E2E01C0220F0A9421
:10186000EAF7822B3196E830F10509F0C3CFDF911A
:10187000CF911F910F91089580910201982F990F98
:10188000990F990F892790911C0121E0290F20932E
:101890001C01282F229526952770822796959695CC
:1018A0008927809302010895809302010895809111
:1018B000B906811116C0F89486E080937C0083E815
:1018C00080937A0080917A00806480937A0080917E
:1018D0007A0086FDFCCF8091780090917900789411
:1018E00008958FEF9FEF08952F923F924F925F924E
:1018F0006F927F928F929F92AF92BF92CF92DF9220
:10190000EF92FF920F931F93CF93DF9300D000D0FD
:1019100000D0CDB7DEB71C01DC0112960D90BC9152
:10192000A02DBE83AD83A438E3E0BE070CF0C9C090
:1019300080919306909194068A179B0708F437C10B
:1019400000919506109196060A171B0708F42FC2FE
:1019500000919706109198060A171B0708F42FC2EA
:101960000091990610919A060A171B0708F42FC2D6
:1019700000919B0610919C060A171B0708F42FC2C2
:1019800000919D0610919E060A171B0708F4EFC1EF
:1019900000919F061091A0060A171B0708F427C2A2
:1019A0000091A1061091A2060A171B0708F427C28E
:1019B0000091A3061091A4060A171B0708F427C27A
:1019C0000091A5061091A6060A171B0708F427C266
:1019D0000091A7061091A8060A171B0708F427C252
:1019E0000091A9061091AA060A171B0708F423C242
:1019F0000091AB061091AC060A171B0708F423C22E
:101A00000091AD061091AE060A171B0708F423C219
:101A100080E090E0A0EDB0E489839A83AB83BC833F
:101A20004CE0E42EF12CF701EE0FFF1FED56F94FBD
:101A300080819181B801681B790B80E090E00E9461
:101A40001C189B01AC010E94CE166B017C01AD817C
:101A5000BE81BD01BB0F880B990B0E941E184B0164
:101A60005C01B80180E090E00E941C182B013C0151
:101A700029813A814B815C81C701B6010E944C19D2
:101A80009B01AC01C301B2010E94CD169B01AC01C8
:101A9000C501B4010E94CD1620E030E040E251E4DF
:101AA0000E944C190E94E6178B01C701B6010E94E3
:101AB000E617AB01BC01C801BA010E943716162F08
:101AC00077C0DC01CD90DC908091BA069091BB0686
:101AD0008C159D0508F48CC01FEFE090BC06F090BB
:101AE000BD06EC14FD0408F45EC1E090BE06F09063
:101AF000BF06EC14FD0408F45EC1E090C006F0904F
:101B0000C106EC14FD0408F45EC1E090C206F0903A
:101B1000C306EC14FD0408F45EC1E090C406F09026
:101B2000C506EC14FD0408F4C3C0E090C606F090AE
:101B3000C706EC14FD0408F456C1E090C806F09006
:101B4000C906EC14FD0408F456C1E090CA06F090F2
:101B5000CB06EC14FD0408F456C1E090CC06F090DE
:101B6000CD06EC14FD0408F456C1E090CE06F090CA
:101B7000CF06EC14FD0408F456C1E090D006F090B6
:101B8000D106EC14FD0408F45AC1E090D206F0909E
:101B9000D306EC14FD0408F45AC1E090D406F0908A
:101BA000D506EC14FD0408F45AC10AE531C010E072
:101BB000ED81FE81ED3BF240FCF481E2810F26963F
:101BC0000FB6F894DEBF0FBECDBFDF91CF911F914E
:101BD0000F91FF90EF90DF90CF90BF90AF909F90CC
:101BE0008F907F906F905F904F903F902F900895CF
:101BF00000E081E2800FE3CFD101CD90DC908091B5
:101C0000BA069091BB068C159D0508F066CF00E0E2
:101C10001F3F79F3ED81FE81BF01FF0F880B990B08
:101C20000E941E186B017C01612F70E080E090E043
:101C30000E941C184B015C01A701960160E070E056
:101C400081E694E40E94CD169B01AC01C501B4016C
:101C50000E944C194B015C01602F70E080E090E025
:101C60000E941C182B013C0120E030E04FE254E4BC
:101C7000C701B6010E94CD169B01AC01C301B201A0
:101C80000E944C199B01AC01C501B4010E94CE1603
:101C900020E030E048E453E40E943A1720E030E0CE
:101CA00044E052E40E94CE160E94ED17862F87CFA3
:101CB00005E085E090E0880F991FFC01E854F94F9A
:101CC00080819181B701681B790B80E090E00E94D0
:101CD0001C189B01AC010E94CE164B015C01B601A1
:101CE000DD0C880B990B0E941E182B013C01B701DB
:101CF00080E090E00E941C186B017C01602F70E076
:101D000080E090E00E941C1820E030E040E05FE3BB
:101D10000E944C1920E030E0A9010E94CE16A501D6
:101D200094010E944C199B01AC01C701B6010E94AD
:101D3000CD169B01AC01C301B2010E94CD1620E07B
:101D400030E040E251E40E944C190E94E6177B010A
:101D5000C501B4010E94E617AB01BC01C701BA017D
:101D60000E943716062F6F3F09F052CF26CF65E04D
:101D700085E090E07C01F1E0EF1AF10870E080E08E
:101D800090E00E941C1820E030E040E05FE30E94F9
:101D90004C1920E030E0A9010E94CE1669837A83B5
:101DA0008B839C8340CE01E081E090E084CF61E0B2
:101DB00081E090E0DFCF02E082E090E07CCF62E063
:101DC00082E090E0D7CF03E083E090E074CF63E05F
:101DD00083E090E0CFCF04E084E090E06CCF64E05B
:101DE00084E090E0C7CF06E086E090E064CF66E054
:101DF00086E090E0BFCF07E087E090E05CCF67E04F
:101E000087E090E0B7CF08E088E090E054CF68E04A
:101E100088E090E0AFCF09E089E090E04CCF69E046
:101E200089E090E0A7CF0AE08AE090E044CF6AE042
:101E30008AE090E09FCF6BE08BE090E09BCF0BE0DF
:101E40008BE090E038CF6CE08CE090E093CF0CE03A
:101E50008CE090E030CF6DE08DE090E08BCF0DE036
:101E60008DE090E028CF1F920F920FB60F921124B1
:101E70002F933F934F935F936F937F938F939F9392
:101E8000AF93BF93EF93FF932091D9063091DA0679
:101E90008091D7069091D806820F931F9093DA060F
:101EA0008093D9068FEF90E09093D8068093D70661
:101EB0008FEF87BD8091B5069091B606A091B706C9
:101EC000B091B8060196A11DB11D8093B5069093FF
:101ED000B606A093B706B093B8068091B9068111F3
:101EE0000FC08091E8069091E9062091D9063091C3
:101EF000DA068217930720F480911F01843089F05D
:101F0000FF91EF91BF91AF919F918F917F916F91D1
:101F10005F914F913F912F910F900FBE0F901F90A7
:101F20001895E0910501F09106010995009741F39C
:101F30000E941B12811109C00E94371A99279093A1
:101F4000D8068093D70687BDDBCFE0910301F091DF
:101F5000040109951092DA061092D906D1CF80FFBC
:101F600011C0559A81FF11C0549A82FF11C03B9A4B
:101F700083FF11C03A9A84FF11C03D9A85FD11C0BC
:101F80003C980895559881FDEFCF549882FDEFCF8E
:101F90003B9883FDEFCF3A9884FDEFCF3D9885FFC6
:101FA000EFCF3C9A08951F920F920FB60F92112413
:101FB0008F939F931092810010928500109284005D
:101FC00081E0809392068093D6061092B906109213
:101FD0007C0093EA90937A0080937B009F918F918D
:101FE0000F900FBE0F901F9018951F920F920FB673
:101FF0000F9211242F933F934F935F936F937F938F
:102000008F939F93AF93BF93CF93DF93EF93FF9300
:10201000209184003091850041E04093B906809181
:1020200092068823A9F110928500109284004093B3
:1020300081001092EA06109292068091D6068823BB
:10204000A1F080917A0086FDFCCF8091780090917C
:1020500079009093B4068093B30681E080937C006E
:1020600093EA90937A0080937B00FF91EF91DF9148
:10207000CF91BF91AF919F918F917F916F915F9120
:102080004F913F912F910F900FBE0F901F90189579
:10209000C901875891098437994008F052C02658E1
:1020A0003109A4EFB0E00E947316AA27BB2788303D
:1020B0009105A105B10508F47BC04093920680917B
:1020C000D606811152C08091B006E82FF0E0E452AC
:1020D000F94F9091EA0690838F5F8093B0068C3021
:1020E00021F6109281001092850010928400409396
:1020F000D6061092B906C091E606D091E7068CED9F
:1021000096E00E94FF11C817D90709F0AECF809161
:10211000E50687FF61C098E7980F933030F0539839
:1021200023981092B4001092B30090E0FC01E058A4
:10213000F109EB30F10508F098CFE55CFF4F0C9406
:102140006D161092810010928500109284004093C9
:1021500092064093D6061092B90610927C0083EA4C
:1021600080937A0040937B0080CF80917A0086FD37
:10217000FCCF80917800909179009093B206809383
:10218000B10610927C0083EA80937A0081E080930C
:102190007B009091EA069923D1F010928100109271
:1021A0008500109284008093D6061092B9065DCF08
:1021B00021E030E0F90102C0EE0FFF1F8A95E2F73F
:1021C000CF019091EA06892B8093EA064ECF1092B8
:1021D000D6061092B00649CFE0910701F0910801B0
:1021E00061EB76E08CED96E009953FCF8091DC06BF
:1021F000823009F4DDC008F4BAC0833009F4C6C0E7
:10220000843009F0B1C080911D019091E2068330C5
:1022100009F4E3C08091E10610921E0123E02093AF
:102220001D018093ED069093EE0680911F0186308C
:1022300009F41BCF539A239A1092B4001092B30062
:1022400086E080931F0111CF80911F01863099F0A5
:10225000539A239A1092B4001092B3005598549850
:102260003B983A983D983C9810921D0110921E019F
:1022700086E080931F0181E090E09C010090DC06E5
:1022800002C0220F331F0A94E2F78091EB0690916F
:10229000EC0682239323892B09F086C010921D013E
:1022A000E4CE81E080931F01E0CEE0E0F0E009950C
:1022B00080916E008D7F80936E0016BCE0E0F0E7A9
:1022C000099510921F01D1CE82E080931F01CDCEDF
:1022D00085E080931F01C9CE80911F01833009F4EE
:1022E000C4CE80911F01843009F4BFCE539A239A43
:1022F0001092B4001092B30083E080931F01B5CE1A
:1023000080911F01863009F0B0CE6091EB0680EB22
:1023100090E00E94E91B6091EC0681EB90E00E9446
:10232000E91B6091EF0685E090E00E94E91B609157
:10233000DB0689E090E00E94E91B6091ED068CE0ED
:1023400090E00E94E91B6091EE0684E190E00E941B
:10235000E91B539823981092B4001092B30081E0C7
:1023600080931F018091DC0681115FCF7ECE882390
:1023700039F28130C9F78091DD069091DE069093A5
:10238000EC068093EB0610921D014FCF80911D014A
:10239000823071F18091E00610921E0192E09093DC
:1023A0001D018093DB0641CF81E080931D015DCE4E
:1023B00080911D01813051F08091DF0610921E0145
:1023C00091E090931D018093EF062FCF8091DF065F
:1023D0009091EF068913F2CF28CF8091EE069813E3
:1023E00019CF8091E1062091ED06821315CF1DCF04
:1023F0008091E0069091DB068913CECF16CFFC01C9
:10240000AC01465F5F4F8FEF9FEF21918227082E2F
:102410008295807F8025092E982F82958F700826BF
:10242000869598278927880F880F880F8025E417BD
:10243000F50759F708950FB6F894A4B12091AF06A7
:102440002A2B24B921E03091AF06203029F000007A
:1024500025B1232B25B904C000000000000000C0F6
:10246000000000000000309525B1232325B92EEA95
:102470002A95F1F72BEE30B735FF0AC0A4B9309199
:10248000AF06309525B1232325B90FBE80E008950E
:1024900000002A9581F721E03091AF06203029F025
:1024A000000025B1232B25B904C000000000000066
:1024B00000C0000000000000309525B1232325B99D
:1024C000000024E52A95F1F7FC018CE0619170E0B1
:1024D000660F771F616072609AE041E050E09A01F8
:1024E00026233723232B3091AF06203029F000001C
:1024F00025B1232B25B904C000000000000000C056
:10250000000000000000309525B1232325B900000C
:1025100021E52A95F1F7440F551F9A9501F78A9501
:10252000A9F620B7206120BFA4B93091AF0630953D
:1025300025B1232325B90FBE81E00895A3E1B0E0C2
:10254000E4EAF2E10C9482166C014B012A01FC01D1
:1025500017821682838181FF43C3AE014F5F5F4FB5
:102560003A01F6019381F40193FD859193FF8191E6
:102570004F01882309F430C3853239F493FD8591E6
:1025800093FF81914F01853239F4B60190E00E94AA
:10259000351B52012501E5CF10E0F12C20E020325F
:1025A000A0F48B3269F030F4803259F0833269F450
:1025B00020612CC08D3239F0803339F4216026C07F
:1025C0002260246023C0286021C027FD27C030ED91
:1025D000380F3A3078F426FF06C0FAE01F9F300D1E
:1025E0001124132F13C04AE0F49E300D1124F32E52
:1025F00020620CC08E3221F426FDEEC2206406C09B
:102600008C3611F4206802C0883641F4F40193FD41
:10261000859193FF81914F018111C1CF9BEB980F61
:10262000933018F42061805E06C09BE9980F9330C8
:1026300008F071C12F7E26FF16E02F73322E8536EB
:1026400019F42064322E08C0863621F4F22FF06887
:102650003F2E02C01111115037FE07C01C3350F439
:10266000EE24E394E10E27E00BC0183038F027E0A9
:1026700017E005C027E04CE3E42E02C0212FE12C37
:10268000520144E0A40EB11CF2016081718182818B
:1026900093810E2DA3010E94471A2C01098100FF8E
:1026A00002C003FF07C031FC08C032FE09C030E29F
:1026B000232E07C02DE2222E04C09BE2292E01C04A
:1026C000212C802F8C7019F0211068C2A8C237FE0F
:1026D0000FC0E40C04FF04C08A81813309F4EA943A
:1026E0001E1474F5F8E0FE1578F588E0E82E2CC08D
:1026F00036FC2AC0812F90E0841595059CF02CEFC4
:1027000042162FEF520674F0432D4068342E0AC053
:10271000E2E0F0E0EC0FFD1FE10FF11D808180335E
:1027200019F411501111F4CF37FE0EC0EE24E394CA
:10273000E10E812F90E0481659062CF4141904C0BC
:10274000EE24E39401C010E037FE06C01414150413
:1027500034F4C201019605C085E090E002C081E03A
:1027600090E021100196112331F0212F30E02F5FEE
:102770003F4F820F931F2F2D30E08217930714F4E1
:10278000F81A01C0F12C832D897049F4FF2039F02B
:10279000B60180E290E00E94351BFA94F7CF222028
:1027A00029F0B601822D90E00E94351B33FC09C050
:1027B000FF2039F0B60180E390E00E94351BFA94C7
:1027C000F7CF37FE5AC0942D852D57FE02C090E0FA
:1027D00080E0292E382E20E030E0A2014E19510968
:1027E0005D874C87A201421953095F874E87612F8D
:1027F00070E044275527461B570B598B488B5FEFDA
:102800002516350649F4B6018EE290E02A8B3B8B03
:102810000E94351B3B892A89421453046CF04C8575
:102820005D854215530544F4EE85FF85E20FF31FE5
:10283000E60DF71D818101C080E351E0251A3108C2
:102840002F5F3F4F48895989241635064CF0B60151
:1028500090E02A8B3B8B0E94351B2A893B89CFCF86
:102860002414350439F49A81963318F4953311F40D
:1028700004FF81E3B60190E04BC08A81813309F007
:102880000F7EB60190E00E94351B111105C034FC8B
:1028900018C085E690E017C0B6018EE290E00E9475
:1028A000351B82E0EE24E394E80EF301E80FF11DFE
:1028B0008081B60190E00E94351B11508E2D91F75A
:1028C000E6CF85E490E0B6010E94351B57FC05C0B9
:1028D0004114510439F404FF05C051944194510846
:1028E0008DE201C08BE2B60190E00E94351B80E3CF
:1028F0009AE0491651042CF08F5F5AE0451A5108AE
:10290000F7CFB60190E00E94351BB601C201C09618
:102910000E94351B57C1833631F0833779F08335F8
:1029200009F058C021C05201E2E0AE0EB11CF20124
:102930008081898301E010E0230114C05201F2E09C
:10294000AF0EB11CF2014080518026FF03C0612F01
:1029500070E002C06FEF7FEFC2012A8B0E942A1B3A
:102960008C012A892F7715C05201F2E0AF0EB11CFD
:10297000F2014080518026FF03C0612F70E002C049
:102980006FEF7FEFC2012A8B0E941F1B8C012A89E7
:102990002068322E23FD1AC08F2D90E008171907EA
:1029A000A8F4B60180E290E00E94351BFA94F4CFBF
:1029B000F20137FC859137FE81912F01B60190E03D
:1029C0000E94351BF110FA940150110901151105EF
:1029D00079F7F8C0843611F0893659F5520127FF8E
:1029E00009C0F4E0AF0EB11CF201608171818281F7
:1029F00093810AC0F2E0AF0EB11CF20160817181D7
:102A0000072E000C880B990B2F76322E97FF09C0EA
:102A100090958095709561957F4F8F4F9F4F20685F
:102A2000322E2AE030E0A3010E94831BE82EE61834
:102A30003FC0022F853721F40F7E2AE030E01DC011
:102A4000097F8F3691F018F4883559F0C5C080376A
:102A500019F0883711F0C0C0006104FF09C004609C
:102A600007C024FF08C0066006C028E030E005C0AB
:102A700020E130E002C020E132E0520107FF09C04E
:102A8000F4E0AF0EB11CF20160817181828193810B
:102A900008C0F2E0AF0EB11CF2016081718180E0EC
:102AA00090E0A3010E94831BE82EE6180F77302EDA
:102AB00036FE0BC0332D3E7FE11650F434FE0AC0C3
:102AC00032FC08C0332D3E7E05C00E2D332D03C0D1
:102AD0000E2D01C0012F34FF0CC0FE01EE0DF11DC3
:102AE0008081803311F4397E08C032FF05C00E5F4B
:102AF00004C0832F867809F00F5F33FD13C030FFC9
:102B000006C01E2D0F1518F41F0D101B0F2D0F15CD
:102B100068F4B60180E290E03B8B0E94351B0F5FAA
:102B20003B89F5CF0F1510F4F01A01C0F12C34FFDA
:102B300012C0B60180E390E03B8B0E94351B3B89BD
:102B400032FF17C031FD03C088E790E002C088E57E
:102B500090E0B6010CC0832F867859F031FF02C097
:102B60008BE201C080E237FD8DE2B60190E00E9469
:102B7000351BE11638F4B60180E390E00E94351B66
:102B80001150F7CFEA94F301EE0DF11D8081B601EB
:102B900090E00E94351BE110F5CF14C0F4E0FF1562
:102BA00058F584E0F81A33FE1EC0211026C003FF3A
:102BB0002AC004EB10E0F32DF0713F2EF801849150
:102BC000811124C0FF2009F4E5CCB60180E290E039
:102BD0000E94351BFA94F6CFF6018681978126C0B4
:102BE0008FEF9FEF23C0B60180E290E00E94351B7B
:102BF000FA94F110F8CFD9CFF12CB601822D90E0E4
:102C00000E94351BD4CF08EB10E0D5CF3110805295
:102C1000B60190E00E94351B0F5F1F4FCFCF23E01E
:102C20002F1510F483E0BECFF12CC1CF6396E2E103
:102C30000C949E160E942F098FE091E0909308015A
:102C4000809307018BE291E0909306018093050148
:102C500086E091E090930401809303016EE477E0B5
:102C600088ED96E00E942B0A80E090E0089597FBA3
:102C7000072E16F4009407D077FD09D00E94B916EC
:102C800007FC05D03EF4909581959F4F089570956F
:102C900061957F4F0895A1E21A2EAA1BBB1BFD016F
:102CA0000DC0AA1FBB1FEE1FFF1FA217B307E4072B
:102CB000F50720F0A21BB30BE40BF50B661F771F83
:102CC000881F991F1A9469F7609570958095909563
:102CD0009B01AC01BD01CF010895EE0FFF1F0590D0
:102CE000F491E02D0994A29FB001B39FC001A39F6E
:102CF000700D811D1124911DB29F700D811D112435
:102D0000911D08952F923F924F925F926F927F9202
:102D10008F929F92AF92BF92CF92DF92EF92FF92EB
:102D20000F931F93CF93DF93CDB7DEB7CA1BDB0B97
:102D30000FB6F894DEBF0FBECDBF09942A8839883C
:102D400048885F846E847D848C849B84AA84B98443
:102D5000C884DF80EE80FD800C811B81AA81B9814F
:102D6000CE0FD11D0FB6F894DEBF0FBECDBFED0163
:102D70000895AA1BBB1B51E107C0AA1FBB1FA617C2
:102D8000B70710F0A61BB70B881F991F5A95A9F714
:102D900080959095BC01CD0108955058BB27AA2776
:102DA0000E94E5160C9497180E94891838F00E942A
:102DB000901820F039F49F3F19F426F40C945F1812
:102DC0000EF4E095E7FB0C945918E92F0E94A8181F
:102DD00058F3BA17620773078407950720F079F450
:102DE000A6F50C94CA180EF4E0950B2EBA2FA02D60
:102DF0000B01B90190010C01CA01A0011124FF27A8
:102E0000591B99F0593F50F4503E68F11A16F040A2
:102E1000A22F232F342F4427585FF3CF46953795A1
:102E20002795A795F0405395C9F77EF41F16BA0B66
:102E3000620B730B840BBAF09150A1F0FF0FBB1F14
:102E4000661F771F881FC2F70EC0BA0F621F731F5D
:102E5000841F48F4879577956795B795F7959E3FBA
:102E600008F0B0CF9395880F08F09927EE0F97954B
:102E7000879508950E944E170C9497180E949018F9
:102E800058F00E94891840F029F45F3F29F00C9413
:102E9000591851110C94CB180C945F180E94A81863
:102EA00068F39923B1F3552391F3951B550BBB2779
:102EB000AA2762177307840738F09F5F5F4F220FBE
:102EC000331F441FAA1FA9F335D00E2E3AF0E0E8B5
:102ED00032D091505040E695001CCAF72BD0FE2FFF
:102EE00029D0660F771F881FBB1F26173707480793
:102EF000AB07B0E809F0BB0B802DBF01FF2793584B
:102F00005F4F3AF09E3F510578F00C9459180C949D
:102F1000CB185F3FE4F3983ED4F386957795679599
:102F2000B795F7959F5FC9F7880F911D969587957F
:102F300097F90895E1E0660F771F881FBB1F62179E
:102F400073078407BA0720F0621B730B840BBA0B5C
:102F5000EE1F88F7E095089529F416F00C9459189F
:102F60000C94CA180C945F180E94B018A8F39638F5
:102F7000A0F707F80F92E8942BE33AEA48EB5FE7F3
:102F80000E9462190F920F920F924DB75EB70F9287
:102F90000E941819ECE8F0E00E9462184F915F91CE
:102FA000EF91FF91E595EE1FFF1F49F0FE57E06896
:102FB0004427EE0F441FFA95E1F74195550B0E9407
:102FC000E2180F9007FE0C94D61808950E94ED1792
:102FD0006894B1110C94CB1808950E94B01888F031
:102FE0009F5798F0B92F9927B751B0F0E1F0660FCD
:102FF000771F881F991F1AF0BA95C9F714C0B1300E
:1030000091F00E94CA18B1E008950C94CA18672F75
:10301000782F8827B85F39F0B93FCCF3869577953C
:103020006795B395D9F73EF4909580957095619525
:103030007F4F8F4F9F4F0895E89409C097FB3EF450
:1030400090958095709561957F4F8F4F9F4F9923F5
:10305000A9F0F92F96E9BB279395F6958795779573
:103060006795B795F111F8CFFAF4BB0F11F460FF33
:103070001BC06F5F7F4F8F4F9F4F16C0882311F08B
:1030800096E911C0772321F09EE8872F762F05C09F
:10309000662371F096E8862F70E060E02AF09A953A
:1030A000660F771F881FDAF7880F9695879597F92F
:1030B000089597F99F6780E870E060E008959FEFBA
:1030C00080EC0895DF93CF931F930F93FF92EF92BD
:1030D000DF927B018C01689406C0DA2EEF010E941A
:1030E0005F19FE01E894A59125913591459155917F
:1030F000A6F3EF010E94E516FE019701A801DA94FC
:1031000069F7DF90EF90FF900F911F91CF91DF91C2
:10311000089500240A94161617061806090608953D
:1031200000240A9412161306140605060895092EA3
:103130000394000C11F4882352F0BB0F40F4BF2B12
:1031400011F460FF04C06F5F7F4F8F4F9F4F089552
:1031500057FD9058440F551F59F05F3F71F0479548
:10316000880F97FB991F61F09F3F79F0879508952D
:10317000121613061406551FF2CF4695F1DF08C04C
:10318000161617061806991FF1CF86957105610569
:1031900008940895E894BB2766277727CB0197F911
:1031A00008950E94B91908F48FEF08959B01AC01AE
:1031B00060E070E080E89FE30C943A170C94591893
:1031C0000C94DD190E94B018D8F39923C9F3940F19
:1031D000511DA3F39150504094F059F0882332F0E0
:1031E000660F771F881F91505040C1F79E3F5105D1
:1031F0002CF7880F911D9695879597F908955F3F55
:10320000ACF0983E9CF0BB27869577956795B7956F
:1032100008F4B1609395C1F7BB0F58F711F460FF44
:10322000E8CF6F5F7F4F8F4F9F4FE3CF0C94CB184A
:10323000FA01DC01AA0FBB1F9B01AC01BF5728F4A8
:10324000222733274427507820C0B75190F4AB2F62
:103250000024469537952795011CA395D2F30020AD
:1032600071F0220F331F441FB395DAF30ED00C9484
:10327000CD1661307105A0E88A07B94630F49B018C
:10328000AC016627772788279078309621F0208335
:1032900031834283538308950E945F190C949718D9
:1032A0000E94891838F00E94901820F0952311F0A0
:1032B0000C9459180C945F1811240C94CB180E948C
:1032C000A81870F3959FC1F3950F50E0551F629FAA
:1032D000F001729FBB27F00DB11D639FAA27F00D6F
:1032E000B11DAA1F649F6627B00DA11D661F829F96
:1032F0002227B00DA11D621F739FB00DA11D621F7B
:10330000839FA00D611D221F749F3327A00D611D97
:10331000231F849F600D211D822F762F6A2F112479
:103320009F5750409AF0F1F088234AF0EE0FFF1FAC
:10333000BB1F661F771F881F91505040A9F79E3F03
:10334000510580F00C9459180C94CB185F3FE4F3AE
:10335000983ED4F3869577956795B795F795E79559
:103360009F5FC1F7FE2B880F911D9695879597F962
:103370000895990F0008550FAA0BE0E8FEEF161606
:103380001706E807F907C0F012161306E407F50759
:1033900098F0621B730B840B950B39F40A2661F0CD
:1033A000232B242B252B21F408950A2609F4A14070
:1033B000A6958FEF811D811D08959F3F31F091509B
:1033C00020F4879577956795B795880F911D969509
:1033D000879597F908958F929F92AF92BF92CF925F
:1033E000DF92EF92FF92CF93DF93EC0168817981B6
:1033F0008A819B81611571058105910521F464E243
:1034000079ED8BE597E02DE133EF41E050E00E944C
:10341000F71B49015A019B01AC01A7EAB1E40E94E4
:10342000161C6B017C01ACEEB4EFA50194010E9467
:10343000241CDC01CB018C0D9D1DAE1DBF1DB7FFF3
:1034400003C00197A109B04888839983AA83BB83ED
:103450009F77DF91CF91FF90EF90DF90CF90BF905B
:10346000AF909F908F9008950E94EB19089589E086
:1034700091E00E94EB190895A0E0B0E0809309016B
:1034800090930A01A0930B01B0930C01089528308A
:1034900008F027E03327DA01990F311D87FD91608D
:1034A00000966105710539F432602E5F3D9330E37B
:1034B0002A95E1F708959F3F30F080387105610546
:1034C00009F03C5F3C5F3D93913008F08068911DAE
:1034D000DF93CF931F930F93FF92EF92192F987F53
:1034E0009695E92F96959695E90FFF27EA5EFE4F90
:1034F00099273327EE24FF24A701E70105900894BC
:10350000079428F4360FE71EF81E491F511D660F59
:10351000771F881F991F0694A1F70590079428F438
:10352000E70EF81E491F561FC11D770F881F991FF0
:10353000661F0694A1F70590079428F4F80E491F1A
:10354000561FC71FD11D880F991F661F771F06942E
:10355000A1F70590079420F4490F561FC71FD81FE5
:10356000990F661F771F881F0694A9F784911095FD
:10357000177041F0D695C79557954795F794E794FE
:103580001A95C1F7ECEBF0E0689415901591359120
:103590006591959105907FE27395E118F10A430BCF
:1035A000560BC90BD009C0F7E10CF11E431F561F83
:1035B000C91FD01D7EF4703311F48A95E6CFE894CC
:1035C000015030F0080F0AF40027021708F4202FEA
:1035D0002395022F7A3328F079E37D932A95E9F732
:1035E00010C07D932A9589F606949795679537952F
:1035F00017951794E118F10A430B560BC90BD00924
:1036000098F023957E9173957A3308F070E37C935C
:103610002013B8F77E9170617D9330F0839571E34C
:103620007D9370E32A95E1F71124EF90FF900F91BD
:103630001F91CF91DF91992787FD90950895FC0107
:103640000590615070400110D8F7809590958E0FCD
:103650009F1F0895FC016150704001900110D8F740
:10366000809590958E0F9F1F08950F931F93CF9372
:10367000DF93FB01238121FD03C08FEF9FEF28C063
:1036800022FF16C046815781248135814217530796
:1036900044F4A081B1819D012F5F3F4F318320838E
:1036A0008C93268137812F5F3F4F3783268310C04D
:1036B000EB01092F182F0084F185E02D0995892B46
:1036C000E1F68E819F8101969F838E83812F902FBB
:1036D000DF91CF911F910F910895A0E0B0E0E3E753
:1036E000FBE10C949216AE014B5F5F4FFA016191C2
:1036F0007191AF018091F2069091F3060E949E12A3
:10370000E2E00C94AE16FA01AA27283051F12031DC
:1037100081F1E8946F936E7F6E5F7F4F8F4F9F4F65
:10372000AF4FB1E03ED0B4E03CD0670F781F891FA7
:103730009A1FA11D680F791F8A1F911DA11D6A0F75
:10374000711D811D911DA11D20D009F468943F9128
:103750002AE0269F11243019305D3193DEF6CF0127
:103760000895462F4770405D4193B3E00FD0C9F7ED
:10377000F6CF462F4F70405D4A3318F0495D31FD5A
:103780004052419302D0A9F7EACFB4E0A6959795AD
:10379000879577956795BA95C9F700976105710583
:1037A00008959B01AC010A2E0694579547953795CD
:1037B0002795BA95C9F7620F731F841F951FA01D27
:1037C0000895F999FECF92BD81BDF89A992780B5E9
:1037D0000895262FF999FECF1FBA92BD81BD20BD55
:1037E0000FB6F894FA9AF99A0FBE01960895052E2D
:1037F00097FB1EF400940E940E1C57FD07D00E94F8
:103800004B1607FC03D04EF40C940E1C50954095BB
:10381000309521953F4F4F4F5F4F0895909580957C
:10382000709561957F4F8F4F9F4F08950E9473163B
:10383000A59F900DB49F900DA49F800D911D112404
:103840000895B7FF0C94161C0E94161C821B930B44
:063850000895F894FFCF7B
:103856002001AA2E092B092A0901000000436861EC
:0C3866006E6765642067656E6F6D65001D
:00000001FF
