:100000000C94C7000C94F0000C94F0000C94F000D9
:100010000C94F0000C94F0000C94E7050C94F000A4
:100020000C94F0000C94F0000C94F0000C94A60BCF
:100030000C94F0000C94F0000C94060B0C94F0005F
:100040000C94F0000C94F0000C94F0000C94F00070
:100050000C94F0000C94F0000C94F0000C94C80B7D
:100060000C94F0000C94F0004D06C9062106180609
:100070001E06AB06A0062B0D080C080C280D340D2F
:10008000240D3B0D370D3F0DF70CC90C6E616E0052
:10009000696E660000407A10F35A00A0724E18098B
:1000A0000010A5D4E80000E87648170000E40B54DF
:1000B000020000CA9A3B000000E1F50500008096AE
:1000C0009800000040420F000000A08601000000E0
:1000D000102700000000E80300000000640000009A
:1000E00000000A00000000000100000000002C7663
:1000F000D888DC674F0823DFC1DFAE59E1B1B7967E
:10010000E5E3E453C63AE651997696E8E6C28426DA
:10011000EB898C9B62ED407C6FFCEFBC9C9F40F2B6
:10012000BAA56FA5F490055A2AF75C936B6CF96732
:100130006DC11BFCE0E40D47FEF520E6B500D0EDF7
:10014000902E0300943577050080841E080000205F
:100150004E0A000000C80C333333330F986E1283FD
:100160001141EF8D2114893BE65516CFFEE6DB18D1
:10017000D1844B381BF77C1D901DA4BBE424203296
:1001800084725E228100C9F124ECA1E53D2711248F
:100190001FBECFEFD8E0DEBFCDBF14BE0FB6F894C0
:1001A000A895809160008861809360001092600043
:1001B0000FBE11E0A0E0B1E0E0E4FEE202C0059075
:1001C0000D92A23AB107D9F722E0A2EAB1E001C04C
:1001D0001D92AE36B207E1F70E94ED110C941E1786
:1001E0000C940000E0910001F0910101ED59FF4FE6
:1001F000108281E00E94820BE0910001F0910101E8
:100200001082DF01A35ABF4F1C92199711961C92BE
:100210001E92129611961C921E9212961C9218977C
:100220001D921D921D921C92139780912D02909108
:100230002E02A0912F02B0913002E25AFF4F80832C
:100240009183A283B3830C9482040F931F93CF9363
:10025000DF938091630290916402892B09F48EC030
:10026000E0910001F091010180912D0290912E0208
:10027000A0912F02B0913002EF01C75ADF4F4881A1
:1002800059816A817B81481759076A077B07B8F152
:10029000DF01AD59BF4F8C91813009F4C5C0B0F179
:1002A000823009F48BC0833029F50E94CD04E0919F
:1002B0000001F09101011586168680912D02909122
:1002C0002E02A0912F02B0913002E05BFF4F8052CE
:1002D0009F4FAF4FBF4F80839183A283B38385E14C
:1002E0000E94820BE0910001F0910101ED59FF4F56
:1002F00081E08083DF91CF911F910F910895DF01FD
:10030000A85ABF4F1C92ED59FF4F108284E10E9402
:10031000820BE0910001F091010140912D0250917A
:100320002E0260912F0270913002E25AFF4F8081BD
:100330009181A281B3818096A11DB11D841795077B
:10034000A607B707B8F680912D0290912E02A091D2
:100350002F02B091300280839183A283B3830E94E5
:100360008204E0910001F09101018081813011F659
:100370001082ED59FF4F83E08083BCCF80E00E9464
:100380004B0480E10E94820BE0910001F091010199
:10039000E35AFF4F80818111ADCF8DE091E09F93B3
:1003A0008F930E941016E0910001F0910101E35A31
:1003B000FF4F81E080830F900F909CCF8081813030
:1003C00009F098CF10828FE291E09F938F930E9463
:1003D0001016E0910001F0910101EE59FF4F80816C
:1003E0001F928F9384E491E09F938F930E94101645
:1003F0008091000190910101DC01AC5ABF4FFC01DA
:10040000EA5AFF4F0F900F900F900F900F900F90A0
:100410004D915C91208131812417350708F06ACF16
:100420003D9683E0808366CF81E00E94820BE0915D
:100430000001F091010140912D0250912E02609136
:100440002F0270913002DF01A05BBF4F0D911D9113
:100450002D913C911397041715072607370780F550
:1004600040912D0250912E0260912F027091300226
:1004700040525F4F6F4F7F4F4D935D936D937C93D1
:100480001397EE59FF4F8081813009F459C081E004
:100490000E944B04E0910001F0910101158616863F
:1004A000DF01AC5ABF4F1D921C92EA5AFF4F1182D6
:1004B000108281E10E94820BE0910001F091010124
:1004C0008081813009F016CF1082DF01AC5ABF4F16
:1004D0002D913C91119712968D919C912817390777
:1004E00008F008CFEE59FF4F8081833051F083E050
:1004F0000E944B04E0910001F0910101EE59FF4F81
:1005000080811F928F9382E191E09F938F930E944D
:10051000101685E10E94820BE0910001F09101012B
:10052000ED59FF4F82E080830F900F900F900F9056
:1005300085E291E0DF91CF911F910F910C942616E7
:1005400082E00E944B04A6CF21E0892B09F020E035
:10055000822F0895EF92FF920F931F93CF93DF9313
:1005600000D000D0CDB7DEB7FC0140910001509122
:100570000101DA01A85ABF4F8C91811102C081E0BC
:100580008C9300912D0210912E0220912F02309118
:100590003002DA01A75ABF4F005C1F4F2F4F3F4F69
:1005A0000D931D932D933C931397DA011E968C9116
:1005B000282F30E08A01B0E18B9F000D111D11241E
:1005C000D8011F969CE001900D929A95E1F7FB01EE
:1005D00080819181A281B381F801838F948FA58F4F
:1005E000B68FC901019683709927DA011E968C9304
:1005F0001E971D962C911D97281759F11F9234E0D4
:100600003F939F938F931F922F9381E591E09F9348
:100610008F930E941016E0910001F0910101258551
:1006200030E0868590E001960FB6F894DEBF0FBEED
:10063000CDBF28173907B1F081E080830F900F906C
:100640000F900F90DF91CF911F910F91FF90EF903E
:100650000895BC016F5F7F4F63707727262F1D962B
:100660006C93CCCF82E791E00E9426164091000166
:1006700050910101DA01AC5ABF4FFA01EA5AFF4F1B
:10068000808191818D939C931182108200E010E013
:100690003AE7E32E31E0F32EC80182959295907FE0
:1006A0009827807F98274B96840F951F0E944708B4
:1006B0001F928F931F930F93FF92EF920E94101639
:1006C000E0910001F0910101858550E1859FE00DE9
:1006D000F11D1124838D948DA58DB68D89839A8308
:1006E000AB83BC83CE0101960E9447084091000174
:1006F00050910101FA01EA5AFF4F20813181280F00
:10070000311D318320830F5F1F4F0F900F900F908B
:100710000F900F900F900430110509F0BDCF369562
:10072000279536952795318320833F932F933297D2
:1007300081818F9380818F9389E891E09F938F933C
:100740000E941016E0910001F091010115861686B5
:100750000F900F900F900F900F900F906DCFEF9222
:10076000FF920F931F93CF93DF9300D000D0CDB7AC
:10077000DEB74091000150910101DA01AC5ABF4F40
:10078000FA01EA5AFF4F808191818D939C931182E7
:10079000108200E010E03AE7E32E31E0F32EC801CA
:1007A00082959295907F9827807F98274B96840F0B
:1007B000951F0E9447081F928F931F930F93FF92DC
:1007C000EF920E941016E0910001F09101018585E1
:1007D00090E1899FE00DF11D1124838D948DA58DED
:1007E000B68D89839A83AB83BC83CE0101960E9428
:1007F00047084091000150910101FA01EA5AFF4F68
:1008000020813181280F311D318320830F5F1F4FDD
:100810000F900F900F900F900F900F9004301105D4
:1008200009F0BDCF369527953695279531832083DE
:100830003F932F93329781818F9380818F9389E8A3
:1008400091E09F938F930E941016E0910001F09128
:100850000101158616860F900F900F900F900F9044
:100860000F900F900F900F900F90DF91CF911F91ED
:100870000F91FF90EF9008958091000190910101F8
:10088000FC01E35AFF4F2081222311F001960895C5
:1008900080E090E00895CF93E0910001F091010194
:1008A000EE59FF4F9081981791F0C82F8230D1F008
:1008B000833079F08130F1F060E080E00E946107E0
:1008C000E0910001F0910101EE59FF4FC083CF91FB
:1008D00008950E94660760915302809167020E940A
:1008E0006107EECF0E9466076091530280E00E948C
:1008F0006107E6CF0E94660760E0809167020E9470
:100900006107DECFCF930E94C007C82FC370E0916C
:100910000001F0910101EE59FF4F8081CC23B9F025
:10092000C330A9F0C13039F1823079F00E946607F6
:100930006091530280E00E946107E0910001F09114
:100940000101EE59FF4F82E08083CF9108958330FB
:10095000E1F30E94660760915302809167020E9452
:100960006107E0910001F0910101EE59FF4F83E032
:100970008083CF910895813041F30E94660760E043
:10098000809167020E946107E0910001F0910101EE
:10099000EE59FF4FC083CF9108950E94C007E091A8
:1009A0000001F0910101EE59FF4F80FF13C08081DB
:1009B000823079F00E9466076091530280E00E94C5
:1009C0006107E0910001F0910101EE59FF4F82E0D3
:1009D0008083089580818130E1F30E94660760E0A2
:1009E000809167020E946107E0910001F09101018E
:1009F000EE59FF4F81E080830895089580E090E0F4
:100A000008950895DF92EF92FF920F931F93CF9373
:100A1000DF93F89414B817B81AB815B818B81BB8FB
:100A2000529A5A9A14BC85E085BD8FEF87BD82E04B
:100A300080936E0010928000109281002FE83BE0BE
:100A4000309389002093880080936F0053982398F7
:100A500091EA9093B0008093B1001092B40010928C
:100A6000B3008BE080BF83E080937F0086E08093BB
:100A70007C0083E880937A0080917A008064809380
:100A80007A0080917A0086FDFCCF10927C0083EA88
:100A900080937A0081E080937B0081E090E00E9467
:100AA000B4168F3F11F08093660010923102C1E0BE
:100AB000C0930A02C0934E02109228021092620262
:100AC00080E990E00E94B41680932702809127026B
:100AD000887311F0C09327021092520210925102B3
:100AE0008FEF90E09093500280934F0210922D026E
:100AF00010922E0210922F021092300281E0809309
:100B0000A50182E49FE0909361028093600280EBF4
:100B100090E00E94B416C82F81EB90E00E94B416BA
:100B20002C2F30E0382B309364022093630285E051
:100B300090E00E94B4168093670289E090E00E94E2
:100B4000B416809353028CE090E00E94B416809318
:100B5000650284E190E00E94B4168093660252E33D
:100B6000E52E52E0F52E0BE012E0C0E2D0E0CE011F
:100B70000E94B416D82ECE0101960E94B4162D2DD7
:100B800030E0322F2227282BF701219331937F0168
:100B9000CE01C0960E94B416D82ECE01C1960E94F6
:100BA000B4162D2D30E0322F2227282BF801219367
:100BB00031938F012296CC33D105C9F67894DF9119
:100BC000CF911F910F91FF90EF90DF9008951F92AA
:100BD0000F920FB60F9211248F930FB6F894A89529
:100BE00080916000886180936000109260000FBE69
:100BF0008F910F900FBE0F901F9018953C01EB0145
:100C000010E099249A9484E0C82E96E0A92E23E857
:100C1000B22E38E1D32E49E2E42E9091A501E92FBE
:100C2000F0E0E730F105C8F7EC5CFF4F0C941E12C2
:100C3000112309F4FCC0C092A50111E0FE01099541
:100C4000ECCF809131028111EBC0F894A0927C002E
:100C5000B0927A0080917A00806480937A009091BB
:100C60007A0096FDFCCF809178009091790078947D
:100C70008B3AE2E09E070CF0EDC08938F2E09F0766
:100C80000CF0EFC0873692400CF4CAC0559A549AC3
:100C90003B9A3A9A3D983C98C0CFF89480B7877FAA
:100CA00080BF80917A008F7780937A0014B817B84C
:100CB0001AB815B818B81BB80FB6F894A895D09202
:100CC00060000FBEE09260008091600080648093BD
:100CD000600093B7917F946093BFF89483B781606D
:100CE00083BF7894889583B78E7F83BF7894109262
:100CF0003102529A5A9A80917A00806880937A00E1
:100D000087E592E00197F1F700C0000080B78861A5
:100D100080BF559A549A3B9A3A9A3D9A3C9AEFE191
:100D2000FEE43197F1F700C000008091310281119B
:100D300081C0559854983B983A983D983C986DCF0F
:100D40008091A301811141C01092B3001092B400B0
:100D50001092A40162CF4899ECCF559A54983B98D1
:100D60003A983D983C988FEC97E00197F1F700C0D6
:100D70000000559854983B983A983D983C989FEFBE
:100D8000E1EEF4E09150E040F040E1F700C00000F7
:100D900044CF559854983B9A3A9A3D983C98EFEC3A
:100DA000F7E03197F1F700C00000559854983B9850
:100DB0003A983D983C98FFEF21EE84E0F1502040B6
:100DC0008040E1F700C0000028CF9091A3018091FE
:100DD000A401981709F421CF8091A3018093A40165
:100DE0008091A301813009F450C08091A301109239
:100DF000B3009092B4008230D9F19092B3009092F7
:100E0000B4008FE295E70197F1F700C000008091F0
:100E10006602909165029093B3008093B400FDCE7A
:100E2000559A549A3B983A983D983C98F6CEF301DF
:100E3000099501CF559A549A3B983A983D983C9819
:100E4000FFEF20E782E0F15020408040E1F700C052
:100E500000006FCF559854983B9A3A9A3D983C9829
:100E6000DCCE559854983B983A983D9A3C9AD5CE0A
:100E7000EFE2F5E73197F1F700C0000080915302EF
:100E80001092B3008093B400C8CE9092B300109239
:100E9000B4008FE295E70197F1F700C00000809160
:100EA00067028093B3001092B400B7CE07C0EFEC96
:100EB000F7E03197F1F700C0000001970097B9F70C
:100EC00008958093B3006093B40008958FEF8093EA
:100ED000B3008093B4008FE090E0EFECF7E031973F
:100EE000F1F700C000000197C1F708958091310229
:100EF00081111EC0F89487E080937C0083E8809382
:100F00007A0080917A00806480937A0080917A00E0
:100F100086FDFCCF809178009091790010927C0042
:100F200023EA20937A0021E020937B0078940895AF
:100F30008FEF9FEF08958091310281111EC0F894C8
:100F400088EC80937C0087E880937A0080917A0017
:100F5000806480937A0080917A0086FDFCCF809136
:100F600078009091790010927C0023EA20937A0017
:100F700021E020937B00789408958FEF9FEF0895F0
:100F80000F931F93CF93DF93E0E0F0E080E003EA5C
:100F900011E0D6E0C3E8A1E0B0E060E870E0F894CA
:100FA000D0937C00C0937A0090917A0090649093E3
:100FB0007A0090917A0096FDFCCF209178003091D4
:100FC0007900217090917A00906490937A009091CA
:100FD0007A0096FDFCCF40917800509179001092F4
:100FE0007C0000937A0010937B0078944170241366
:100FF00003C06150710999F6222339F09D010E2E2C
:1010000001C0220F0A94EAF7822B3196E830F105ED
:1010100009F0C3CFDF91CF911F910F910895809177
:101020000201982F990F990F990F89279091A2018A
:1010300021E0290F2093A201282F229526952770C1
:10104000822796959695892780930201089580932B
:101050000201089580913102811116C0F89486E052
:1010600080937C0083E880937A0080917A0080648A
:1010700080937A0080917A0086FDFCCF8091780081
:1010800090917900789408958FEF9FEF08952F92B3
:101090003F924F925F926F927F928F929F92AF9208
:1010A000BF92CF92DF92EF92FF920F931F93CF9355
:1010B000DF9300D000D000D0CDB7DEB71C01DC013B
:1010C00012960D90BC91A02DBE83AD83A438E3E0B1
:1010D000BE070CF0C9C080910B0290910C028A17D8
:1010E0009B0708F437C100910D0210910E020A17F8
:1010F0001B0708F42FC200910F02109110020A176B
:101100001B0708F42FC200911102109112020A1756
:101110001B0708F42FC200911302109114020A1742
:101120001B0708F42FC200911502109116020A172E
:101130001B0708F4EFC100911702109118020A175B
:101140001B0708F427C20091190210911A020A170E
:101150001B0708F427C200911B0210911C020A17FA
:101160001B0708F427C200911D0210911E020A17E6
:101170001B0708F427C200911F02109120020A17D2
:101180001B0708F427C200912102109122020A17BE
:101190001B0708F423C200912302109124020A17AE
:1011A0001B0708F423C200912502109126020A179A
:1011B0001B0708F423C280E090E0A0EDB0E489832F
:1011C0009A83AB83BC834CE0E42EF12CF701EE0F45
:1011D000FF1FE55FFD4F80819181B801681B790B8E
:1011E00080E090E00E9493139B01AC010E947F126B
:1011F0006B017C01AD81BE81BD01BB0F880B990BDA
:101200000E9495134B015C01B80180E090E00E94C0
:1012100093132B013C0129813A814B815C81C701E9
:10122000B6010E9421149B01AC01C301B2010E94CE
:101230007E129B01AC01C501B4010E947E1220E028
:1012400030E040E251E40E9421140E945D138B01C2
:10125000C701B6010E945D13AB01BC01C801BA0110
:101260000E940A12162F77C0DC01CD90DC9080918D
:101270003202909133028C159D0508F48CC01FEF4B
:10128000E0903402F0903502EC14FD0408F45EC1E5
:10129000E0903602F0903702EC14FD0408F45EC1D1
:1012A000E0903802F0903902EC14FD0408F45EC1BD
:1012B000E0903A02F0903B02EC14FD0408F45EC1A9
:1012C000E0903C02F0903D02EC14FD0408F4C3C031
:1012D000E0903E02F0903F02EC14FD0408F456C189
:1012E000E0904002F0904102EC14FD0408F456C175
:1012F000E0904202F0904302EC14FD0408F456C161
:10130000E0904402F0904502EC14FD0408F456C14C
:10131000E0904602F0904702EC14FD0408F456C138
:10132000E0904802F0904902EC14FD0408F45AC120
:10133000E0904A02F0904B02EC14FD0408F45AC10C
:10134000E0904C02F0904D02EC14FD0408F45AC1F8
:101350000AE531C010E0ED81FE81ED3BF240FCF486
:1013600081E2810F26960FB6F894DEBF0FBECDBF87
:10137000DF91CF911F910F91FF90EF90DF90CF9071
:10138000BF90AF909F908F907F906F905F904F90A5
:101390003F902F90089500E081E2800FE3CFD101CC
:1013A000CD90DC9080913202909133028C159D0596
:1013B00008F066CF00E01F3F79F3ED81FE81BF01A9
:1013C000FF0F880B990B0E9495136B017C01612F15
:1013D00070E080E090E00E9493134B015C01A70154
:1013E000960160E070E081E694E40E947E129B0129
:1013F000AC01C501B4010E9421144B015C01602FB6
:1014000070E080E090E00E9493132B013C0120E00B
:1014100030E04FE254E4C701B6010E947E129B0106
:10142000AC01C301B2010E9421149B01AC01C501B2
:10143000B4010E947F1220E030E048E453E40E94AF
:10144000EB1220E030E044E052E40E947F120E9460
:101450006413862F87CF05E085E090E0880F991F01
:10146000FC01E05DFD4F80819181B701681B790B24
:1014700080E090E00E9493139B01AC010E947F12D8
:101480004B015C01B601DD0C880B990B0E94951392
:101490002B013C01B70180E090E00E9493136B01A7
:1014A0007C01602F70E080E090E00E94931320E0C8
:1014B00030E040E05FE30E94211420E030E0A90129
:1014C0000E947F12A50194010E9421149B01AC018E
:1014D000C701B6010E947E129B01AC01C301B2019B
:1014E0000E947E1220E030E040E251E40E9421148C
:1014F0000E945D137B01C501B4010E945D13AB0125
:10150000BC01C701BA010E940A12062F6F3F09F001
:1015100052CF26CF65E085E090E07C01F1E0EF1A44
:10152000F10870E080E090E00E94931320E030E04A
:1015300040E05FE30E94211420E030E0A9010E9416
:101540007F1269837A838B839C8340CE01E081E0A4
:1015500090E084CF61E081E090E0DFCF02E082E0C4
:1015600090E07CCF62E082E090E0D7CF03E083E0C0
:1015700090E074CF63E083E090E0CFCF04E084E0BC
:1015800090E06CCF64E084E090E0C7CF06E086E0B6
:1015900090E064CF66E086E090E0BFCF07E087E0B0
:1015A00090E05CCF67E087E090E0B7CF08E088E0AC
:1015B00090E054CF68E088E090E0AFCF09E089E0A8
:1015C00090E04CCF69E089E090E0A7CF0AE08AE0A4
:1015D00090E044CF6AE08AE090E09FCF6BE08BE040
:1015E00090E09BCF0BE08BE090E038CF6CE08CE09C
:1015F00090E093CF0CE08CE090E030CF6DE08DE098
:1016000090E08BCF0DE08DE090E028CF1F920F92FD
:101610000FB60F9211242F933F934F935F936F93C5
:101620007F938F939F93AF93BF93EF93FF932091FB
:1016300051023091520280914F0290915002820FDC
:10164000931F90935202809351028FEF90E09093FA
:10165000500280934F028FEF87BD80912D029091B1
:101660002E02A0912F02B09130020196A11DB11D52
:1016700080932D0290932E02A0932F02B0933002FC
:101680008091310281110FC08091600290916102BE
:1016900020915102309152028217930720F48091D9
:1016A000A501843089F0FF91EF91BF91AF919F9197
:1016B0008F917F916F915F914F913F912F910F90FB
:1016C0000FBE0F901F901895E0910501F091060153
:1016D0000995009741F30E94EE0D811109C00E9407
:1016E000DA1499279093500280934F0287BDDBCF85
:1016F000E0910301F09104010995109252021092B9
:101700005102D1CF80FF11C0559A81FF11C0549A68
:1017100082FF11C03B9A83FF11C03A9A84FF11C027
:101720003D9A85FD11C03C980895559881FDEFCFF5
:10173000549882FDEFCF3B9883FDEFCF3A9884FD1C
:10174000EFCF3D9885FFEFCF3C9A08951F920F92FF
:101750000FB60F9211248F939F93109281001092D5
:1017600085001092840081E080930A0280934E02EB
:101770001092310210927C0093EA90937A00809349
:101780007B009F918F910F900FBE0F901F90189527
:101790001F920F920FB60F9211242F933F934F93E6
:1017A0005F936F937F938F939F93AF93BF93CF93E9
:1017B000DF93EF93FF93209184003091850041E007
:1017C0004093310280910A028823A9F1109285008A
:1017D00010928400409381001092620210920A02DB
:1017E00080914E028823A1F080917A0086FDFCCF83
:1017F000809178009091790090932C0280932B0235
:1018000081E080937C0093EA90937A0080937B0040
:10181000FF91EF91DF91CF91BF91AF919F918F9108
:101820007F916F915F914F913F912F910F900FBEDC
:101830000F901F901895C9018758910984379940D6
:1018400008F052C026583109A4EFB0E00E942412DB
:10185000AA27BB2788309105A105B10508F47BC0F4
:1018600040930A0280914E02811152C08091280259
:10187000E82FF0E0EC5AFD4F9091620290838F5F69
:10188000809328028C3021F61092810010928500FE
:101890001092840040934E0210923102C0915E0279
:1018A000D0915F0284E592E00E94D20DC817D9075B
:1018B00009F0AECF80915D0287FF61C098E7980F75
:1018C000933030F0539823981092B4001092B300E4
:1018D00090E0FC01E058F109EB30F10508F098CFF9
:1018E000E55CFF4F0C941E1210928100109285004F
:1018F0001092840040930A0240934E0210923102EB
:1019000010927C0083EA80937A0040937B0080CF22
:1019100080917A0086FDFCCF8091780090917900CB
:1019200090932A028093290210927C0083EA80938C
:101930007A0081E080937B00909162029923D1F03C
:1019400010928100109285001092840080934E02C4
:10195000109231025DCF21E030E0F90102C0EE0FBC
:10196000FF1F8A95E2F7CF0190916202892B809345
:1019700062024ECF10924E021092280249CFE0919F
:101980000701F091080169E272E084E592E00995AF
:101990003FCF80915402823009F4DDC008F4BAC010
:1019A000833009F4C6C0843009F0B1C08091A3012E
:1019B00090915A02833009F4E3C080915902109249
:1019C000A40123E02093A301809365029093660213
:1019D0008091A501863009F41BCF539A239A109267
:1019E000B4001092B30086E08093A50111CF8091DE
:1019F000A501863099F0539A239A1092B400109260
:101A0000B300559854983B983A983D983C9810925A
:101A1000A3011092A40186E08093A50181E090E0EB
:101A20009C010090540202C0220F331F0A94E2F777
:101A3000809163029091640282239323892B09F0A1
:101A400086C01092A301E4CE81E08093A501E0CE90
:101A5000E0E0F0E0099580916E008D7F80936E004C
:101A600016BCE0E0F0E709951092A501D1CE82E026
:101A70008093A501CDCE85E08093A501C9CE80914C
:101A8000A501833009F4C4CE8091A501843009F406
:101A9000BFCE539A239A1092B4001092B30083E001
:101AA0008093A501B5CE8091A501863009F0B0CE16
:101AB0006091630280EB90E00E94BC16609164022A
:101AC00081EB90E00E94BC166091670285E090E097
:101AD0000E94BC166091530289E090E00E94BC16FF
:101AE000609165028CE090E00E94BC1660916602F5
:101AF00084E190E00E94BC16539823981092B400A1
:101B00001092B30081E08093A5018091540281116D
:101B10005FCF7ECE882339F28130C9F7809155029C
:101B20009091560290936402809363021092A301F5
:101B30004FCF8091A301823071F1809158021092B1
:101B4000A40192E09093A3018093530241CF81E0DE
:101B50008093A3015DCE8091A301813051F08091EB
:101B600057021092A40191E09093A3018093670221
:101B70002FCF80915702909167028913F2CF28CF1F
:101B800080916602981319CF8091590220916502C5
:101B9000821315CF1DCF8091580290915302891363
:101BA000CECF16CFFC01AC01465F5F4F8FEF9FEFAA
:101BB00021918227082E8295807F8025092E982FDB
:101BC00082958F700826869598278927880F880F19
:101BD000880F8025E417F50759F708950FB6F89494
:101BE000A4B1209127022A2B24B921E030912702A9
:101BF000203029F0000025B1232B25B904C00000B6
:101C00000000000000C0000000000000309525B179
:101C1000232325B92EEA2A95F1F72BEE30B735FFAD
:101C20000AC0A4B930912702309525B1232325B9E4
:101C30000FBE80E0089500002A9581F721E03091E1
:101C40002702203029F0000025B1232B25B904C03C
:101C500000000000000000C00000000000003095FF
:101C600025B1232325B9000024E52A95F1F7FC01CD
:101C70008CE0619170E0660F771F616072609AE09E
:101C800041E050E09A0126233723232B309127028D
:101C9000203029F0000025B1232B25B904C0000015
:101CA0000000000000C0000000000000309525B1D9
:101CB000232325B9000021E52A95F1F7440F551F8C
:101CC0009A9501F78A95A9F620B7206120BFA4B99B
:101CD00030912702309525B1232325B90FBE81E02D
:101CE0000895A3E1B0E0E7E7FEE00C9433126C0145
:101CF0004B012A01FC0117821682838181FF43C3B5
:101D0000AE014F5F5F4F3A01F6019381F40193FDFD
:101D1000859193FF81914F01882309F430C3853267
:101D200039F493FD859193FF81914F01853239F408
:101D3000B60190E00E94D81552012501E5CF10E0D0
:101D4000F12C20E02032A0F48B3269F030F48032A4
:101D500059F0833269F420612CC08D3239F0803320
:101D600039F4216026C02260246023C0286021C08D
:101D700027FD27C030ED380F3A3078F426FF06C033
:101D8000FAE01F9F300D1124132F13C04AE0F49E78
:101D9000300D1124F32E20620CC08E3221F426FD6A
:101DA000EEC2206406C08C3611F4206802C088366A
:101DB00041F4F40193FD859193FF81914F018111CD
:101DC000C1CF9BEB980F933018F42061805E06C062
:101DD0009BE9980F933008F071C12F7E26FF16E023
:101DE0002F73322E853619F42064322E08C08636C1
:101DF00021F4F22FF0683F2E02C01111115037FE6E
:101E000007C01C3350F4EE24E394E10E27E00BC02E
:101E1000183038F027E017E005C027E04CE3E42E47
:101E200002C0212FE12C520144E0A40EB11CF201AA
:101E300060817181828193810E2DA3010E94EA1439
:101E40002C01098100FF02C003FF07C031FC08C05C
:101E500032FE09C030E2232E07C02DE2222E04C03C
:101E60009BE2292E01C0212C802F8C7019F02110AB
:101E700068C2A8C237FE0FC0E40C04FF04C08A8108
:101E8000813309F4EA941E1474F5F8E0FE1578F530
:101E900088E0E82E2CC036FC2AC0812F90E0841503
:101EA00095059CF02CEF42162FEF520674F0432D4F
:101EB0004068342E0AC0E2E0F0E0EC0FFD1FE10FB5
:101EC000F11D8081803319F411501111F4CF37FEC8
:101ED0000EC0EE24E394E10E812F90E048165906DF
:101EE0002CF4141904C0EE24E39401C010E037FE72
:101EF00006C01414150434F4C201019605C085E02F
:101F000090E002C081E090E021100196112331F0B1
:101F1000212F30E02F5F3F4F820F931F2F2D30E096
:101F20008217930714F4F81A01C0F12C832D8970DD
:101F300049F4FF2039F0B60180E290E00E94D81504
:101F4000FA94F7CF222029F0B601822D90E00E946A
:101F5000D81533FC09C0FF2039F0B60180E390E0CA
:101F60000E94D815FA94F7CF37FE5AC0942D852DCC
:101F700057FE02C090E080E0292E382E20E030E0AD
:101F8000A2014E1951095D874C87A20142195309DC
:101F90005F874E87612F70E044275527461B570BFC
:101FA000598B488B5FEF2516350649F4B6018EE252
:101FB00090E02A8B3B8B0E94D8153B892A894214DA
:101FC00053046CF04C855D854215530544F4EE8551
:101FD000FF85E20FF31FE60DF71D818101C080E34D
:101FE00051E0251A31082F5F3F4F4889598924163F
:101FF00035064CF0B60190E02A8B3B8B0E94D81539
:102000002A893B89CFCF2414350439F49A81963339
:1020100018F4953311F404FF81E3B60190E04BC04E
:102020008A81813309F00F7EB60190E00E94D815B5
:10203000111105C034FC18C085E690E017C0B60148
:102040008EE290E00E94D81582E0EE24E394E80E40
:10205000F301E80FF11D8081B60190E00E94D815D0
:1020600011508E2D91F7E6CF85E490E0B6010E94E5
:10207000D81557FC05C04114510439F404FF05C0BC
:102080005194419451088DE201C08BE2B60190E079
:102090000E94D81580E39AE0491651042CF08F5F16
:1020A0005AE0451A5108F7CFB60190E00E94D815C2
:1020B000B601C201C0960E94D81557C1833631F0CF
:1020C000833779F0833509F058C021C05201E2E02E
:1020D000AE0EB11CF2018081898301E010E0230182
:1020E00014C05201F2E0AF0EB11CF20140805180E9
:1020F00026FF03C0612F70E002C06FEF7FEFC201C7
:102100002A8B0E94CD158C012A892F7715C0520188
:10211000F2E0AF0EB11CF2014080518026FF03C0F7
:10212000612F70E002C06FEF7FEFC2012A8B0E9427
:10213000C2158C012A892068322E23FD1AC08F2DEA
:1021400090E008171907A8F4B60180E290E00E9419
:10215000D815FA94F4CFF20137FC859137FE8191BE
:102160002F01B60190E00E94D815F110FA940150A9
:1021700011090115110579F7F8C0843611F0893677
:1021800059F5520127FF09C0F4E0AF0EB11CF2016E
:1021900060817181828193810AC0F2E0AF0EB11C2F
:1021A000F20160817181072E000C880B990B2F764C
:1021B000322E97FF09C090958095709561957F4F5D
:1021C0008F4F9F4F2068322E2AE030E0A3010E94FB
:1021D0005616E82EE6183FC0022F853721F40F7EF1
:1021E0002AE030E01DC0097F8F3691F018F4883561
:1021F00059F0C5C0803719F0883711F0C0C00061B0
:1022000004FF09C0046007C024FF08C0066006C0C0
:1022100028E030E005C020E130E002C020E132E0FB
:10222000520107FF09C0F4E0AF0EB11CF20160815A
:1022300071818281938108C0F2E0AF0EB11CF2017E
:102240006081718180E090E0A3010E945616E82E23
:10225000E6180F77302E36FE0BC0332D3E7FE11689
:1022600050F434FE0AC032FC08C0332D3E7E05C057
:102270000E2D332D03C00E2D01C0012F34FF0CC0D5
:10228000FE01EE0DF11D8081803311F4397E08C00E
:1022900032FF05C00E5F04C0832F867809F00F5F00
:1022A00033FD13C030FF06C01E2D0F1518F41F0D8F
:1022B000101B0F2D0F1568F4B60180E290E03B8BE8
:1022C0000E94D8150F5F3B89F5CF0F1510F4F01A57
:1022D00001C0F12C34FF12C0B60180E390E03B8BCB
:1022E0000E94D8153B8932FF17C031FD03C088E733
:1022F00090E002C088E590E0B6010CC0832F86789C
:1023000059F031FF02C08BE201C080E237FD8DE25F
:10231000B60190E00E94D815E11638F4B60180E3CA
:1023200090E00E94D8151150F7CFEA94F301EE0D1A
:10233000F11D8081B60190E00E94D815E110F5CF23
:1023400014C0F4E0FF1558F584E0F81A33FE1EC0FF
:10235000211026C003FF2AC00CE810E0F32DF07115
:102360003F2EF8018491811124C0FF2009F4E5CCAF
:10237000B60180E290E00E94D815FA94F6CFF601FB
:102380008681978126C08FEF9FEF23C0B60180E240
:1023900090E00E94D815FA94F110F8CFD9CFF12C23
:1023A000B601822D90E00E94D815D4CF00E910E04C
:1023B000D5CF31108052B60190E00E94D8150F5F42
:1023C0001F4FCFCF23E02F1510F483E0BECFF12CA9
:1023D000C1CF6396E2E10C944F120E940205E09196
:1023E0000001F0910101158616868AEA92E0909329
:1023F0000801809307018CE394E090930601809399
:10240000050165E271E082EF90E00E94FE0580E048
:1024100090E0089597FB072E16F4009407D077FDFF
:1024200009D00E946A1207FC05D03EF49095819570
:102430009F4F0895709561957F4F0895EE0FFF1F90
:102440000590F491E02D0994A29FB001B39FC001C3
:10245000A39F700D811D1124911DB29F700D811DD0
:102460001124911D08952F923F924F925F926F9287
:102470007F928F929F92AF92BF92CF92DF92EF9214
:10248000FF920F931F93CF93DF93CDB7DEB7CA1B95
:10249000DB0B0FB6F894DEBF0FBECDBF09942A88C0
:1024A000398848885F846E847D848C849B84AA8468
:1024B000B984C884DF80EE80FD800C811B81AA81F5
:1024C000B981CE0FD11D0FB6F894DEBF0FBECDBFC0
:1024D000ED010895AA1BBB1B51E107C0AA1FBB1F3A
:1024E000A617B70710F0A61BB70B881F991F5A95A0
:1024F000A9F780959095BC01CD0108955058BB2750
:10250000AA270E9496120C94E7130E94D91338F060
:102510000E94E01320F039F49F3F19F426F40C9444
:10252000D6130EF4E095E7FB0C94D013E92F0E942C
:10253000F81358F3BA17620773078407950720F05A
:1025400079F4A6F50C941A140EF4E0950B2EBA2F1C
:10255000A02D0B01B90190010C01CA01A0011124A9
:10256000FF27591B99F0593F50F4503E68F11A1655
:10257000F040A22F232F342F4427585FF3CF4695E6
:1025800037952795A795F0405395C9F77EF41F1608
:10259000BA0B620B730B840BBAF09150A1F0FF0FD2
:1025A000BB1F661F771F881FC2F70EC0BA0F621FBE
:1025B000731F841F48F4879577956795B795F795AE
:1025C0009E3F08F0B0CF9395880F08F09927EE0F43
:1025D0009795879508950E94FF120C94E7130E9427
:1025E000E01358F00E94D91340F029F45F3F29F01E
:1025F0000C94D01351110C941B140C94D6130E94FC
:10260000F81368F39923B1F3552391F3951B550BF8
:10261000BB27AA2762177307840738F09F5F5F4FB5
:10262000220F331F441FAA1FA9F335D00E2E3AF0F4
:10263000E0E832D091505040E695001CCAF72BD00C
:10264000FE2F29D0660F771F881FBB1F261737075D
:102650004807AB07B0E809F0BB0B802DBF01FF278F
:1026600093585F4F3AF09E3F510578F00C94D01389
:102670000C941B145F3FE4F3983ED4F38695779552
:102680006795B795F7959F5FC9F7880F911D969548
:10269000879597F90895E1E0660F771F881FBB1FA4
:1026A000621773078407BA0720F0621B730B840B51
:1026B000BA0BEE1F88F7E09508950E9464136894A2
:1026C000B1110C941B1408950E94001488F09F57B8
:1026D00098F0B92F9927B751B0F0E1F0660F771F46
:1026E000881F991F1AF0BA95C9F714C0B13091F03C
:1026F0000E941A14B1E008950C941A14672F782FD1
:102700008827B85F39F0B93FCCF386957795679500
:10271000B395D9F73EF490958095709561957F4F6C
:102720008F4F9F4F0895E89409C097FB3EF4909512
:102730008095709561957F4F8F4F9F4F9923A9F09A
:10274000F92F96E9BB279395F69587957795679529
:10275000B795F111F8CFFAF4BB0F11F460FF1BC06D
:102760006F5F7F4F8F4F9F4F16C0882311F096E900
:1027700011C0772321F09EE8872F762F05C06623AE
:1027800071F096E8862F70E060E02AF09A95660F67
:10279000771F881FDAF7880F9695879597F9089520
:1027A00097F99F6780E870E060E008959FEF80EC04
:1027B000089500240A9416161706180609060895A7
:1027C00000240A9412161306140605060895092E0D
:1027D0000394000C11F4882352F0BB0F40F4BF2B7C
:1027E00011F460FF04C06F5F7F4F8F4F9F4F0895BC
:1027F00057FD9058440F551F59F05F3F71F04795B2
:10280000880F97FB991F61F09F3F79F08795089596
:10281000121613061406551FF2CF4695F1DF08C0B5
:10282000161617061806991FF1CF869571056105D2
:1028300008940895E894BB2766277727CB0197F97A
:1028400008950E9434140C94E7130E94D91338F0B1
:102850000E94E01320F0952311F00C94D0130C94F7
:10286000D61311240C941B140E94F81370F3959F37
:10287000C1F3950F50E0551F629FF001729FBB2777
:10288000F00DB11D639FAA27F00DB11DAA1F649F13
:102890006627B00DA11D661F829F2227B00DA11DC6
:1028A000621F739FB00DA11D621F839FA00D611D4C
:1028B000221F749F3327A00D611D231F849F600D6D
:1028C000211D822F762F6A2F11249F5750409AF096
:1028D000F1F088234AF0EE0FFF1FBB1F661F771F22
:1028E000881F91505040A9F79E3F510580F00C94ED
:1028F000D0130C941B145F3FE4F3983ED4F38695F9
:1029000077956795B795F795E7959F5FC1F7FE2B8C
:10291000880F911D9695879597F908958F929F92AC
:10292000AF92BF92CF92DF92EF92FF92CF93DF935D
:10293000EC01688179818A819B816115710581052E
:10294000910521F464E279ED8BE597E02DE133EF19
:1029500041E050E00E94CA1649015A019B01AC01B6
:10296000A7EAB1E40E94E9166B017C01ACEEB4EF7A
:10297000A50194010E94F716DC01CB018C0D9D1D71
:10298000AE1DBF1DB7FF03C00197A109B0488883E2
:102990009983AA83BB839F77DF91CF91FF90EF90BC
:1029A000DF90CF90BF90AF909F908F9008950E943E
:1029B0008E14089589E091E00E948E140895A0E09D
:1029C000B0E08093090190930A01A0930B01B093AA
:1029D0000C010895283008F027E03327DA01990F19
:1029E000311D87FD916000966105710539F43260F3
:1029F0002E5F3D9330E32A95E1F708959F3F30F035
:102A000080387105610509F03C5F3C5F3D93913072
:102A100008F08068911DDF93CF931F930F93FF926F
:102A2000EF92192F987F9695E92F96959695E90F35
:102A3000FF27E251FF4F99273327EE24FF24A701F8
:102A4000E70105900894079428F4360FE71EF81E56
:102A5000491F511D660F771F881F991F0694A1F704
:102A60000590079428F4E70EF81E491F561FC11D54
:102A7000770F881F991F661F0694A1F7059007948A
:102A800028F4F80E491F561FC71FD11D880F991F24
:102A9000661F771F0694A1F70590079420F4490F4D
:102AA000561FC71FD81F990F661F771F881F0694D0
:102AB000A9F784911095177041F0D695C795579551
:102AC0004795F794E7941A95C1F7E4E9F0E0689424
:102AD0001590159135916591959105907FE27395CB
:102AE000E118F10A430B560BC90BD009C0F7E10CF2
:102AF000F11E431F561FC91FD01D7EF4703311F401
:102B00008A95E6CFE894015030F0080F0AF40027C8
:102B1000021708F4202F2395022F7A3328F079E347
:102B20007D932A95E9F710C07D932A9589F606943E
:102B300097956795379517951794E118F10A430B08
:102B4000560BC90BD00998F023957E9173957A3373
:102B500008F070E37C932013B8F77E9170617D9349
:102B600030F0839571E37D9370E32A95E1F71124AA
:102B7000EF90FF900F911F91CF91DF91992787FDE3
:102B800090950895FC010590615070400110D8F7B0
:102B9000809590958E0F9F1F0895FC0161507040A5
:102BA00001900110D8F7809590958E0F9F1F089582
:102BB0000F931F93CF93DF93FB01238121FD03C06C
:102BC0008FEF9FEF28C022FF16C0468157812481D6
:102BD00035814217530744F4A081B1819D012F5FD5
:102BE0003F4F318320838C93268137812F5F3F4F66
:102BF0003783268310C0EB01092F182F0084F1853D
:102C0000E02D0995892BE1F68E819F8101969F83A6
:102C10008E83812F902FDF91CF911F910F91089577
:102C2000A0E0B0E0E6E1F6E10C944312AE014B5FA8
:102C30005F4FFA0161917191AF0180916A029091A9
:102C40006B020E94710EE2E00C945F120F931F93CF
:102C5000CF93DF93E0916A02F0916B02238121FF11
:102C60001BC08C01D0E0C0E0F80181918F01609120
:102C70006A0270916B02DB011896ED91FC91199735
:102C8000882331F00995892B79F3DFEFCFEFECCF73
:102C90008AE00995892B19F08FEF9FEF02C08D2FE5
:102CA0009C2FDF91CF911F910F910895FA01AA27D0
:102CB000283051F1203181F1E8946F936E7F6E5F7F
:102CC0007F4F8F4F9F4FAF4FB1E03ED0B4E03CD02D
:102CD000670F781F891F9A1FA11D680F791F8A1F10
:102CE000911DA11D6A0F711D811D911DA11D20D077
:102CF00009F468943F912AE0269F11243019305D31
:102D00003193DEF6CF010895462F4770405D419321
:102D1000B3E00FD0C9F7F6CF462F4F70405D4A336E
:102D200018F0495D31FD4052419302D0A9F7EACF36
:102D3000B4E0A6959795879577956795BA95C9F765
:102D400000976105710508959B01AC010A2E069458
:102D50005795479537952795BA95C9F7620F731F11
:102D6000841F951FA01D0895F999FECF92BD81BDC6
:102D7000F89A992780B50895262FF999FECF1FBAA2
:102D800092BD81BD20BD0FB6F894FA9AF99A0FBE94
:102D900001960895052E97FB1EF400940E94E116FB
:102DA00057FD07D00E94FC1607FC03D04EF40C948C
:102DB000E11650954095309521953F4F4F4F5F4F0D
:102DC000089590958095709561957F4F8F4F9F4F97
:102DD00008950E942412A59F900DB49F900DA49F6A
:102DE000800D911D11240895B7FF0C94E9160E94DF
:102DF000E916821B930B0895A1E21A2EAA1BBB1B96
:102E0000FD010DC0AA1FBB1FEE1FFF1FA217B307B6
:102E1000E407F50720F0A21BB30BE40BF50B661FCC
:102E2000771F881F991F1A9469F760957095809590
:102E300090959B01AC01BD01CF010895F894FFCF9F
:102E4000A601AA0105FE04FD04010000006C616CEE
:102E500061006D6F74696F6E206176616E74203AE7
:102E60002025640A00544F204553434150450069D2
:102E70006C2072656E747265206CC3A020646564FA
:102E8000616E73006D6F74696F6E203A2025640A5D
:102E90000048656164203A2025642C205461696CE7
:102EA000203A2025642C2053697A65203A20256435
:102EB0000A0072622066756C6C00425546464552A7
:102EC0002564203A2025640A00785F6F6C64203AFC
:102ED0002025642C20785F6E6577203A2025640ACF
:022EE0000000F0
:00000001FF
