:100000000C94C7000C94F0000C94F0000C94F000D9
:100010000C94F0000C94F0000C94E3060C94F000A7
:100020000C94F0000C94F0000C94F0000C94A20CD2
:100030000C94F0000C94F0000C94020C0C94F00062
:100040000C94F0000C94F0000C94F0000C94F00070
:100050000C94F0000C94F0000C94F0000C94C40C80
:100060000C94F0000C94F0004907C5071D07140715
:100070001A07A7079C07270E040D040D240E300E47
:10008000200E370E330E3B0EF30DC50D6E616E0064
:10009000696E660000407A10F35A00A0724E18098B
:1000A0000010A5D4E80000E87648170000E40B54DF
:1000B000020000CA9A3B000000E1F50500008096AE
:1000C0009800000040420F000000A08601000000E0
:1000D000102700000000E80300000000640000009A
:1000E00000000A00000000000100000000002C7663
:1000F000D888DC674F0823DFC1DFAE59E1B1B7967E
:10010000E5E3E453C63AE651997696E8E6C28426DA
:10011000EB898C9B62ED407C6FFCEFBC9C9F40F2B6
:10012000BAA56FA5F490055A2AF75C936B6CF96732
:100130006DC11BFCE0E40D47FEF520E6B500D0EDF7
:10014000902E0300943577050080841E080000205F
:100150004E0A000000C80C333333330F986E1283FD
:100160001141EF8D2114893BE65516CFFEE6DB18D1
:10017000D1844B381BF77C1D901DA4BBE424203296
:1001800084725E228100C9F124ECA1E53D2711248F
:100190001FBECFEFD8E0DEBFCDBF14BE0FB6F894C0
:1001A000A895809160008861809360001092600043
:1001B0000FBE11E0A0E0B1E0E8E3F0E302C005907B
:1001C0000D92AA38B107D9F723E0AAE8B1E001C03F
:1001D0001D92AD3FB207E1F70E94E9120C941A1884
:1001E0000C940000CF93E0910001F0910101EA5FCF
:1001F000FD4F108281E00E947E0CE0910001F091A1
:100200000101DF01A150BE4F1D921C9281E080834D
:100210001182CFEFC2830E941605E0910001F09198
:100220000101138EDF01AD55BF4F1C9211961C9238
:1002300011961C921596CC931196CC9311961D9203
:100240001D921D921C9213971D971D921D921D9237
:100250001C92139711971C928091BC039091BD033F
:10026000A091BE03B091BF03EF5FFD4F80839183E8
:10027000A283B3830E947E05E0910001F091010109
:10028000E95FFD4F81E090E0A0E0B0E080839183E2
:10029000A283B383CF9108950F931F93CF93DF93DE
:1002A0008091F2039091F303892B09F418C1E09136
:1002B0000001F09101018091BC039091BD03A091D8
:1002C000BE03B091BF03EF01CA55DF4F488159818A
:1002D0006A817B81481759076A077B0708F43FC08A
:1002E0008181811183C0EA5FFD4F8081813009F4F3
:1002F0008FC08130F0F1823009F4FCC0833049F5C1
:100300008CE491E00E9422170E94C905E09100014F
:10031000F0910101148E158E8091BC039091BD0364
:10032000A091BE03B091BF03E156FF4F80529F4F93
:10033000AF4FBF4F80839183A283B38381E00E943C
:100340007E0CE0910001F0910101EA5FFD4F81E038
:100350008083DF91CF911F910F910C941605DF01DF
:10036000AB55BF4F1C92AF59BE4F1C92818181117A
:100370003DC08DE091E00E94221784E10E947E0C36
:10038000E0910001F09101014091BC035091BD0347
:100390006091BE037091BF03EF5FFD4F808191813B
:1003A000A281B3818096A11DB11D84179507A60770
:1003B000B70778F68091BC039091BD03A091BE036E
:1003C000B091BF0380839183A283B3830E947E0593
:1003D000E0910001F09101018181813009F0B9CFF4
:1003E0001182EA5FFD4F83E08083B3CF0E94140443
:1003F000E0910001F0910101848D90E001968770F9
:100400009927848FEA5FFD4F8081813009F071CF99
:1004100087E191E00E9422178091000190910101F3
:100420004091BC035091BD036091BE037091BF0326
:10043000FC01E156FF4F00811181228133810417B5
:1004400015072607370708F084CF4091BC03509169
:10045000BD036091BE037091BF0340525F4F6F4F69
:100460007F4F4083518362837383EA59FE4F8081BB
:1004700060E0813009F482C081E00E944205E09191
:100480000001F0910101148E158E81E10E947E0C15
:10049000E0910001F09101018181813009F059CF93
:1004A0001182DF01AD55BF4FEC55FF4F9C9180810C
:1004B000981708F04ECF60E083E00E94420585E186
:1004C0000E947E0CE0910001F0910101EA5FFD4F76
:1004D00082E0808380E291E00E9422173ACF60E0C0
:1004E00080E00E94420580E1DF91CF911F910F9142
:1004F0000C947E0C83E291E00E94221760E083E07E
:100500000E9442056BE48BE40E945D08E0910001CB
:10051000F09101018181813009F01BCF11828AE2C3
:1005200091E09F938F930E940C17E0910001F0914E
:100530000101EB5FFD4F80811F928F938FE391E06C
:100540009F938F930E940C1780910001909101015D
:10055000DC01AD55BF4FFC01EC55FF4F0F900F90E4
:100560000F900F900F900F903C912081231708F06F
:10057000F0CEEE59FE4F83E08083EBCE82E00E9406
:1005800042057DCF20910001309101014091BC03D3
:100590005091BD036091BE037091BF03F901E45512
:1005A000FF4F80819181A281B3818096A11DB11DF1
:1005B00084179507A607B70728F0329780818536FC
:1005C00008F4089580E0089521E0892B09F020E0E7
:1005D000822F08958F929F92AF92BF92DF92EF92F7
:1005E000FF920F931F93CF93DF936091000170915F
:1005F0000101AB0141505E4FFA018081918100976A
:1006000009F44CC09C012150310937FD47C0EBE093
:10061000E89FE001E99FD00D1124C655DF4FC60FBA
:10062000D71F8BE0D82E0FEF1FEF8091BC03909166
:10063000BD03A091BE03B091BF038B809C80AD80B1
:10064000BE8088199909AA09BB098197A105B1053E
:10065000F0F0FA01E080F180F1E0EF1AF108DE9CA1
:10066000C001DF9C900D1124860F971FFC01EB54F5
:10067000FF4FDE01BD2C01900D92BA94E1F7FC0111
:10068000EA54FF4F11830083FA01F182E082215086
:1006900031092B972F3FFFEF3F0739F6DF91CF91BD
:1006A0001F910F91FF90EF90DF90BF90AF909F90C0
:1006B0008F900895CF93DF93FC01C0910001D091FA
:1006C00001019D8D292F30E0AE0180E1989F400D02
:1006D000511D1124DA015E969CE001900D929A95CD
:1006E000E1F7FB0180819181A281B381FA0182A7A8
:1006F00093A7A4A7B5A7C9010196877099278D8FE5
:100700002C8D281304C00196877099278C8F81E067
:1007100089838B8D8F5F8B8F1F928F9381E591E003
:100720009F938F930E940C170F900F900F900F9034
:10073000DF91CF910895EF92FF920F931F93CF9384
:10074000DF93E0910001F0910101848D90E001962A
:1007500087709927258D30E08217930739F0DF9154
:10076000CF911F910F91FF90EF900895838D883066
:10077000B1F7138E83E691E00E94221700E010E0AB
:10078000C0E0D0E0CE0182959295907F9827807F3F
:1007900098278A962091000130910101820F931FC2
:1007A0000E944309080F111D2196C430D10551F74D
:1007B0007801F594E794F594E79400E010E0CE0119
:1007C00082959295907F9827807F98278A9620918E
:1007D000000130910101820F931F0E944309080F0D
:1007E000111D2196C830D10551F71595079515951E
:1007F00007951F930F93FF92EF9281E791E09F93EC
:100800008F930E940C178091000190910101FC01CF
:10081000ED55FF4FE082319600830F900F900F90BF
:100820000F900F900F909BCFCF92DF92EF92FF929D
:100830000F931F93CF93DF93E0910001F09101019B
:10084000848D90E1899FE00DF11D1124C68DD0E0CB
:10085000CE010E94E402A0910001B0910101882321
:1008600051F1FD01EB55FF4F8081811102C081E004
:1008700080834091BC035091BD036091BE03709191
:10088000BF03FD01EA55FF4F405C5F4F6F4F7F4F45
:1008900040835183628373835C968C915C9790E074
:1008A0000196877099275D962C915D9730E08217AD
:1008B000930709F458C01296FC9012978D010150CD
:1008C0001E4FF801808191819D012A543F4F40E0E5
:1008D00050E002C04F5F5F4F48175907C1F1255FD5
:1008E0003F4FF9013B9760817181C617D70791F798
:1008F0002BE0249FC001259F900D11248A0F9B1F80
:10090000FC01EA54FF4FD183C0834091BC03509156
:10091000BD036091BE037091BF0332964083518343
:10092000628373833397F082379655968C9190E06B
:10093000A0E0B0E080839183A283B383DF91CF9165
:100940001F910F91FF90EF90DF90CF9008954E315F
:10095000510518F041505109CBCFCA010196F80159
:1009600091838083C5CF5B968C915B97883009F02B
:10097000A2CF5B961C9283E691E00E942217E12CA5
:10098000F12C00E010E0C80182959295907F9827A5
:10099000807F98278A962091000130910101820F73
:1009A000931F0E944309E80EF11C0F5F1F4F043094
:1009B000110549F7F594E794F594E794C12CD12CEF
:1009C000C80182959295907F9827807F98278A9674
:1009D0002091000130910101820F931F0E94430971
:1009E000C80ED11C0F5F1F4F0830110549F7D59471
:1009F000C794D594C794DF92CF92FF92EF9281E78C
:100A000091E09F938F930E940C17A0910001B091E9
:100A10000101FD01ED55FF4FE0823196C0820F903C
:100A20000F900F900F900F900F9045CFCF93DF93C3
:100A3000C0910001D091010118821C868091F203BF
:100A40008B83FE01E150FE4F80818987CE010396A2
:100A50000E94CE0E9E878D87E0910001F0910101EA
:100A600081E08083DF91CF910895E0910001F091C2
:100A700001018081882319F0CF010396089580E059
:100A800090E00895CF93DF93E0910001F091010190
:100A9000EB5FFD4F9081981799F0D62FC82F8230C9
:100AA000D9F0833081F0813001F160E080E00E9474
:100AB0005D08E0910001F0910101EB5FFD4FC08303
:100AC000DF91CF9108950E9462086091F5038091B3
:100AD000F4030E945D08EDCF0E9462086091E2037A
:100AE0006D0F80E00E945D08E4CF0E946208809153
:100AF000F60360E08D0F0E945D08DBCFCF930E946C
:100B0000BC08C82FC370E0910001F0910101EB5FB8
:100B1000FD4F8081CC23B9F0C330A9F0C13039F149
:100B2000823079F00E9462086091E20380E00E94C6
:100B30005D08E0910001F0910101EB5FFD4F82E063
:100B40008083CF9108958330E1F30E946208609121
:100B5000F5038091F4030E945D08E0910001F0919B
:100B60000101EB5FFD4F83E08083CF9108958130D9
:100B700041F30E94620860E08091F6030E945D08E4
:100B8000E0910001F0910101EB5FFD4FC083CF9137
:100B900008950E94BC08E0910001F0910101EB5F13
:100BA000FD4F80FF13C08081823079F00E9462087F
:100BB0006091E20380E00E945D08E0910001F09105
:100BC0000101EB5FFD4F82E08083089580818130D9
:100BD000E1F30E94620860E08091F6030E945D08E4
:100BE000E0910001F0910101EB5FFD4F81E0808316
:100BF0000895089580E090E008950895DF92EF92BF
:100C0000FF920F931F93CF93DF93F89414B817B804
:100C10001AB815B818B81BB8529A5A9A14BC85E07D
:100C200085BD8FEF87BD82E080936E0010928000BB
:100C3000109281002FE83BE03093890020938800D8
:100C400080936F005398239891EA9093B00080931B
:100C5000B1001092B4001092B3008BE080BF83E02B
:100C600080937F0086E080937C0083E880937A0005
:100C700080917A00806480937A0080917A0086FD6A
:100C8000FCCF10927C0083EA80937A0081E080930D
:100C90007B0081E090E00E94B0178F3F11F08093BD
:100CA00066001092C003C1E0C0939903C093DD03B6
:100CB0001092B7031092F10380E990E00E94B01700
:100CC0008093B6038091B603887311F0C093B60386
:100CD0001092E1031092E0038FEF90E09093DF0316
:100CE0008093DE031092BC031092BD031092BE03EA
:100CF0001092BF0381E080938D0182E49FE0909386
:100D0000F0038093EF0380EB90E00E94B017C82FB0
:100D100081EB90E00E94B0172C2F30E0382B3093FD
:100D2000F3032093F20385E090E00E94B0178093D4
:100D3000F60389E090E00E94B0178093E2038CE014
:100D400090E00E94B0178093F40384E190E00E9449
:100D5000B0178093F50351ECE52E53E0F52E0AE928
:100D600013E0C0E2D0E0CE010E94B017D82ECE0131
:100D700001960E94B0172D2D30E0322F2227282B0C
:100D8000F701219331937F01CE01C0960E94B017E5
:100D9000D82ECE01C1960E94B0172D2D30E0322FF3
:100DA0002227282BF801219331938F012296CC33EF
:100DB000D105C9F67894DF91CF911F910F91FF90E3
:100DC000EF90DF9008951F920F920FB60F921124AB
:100DD0008F930FB6F894A8958091600088618093F6
:100DE0006000109260000FBE8F910F900FBE0F90A9
:100DF0001F9018953C01EB0110E099249A9484E02F
:100E0000C82E96E0A92E23E8B22E38E1D32E49E26F
:100E1000E42E90918D01E92FF0E0E730F105C8F75D
:100E2000EC5CFF4F0C941A13112309F4FCC0C09220
:100E30008D0111E0FE010995ECCF8091C003811175
:100E4000EBC0F894A0927C00B0927A0080917A0076
:100E5000806480937A0090917A0096FDFCCF809117
:100E600078009091790078948B3AE2E09E070CF03C
:100E7000EDC08938F2E09F070CF0EFC08736924052
:100E80000CF4CAC0559A549A3B9A3A9A3D983C98A9
:100E9000C0CFF89480B7877F80BF80917A008F772A
:100EA00080937A0014B817B81AB815B818B81BB8D8
:100EB0000FB6F894A895D09260000FBEE092600043
:100EC0008091600080648093600093B7917F94600C
:100ED00093BFF89483B7816083BF7894889583B774
:100EE0008E7F83BF78941092C003529A5A9A809151
:100EF0007A00806880937A0087E592E00197F1F7A5
:100F000000C0000080B7886180BF559A549A3B9A10
:100F10003A9A3D9A3C9AEFE1FEE43197F1F700C02E
:100F200000008091C003811181C0559854983B986E
:100F30003A983D983C986DCF80918B01811141C0CA
:100F40001092B3001092B40010928C0162CF4899B5
:100F5000ECCF559A54983B983A983D983C988FEC32
:100F600097E00197F1F700C00000559854983B981E
:100F70003A983D983C989FEFE1EEF4E09150E040C4
:100F8000F040E1F700C0000044CF559854983B9AD8
:100F90003A9A3D983C98EFECF7E03197F1F700C0B2
:100FA0000000559854983B983A983D983C98FFEF2C
:100FB00021EE84E0F15020408040E1F700C00000C5
:100FC00028CF90918B0180918C01981709F421CF43
:100FD00080918B0180938C0180918B01813009F489
:100FE00050C080918B011092B3009092B400823077
:100FF000D9F19092B3009092B4008FE295E70197F7
:10100000F1F700C000008091F5039091F4039093F4
:10101000B3008093B400FDCE559A549A3B983A9809
:101020003D983C98F6CEF301099501CF559A549A14
:101030003B983A983D983C98FFEF20E782E0F150CA
:1010400020408040E1F700C000006FCF55985498D1
:101050003B9A3A9A3D983C98DCCE559854983B98E8
:101060003A983D9A3C9AD5CEEFE2F5E73197F1F701
:1010700000C000008091E2031092B3008093B4009E
:10108000C8CE9092B3001092B4008FE295E701971A
:10109000F1F700C000008091F6038093B300109236
:1010A000B400B7CE07C0EFECF7E03197F1F700C01E
:1010B000000001970097B9F708958093B3006093FB
:1010C000B40008958FEF8093B3008093B4008FE055
:1010D00090E0EFECF7E03197F1F700C000000197E6
:1010E000C1F708958091C00381111EC0F89487E074
:1010F00080937C0083E880937A0080917A008064FA
:1011000080937A0080917A0086FDFCCF80917800F0
:101110009091790010927C0023EA20937A0021E0DC
:1011200020937B00789408958FEF9FEF089580912E
:10113000C00381111EC0F89488EC80937C0087E87E
:1011400080937A0080917A00806480937A00809105
:101150007A0086FDFCCF8091780090917900109202
:101160007C0023EA20937A0021E020937B0078948E
:1011700008958FEF9FEF08950F931F93CF93DF9301
:10118000E0E0F0E080E003EA11E0D6E0C3E8A1E0AF
:10119000B0E060E870E0F894D0937C00C0937A00EF
:1011A00090917A00906490937A0090917A0096FDE5
:1011B000FCCF2091780030917900217090917A00D5
:1011C000906490937A0090917A0096FDFCCF4091C4
:1011D00078005091790010927C0000937A0010936F
:1011E0007B0078944170241303C06150710999F613
:1011F000222339F09D010E2E01C0220F0A94EAF736
:10120000822B3196E830F10509F0C3CFDF91CF9101
:101210001F910F91089580910201982F990F990FB6
:10122000990F892790918A0121E0290F20938A0143
:10123000282F22952695277082279695969589279F
:101240008093020108958093020108958091C00364
:10125000811116C0F89486E080937C0083E8809327
:101260007A0080917A00806480937A0080917A007D
:1012700086FDFCCF80917800909179007894089554
:101280008FEF9FEF08952F923F924F925F926F9250
:101290007F928F929F92AF92BF92CF92DF92EF9206
:1012A000FF920F931F93CF93DF9300D000D000D015
:1012B000CDB7DEB71C01DC0112960D90BC91A02DBC
:1012C000BE83AD83A438E3E0BE070CF0C9C08091B3
:1012D0009A0390919B038A179B0708F437C10091EA
:1012E0009C0310919D030A171B0708F42FC200915D
:1012F0009E0310919F030A171B0708F42FC2009149
:10130000A0031091A1030A171B0708F42FC2009134
:10131000A2031091A3030A171B0708F42FC2009120
:10132000A4031091A5030A171B0708F4EFC100914D
:10133000A6031091A7030A171B0708F427C2009100
:10134000A8031091A9030A171B0708F427C20091EC
:10135000AA031091AB030A171B0708F427C20091D8
:10136000AC031091AD030A171B0708F427C20091C4
:10137000AE031091AF030A171B0708F427C20091B0
:10138000B0031091B1030A171B0708F423C20091A0
:10139000B2031091B3030A171B0708F423C200918C
:1013A000B4031091B5030A171B0708F423C280E0A9
:1013B00090E0A0EDB0E489839A83AB83BC834CE0DA
:1013C000E42EF12CF701EE0FFF1FE656FC4F808153
:1013D0009181B801681B790B80E090E00E948F1426
:1013E0009B01AC010E947B136B017C01AD81BE812E
:1013F000BD01BB0F880B990B0E9491144B015C013E
:10140000B80180E090E00E948F142B013C012981FB
:101410003A814B815C81C701B6010E941D159B0179
:10142000AC01C301B2010E947A139B01AC01C5015A
:10143000B4010E947A1320E030E040E251E40E94BF
:101440001D150E9459148B01C701B6010E94591441
:10145000AB01BC01C801BA010E940613162F77C068
:10146000DC01CD90DC908091C1039091C2038C157A
:101470009D0508F48CC01FEFE090C303F090C403F7
:10148000EC14FD0408F45EC1E090C503F090C603BF
:10149000EC14FD0408F45EC1E090C703F090C803AB
:1014A000EC14FD0408F45EC1E090C903F090CA0397
:1014B000EC14FD0408F45EC1E090CB03F090CC0383
:1014C000EC14FD0408F4C3C0E090CD03F090CE030B
:1014D000EC14FD0408F456C1E090CF03F090D00363
:1014E000EC14FD0408F456C1E090D103F090D2034F
:1014F000EC14FD0408F456C1E090D303F090D4033B
:10150000EC14FD0408F456C1E090D503F090D60326
:10151000EC14FD0408F456C1E090D703F090D80312
:10152000EC14FD0408F45AC1E090D903F090DA03FA
:10153000EC14FD0408F45AC1E090DB03F090DC03E6
:10154000EC14FD0408F45AC10AE531C010E0ED8145
:10155000FE81ED3BF240FCF481E2810F26960FB64E
:10156000F894DEBF0FBECDBFDF91CF911F910F91D9
:10157000FF90EF90DF90CF90BF90AF909F908F90B3
:101580007F906F905F904F903F902F90089500E074
:1015900081E2800FE3CFD101CD90DC908091C10337
:1015A0009091C2038C159D0508F066CF00E01F3FA7
:1015B00079F3ED81FE81BF01FF0F880B990B0E942B
:1015C00091146B017C01612F70E080E090E00E943B
:1015D0008F144B015C01A701960160E070E081E689
:1015E00094E40E947A139B01AC01C501B4010E94EE
:1015F0001D154B015C01602F70E080E090E00E94BF
:101600008F142B013C0120E030E04FE254E4C7018D
:10161000B6010E947A139B01AC01C301B2010E9482
:101620001D159B01AC01C501B4010E947B1320E094
:1016300030E048E453E40E94E71320E030E044E067
:1016400052E40E947B130E946014862F87CF05E02E
:1016500085E090E0880F991FFC01E154FC4F8081E8
:101660009181B701681B790B80E090E00E948F1494
:101670009B01AC010E947B134B015C01B601DD0CA8
:10168000880B990B0E9491142B013C01B70180E05B
:1016900090E00E948F146B017C01602F70E080E06D
:1016A00090E00E948F1420E030E040E05FE30E9471
:1016B0001D1520E030E0A9010E947B13A5019401D3
:1016C0000E941D159B01AC01C701B6010E947A134F
:1016D0009B01AC01C301B2010E947A1320E030E00B
:1016E00040E251E40E941D150E9459147B01C5017E
:1016F000B4010E945914AB01BC01C701BA010E9498
:101700000613062F6F3F09F052CF26CF65E085E024
:1017100090E07C01F1E0EF1AF10870E080E090E0E9
:101720000E948F1420E030E040E05FE30E941D152E
:1017300020E030E0A9010E947B1369837A838B83C8
:101740009C8340CE01E081E090E084CF61E081E0C5
:1017500090E0DFCF02E082E090E07CCF62E082E0C8
:1017600090E0D7CF03E083E090E074CF63E083E0C4
:1017700090E0CFCF04E084E090E06CCF64E084E0C0
:1017800090E0C7CF06E086E090E064CF66E086E0B8
:1017900090E0BFCF07E087E090E05CCF67E087E0B4
:1017A00090E0B7CF08E088E090E054CF68E088E0B0
:1017B00090E0AFCF09E089E090E04CCF69E089E0AC
:1017C00090E0A7CF0AE08AE090E044CF6AE08AE0A8
:1017D00090E09FCF6BE08BE090E09BCF0BE08BE045
:1017E00090E038CF6CE08CE090E093CF0CE08CE0A0
:1017F00090E030CF6DE08DE090E08BCF0DE08DE09C
:1018000090E028CF1F920F920FB60F9211242F93C2
:101810003F934F935F936F937F938F939F93AF9378
:10182000BF93EF93FF932091E0033091E103809108
:10183000DE039091DF03820F931F9093E103809367
:10184000E0038FEF90E09093DF038093DE038FEF50
:1018500087BD8091BC039091BD03A091BE03B09160
:10186000BF030196A11DB11D8093BC039093BD03DE
:10187000A093BE03B093BF038091C00381110FC03A
:101880008091EF039091F0032091E0033091E10308
:101890008217930720F480918D01843089F0FF91A5
:1018A000EF91BF91AF919F918F917F916F915F91D8
:1018B0004F913F912F910F900FBE0F901F90189551
:1018C000E0910501F09106010995009741F30E940E
:1018D000EA0E811109C00E94D61599279093DF0363
:1018E0008093DE0387BDDBCFE0910301F09104011B
:1018F00009951092E1031092E003D1CF80FF11C04F
:10190000559A81FF11C0549A82FF11C03B9A83FF00
:1019100011C03A9A84FF11C03D9A85FD11C03C98D0
:101920000895559881FDEFCF549882FDEFCF3B98F5
:1019300083FDEFCF3A9884FDEFCF3D9885FFEFCF41
:101940003C9A08951F920F920FB60F9211248F9315
:101950009F9310928100109285001092840081E084
:10196000809399038093DD031092C00310927C0052
:1019700093EA90937A0080937B009F918F910F90D0
:101980000FBE0F901F9018951F920F920FB60F92D7
:1019900011242F933F934F935F936F937F938F9374
:1019A0009F93AF93BF93CF93DF93EF93FF932091D8
:1019B00084003091850041E04093C00380919903F9
:1019C0008823A9F110928500109284004093810031
:1019D0001092F103109299038091DD038823A1F006
:1019E00080917A0086FDFCCF8091780090917900FB
:1019F0009093BB038093BA0381E080937C0093EAC9
:101A000090937A0080937B00FF91EF91DF91CF91CB
:101A1000BF91AF919F918F917F916F915F914F9106
:101A20003F912F910F900FBE0F901F901895C901F5
:101A3000875891098437994008F052C026583109D7
:101A4000A4EFB0E00E942013AA27BB27883091059D
:101A5000A105B10508F47BC0409399038091DD0393
:101A6000811152C08091B703E82FF0E0ED51FC4F97
:101A70009091F10390838F5F8093B7038C3021F6B0
:101A80001092810010928500109284004093DD0333
:101A90001092C003C091ED03D091EE0383EE93E06A
:101AA0000E94CE0EC817D90709F0AECF8091EC0383
:101AB00087FF61C098E7980F933030F053982398D0
:101AC0001092B4001092B30090E0FC01E058F109CC
:101AD000EB30F10508F098CFE55CFF4F0C941A133A
:101AE0001092810010928500109284004093990317
:101AF0004093DD031092C00310927C0083EA809330
:101B00007A0040937B0080CF80917A0086FDFCCFE5
:101B100080917800909179009093B9038093B803F5
:101B200010927C0083EA80937A0081E080937B00AE
:101B30009091F1039923D1F01092810010928500C9
:101B4000109284008093DD031092C0035DCF21E0EA
:101B500030E0F90102C0EE0FFF1F8A95E2F7CF01D6
:101B60009091F103892B8093F1034ECF1092DD0306
:101B70001092B70349CFE0910701F091080168EB9B
:101B800073E083EE93E009953FCF8091E3038230C9
:101B900009F4DDC008F4BAC0833009F4C6C084304B
:101BA00009F0B1C080918B019091E903833009F471
:101BB000E3C08091E80310928C0123E020938B0115
:101BC0008093F4039093F50380918D01863009F49E
:101BD0001BCF539A239A1092B4001092B30086E060
:101BE00080938D0111CF80918D01863099F0539AA9
:101BF000239A1092B4001092B300559854983B98D1
:101C00003A983D983C9810928B0110928C0186E096
:101C100080938D0181E090E09C010090E30302C07D
:101C2000220F331F0A94E2F78091F2039091F3039D
:101C300082239323892B09F086C010928B01E4CE76
:101C400081E080938D01E0CEE0E0F0E009958091A5
:101C50006E008D7F80936E0016BCE0E0F0E7099582
:101C600010928D01D1CE82E080938D01CDCE85E0A2
:101C700080938D01C9CE80918D01833009F4C4CE4B
:101C800080918D01843009F4BFCE539A239A10922B
:101C9000B4001092B30083E080938D01B5CE8091A3
:101CA0008D01863009F0B0CE6091F20380EB90E0B8
:101CB0000E94B8176091F30381EB90E00E94B8177F
:101CC0006091F60385E090E00E94B8176091E2030E
:101CD00089E090E00E94B8176091F4038CE090E0F6
:101CE0000E94B8176091F50384E190E00E94B81754
:101CF000539823981092B4001092B30081E080931F
:101D00008D018091E30381115FCF7ECE882339F26C
:101D10008130C9F78091E4039091E5039093F30338
:101D20008093F20310928B014FCF80918B01823010
:101D300071F18091E70310928C0192E090938B01F6
:101D40008093E20341CF81E080938B015DCE80914F
:101D50008B01813051F08091E60310928C0191E06B
:101D600090938B018093F6032FCF8091E60390919F
:101D7000F6038913F2CF28CF8091F503981319CF7A
:101D80008091E8032091F403821315CF1DCF809139
:101D9000E7039091E2038913CECF16CFFC01AC018B
:101DA000465F5F4F8FEF9FEF21918227082E82952C
:101DB000807F8025092E982F82958F700826869522
:101DC00098278927880F880F880F8025E417F50743
:101DD00059F708950FB6F894A4B12091B6032A2BB1
:101DE00024B921E03091B603203029F0000025B15C
:101DF000232B25B904C000000000000000C0000033
:101E000000000000309525B1232325B92EEA2A953C
:101E1000F1F72BEE30B735FF0AC0A4B93091B60305
:101E2000309525B1232325B90FBE80E00895000029
:101E30002A9581F721E03091B603203029F0000087
:101E400025B1232B25B904C000000000000000C00C
:101E5000000000000000309525B1232325B90000C3
:101E600024E52A95F1F7FC018CE0619170E0660FA2
:101E7000771F616072609AE041E050E09A0126238A
:101E80003723232B3091B603203029F0000025B1F1
:101E9000232B25B904C000000000000000C0000092
:101EA00000000000309525B1232325B9000021E56D
:101EB0002A95F1F7440F551F9A9501F78A95A9F6CF
:101EC00020B7206120BFA4B93091B603309525B169
:101ED000232325B90FBE81E00895A3E1B0E0E3E735
:101EE000FFE00C942F136C014B012A01FC011782B7
:101EF0001682838181FF43C3AE014F5F5F4F3A017A
:101F0000F6019381F40193FD859193FF81914F0137
:101F1000882309F430C3853239F493FD859193FF0A
:101F200081914F01853239F4B60190E00E94D416B8
:101F300052012501E5CF10E0F12C20E02032A0F481
:101F40008B3269F030F4803259F0833269F42061C9
:101F50002CC08D3239F0803339F4216026C02260E4
:101F6000246023C0286021C027FD27C030ED380F32
:101F70003A3078F426FF06C0FAE01F9F300D112496
:101F8000132F13C04AE0F49E300D1124F32E20626B
:101F90000CC08E3221F426FDEEC2206406C08C36C1
:101FA00011F4206802C0883641F4F40193FD859154
:101FB00093FF81914F018111C1CF9BEB980F93301B
:101FC00018F42061805E06C09BE9980F933008F0FA
:101FD00071C12F7E26FF16E02F73322E853619F43D
:101FE0002064322E08C0863621F4F22FF0683F2E8E
:101FF00002C01111115037FE07C01C3350F4EE24FB
:10200000E394E10E27E00BC0183038F027E017E02A
:1020100005C027E04CE3E42E02C0212FE12C520141
:1020200044E0A40EB11CF201608171818281938130
:102030000E2DA3010E94E6152C01098100FF02C0AC
:1020400003FF07C031FC08C032FE09C030E2232E76
:1020500007C02DE2222E04C09BE2292E01C0212CB4
:10206000802F8C7019F0211068C2A8C237FE0FC0F3
:10207000E40C04FF04C08A81813309F4EA941E143D
:1020800074F5F8E0FE1578F588E0E82E2CC036FCF3
:102090002AC0812F90E0841595059CF02CEF421604
:1020A0002FEF520674F0432D4068342E0AC0E2E050
:1020B000F0E0EC0FFD1FE10FF11D8081803319F47A
:1020C00011501111F4CF37FE0EC0EE24E394E10E4F
:1020D000812F90E0481659062CF4141904C0EE2400
:1020E000E39401C010E037FE06C01414150434F464
:1020F000C201019605C085E090E002C081E090E059
:1021000021100196112331F0212F30E02F5F3F4F36
:10211000820F931F2F2D30E08217930714F4F81AC3
:1021200001C0F12C832D897049F4FF2039F0B601EC
:1021300080E290E00E94D416FA94F7CF222029F092
:10214000B601822D90E00E94D41633FC09C0FF2016
:1021500039F0B60180E390E00E94D416FA94F7CFEC
:1021600037FE5AC0942D852D57FE02C090E080E0C6
:10217000292E382E20E030E0A2014E1951095D874A
:102180004C87A201421953095F874E87612F70E087
:1021900044275527461B570B598B488B5FEF251655
:1021A000350649F4B6018EE290E02A8B3B8B0E9403
:1021B000D4163B892A89421453046CF04C855D8502
:1021C0004215530544F4EE85FF85E20FF31FE60D3B
:1021D000F71D818101C080E351E0251A31082F5F8E
:1021E0003F4F48895989241635064CF0B60190E0D6
:1021F0002A8B3B8B0E94D4162A893B89CFCF24148B
:10220000350439F49A81963318F4953311F404FFA8
:1022100081E3B60190E04BC08A81813309F00F7EE3
:10222000B60190E00E94D416111105C034FC18C00C
:1022300085E690E017C0B6018EE290E00E94D416C9
:1022400082E0EE24E394E80EF301E80FF11D8081B3
:10225000B60190E00E94D41611508E2D91F7E6CF72
:1022600085E490E0B6010E94D41657FC05C04114E5
:10227000510439F404FF05C05194419451088DE292
:1022800001C08BE2B60190E00E94D41680E39AE090
:10229000491651042CF08F5F5AE0451A5108F7CFC8
:1022A000B60190E00E94D416B601C201C0960E9409
:1022B000D41657C1833631F0833779F0833509F06E
:1022C00058C021C05201E2E0AE0EB11CF201808183
:1022D000898301E010E0230114C05201F2E0AF0E47
:1022E000B11CF2014080518026FF03C0612F70E0D5
:1022F00002C06FEF7FEFC2012A8B0E94C9168C01CA
:102300002A892F7715C05201F2E0AF0EB11CF201FD
:102310004080518026FF03C0612F70E002C06FEF44
:102320007FEFC2012A8B0E94BE168C012A89206889
:10233000322E23FD1AC08F2D90E008171907A8F43C
:10234000B60180E290E00E94D416FA94F4CFF20134
:1023500037FC859137FE81912F01B60190E00E94F4
:10236000D416F110FA94015011090115110579F7ED
:10237000F8C0843611F0893659F5520127FF09C09B
:10238000F4E0AF0EB11CF201608171818281938112
:102390000AC0F2E0AF0EB11CF20160817181072E1C
:1023A000000C880B990B2F76322E97FF09C0909561
:1023B0008095709561957F4F8F4F9F4F2068322E8B
:1023C0002AE030E0A3010E945217E82EE6183FC031
:1023D000022F853721F40F7E2AE030E01DC0097FEF
:1023E0008F3691F018F4883559F0C5C0803719F050
:1023F000883711F0C0C0006104FF09C0046007C045
:1024000024FF08C0066006C028E030E005C020E1D7
:1024100030E002C020E132E0520107FF09C0F4E0E1
:10242000AF0EB11CF201608171818281938108C07D
:10243000F2E0AF0EB11CF2016081718180E090E0AA
:10244000A3010E945217E82EE6180F77302E36FEB1
:102450000BC0332D3E7FE11650F434FE0AC032FC2F
:1024600008C0332D3E7E05C00E2D332D03C00E2D2A
:1024700001C0012F34FF0CC0FE01EE0DF11D808163
:10248000803311F4397E08C032FF05C00E5F04C0EE
:10249000832F867809F00F5F33FD13C030FF06C02D
:1024A0001E2D0F1518F41F0D101B0F2D0F1568F49E
:1024B000B60180E290E03B8B0E94D4160F5F3B890F
:1024C000F5CF0F1510F4F01A01C0F12C34FF12C033
:1024D000B60180E390E03B8B0E94D4163B8932FF2B
:1024E00017C031FD03C088E790E002C088E590E0A6
:1024F000B6010CC0832F867859F031FF02C08BE201
:1025000001C080E237FD8DE2B60190E00E94D41652
:10251000E11638F4B60180E390E00E94D416115021
:10252000F7CFEA94F301EE0DF11D8081B60190E042
:102530000E94D416E110F5CF14C0F4E0FF1558F551
:1025400084E0F81A33FE1EC0211026C003FF2AC003
:102550000CE810E0F32DF0713F2EF8018491811109
:1025600024C0FF2009F4E5CCB60180E290E00E948F
:10257000D416FA94F6CFF6018681978126C08FEFA4
:102580009FEF23C0B60180E290E00E94D416FA9437
:10259000F110F8CFD9CFF12CB601822D90E00E9436
:1025A000D416D4CF00E910E0D5CF31108052B60157
:1025B00090E00E94D4160F5F1F4FCFCF23E02F155E
:1025C00010F483E0BECFF12CC1CF6396E2E10C940E
:1025D0004B130E94FE05E0910001F0910101148E61
:1025E000158E8AE593E0909308018093070185E3B7
:1025F00095E090930601809305016CE471E082EF11
:1026000090E00E94FA0680E090E0089597FB072E84
:1026100016F4009407D077FD09D00E94661307FCDA
:1026200005D03EF4909581959F4F089570956195E2
:102630007F4F0895EE0FFF1F0590F491E02D099450
:10264000A29FB001B39FC001A39F700D811D1124F3
:10265000911DB29F700D811D1124911D08952F921F
:102660003F924F925F926F927F928F929F92AF9222
:10267000BF92CF92DF92EF92FF920F931F93CF936F
:10268000DF93CDB7DEB7CA1BDB0B0FB6F894DEBF06
:102690000FBECDBF09942A88398848885F846E842C
:1026A0007D848C849B84AA84B984C884DF80EE8076
:1026B000FD800C811B81AA81B981CE0FD11D0FB67F
:1026C000F894DEBF0FBECDBFED010895AA1BBB1B62
:1026D00051E107C0AA1FBB1FA617B70710F0A61B22
:1026E000B70B881F991F5A95A9F780959095BC0143
:1026F000CD0108955058BB27AA270E9492130C942D
:10270000E3140E94D51438F00E94DC1420F039F450
:102710009F3F19F426F40C94D2140EF4E095E7FBD5
:102720000C94CC14E92F0E94F41458F3BA176207E2
:1027300073078407950720F079F4A6F50C94161515
:102740000EF4E0950B2EBA2FA02D0B01B9019001CC
:102750000C01CA01A0011124FF27591B99F0593F10
:1027600050F4503E68F11A16F040A22F232F342F58
:102770004427585FF3CF469537952795A795F040A6
:102780005395C9F77EF41F16BA0B620B730B840BBB
:10279000BAF09150A1F0FF0FBB1F661F771F881F73
:1027A000C2F70EC0BA0F621F731F841F48F48795CB
:1027B00077956795B795F7959E3F08F0B0CF9395BD
:1027C000880F08F09927EE0F9795879508950E9436
:1027D000FB130C94E3140E94DC1458F00E94D514EF
:1027E00040F029F45F3F29F00C94CC1451110C9463
:1027F00017150C94D2140E94F41468F39923B1F3C2
:10280000552391F3951B550BBB27AA276217730716
:10281000840738F09F5F5F4F220F331F441FAA1FAA
:10282000A9F335D00E2E3AF0E0E832D09150504066
:10283000E695001CCAF72BD0FE2F29D0660F771F14
:10284000881FBB1F261737074807AB07B0E809F0FA
:10285000BB0B802DBF01FF2793585F4F3AF09E3F7F
:10286000510578F00C94CC140C9417155F3FE4F3E9
:10287000983ED4F3869577956795B795F7959F5FC2
:10288000C9F7880F911D9695879597F90895E1E00E
:10289000660F771F881FBB1F621773078407BA076D
:1028A00020F0621B730B840BBA0BEE1F88F7E095C8
:1028B00008950E9460146894B1110C94171508953E
:1028C0000E94FC1488F09F5798F0B92F9927B751B0
:1028D000B0F0E1F0660F771F881F991F1AF0BA95C4
:1028E000C9F714C0B13091F00E941615B1E00895F7
:1028F0000C941615672F782F8827B85F39F0B93FE9
:10290000CCF3869577956795B395D9F73EF4909576
:102910008095709561957F4F8F4F9F4F0895E894F4
:1029200009C097FB3EF490958095709561957F4F17
:102930008F4F9F4F9923A9F0F92F96E9BB279395C5
:10294000F695879577956795B795F111F8CFFAF4D5
:10295000BB0F11F460FF1BC06F5F7F4F8F4F9F4F06
:1029600016C0882311F096E911C0772321F09EE864
:10297000872F762F05C0662371F096E8862F70E0CA
:1029800060E02AF09A95660F771F881FDAF7880FA4
:102990009695879597F9089597F99F6780E870E075
:1029A00060E008959FEF80EC089500240A941616C5
:1029B000170618060906089500240A94121613062D
:1029C000140605060895092E0394000C11F48823BB
:1029D00052F0BB0F40F4BF2B11F460FF04C06F5FD7
:1029E0007F4F8F4F9F4F089557FD9058440F551FAD
:1029F00059F05F3F71F04795880F97FB991F61F081
:102A00009F3F79F087950895121613061406551FF7
:102A1000F2CF4695F1DF08C0161617061806991F63
:102A2000F1CF86957105610508940895E894BB2758
:102A300066277727CB0197F908950E9430150C94EB
:102A4000E3140E94D51438F00E94DC1420F0952382
:102A500011F00C94CC140C94D21411240C9417156E
:102A60000E94F41470F3959FC1F3950F50E0551F29
:102A7000629FF001729FBB27F00DB11D639FAA27D3
:102A8000F00DB11DAA1F649F6627B00DA11D661F22
:102A9000829F2227B00DA11D621F739FB00DA11D43
:102AA000621F839FA00D611D221F749F3327A00DFD
:102AB000611D231F849F600D211D822F762F6A2F99
:102AC00011249F5750409AF0F1F088234AF0EE0FFE
:102AD000FF1FBB1F661F771F881F91505040A9F72B
:102AE0009E3F510580F00C94CC140C9417155F3F59
:102AF000E4F3983ED4F3869577956795B795F79567
:102B0000E7959F5FC1F7FE2B880F911D96958795DE
:102B100097F908958F929F92AF92BF92CF92DF92D2
:102B2000EF92FF92CF93DF93EC01688179818A81E4
:102B30009B81611571058105910521F464E279EDB0
:102B40008BE597E02DE133EF41E050E00E94C6179E
:102B500049015A019B01AC01A7EAB1E40E94E517C3
:102B60006B017C01ACEEB4EFA50194010E94F31758
:102B7000DC01CB018C0D9D1DAE1DBF1DB7FF03C039
:102B80000197A109B04888839983AA83BB839F7763
:102B9000DF91CF91FF90EF90DF90CF90BF90AF90FB
:102BA0009F908F9008950E948A15089589E091E082
:102BB0000E948A150895A0E0B0E0809309019093E7
:102BC0000A01A0930B01B0930C010895283008F07E
:102BD00027E03327DA01990F311D87FD91600096B8
:102BE0006105710539F432602E5F3D9330E32A951B
:102BF000E1F708959F3F30F080387105610509F0D5
:102C00003C5F3C5F3D93913008F08068911DDF93FD
:102C1000CF931F930F93FF92EF92192F987F969562
:102C2000E92F96959695E90FFF27E251FF4F9927D7
:102C30003327EE24FF24A701E701059008940794A9
:102C400028F4360FE71EF81E491F511D660F771F27
:102C5000881F991F0694A1F70590079428F4E70EA2
:102C6000F81E491F561FC11D770F881F991F661F29
:102C70000694A1F70590079428F4F80E491F561FF3
:102C8000C71FD11D880F991F661F771F0694A1F7D4
:102C90000590079420F4490F561FC71FD81F990F9E
:102CA000661F771F881F0694A9F7849110951770E7
:102CB00041F0D695C79557954795F794E7941A959F
:102CC000C1F7E4E9F0E068941590159135916591AC
:102CD000959105907FE27395E118F10A430B560B2D
:102CE000C90BD009C0F7E10CF11E431F561FC91FC5
:102CF000D01D7EF4703311F48A95E6CFE89401502C
:102D000030F0080F0AF40027021708F4202F23954B
:102D1000022F7A3328F079E37D932A95E9F710C0E2
:102D20007D932A9589F6069497956795379517951B
:102D30001794E118F10A430B560BC90BD00998F010
:102D400023957E9173957A3308F070E37C9320137A
:102D5000B8F77E9170617D9330F0839571E37D9338
:102D600070E32A95E1F71124EF90FF900F911F91E6
:102D7000CF91DF91992787FD90950895FC010590EB
:102D8000615070400110D8F7809590958E0F9F1F6D
:102D90000895FC016150704001900110D8F78095B2
:102DA00090958E0F9F1F08950F931F93CF93DF93DE
:102DB000FB01238121FD03C08FEF9FEF28C022FF7D
:102DC00016C046815781248135814217530744F448
:102DD000A081B1819D012F5F3F4F318320838C9370
:102DE000268137812F5F3F4F3783268310C0EB0149
:102DF000092F182F0084F185E02D0995892BE1F624
:102E00008E819F8101969F838E83812F902FDF91EA
:102E1000CF911F910F910895A0E0B0E0E2E1F7E1BA
:102E20000C943F13AE014B5F5F4FFA0161917191BA
:102E3000AF018091F9039091FA030E946D0FE2E0D7
:102E40000C945B130F931F93CF93DF93E091F903DF
:102E5000F091FA03238121FF1BC08C01D0E0C0E078
:102E6000F80181918F016091F9037091FA03DB0100
:102E70001896ED91FC911997882331F00995892BCB
:102E800079F3DFEFCFEFECCF8AE00995892B19F0CA
:102E90008FEF9FEF02C08D2F9C2FDF91CF911F915D
:102EA0000F910895FA01AA27283051F1203181F1BC
:102EB000E8946F936E7F6E5F7F4F8F4F9F4FAF4F42
:102EC000B1E03ED0B4E03CD0670F781F891F9A1F55
:102ED000A11D680F791F8A1F911DA11D6A0F711D09
:102EE000811D911DA11D20D009F468943F912AE015
:102EF000269F11243019305D3193DEF6CF010895FD
:102F0000462F4770405D4193B3E00FD0C9F7F6CF2D
:102F1000462F4F70405D4A3318F0495D31FD4052F5
:102F2000419302D0A9F7EACFB4E0A695979587958B
:102F300077956795BA95C9F700976105710508956A
:102F40009B01AC010A2E0694579547953795279516
:102F5000BA95C9F7620F731F841F951FA01D0895AE
:102F6000F999FECF92BD81BDF89A992780B5089551
:102F7000262FF999FECF1FBA92BD81BD20BD0FB695
:102F8000F894FA9AF99A0FBE01960895052E97FBC8
:102F90001EF400940E94DD1757FD07D00E94F81719
:102FA00007FC03D04EF40C94DD17509540953095F6
:102FB00021953F4F4F4F5F4F0895909580957095A5
:102FC00061957F4F8F4F9F4F08950E942013A59FBB
:102FD000900DB49F900DA49F800D911D1124089514
:102FE000B7FF0C94E5170E94E517821B930B089519
:102FF000A1E21A2EAA1BBB1BFD010DC0AA1FBB1FFD
:10300000EE1FFF1FA217B307E407F50720F0A21B6E
:10301000B30BE40BF50B661F771F881F991F1A94DB
:1030200069F760957095809590959B01AC01BD0105
:08303000CF010895F894FFCFD1
:103038008E01AAFD05FA05F9050100000053454176
:10304800524348494E4700524F544154494F4E004D
:10305800544F2045534341504500696C2072656EBA
:10306800747265206CC3A020646564616E73006D22
:103078006F74696F6E203A2025640A00494E4954DE
:10308800006370745F6D657373616765203A20250E
:10309800640A006A652072656E74726520696369E6
:1030A80000785F6F6C64203A2025642C20785F6E6E
:0A30B8006577203A2025640A000025
:00000001FF
